{"contracts/SafeProxy.sol":{"SafeProxy":{"abi":[{"inputs":[{"internalType":"address","name":"safeContractV1","type":"address"}],"stateMutability":"nonpayable","type":"constructor"},{"anonymous":false,"inputs":[{"indexed":true,"internalType":"address","name":"owner","type":"address"}],"name":"NewOwner","type":"event"},{"anonymous":false,"inputs":[{"indexed":true,"internalType":"address","name":"implementation","type":"address"}],"name":"Upgraded","type":"event"},{"stateMutability":"payable","type":"fallback"},{"inputs":[],"name":"_getImplementation","outputs":[{"internalType":"address","name":"theSafeContractV2","type":"address"}],"stateMutability":"view","type":"function"},{"inputs":[],"name":"_getOwner","outputs":[{"internalType":"address","name":"theOwnerV1","type":"address"}],"stateMutability":"view","type":"function"},{"inputs":[{"internalType":"address","name":"newImplementation","type":"address"}],"name":"upgradeTo","outputs":[],"stateMutability":"nonpayable","type":"function"},{"stateMutability":"payable","type":"receive"}],"evm":{"bytecode":{"linkReferences":{},"object":"608060405234801561001057600080fd5b5060405161046d38038061046d83398101604081905261002f916100f7565b61003833610047565b6100418161009f565b50610127565b6040516001600160a01b038216907f3edd90e7770f06fafde38004653b33870066c33bfc923ff6102acd601f85dfbc90600090a27fdd92988e442ec1d7d1f04f038e3b4ddf6c4062d4b1f911859f8ab9a7176f58b055565b6040516001600160a01b038216907fbc7cd75a20ee27fd9adebab32041f755214dbc6bffa90cc0225b39da2e5c2d3b90600090a27f7ba17480f3990f0fabef11595b32986f2212bf740a5e7dddf05e094f41b7397255565b60006020828403121561010957600080fd5b81516001600160a01b038116811461012057600080fd5b9392505050565b610337806101366000396000f3fe6080604052600436106100385760003560e01c80633659cfe6146100eb57806342404e071461010d578063f7e6af80146101595761003f565b3661003f57005b6000366060600061006e7f7ba17480f3990f0fabef11595b32986f2212bf740a5e7dddf05e094f41b739725490565b90506000816001600160a01b0316858560405161008c9291906102c1565b600060405180830381855af49150503d80600081146100c7576040519150601f19603f3d011682016040523d82523d6000602084013e6100cc565b606091505b5093509050806100de57825460208401fd5b5050915050805190602001f35b3480156100f757600080fd5b5061010b6101063660046102d1565b61018d565b005b34801561011957600080fd5b507f7ba17480f3990f0fabef11595b32986f2212bf740a5e7dddf05e094f41b73972545b6040516001600160a01b03909116815260200160405180910390f35b34801561016557600080fd5b507fdd92988e442ec1d7d1f04f038e3b4ddf6c4062d4b1f911859f8ab9a7176f58b05461013d565b7fdd92988e442ec1d7d1f04f038e3b4ddf6c4062d4b1f911859f8ab9a7176f58b0805490336001600160a01b03831614610227576040517f08c379a000000000000000000000000000000000000000000000000000000000815260206004820152601460248201527f596f75277265206e6f7420746865206f776e6572000000000000000000000000604482015260640160405180910390fd5b6040516001600160a01b038416907fbc7cd75a20ee27fd9adebab32041f755214dbc6bffa90cc0225b39da2e5c2d3b90600090a261026483610269565b505050565b6040516001600160a01b038216907fbc7cd75a20ee27fd9adebab32041f755214dbc6bffa90cc0225b39da2e5c2d3b90600090a27f7ba17480f3990f0fabef11595b32986f2212bf740a5e7dddf05e094f41b7397255565b8183823760009101908152919050565b6000602082840312156102e357600080fd5b81356001600160a01b03811681146102fa57600080fd5b939250505056fea2646970667358221220942f3a493527c87769a411f4a70856a1b39be04ba5adc964a194b27308e0735564736f6c63430008180033","opcodes":"PUSH1 0x80 PUSH1 0x40 MSTORE CALLVALUE DUP1 ISZERO PUSH2 0x10 JUMPI PUSH1 0x0 DUP1 REVERT JUMPDEST POP PUSH1 0x40 MLOAD PUSH2 0x46D CODESIZE SUB DUP1 PUSH2 0x46D DUP4 CODECOPY DUP2 ADD PUSH1 0x40 DUP2 SWAP1 MSTORE PUSH2 0x2F SWAP2 PUSH2 0xF7 JUMP JUMPDEST PUSH2 0x38 CALLER PUSH2 0x47 JUMP JUMPDEST PUSH2 0x41 DUP2 PUSH2 0x9F JUMP JUMPDEST POP PUSH2 0x127 JUMP JUMPDEST PUSH1 0x40 MLOAD PUSH1 0x1 PUSH1 0x1 PUSH1 0xA0 SHL SUB DUP3 AND SWAP1 PUSH32 0x3EDD90E7770F06FAFDE38004653B33870066C33BFC923FF6102ACD601F85DFBC SWAP1 PUSH1 0x0 SWAP1 LOG2 PUSH32 0xDD92988E442EC1D7D1F04F038E3B4DDF6C4062D4B1F911859F8AB9A7176F58B0 SSTORE JUMP JUMPDEST PUSH1 0x40 MLOAD PUSH1 0x1 PUSH1 0x1 PUSH1 0xA0 SHL SUB DUP3 AND SWAP1 PUSH32 0xBC7CD75A20EE27FD9ADEBAB32041F755214DBC6BFFA90CC0225B39DA2E5C2D3B SWAP1 PUSH1 0x0 SWAP1 LOG2 PUSH32 0x7BA17480F3990F0FABEF11595B32986F2212BF740A5E7DDDF05E094F41B73972 SSTORE JUMP JUMPDEST PUSH1 0x0 PUSH1 0x20 DUP3 DUP5 SUB SLT ISZERO PUSH2 0x109 JUMPI PUSH1 0x0 DUP1 REVERT JUMPDEST DUP2 MLOAD PUSH1 0x1 PUSH1 0x1 PUSH1 0xA0 SHL SUB DUP2 AND DUP2 EQ PUSH2 0x120 JUMPI PUSH1 0x0 DUP1 REVERT JUMPDEST SWAP4 SWAP3 POP POP POP JUMP JUMPDEST PUSH2 0x337 DUP1 PUSH2 0x136 PUSH1 0x0 CODECOPY PUSH1 0x0 RETURN INVALID PUSH1 0x80 PUSH1 0x40 MSTORE PUSH1 0x4 CALLDATASIZE LT PUSH2 0x38 JUMPI PUSH1 0x0 CALLDATALOAD PUSH1 0xE0 SHR DUP1 PUSH4 0x3659CFE6 EQ PUSH2 0xEB JUMPI DUP1 PUSH4 0x42404E07 EQ PUSH2 0x10D JUMPI DUP1 PUSH4 0xF7E6AF80 EQ PUSH2 0x159 JUMPI PUSH2 0x3F JUMP JUMPDEST CALLDATASIZE PUSH2 0x3F JUMPI STOP JUMPDEST PUSH1 0x0 CALLDATASIZE PUSH1 0x60 PUSH1 0x0 PUSH2 0x6E PUSH32 0x7BA17480F3990F0FABEF11595B32986F2212BF740A5E7DDDF05E094F41B73972 SLOAD SWAP1 JUMP JUMPDEST SWAP1 POP PUSH1 0x0 DUP2 PUSH1 0x1 PUSH1 0x1 PUSH1 0xA0 SHL SUB AND DUP6 DUP6 PUSH1 0x40 MLOAD PUSH2 0x8C SWAP3 SWAP2 SWAP1 PUSH2 0x2C1 JUMP JUMPDEST PUSH1 0x0 PUSH1 0x40 MLOAD DUP1 DUP4 SUB DUP2 DUP6 GAS DELEGATECALL SWAP2 POP POP RETURNDATASIZE DUP1 PUSH1 0x0 DUP2 EQ PUSH2 0xC7 JUMPI PUSH1 0x40 MLOAD SWAP2 POP PUSH1 0x1F NOT PUSH1 0x3F RETURNDATASIZE ADD AND DUP3 ADD PUSH1 0x40 MSTORE RETURNDATASIZE DUP3 MSTORE RETURNDATASIZE PUSH1 0x0 PUSH1 0x20 DUP5 ADD RETURNDATACOPY PUSH2 0xCC JUMP JUMPDEST PUSH1 0x60 SWAP2 POP JUMPDEST POP SWAP4 POP SWAP1 POP DUP1 PUSH2 0xDE JUMPI DUP3 SLOAD PUSH1 0x20 DUP5 ADD REVERT JUMPDEST POP POP SWAP2 POP POP DUP1 MLOAD SWAP1 PUSH1 0x20 ADD RETURN JUMPDEST CALLVALUE DUP1 ISZERO PUSH2 0xF7 JUMPI PUSH1 0x0 DUP1 REVERT JUMPDEST POP PUSH2 0x10B PUSH2 0x106 CALLDATASIZE PUSH1 0x4 PUSH2 0x2D1 JUMP JUMPDEST PUSH2 0x18D JUMP JUMPDEST STOP JUMPDEST CALLVALUE DUP1 ISZERO PUSH2 0x119 JUMPI PUSH1 0x0 DUP1 REVERT JUMPDEST POP PUSH32 0x7BA17480F3990F0FABEF11595B32986F2212BF740A5E7DDDF05E094F41B73972 SLOAD JUMPDEST PUSH1 0x40 MLOAD PUSH1 0x1 PUSH1 0x1 PUSH1 0xA0 SHL SUB SWAP1 SWAP2 AND DUP2 MSTORE PUSH1 0x20 ADD PUSH1 0x40 MLOAD DUP1 SWAP2 SUB SWAP1 RETURN JUMPDEST CALLVALUE DUP1 ISZERO PUSH2 0x165 JUMPI PUSH1 0x0 DUP1 REVERT JUMPDEST POP PUSH32 0xDD92988E442EC1D7D1F04F038E3B4DDF6C4062D4B1F911859F8AB9A7176F58B0 SLOAD PUSH2 0x13D JUMP JUMPDEST PUSH32 0xDD92988E442EC1D7D1F04F038E3B4DDF6C4062D4B1F911859F8AB9A7176F58B0 DUP1 SLOAD SWAP1 CALLER PUSH1 0x1 PUSH1 0x1 PUSH1 0xA0 SHL SUB DUP4 AND EQ PUSH2 0x227 JUMPI PUSH1 0x40 MLOAD PUSH32 0x8C379A000000000000000000000000000000000000000000000000000000000 DUP2 MSTORE PUSH1 0x20 PUSH1 0x4 DUP3 ADD MSTORE PUSH1 0x14 PUSH1 0x24 DUP3 ADD MSTORE PUSH32 0x596F75277265206E6F7420746865206F776E6572000000000000000000000000 PUSH1 0x44 DUP3 ADD MSTORE PUSH1 0x64 ADD PUSH1 0x40 MLOAD DUP1 SWAP2 SUB SWAP1 REVERT JUMPDEST PUSH1 0x40 MLOAD PUSH1 0x1 PUSH1 0x1 PUSH1 0xA0 SHL SUB DUP5 AND SWAP1 PUSH32 0xBC7CD75A20EE27FD9ADEBAB32041F755214DBC6BFFA90CC0225B39DA2E5C2D3B SWAP1 PUSH1 0x0 SWAP1 LOG2 PUSH2 0x264 DUP4 PUSH2 0x269 JUMP JUMPDEST POP POP POP JUMP JUMPDEST PUSH1 0x40 MLOAD PUSH1 0x1 PUSH1 0x1 PUSH1 0xA0 SHL SUB DUP3 AND SWAP1 PUSH32 0xBC7CD75A20EE27FD9ADEBAB32041F755214DBC6BFFA90CC0225B39DA2E5C2D3B SWAP1 PUSH1 0x0 SWAP1 LOG2 PUSH32 0x7BA17480F3990F0FABEF11595B32986F2212BF740A5E7DDDF05E094F41B73972 SSTORE JUMP JUMPDEST DUP2 DUP4 DUP3 CALLDATACOPY PUSH1 0x0 SWAP2 ADD SWAP1 DUP2 MSTORE SWAP2 SWAP1 POP JUMP JUMPDEST PUSH1 0x0 PUSH1 0x20 DUP3 DUP5 SUB SLT ISZERO PUSH2 0x2E3 JUMPI PUSH1 0x0 DUP1 REVERT JUMPDEST DUP2 CALLDATALOAD PUSH1 0x1 PUSH1 0x1 PUSH1 0xA0 SHL SUB DUP2 AND DUP2 EQ PUSH2 0x2FA JUMPI PUSH1 0x0 DUP1 REVERT JUMPDEST SWAP4 SWAP3 POP POP POP JUMP INVALID LOG2 PUSH5 0x6970667358 0x22 SLT KECCAK256 SWAP5 0x2F GASPRICE BLOBHASH CALLDATALOAD 0x27 0xC8 PUSH24 0x69A411F4A70856A1B39BE04BA5ADC964A194B27308E07355 PUSH5 0x736F6C6343 STOP ADDMOD XOR STOP CALLER "},"methodIdentifiers":{"_getImplementation()":"42404e07","_getOwner()":"f7e6af80","upgradeTo(address)":"3659cfe6"}}}}}