{
	"data": {
		"bytecode": {
			"linkReferences": {},
			"object": "60e060405234801562000010575f80fd5b506040516200167a3803806200167a833981810160405281019062000036919062000249565b5f73ffffffffffffffffffffffffffffffffffffffff168373ffffffffffffffffffffffffffffffffffffffff16141580156200009f57505f73ffffffffffffffffffffffffffffffffffffffff168273ffffffffffffffffffffffffffffffffffffffff1614155b620000e1576040517f08c379a0000000000000000000000000000000000000000000000000000000008152600401620000d89062000300565b60405180910390fd5b5f811162000126576040517f08c379a00000000000000000000000000000000000000000000000000000000081526004016200011d906200036e565b60405180910390fd5b8273ffffffffffffffffffffffffffffffffffffffff1660808173ffffffffffffffffffffffffffffffffffffffff16815250508173ffffffffffffffffffffffffffffffffffffffff1660a08173ffffffffffffffffffffffffffffffffffffffff16815250508060c081815250505f80819055505f6001819055505050506200038e565b5f80fd5b5f73ffffffffffffffffffffffffffffffffffffffff82169050919050565b5f620001db82620001b0565b9050919050565b620001ed81620001cf565b8114620001f8575f80fd5b50565b5f815190506200020b81620001e2565b92915050565b5f819050919050565b620002258162000211565b811462000230575f80fd5b50565b5f8151905062000243816200021a565b92915050565b5f805f60608486031215620002635762000262620001ac565b5b5f6200027286828701620001fb565b93505060206200028586828701620001fb565b9250506040620002988682870162000233565b9150509250925092565b5f82825260208201905092915050565b7f496e76616c696420746f6b656e206164647265737365730000000000000000005f82015250565b5f620002e8601783620002a2565b9150620002f582620002b2565b602082019050919050565b5f6020820190508181035f8301526200031981620002da565b9050919050565b7f436f6e76657273696f6e2072617465206d75737420626520706f7369746976655f82015250565b5f62000356602083620002a2565b9150620003638262000320565b602082019050919050565b5f6020820190508181035f830152620003878162000348565b9050919050565b60805160a05160c05161126d6200040d5f395f81816105260152610a2a01525f818161033e01528181610493015281816105d80152818161095501528181610a4e0152610a8901525f81816102990152818161040f0152818161043e0152818161055f015281816105b2015281816108b70152610b38015261126d5ff3fe608060405234801561000f575f80fd5b5060043610610091575f3560e01c806368f8c2a41161006457806368f8c2a41461010b5780637a16af7f146101275780637ffdf53e14610143578063d21220a714610161578063dbbdd9351461017f57610091565b80630a861f2a146100955780630dfe1681146100b1578063443cb4bc146100cf5780635a76f25e146100ed575b5f80fd5b6100af60048036038101906100aa9190610c2b565b6101af565b005b6100b961040d565b6040516100c69190610c95565b60405180910390f35b6100d7610431565b6040516100e49190610cbd565b60405180910390f35b6100f5610436565b6040516101029190610cbd565b60405180910390f35b61012560048036038101906101209190610d00565b61043c565b005b610141600480360381019061013c9190610d3e565b6107b9565b005b61014b610a28565b6040516101589190610cbd565b60405180910390f35b610169610a4c565b6040516101769190610c95565b60405180910390f35b61019960048036038101906101949190610d7c565b610a70565b6040516101a69190610cbd565b60405180910390f35b5f81116101f1576040517f08c379a00000000000000000000000000000000000000000000000000000000081526004016101e890610e27565b60405180910390fd5b6101fa33610a70565b81111561023c576040517f08c379a000000000000000000000000000000000000000000000000000000000815260040161023390610e8f565b60405180910390fd5b5f6001545f5461024c9190610eda565b5f54836102599190610f0d565b6102639190610f7b565b90505f6001545f546102759190610eda565b600154846102839190610f0d565b61028d9190610f7b565b90505f821115610334577f000000000000000000000000000000000000000000000000000000000000000073ffffffffffffffffffffffffffffffffffffffff1663a9059cbb33846040518363ffffffff1660e01b81526004016102f2929190610fab565b6020604051808303815f875af115801561030e573d5f803e3d5ffd5b505050506040513d601f19601f820116820180604052508101906103329190611007565b505b5f8111156103d9577f000000000000000000000000000000000000000000000000000000000000000073ffffffffffffffffffffffffffffffffffffffff1663a9059cbb33836040518363ffffffff1660e01b8152600401610397929190610fab565b6020604051808303815f875af11580156103b3573d5f803e3d5ffd5b505050506040513d601f19601f820116820180604052508101906103d79190611007565b505b815f808282546103e99190611032565b925050819055508060015f8282546104019190611032565b92505081905550505050565b7f000000000000000000000000000000000000000000000000000000000000000081565b5f5481565b60015481565b7f000000000000000000000000000000000000000000000000000000000000000073ffffffffffffffffffffffffffffffffffffffff168273ffffffffffffffffffffffffffffffffffffffff1614806104e157507f000000000000000000000000000000000000000000000000000000000000000073ffffffffffffffffffffffffffffffffffffffff168273ffffffffffffffffffffffffffffffffffffffff16145b610520576040517f08c379a0000000000000000000000000000000000000000000000000000000008152600401610517906110af565b60405180910390fd5b5f6127107f0000000000000000000000000000000000000000000000000000000000000000836105509190610f0d565b61055a9190610f7b565b90505f7f000000000000000000000000000000000000000000000000000000000000000073ffffffffffffffffffffffffffffffffffffffff168473ffffffffffffffffffffffffffffffffffffffff16146105d6577f00000000000000000000000000000000000000000000000000000000000000006105f8565b7f00000000000000000000000000000000000000000000000000000000000000005b90505f819050828173ffffffffffffffffffffffffffffffffffffffff166370a08231306040518263ffffffff1660e01b81526004016106389190610c95565b602060405180830381865afa158015610653573d5f803e3d5ffd5b505050506040513d601f19601f8201168201806040525081019061067791906110e1565b10156106b8576040517f08c379a00000000000000000000000000000000000000000000000000000000081526004016106af90610e8f565b60405180910390fd5b8473ffffffffffffffffffffffffffffffffffffffff166323b872dd3330876040518463ffffffff1660e01b81526004016106f59392919061110c565b6020604051808303815f875af1158015610711573d5f803e3d5ffd5b505050506040513d601f19601f820116820180604052508101906107359190611007565b508073ffffffffffffffffffffffffffffffffffffffff1663a9059cbb33856040518363ffffffff1660e01b8152600401610771929190610fab565b6020604051808303815f875af115801561078d573d5f803e3d5ffd5b505050506040513d601f19601f820116820180604052508101906107b19190611007565b505050505050565b5f8211806107c657505f81115b610805576040517f08c379a00000000000000000000000000000000000000000000000000000000081526004016107fc9061118b565b60405180910390fd5b5f80541015801561081857505f60015410155b610857576040517f08c379a000000000000000000000000000000000000000000000000000000000815260040161084e90611219565b60405180910390fd5b5f6001545f54836108689190610f0d565b6108729190610f7b565b90505f8054600154856108859190610f0d565b61088f9190610f7b565b90505f82851061089f57826108a1565b845b90505f8285106108b157826108b3565b845b90507f000000000000000000000000000000000000000000000000000000000000000073ffffffffffffffffffffffffffffffffffffffff166323b872dd3330856040518463ffffffff1660e01b81526004016109129392919061110c565b6020604051808303815f875af115801561092e573d5f803e3d5ffd5b505050506040513d601f19601f820116820180604052508101906109529190611007565b507f000000000000000000000000000000000000000000000000000000000000000073ffffffffffffffffffffffffffffffffffffffff166323b872dd3330846040518463ffffffff1660e01b81526004016109b09392919061110c565b6020604051808303815f875af11580156109cc573d5f803e3d5ffd5b505050506040513d601f19601f820116820180604052508101906109f09190611007565b50815f80828254610a019190610eda565b925050819055508060015f828254610a199190610eda565b92505081905550505050505050565b7f000000000000000000000000000000000000000000000000000000000000000081565b7f000000000000000000000000000000000000000000000000000000000000000081565b5f806001545f54610a819190610eda565b9050600154817f000000000000000000000000000000000000000000000000000000000000000073ffffffffffffffffffffffffffffffffffffffff166370a08231866040518263ffffffff1660e01b8152600401610ae09190610c95565b602060405180830381865afa158015610afb573d5f803e3d5ffd5b505050506040513d601f19601f82011682018060405250810190610b1f91906110e1565b610b299190610f0d565b610b339190610f7b565b5f54827f000000000000000000000000000000000000000000000000000000000000000073ffffffffffffffffffffffffffffffffffffffff166370a08231876040518263ffffffff1660e01b8152600401610b8f9190610c95565b602060405180830381865afa158015610baa573d5f803e3d5ffd5b505050506040513d601f19601f82011682018060405250810190610bce91906110e1565b610bd89190610f0d565b610be29190610f7b565b610bec9190610eda565b915050919050565b5f80fd5b5f819050919050565b610c0a81610bf8565b8114610c14575f80fd5b50565b5f81359050610c2581610c01565b92915050565b5f60208284031215610c4057610c3f610bf4565b5b5f610c4d84828501610c17565b91505092915050565b5f73ffffffffffffffffffffffffffffffffffffffff82169050919050565b5f610c7f82610c56565b9050919050565b610c8f81610c75565b82525050565b5f602082019050610ca85f830184610c86565b92915050565b610cb781610bf8565b82525050565b5f602082019050610cd05f830184610cae565b92915050565b610cdf81610c75565b8114610ce9575f80fd5b50565b5f81359050610cfa81610cd6565b92915050565b5f8060408385031215610d1657610d15610bf4565b5b5f610d2385828601610cec565b9250506020610d3485828601610c17565b9150509250929050565b5f8060408385031215610d5457610d53610bf4565b5b5f610d6185828601610c17565b9250506020610d7285828601610c17565b9150509250929050565b5f60208284031215610d9157610d90610bf4565b5b5f610d9e84828501610cec565b91505092915050565b5f82825260208201905092915050565b7f576974686472617720616d6f756e74206d7573742062652067726561746572205f8201527f7468616e207a65726f0000000000000000000000000000000000000000000000602082015250565b5f610e11602983610da7565b9150610e1c82610db7565b604082019050919050565b5f6020820190508181035f830152610e3e81610e05565b9050919050565b7f496e73756666696369656e74206c6971756964697479000000000000000000005f82015250565b5f610e79601683610da7565b9150610e8482610e45565b602082019050919050565b5f6020820190508181035f830152610ea681610e6d565b9050919050565b7f4e487b71000000000000000000000000000000000000000000000000000000005f52601160045260245ffd5b5f610ee482610bf8565b9150610eef83610bf8565b9250828201905080821115610f0757610f06610ead565b5b92915050565b5f610f1782610bf8565b9150610f2283610bf8565b9250828202610f3081610bf8565b91508282048414831517610f4757610f46610ead565b5b5092915050565b7f4e487b71000000000000000000000000000000000000000000000000000000005f52601260045260245ffd5b5f610f8582610bf8565b9150610f9083610bf8565b925082610fa057610f9f610f4e565b5b828204905092915050565b5f604082019050610fbe5f830185610c86565b610fcb6020830184610cae565b9392505050565b5f8115159050919050565b610fe681610fd2565b8114610ff0575f80fd5b50565b5f8151905061100181610fdd565b92915050565b5f6020828403121561101c5761101b610bf4565b5b5f61102984828501610ff3565b91505092915050565b5f61103c82610bf8565b915061104783610bf8565b925082820390508181111561105f5761105e610ead565b5b92915050565b7f496e76616c696420746f6b656e207479706500000000000000000000000000005f82015250565b5f611099601283610da7565b91506110a482611065565b602082019050919050565b5f6020820190508181035f8301526110c68161108d565b9050919050565b5f815190506110db81610c01565b92915050565b5f602082840312156110f6576110f5610bf4565b5b5f611103848285016110cd565b91505092915050565b5f60608201905061111f5f830186610c86565b61112c6020830185610c86565b6111396040830184610cae565b949350505050565b7f50726f76696465206174206c65617374206f6e6520746f6b656e0000000000005f82015250565b5f611175601a83610da7565b915061118082611141565b602082019050919050565b5f6020820190508181035f8301526111a281611169565b9050919050565b7f5265736572766573206d7573742062652067726561746572207468616e207a655f8201527f726f000000000000000000000000000000000000000000000000000000000000602082015250565b5f611203602283610da7565b915061120e826111a9565b604082019050919050565b5f6020820190508181035f830152611230816111f7565b905091905056fea26469706673582212201a63c0ae9a4597eb00d837bf4bab491591c517b1f87038af72a7e17cbf6b6c2864736f6c63430008180033",
			"opcodes": "PUSH1 0xE0 PUSH1 0x40 MSTORE CALLVALUE DUP1 ISZERO PUSH3 0x10 JUMPI PUSH0 DUP1 REVERT JUMPDEST POP PUSH1 0x40 MLOAD PUSH3 0x167A CODESIZE SUB DUP1 PUSH3 0x167A DUP4 CODECOPY DUP2 DUP2 ADD PUSH1 0x40 MSTORE DUP2 ADD SWAP1 PUSH3 0x36 SWAP2 SWAP1 PUSH3 0x249 JUMP JUMPDEST PUSH0 PUSH20 0xFFFFFFFFFFFFFFFFFFFFFFFFFFFFFFFFFFFFFFFF AND DUP4 PUSH20 0xFFFFFFFFFFFFFFFFFFFFFFFFFFFFFFFFFFFFFFFF AND EQ ISZERO DUP1 ISZERO PUSH3 0x9F JUMPI POP PUSH0 PUSH20 0xFFFFFFFFFFFFFFFFFFFFFFFFFFFFFFFFFFFFFFFF AND DUP3 PUSH20 0xFFFFFFFFFFFFFFFFFFFFFFFFFFFFFFFFFFFFFFFF AND EQ ISZERO JUMPDEST PUSH3 0xE1 JUMPI PUSH1 0x40 MLOAD PUSH32 0x8C379A000000000000000000000000000000000000000000000000000000000 DUP2 MSTORE PUSH1 0x4 ADD PUSH3 0xD8 SWAP1 PUSH3 0x300 JUMP JUMPDEST PUSH1 0x40 MLOAD DUP1 SWAP2 SUB SWAP1 REVERT JUMPDEST PUSH0 DUP2 GT PUSH3 0x126 JUMPI PUSH1 0x40 MLOAD PUSH32 0x8C379A000000000000000000000000000000000000000000000000000000000 DUP2 MSTORE PUSH1 0x4 ADD PUSH3 0x11D SWAP1 PUSH3 0x36E JUMP JUMPDEST PUSH1 0x40 MLOAD DUP1 SWAP2 SUB SWAP1 REVERT JUMPDEST DUP3 PUSH20 0xFFFFFFFFFFFFFFFFFFFFFFFFFFFFFFFFFFFFFFFF AND PUSH1 0x80 DUP2 PUSH20 0xFFFFFFFFFFFFFFFFFFFFFFFFFFFFFFFFFFFFFFFF AND DUP2 MSTORE POP POP DUP2 PUSH20 0xFFFFFFFFFFFFFFFFFFFFFFFFFFFFFFFFFFFFFFFF AND PUSH1 0xA0 DUP2 PUSH20 0xFFFFFFFFFFFFFFFFFFFFFFFFFFFFFFFFFFFFFFFF AND DUP2 MSTORE POP POP DUP1 PUSH1 0xC0 DUP2 DUP2 MSTORE POP POP PUSH0 DUP1 DUP2 SWAP1 SSTORE POP PUSH0 PUSH1 0x1 DUP2 SWAP1 SSTORE POP POP POP POP PUSH3 0x38E JUMP JUMPDEST PUSH0 DUP1 REVERT JUMPDEST PUSH0 PUSH20 0xFFFFFFFFFFFFFFFFFFFFFFFFFFFFFFFFFFFFFFFF DUP3 AND SWAP1 POP SWAP2 SWAP1 POP JUMP JUMPDEST PUSH0 PUSH3 0x1DB DUP3 PUSH3 0x1B0 JUMP JUMPDEST SWAP1 POP SWAP2 SWAP1 POP JUMP JUMPDEST PUSH3 0x1ED DUP2 PUSH3 0x1CF JUMP JUMPDEST DUP2 EQ PUSH3 0x1F8 JUMPI PUSH0 DUP1 REVERT JUMPDEST POP JUMP JUMPDEST PUSH0 DUP2 MLOAD SWAP1 POP PUSH3 0x20B DUP2 PUSH3 0x1E2 JUMP JUMPDEST SWAP3 SWAP2 POP POP JUMP JUMPDEST PUSH0 DUP2 SWAP1 POP SWAP2 SWAP1 POP JUMP JUMPDEST PUSH3 0x225 DUP2 PUSH3 0x211 JUMP JUMPDEST DUP2 EQ PUSH3 0x230 JUMPI PUSH0 DUP1 REVERT JUMPDEST POP JUMP JUMPDEST PUSH0 DUP2 MLOAD SWAP1 POP PUSH3 0x243 DUP2 PUSH3 0x21A JUMP JUMPDEST SWAP3 SWAP2 POP POP JUMP JUMPDEST PUSH0 DUP1 PUSH0 PUSH1 0x60 DUP5 DUP7 SUB SLT ISZERO PUSH3 0x263 JUMPI PUSH3 0x262 PUSH3 0x1AC JUMP JUMPDEST JUMPDEST PUSH0 PUSH3 0x272 DUP7 DUP3 DUP8 ADD PUSH3 0x1FB JUMP JUMPDEST SWAP4 POP POP PUSH1 0x20 PUSH3 0x285 DUP7 DUP3 DUP8 ADD PUSH3 0x1FB JUMP JUMPDEST SWAP3 POP POP PUSH1 0x40 PUSH3 0x298 DUP7 DUP3 DUP8 ADD PUSH3 0x233 JUMP JUMPDEST SWAP2 POP POP SWAP3 POP SWAP3 POP SWAP3 JUMP JUMPDEST PUSH0 DUP3 DUP3 MSTORE PUSH1 0x20 DUP3 ADD SWAP1 POP SWAP3 SWAP2 POP POP JUMP JUMPDEST PUSH32 0x496E76616C696420746F6B656E20616464726573736573000000000000000000 PUSH0 DUP3 ADD MSTORE POP JUMP JUMPDEST PUSH0 PUSH3 0x2E8 PUSH1 0x17 DUP4 PUSH3 0x2A2 JUMP JUMPDEST SWAP2 POP PUSH3 0x2F5 DUP3 PUSH3 0x2B2 JUMP JUMPDEST PUSH1 0x20 DUP3 ADD SWAP1 POP SWAP2 SWAP1 POP JUMP JUMPDEST PUSH0 PUSH1 0x20 DUP3 ADD SWAP1 POP DUP2 DUP2 SUB PUSH0 DUP4 ADD MSTORE PUSH3 0x319 DUP2 PUSH3 0x2DA JUMP JUMPDEST SWAP1 POP SWAP2 SWAP1 POP JUMP JUMPDEST PUSH32 0x436F6E76657273696F6E2072617465206D75737420626520706F736974697665 PUSH0 DUP3 ADD MSTORE POP JUMP JUMPDEST PUSH0 PUSH3 0x356 PUSH1 0x20 DUP4 PUSH3 0x2A2 JUMP JUMPDEST SWAP2 POP PUSH3 0x363 DUP3 PUSH3 0x320 JUMP JUMPDEST PUSH1 0x20 DUP3 ADD SWAP1 POP SWAP2 SWAP1 POP JUMP JUMPDEST PUSH0 PUSH1 0x20 DUP3 ADD SWAP1 POP DUP2 DUP2 SUB PUSH0 DUP4 ADD MSTORE PUSH3 0x387 DUP2 PUSH3 0x348 JUMP JUMPDEST SWAP1 POP SWAP2 SWAP1 POP JUMP JUMPDEST PUSH1 0x80 MLOAD PUSH1 0xA0 MLOAD PUSH1 0xC0 MLOAD PUSH2 0x126D PUSH3 0x40D PUSH0 CODECOPY PUSH0 DUP2 DUP2 PUSH2 0x526 ADD MSTORE PUSH2 0xA2A ADD MSTORE PUSH0 DUP2 DUP2 PUSH2 0x33E ADD MSTORE DUP2 DUP2 PUSH2 0x493 ADD MSTORE DUP2 DUP2 PUSH2 0x5D8 ADD MSTORE DUP2 DUP2 PUSH2 0x955 ADD MSTORE DUP2 DUP2 PUSH2 0xA4E ADD MSTORE PUSH2 0xA89 ADD MSTORE PUSH0 DUP2 DUP2 PUSH2 0x299 ADD MSTORE DUP2 DUP2 PUSH2 0x40F ADD MSTORE DUP2 DUP2 PUSH2 0x43E ADD MSTORE DUP2 DUP2 PUSH2 0x55F ADD MSTORE DUP2 DUP2 PUSH2 0x5B2 ADD MSTORE DUP2 DUP2 PUSH2 0x8B7 ADD MSTORE PUSH2 0xB38 ADD MSTORE PUSH2 0x126D PUSH0 RETURN INVALID PUSH1 0x80 PUSH1 0x40 MSTORE CALLVALUE DUP1 ISZERO PUSH2 0xF JUMPI PUSH0 DUP1 REVERT JUMPDEST POP PUSH1 0x4 CALLDATASIZE LT PUSH2 0x91 JUMPI PUSH0 CALLDATALOAD PUSH1 0xE0 SHR DUP1 PUSH4 0x68F8C2A4 GT PUSH2 0x64 JUMPI DUP1 PUSH4 0x68F8C2A4 EQ PUSH2 0x10B JUMPI DUP1 PUSH4 0x7A16AF7F EQ PUSH2 0x127 JUMPI DUP1 PUSH4 0x7FFDF53E EQ PUSH2 0x143 JUMPI DUP1 PUSH4 0xD21220A7 EQ PUSH2 0x161 JUMPI DUP1 PUSH4 0xDBBDD935 EQ PUSH2 0x17F JUMPI PUSH2 0x91 JUMP JUMPDEST DUP1 PUSH4 0xA861F2A EQ PUSH2 0x95 JUMPI DUP1 PUSH4 0xDFE1681 EQ PUSH2 0xB1 JUMPI DUP1 PUSH4 0x443CB4BC EQ PUSH2 0xCF JUMPI DUP1 PUSH4 0x5A76F25E EQ PUSH2 0xED JUMPI JUMPDEST PUSH0 DUP1 REVERT JUMPDEST PUSH2 0xAF PUSH1 0x4 DUP1 CALLDATASIZE SUB DUP2 ADD SWAP1 PUSH2 0xAA SWAP2 SWAP1 PUSH2 0xC2B JUMP JUMPDEST PUSH2 0x1AF JUMP JUMPDEST STOP JUMPDEST PUSH2 0xB9 PUSH2 0x40D JUMP JUMPDEST PUSH1 0x40 MLOAD PUSH2 0xC6 SWAP2 SWAP1 PUSH2 0xC95 JUMP JUMPDEST PUSH1 0x40 MLOAD DUP1 SWAP2 SUB SWAP1 RETURN JUMPDEST PUSH2 0xD7 PUSH2 0x431 JUMP JUMPDEST PUSH1 0x40 MLOAD PUSH2 0xE4 SWAP2 SWAP1 PUSH2 0xCBD JUMP JUMPDEST PUSH1 0x40 MLOAD DUP1 SWAP2 SUB SWAP1 RETURN JUMPDEST PUSH2 0xF5 PUSH2 0x436 JUMP JUMPDEST PUSH1 0x40 MLOAD PUSH2 0x102 SWAP2 SWAP1 PUSH2 0xCBD JUMP JUMPDEST PUSH1 0x40 MLOAD DUP1 SWAP2 SUB SWAP1 RETURN JUMPDEST PUSH2 0x125 PUSH1 0x4 DUP1 CALLDATASIZE SUB DUP2 ADD SWAP1 PUSH2 0x120 SWAP2 SWAP1 PUSH2 0xD00 JUMP JUMPDEST PUSH2 0x43C JUMP JUMPDEST STOP JUMPDEST PUSH2 0x141 PUSH1 0x4 DUP1 CALLDATASIZE SUB DUP2 ADD SWAP1 PUSH2 0x13C SWAP2 SWAP1 PUSH2 0xD3E JUMP JUMPDEST PUSH2 0x7B9 JUMP JUMPDEST STOP JUMPDEST PUSH2 0x14B PUSH2 0xA28 JUMP JUMPDEST PUSH1 0x40 MLOAD PUSH2 0x158 SWAP2 SWAP1 PUSH2 0xCBD JUMP JUMPDEST PUSH1 0x40 MLOAD DUP1 SWAP2 SUB SWAP1 RETURN JUMPDEST PUSH2 0x169 PUSH2 0xA4C JUMP JUMPDEST PUSH1 0x40 MLOAD PUSH2 0x176 SWAP2 SWAP1 PUSH2 0xC95 JUMP JUMPDEST PUSH1 0x40 MLOAD DUP1 SWAP2 SUB SWAP1 RETURN JUMPDEST PUSH2 0x199 PUSH1 0x4 DUP1 CALLDATASIZE SUB DUP2 ADD SWAP1 PUSH2 0x194 SWAP2 SWAP1 PUSH2 0xD7C JUMP JUMPDEST PUSH2 0xA70 JUMP JUMPDEST PUSH1 0x40 MLOAD PUSH2 0x1A6 SWAP2 SWAP1 PUSH2 0xCBD JUMP JUMPDEST PUSH1 0x40 MLOAD DUP1 SWAP2 SUB SWAP1 RETURN JUMPDEST PUSH0 DUP2 GT PUSH2 0x1F1 JUMPI PUSH1 0x40 MLOAD PUSH32 0x8C379A000000000000000000000000000000000000000000000000000000000 DUP2 MSTORE PUSH1 0x4 ADD PUSH2 0x1E8 SWAP1 PUSH2 0xE27 JUMP JUMPDEST PUSH1 0x40 MLOAD DUP1 SWAP2 SUB SWAP1 REVERT JUMPDEST PUSH2 0x1FA CALLER PUSH2 0xA70 JUMP JUMPDEST DUP2 GT ISZERO PUSH2 0x23C JUMPI PUSH1 0x40 MLOAD PUSH32 0x8C379A000000000000000000000000000000000000000000000000000000000 DUP2 MSTORE PUSH1 0x4 ADD PUSH2 0x233 SWAP1 PUSH2 0xE8F JUMP JUMPDEST PUSH1 0x40 MLOAD DUP1 SWAP2 SUB SWAP1 REVERT JUMPDEST PUSH0 PUSH1 0x1 SLOAD PUSH0 SLOAD PUSH2 0x24C SWAP2 SWAP1 PUSH2 0xEDA JUMP JUMPDEST PUSH0 SLOAD DUP4 PUSH2 0x259 SWAP2 SWAP1 PUSH2 0xF0D JUMP JUMPDEST PUSH2 0x263 SWAP2 SWAP1 PUSH2 0xF7B JUMP JUMPDEST SWAP1 POP PUSH0 PUSH1 0x1 SLOAD PUSH0 SLOAD PUSH2 0x275 SWAP2 SWAP1 PUSH2 0xEDA JUMP JUMPDEST PUSH1 0x1 SLOAD DUP5 PUSH2 0x283 SWAP2 SWAP1 PUSH2 0xF0D JUMP JUMPDEST PUSH2 0x28D SWAP2 SWAP1 PUSH2 0xF7B JUMP JUMPDEST SWAP1 POP PUSH0 DUP3 GT ISZERO PUSH2 0x334 JUMPI PUSH32 0x0 PUSH20 0xFFFFFFFFFFFFFFFFFFFFFFFFFFFFFFFFFFFFFFFF AND PUSH4 0xA9059CBB CALLER DUP5 PUSH1 0x40 MLOAD DUP4 PUSH4 0xFFFFFFFF AND PUSH1 0xE0 SHL DUP2 MSTORE PUSH1 0x4 ADD PUSH2 0x2F2 SWAP3 SWAP2 SWAP1 PUSH2 0xFAB JUMP JUMPDEST PUSH1 0x20 PUSH1 0x40 MLOAD DUP1 DUP4 SUB DUP2 PUSH0 DUP8 GAS CALL ISZERO DUP1 ISZERO PUSH2 0x30E JUMPI RETURNDATASIZE PUSH0 DUP1 RETURNDATACOPY RETURNDATASIZE PUSH0 REVERT JUMPDEST POP POP POP POP PUSH1 0x40 MLOAD RETURNDATASIZE PUSH1 0x1F NOT PUSH1 0x1F DUP3 ADD AND DUP3 ADD DUP1 PUSH1 0x40 MSTORE POP DUP2 ADD SWAP1 PUSH2 0x332 SWAP2 SWAP1 PUSH2 0x1007 JUMP JUMPDEST POP JUMPDEST PUSH0 DUP2 GT ISZERO PUSH2 0x3D9 JUMPI PUSH32 0x0 PUSH20 0xFFFFFFFFFFFFFFFFFFFFFFFFFFFFFFFFFFFFFFFF AND PUSH4 0xA9059CBB CALLER DUP4 PUSH1 0x40 MLOAD DUP4 PUSH4 0xFFFFFFFF AND PUSH1 0xE0 SHL DUP2 MSTORE PUSH1 0x4 ADD PUSH2 0x397 SWAP3 SWAP2 SWAP1 PUSH2 0xFAB JUMP JUMPDEST PUSH1 0x20 PUSH1 0x40 MLOAD DUP1 DUP4 SUB DUP2 PUSH0 DUP8 GAS CALL ISZERO DUP1 ISZERO PUSH2 0x3B3 JUMPI RETURNDATASIZE PUSH0 DUP1 RETURNDATACOPY RETURNDATASIZE PUSH0 REVERT JUMPDEST POP POP POP POP PUSH1 0x40 MLOAD RETURNDATASIZE PUSH1 0x1F NOT PUSH1 0x1F DUP3 ADD AND DUP3 ADD DUP1 PUSH1 0x40 MSTORE POP DUP2 ADD SWAP1 PUSH2 0x3D7 SWAP2 SWAP1 PUSH2 0x1007 JUMP JUMPDEST POP JUMPDEST DUP2 PUSH0 DUP1 DUP3 DUP3 SLOAD PUSH2 0x3E9 SWAP2 SWAP1 PUSH2 0x1032 JUMP JUMPDEST SWAP3 POP POP DUP2 SWAP1 SSTORE POP DUP1 PUSH1 0x1 PUSH0 DUP3 DUP3 SLOAD PUSH2 0x401 SWAP2 SWAP1 PUSH2 0x1032 JUMP JUMPDEST SWAP3 POP POP DUP2 SWAP1 SSTORE POP POP POP POP JUMP JUMPDEST PUSH32 0x0 DUP2 JUMP JUMPDEST PUSH0 SLOAD DUP2 JUMP JUMPDEST PUSH1 0x1 SLOAD DUP2 JUMP JUMPDEST PUSH32 0x0 PUSH20 0xFFFFFFFFFFFFFFFFFFFFFFFFFFFFFFFFFFFFFFFF AND DUP3 PUSH20 0xFFFFFFFFFFFFFFFFFFFFFFFFFFFFFFFFFFFFFFFF AND EQ DUP1 PUSH2 0x4E1 JUMPI POP PUSH32 0x0 PUSH20 0xFFFFFFFFFFFFFFFFFFFFFFFFFFFFFFFFFFFFFFFF AND DUP3 PUSH20 0xFFFFFFFFFFFFFFFFFFFFFFFFFFFFFFFFFFFFFFFF AND EQ JUMPDEST PUSH2 0x520 JUMPI PUSH1 0x40 MLOAD PUSH32 0x8C379A000000000000000000000000000000000000000000000000000000000 DUP2 MSTORE PUSH1 0x4 ADD PUSH2 0x517 SWAP1 PUSH2 0x10AF JUMP JUMPDEST PUSH1 0x40 MLOAD DUP1 SWAP2 SUB SWAP1 REVERT JUMPDEST PUSH0 PUSH2 0x2710 PUSH32 0x0 DUP4 PUSH2 0x550 SWAP2 SWAP1 PUSH2 0xF0D JUMP JUMPDEST PUSH2 0x55A SWAP2 SWAP1 PUSH2 0xF7B JUMP JUMPDEST SWAP1 POP PUSH0 PUSH32 0x0 PUSH20 0xFFFFFFFFFFFFFFFFFFFFFFFFFFFFFFFFFFFFFFFF AND DUP5 PUSH20 0xFFFFFFFFFFFFFFFFFFFFFFFFFFFFFFFFFFFFFFFF AND EQ PUSH2 0x5D6 JUMPI PUSH32 0x0 PUSH2 0x5F8 JUMP JUMPDEST PUSH32 0x0 JUMPDEST SWAP1 POP PUSH0 DUP2 SWAP1 POP DUP3 DUP2 PUSH20 0xFFFFFFFFFFFFFFFFFFFFFFFFFFFFFFFFFFFFFFFF AND PUSH4 0x70A08231 ADDRESS PUSH1 0x40 MLOAD DUP3 PUSH4 0xFFFFFFFF AND PUSH1 0xE0 SHL DUP2 MSTORE PUSH1 0x4 ADD PUSH2 0x638 SWAP2 SWAP1 PUSH2 0xC95 JUMP JUMPDEST PUSH1 0x20 PUSH1 0x40 MLOAD DUP1 DUP4 SUB DUP2 DUP7 GAS STATICCALL ISZERO DUP1 ISZERO PUSH2 0x653 JUMPI RETURNDATASIZE PUSH0 DUP1 RETURNDATACOPY RETURNDATASIZE PUSH0 REVERT JUMPDEST POP POP POP POP PUSH1 0x40 MLOAD RETURNDATASIZE PUSH1 0x1F NOT PUSH1 0x1F DUP3 ADD AND DUP3 ADD DUP1 PUSH1 0x40 MSTORE POP DUP2 ADD SWAP1 PUSH2 0x677 SWAP2 SWAP1 PUSH2 0x10E1 JUMP JUMPDEST LT ISZERO PUSH2 0x6B8 JUMPI PUSH1 0x40 MLOAD PUSH32 0x8C379A000000000000000000000000000000000000000000000000000000000 DUP2 MSTORE PUSH1 0x4 ADD PUSH2 0x6AF SWAP1 PUSH2 0xE8F JUMP JUMPDEST PUSH1 0x40 MLOAD DUP1 SWAP2 SUB SWAP1 REVERT JUMPDEST DUP5 PUSH20 0xFFFFFFFFFFFFFFFFFFFFFFFFFFFFFFFFFFFFFFFF AND PUSH4 0x23B872DD CALLER ADDRESS DUP8 PUSH1 0x40 MLOAD DUP5 PUSH4 0xFFFFFFFF AND PUSH1 0xE0 SHL DUP2 MSTORE PUSH1 0x4 ADD PUSH2 0x6F5 SWAP4 SWAP3 SWAP2 SWAP1 PUSH2 0x110C JUMP JUMPDEST PUSH1 0x20 PUSH1 0x40 MLOAD DUP1 DUP4 SUB DUP2 PUSH0 DUP8 GAS CALL ISZERO DUP1 ISZERO PUSH2 0x711 JUMPI RETURNDATASIZE PUSH0 DUP1 RETURNDATACOPY RETURNDATASIZE PUSH0 REVERT JUMPDEST POP POP POP POP PUSH1 0x40 MLOAD RETURNDATASIZE PUSH1 0x1F NOT PUSH1 0x1F DUP3 ADD AND DUP3 ADD DUP1 PUSH1 0x40 MSTORE POP DUP2 ADD SWAP1 PUSH2 0x735 SWAP2 SWAP1 PUSH2 0x1007 JUMP JUMPDEST POP DUP1 PUSH20 0xFFFFFFFFFFFFFFFFFFFFFFFFFFFFFFFFFFFFFFFF AND PUSH4 0xA9059CBB CALLER DUP6 PUSH1 0x40 MLOAD DUP4 PUSH4 0xFFFFFFFF AND PUSH1 0xE0 SHL DUP2 MSTORE PUSH1 0x4 ADD PUSH2 0x771 SWAP3 SWAP2 SWAP1 PUSH2 0xFAB JUMP JUMPDEST PUSH1 0x20 PUSH1 0x40 MLOAD DUP1 DUP4 SUB DUP2 PUSH0 DUP8 GAS CALL ISZERO DUP1 ISZERO PUSH2 0x78D JUMPI RETURNDATASIZE PUSH0 DUP1 RETURNDATACOPY RETURNDATASIZE PUSH0 REVERT JUMPDEST POP POP POP POP PUSH1 0x40 MLOAD RETURNDATASIZE PUSH1 0x1F NOT PUSH1 0x1F DUP3 ADD AND DUP3 ADD DUP1 PUSH1 0x40 MSTORE POP DUP2 ADD SWAP1 PUSH2 0x7B1 SWAP2 SWAP1 PUSH2 0x1007 JUMP JUMPDEST POP POP POP POP POP POP JUMP JUMPDEST PUSH0 DUP3 GT DUP1 PUSH2 0x7C6 JUMPI POP PUSH0 DUP2 GT JUMPDEST PUSH2 0x805 JUMPI PUSH1 0x40 MLOAD PUSH32 0x8C379A000000000000000000000000000000000000000000000000000000000 DUP2 MSTORE PUSH1 0x4 ADD PUSH2 0x7FC SWAP1 PUSH2 0x118B JUMP JUMPDEST PUSH1 0x40 MLOAD DUP1 SWAP2 SUB SWAP1 REVERT JUMPDEST PUSH0 DUP1 SLOAD LT ISZERO DUP1 ISZERO PUSH2 0x818 JUMPI POP PUSH0 PUSH1 0x1 SLOAD LT ISZERO JUMPDEST PUSH2 0x857 JUMPI PUSH1 0x40 MLOAD PUSH32 0x8C379A000000000000000000000000000000000000000000000000000000000 DUP2 MSTORE PUSH1 0x4 ADD PUSH2 0x84E SWAP1 PUSH2 0x1219 JUMP JUMPDEST PUSH1 0x40 MLOAD DUP1 SWAP2 SUB SWAP1 REVERT JUMPDEST PUSH0 PUSH1 0x1 SLOAD PUSH0 SLOAD DUP4 PUSH2 0x868 SWAP2 SWAP1 PUSH2 0xF0D JUMP JUMPDEST PUSH2 0x872 SWAP2 SWAP1 PUSH2 0xF7B JUMP JUMPDEST SWAP1 POP PUSH0 DUP1 SLOAD PUSH1 0x1 SLOAD DUP6 PUSH2 0x885 SWAP2 SWAP1 PUSH2 0xF0D JUMP JUMPDEST PUSH2 0x88F SWAP2 SWAP1 PUSH2 0xF7B JUMP JUMPDEST SWAP1 POP PUSH0 DUP3 DUP6 LT PUSH2 0x89F JUMPI DUP3 PUSH2 0x8A1 JUMP JUMPDEST DUP5 JUMPDEST SWAP1 POP PUSH0 DUP3 DUP6 LT PUSH2 0x8B1 JUMPI DUP3 PUSH2 0x8B3 JUMP JUMPDEST DUP5 JUMPDEST SWAP1 POP PUSH32 0x0 PUSH20 0xFFFFFFFFFFFFFFFFFFFFFFFFFFFFFFFFFFFFFFFF AND PUSH4 0x23B872DD CALLER ADDRESS DUP6 PUSH1 0x40 MLOAD DUP5 PUSH4 0xFFFFFFFF AND PUSH1 0xE0 SHL DUP2 MSTORE PUSH1 0x4 ADD PUSH2 0x912 SWAP4 SWAP3 SWAP2 SWAP1 PUSH2 0x110C JUMP JUMPDEST PUSH1 0x20 PUSH1 0x40 MLOAD DUP1 DUP4 SUB DUP2 PUSH0 DUP8 GAS CALL ISZERO DUP1 ISZERO PUSH2 0x92E JUMPI RETURNDATASIZE PUSH0 DUP1 RETURNDATACOPY RETURNDATASIZE PUSH0 REVERT JUMPDEST POP POP POP POP PUSH1 0x40 MLOAD RETURNDATASIZE PUSH1 0x1F NOT PUSH1 0x1F DUP3 ADD AND DUP3 ADD DUP1 PUSH1 0x40 MSTORE POP DUP2 ADD SWAP1 PUSH2 0x952 SWAP2 SWAP1 PUSH2 0x1007 JUMP JUMPDEST POP PUSH32 0x0 PUSH20 0xFFFFFFFFFFFFFFFFFFFFFFFFFFFFFFFFFFFFFFFF AND PUSH4 0x23B872DD CALLER ADDRESS DUP5 PUSH1 0x40 MLOAD DUP5 PUSH4 0xFFFFFFFF AND PUSH1 0xE0 SHL DUP2 MSTORE PUSH1 0x4 ADD PUSH2 0x9B0 SWAP4 SWAP3 SWAP2 SWAP1 PUSH2 0x110C JUMP JUMPDEST PUSH1 0x20 PUSH1 0x40 MLOAD DUP1 DUP4 SUB DUP2 PUSH0 DUP8 GAS CALL ISZERO DUP1 ISZERO PUSH2 0x9CC JUMPI RETURNDATASIZE PUSH0 DUP1 RETURNDATACOPY RETURNDATASIZE PUSH0 REVERT JUMPDEST POP POP POP POP PUSH1 0x40 MLOAD RETURNDATASIZE PUSH1 0x1F NOT PUSH1 0x1F DUP3 ADD AND DUP3 ADD DUP1 PUSH1 0x40 MSTORE POP DUP2 ADD SWAP1 PUSH2 0x9F0 SWAP2 SWAP1 PUSH2 0x1007 JUMP JUMPDEST POP DUP2 PUSH0 DUP1 DUP3 DUP3 SLOAD PUSH2 0xA01 SWAP2 SWAP1 PUSH2 0xEDA JUMP JUMPDEST SWAP3 POP POP DUP2 SWAP1 SSTORE POP DUP1 PUSH1 0x1 PUSH0 DUP3 DUP3 SLOAD PUSH2 0xA19 SWAP2 SWAP1 PUSH2 0xEDA JUMP JUMPDEST SWAP3 POP POP DUP2 SWAP1 SSTORE POP POP POP POP POP POP POP JUMP JUMPDEST PUSH32 0x0 DUP2 JUMP JUMPDEST PUSH32 0x0 DUP2 JUMP JUMPDEST PUSH0 DUP1 PUSH1 0x1 SLOAD PUSH0 SLOAD PUSH2 0xA81 SWAP2 SWAP1 PUSH2 0xEDA JUMP JUMPDEST SWAP1 POP PUSH1 0x1 SLOAD DUP2 PUSH32 0x0 PUSH20 0xFFFFFFFFFFFFFFFFFFFFFFFFFFFFFFFFFFFFFFFF AND PUSH4 0x70A08231 DUP7 PUSH1 0x40 MLOAD DUP3 PUSH4 0xFFFFFFFF AND PUSH1 0xE0 SHL DUP2 MSTORE PUSH1 0x4 ADD PUSH2 0xAE0 SWAP2 SWAP1 PUSH2 0xC95 JUMP JUMPDEST PUSH1 0x20 PUSH1 0x40 MLOAD DUP1 DUP4 SUB DUP2 DUP7 GAS STATICCALL ISZERO DUP1 ISZERO PUSH2 0xAFB JUMPI RETURNDATASIZE PUSH0 DUP1 RETURNDATACOPY RETURNDATASIZE PUSH0 REVERT JUMPDEST POP POP POP POP PUSH1 0x40 MLOAD RETURNDATASIZE PUSH1 0x1F NOT PUSH1 0x1F DUP3 ADD AND DUP3 ADD DUP1 PUSH1 0x40 MSTORE POP DUP2 ADD SWAP1 PUSH2 0xB1F SWAP2 SWAP1 PUSH2 0x10E1 JUMP JUMPDEST PUSH2 0xB29 SWAP2 SWAP1 PUSH2 0xF0D JUMP JUMPDEST PUSH2 0xB33 SWAP2 SWAP1 PUSH2 0xF7B JUMP JUMPDEST PUSH0 SLOAD DUP3 PUSH32 0x0 PUSH20 0xFFFFFFFFFFFFFFFFFFFFFFFFFFFFFFFFFFFFFFFF AND PUSH4 0x70A08231 DUP8 PUSH1 0x40 MLOAD DUP3 PUSH4 0xFFFFFFFF AND PUSH1 0xE0 SHL DUP2 MSTORE PUSH1 0x4 ADD PUSH2 0xB8F SWAP2 SWAP1 PUSH2 0xC95 JUMP JUMPDEST PUSH1 0x20 PUSH1 0x40 MLOAD DUP1 DUP4 SUB DUP2 DUP7 GAS STATICCALL ISZERO DUP1 ISZERO PUSH2 0xBAA JUMPI RETURNDATASIZE PUSH0 DUP1 RETURNDATACOPY RETURNDATASIZE PUSH0 REVERT JUMPDEST POP POP POP POP PUSH1 0x40 MLOAD RETURNDATASIZE PUSH1 0x1F NOT PUSH1 0x1F DUP3 ADD AND DUP3 ADD DUP1 PUSH1 0x40 MSTORE POP DUP2 ADD SWAP1 PUSH2 0xBCE SWAP2 SWAP1 PUSH2 0x10E1 JUMP JUMPDEST PUSH2 0xBD8 SWAP2 SWAP1 PUSH2 0xF0D JUMP JUMPDEST PUSH2 0xBE2 SWAP2 SWAP1 PUSH2 0xF7B JUMP JUMPDEST PUSH2 0xBEC SWAP2 SWAP1 PUSH2 0xEDA JUMP JUMPDEST SWAP2 POP POP SWAP2 SWAP1 POP JUMP JUMPDEST PUSH0 DUP1 REVERT JUMPDEST PUSH0 DUP2 SWAP1 POP SWAP2 SWAP1 POP JUMP JUMPDEST PUSH2 0xC0A DUP2 PUSH2 0xBF8 JUMP JUMPDEST DUP2 EQ PUSH2 0xC14 JUMPI PUSH0 DUP1 REVERT JUMPDEST POP JUMP JUMPDEST PUSH0 DUP2 CALLDATALOAD SWAP1 POP PUSH2 0xC25 DUP2 PUSH2 0xC01 JUMP JUMPDEST SWAP3 SWAP2 POP POP JUMP JUMPDEST PUSH0 PUSH1 0x20 DUP3 DUP5 SUB SLT ISZERO PUSH2 0xC40 JUMPI PUSH2 0xC3F PUSH2 0xBF4 JUMP JUMPDEST JUMPDEST PUSH0 PUSH2 0xC4D DUP5 DUP3 DUP6 ADD PUSH2 0xC17 JUMP JUMPDEST SWAP2 POP POP SWAP3 SWAP2 POP POP JUMP JUMPDEST PUSH0 PUSH20 0xFFFFFFFFFFFFFFFFFFFFFFFFFFFFFFFFFFFFFFFF DUP3 AND SWAP1 POP SWAP2 SWAP1 POP JUMP JUMPDEST PUSH0 PUSH2 0xC7F DUP3 PUSH2 0xC56 JUMP JUMPDEST SWAP1 POP SWAP2 SWAP1 POP JUMP JUMPDEST PUSH2 0xC8F DUP2 PUSH2 0xC75 JUMP JUMPDEST DUP3 MSTORE POP POP JUMP JUMPDEST PUSH0 PUSH1 0x20 DUP3 ADD SWAP1 POP PUSH2 0xCA8 PUSH0 DUP4 ADD DUP5 PUSH2 0xC86 JUMP JUMPDEST SWAP3 SWAP2 POP POP JUMP JUMPDEST PUSH2 0xCB7 DUP2 PUSH2 0xBF8 JUMP JUMPDEST DUP3 MSTORE POP POP JUMP JUMPDEST PUSH0 PUSH1 0x20 DUP3 ADD SWAP1 POP PUSH2 0xCD0 PUSH0 DUP4 ADD DUP5 PUSH2 0xCAE JUMP JUMPDEST SWAP3 SWAP2 POP POP JUMP JUMPDEST PUSH2 0xCDF DUP2 PUSH2 0xC75 JUMP JUMPDEST DUP2 EQ PUSH2 0xCE9 JUMPI PUSH0 DUP1 REVERT JUMPDEST POP JUMP JUMPDEST PUSH0 DUP2 CALLDATALOAD SWAP1 POP PUSH2 0xCFA DUP2 PUSH2 0xCD6 JUMP JUMPDEST SWAP3 SWAP2 POP POP JUMP JUMPDEST PUSH0 DUP1 PUSH1 0x40 DUP4 DUP6 SUB SLT ISZERO PUSH2 0xD16 JUMPI PUSH2 0xD15 PUSH2 0xBF4 JUMP JUMPDEST JUMPDEST PUSH0 PUSH2 0xD23 DUP6 DUP3 DUP7 ADD PUSH2 0xCEC JUMP JUMPDEST SWAP3 POP POP PUSH1 0x20 PUSH2 0xD34 DUP6 DUP3 DUP7 ADD PUSH2 0xC17 JUMP JUMPDEST SWAP2 POP POP SWAP3 POP SWAP3 SWAP1 POP JUMP JUMPDEST PUSH0 DUP1 PUSH1 0x40 DUP4 DUP6 SUB SLT ISZERO PUSH2 0xD54 JUMPI PUSH2 0xD53 PUSH2 0xBF4 JUMP JUMPDEST JUMPDEST PUSH0 PUSH2 0xD61 DUP6 DUP3 DUP7 ADD PUSH2 0xC17 JUMP JUMPDEST SWAP3 POP POP PUSH1 0x20 PUSH2 0xD72 DUP6 DUP3 DUP7 ADD PUSH2 0xC17 JUMP JUMPDEST SWAP2 POP POP SWAP3 POP SWAP3 SWAP1 POP JUMP JUMPDEST PUSH0 PUSH1 0x20 DUP3 DUP5 SUB SLT ISZERO PUSH2 0xD91 JUMPI PUSH2 0xD90 PUSH2 0xBF4 JUMP JUMPDEST JUMPDEST PUSH0 PUSH2 0xD9E DUP5 DUP3 DUP6 ADD PUSH2 0xCEC JUMP JUMPDEST SWAP2 POP POP SWAP3 SWAP2 POP POP JUMP JUMPDEST PUSH0 DUP3 DUP3 MSTORE PUSH1 0x20 DUP3 ADD SWAP1 POP SWAP3 SWAP2 POP POP JUMP JUMPDEST PUSH32 0x576974686472617720616D6F756E74206D757374206265206772656174657220 PUSH0 DUP3 ADD MSTORE PUSH32 0x7468616E207A65726F0000000000000000000000000000000000000000000000 PUSH1 0x20 DUP3 ADD MSTORE POP JUMP JUMPDEST PUSH0 PUSH2 0xE11 PUSH1 0x29 DUP4 PUSH2 0xDA7 JUMP JUMPDEST SWAP2 POP PUSH2 0xE1C DUP3 PUSH2 0xDB7 JUMP JUMPDEST PUSH1 0x40 DUP3 ADD SWAP1 POP SWAP2 SWAP1 POP JUMP JUMPDEST PUSH0 PUSH1 0x20 DUP3 ADD SWAP1 POP DUP2 DUP2 SUB PUSH0 DUP4 ADD MSTORE PUSH2 0xE3E DUP2 PUSH2 0xE05 JUMP JUMPDEST SWAP1 POP SWAP2 SWAP1 POP JUMP JUMPDEST PUSH32 0x496E73756666696369656E74206C697175696469747900000000000000000000 PUSH0 DUP3 ADD MSTORE POP JUMP JUMPDEST PUSH0 PUSH2 0xE79 PUSH1 0x16 DUP4 PUSH2 0xDA7 JUMP JUMPDEST SWAP2 POP PUSH2 0xE84 DUP3 PUSH2 0xE45 JUMP JUMPDEST PUSH1 0x20 DUP3 ADD SWAP1 POP SWAP2 SWAP1 POP JUMP JUMPDEST PUSH0 PUSH1 0x20 DUP3 ADD SWAP1 POP DUP2 DUP2 SUB PUSH0 DUP4 ADD MSTORE PUSH2 0xEA6 DUP2 PUSH2 0xE6D JUMP JUMPDEST SWAP1 POP SWAP2 SWAP1 POP JUMP JUMPDEST PUSH32 0x4E487B7100000000000000000000000000000000000000000000000000000000 PUSH0 MSTORE PUSH1 0x11 PUSH1 0x4 MSTORE PUSH1 0x24 PUSH0 REVERT JUMPDEST PUSH0 PUSH2 0xEE4 DUP3 PUSH2 0xBF8 JUMP JUMPDEST SWAP2 POP PUSH2 0xEEF DUP4 PUSH2 0xBF8 JUMP JUMPDEST SWAP3 POP DUP3 DUP3 ADD SWAP1 POP DUP1 DUP3 GT ISZERO PUSH2 0xF07 JUMPI PUSH2 0xF06 PUSH2 0xEAD JUMP JUMPDEST JUMPDEST SWAP3 SWAP2 POP POP JUMP JUMPDEST PUSH0 PUSH2 0xF17 DUP3 PUSH2 0xBF8 JUMP JUMPDEST SWAP2 POP PUSH2 0xF22 DUP4 PUSH2 0xBF8 JUMP JUMPDEST SWAP3 POP DUP3 DUP3 MUL PUSH2 0xF30 DUP2 PUSH2 0xBF8 JUMP JUMPDEST SWAP2 POP DUP3 DUP3 DIV DUP5 EQ DUP4 ISZERO OR PUSH2 0xF47 JUMPI PUSH2 0xF46 PUSH2 0xEAD JUMP JUMPDEST JUMPDEST POP SWAP3 SWAP2 POP POP JUMP JUMPDEST PUSH32 0x4E487B7100000000000000000000000000000000000000000000000000000000 PUSH0 MSTORE PUSH1 0x12 PUSH1 0x4 MSTORE PUSH1 0x24 PUSH0 REVERT JUMPDEST PUSH0 PUSH2 0xF85 DUP3 PUSH2 0xBF8 JUMP JUMPDEST SWAP2 POP PUSH2 0xF90 DUP4 PUSH2 0xBF8 JUMP JUMPDEST SWAP3 POP DUP3 PUSH2 0xFA0 JUMPI PUSH2 0xF9F PUSH2 0xF4E JUMP JUMPDEST JUMPDEST DUP3 DUP3 DIV SWAP1 POP SWAP3 SWAP2 POP POP JUMP JUMPDEST PUSH0 PUSH1 0x40 DUP3 ADD SWAP1 POP PUSH2 0xFBE PUSH0 DUP4 ADD DUP6 PUSH2 0xC86 JUMP JUMPDEST PUSH2 0xFCB PUSH1 0x20 DUP4 ADD DUP5 PUSH2 0xCAE JUMP JUMPDEST SWAP4 SWAP3 POP POP POP JUMP JUMPDEST PUSH0 DUP2 ISZERO ISZERO SWAP1 POP SWAP2 SWAP1 POP JUMP JUMPDEST PUSH2 0xFE6 DUP2 PUSH2 0xFD2 JUMP JUMPDEST DUP2 EQ PUSH2 0xFF0 JUMPI PUSH0 DUP1 REVERT JUMPDEST POP JUMP JUMPDEST PUSH0 DUP2 MLOAD SWAP1 POP PUSH2 0x1001 DUP2 PUSH2 0xFDD JUMP JUMPDEST SWAP3 SWAP2 POP POP JUMP JUMPDEST PUSH0 PUSH1 0x20 DUP3 DUP5 SUB SLT ISZERO PUSH2 0x101C JUMPI PUSH2 0x101B PUSH2 0xBF4 JUMP JUMPDEST JUMPDEST PUSH0 PUSH2 0x1029 DUP5 DUP3 DUP6 ADD PUSH2 0xFF3 JUMP JUMPDEST SWAP2 POP POP SWAP3 SWAP2 POP POP JUMP JUMPDEST PUSH0 PUSH2 0x103C DUP3 PUSH2 0xBF8 JUMP JUMPDEST SWAP2 POP PUSH2 0x1047 DUP4 PUSH2 0xBF8 JUMP JUMPDEST SWAP3 POP DUP3 DUP3 SUB SWAP1 POP DUP2 DUP2 GT ISZERO PUSH2 0x105F JUMPI PUSH2 0x105E PUSH2 0xEAD JUMP JUMPDEST JUMPDEST SWAP3 SWAP2 POP POP JUMP JUMPDEST PUSH32 0x496E76616C696420746F6B656E20747970650000000000000000000000000000 PUSH0 DUP3 ADD MSTORE POP JUMP JUMPDEST PUSH0 PUSH2 0x1099 PUSH1 0x12 DUP4 PUSH2 0xDA7 JUMP JUMPDEST SWAP2 POP PUSH2 0x10A4 DUP3 PUSH2 0x1065 JUMP JUMPDEST PUSH1 0x20 DUP3 ADD SWAP1 POP SWAP2 SWAP1 POP JUMP JUMPDEST PUSH0 PUSH1 0x20 DUP3 ADD SWAP1 POP DUP2 DUP2 SUB PUSH0 DUP4 ADD MSTORE PUSH2 0x10C6 DUP2 PUSH2 0x108D JUMP JUMPDEST SWAP1 POP SWAP2 SWAP1 POP JUMP JUMPDEST PUSH0 DUP2 MLOAD SWAP1 POP PUSH2 0x10DB DUP2 PUSH2 0xC01 JUMP JUMPDEST SWAP3 SWAP2 POP POP JUMP JUMPDEST PUSH0 PUSH1 0x20 DUP3 DUP5 SUB SLT ISZERO PUSH2 0x10F6 JUMPI PUSH2 0x10F5 PUSH2 0xBF4 JUMP JUMPDEST JUMPDEST PUSH0 PUSH2 0x1103 DUP5 DUP3 DUP6 ADD PUSH2 0x10CD JUMP JUMPDEST SWAP2 POP POP SWAP3 SWAP2 POP POP JUMP JUMPDEST PUSH0 PUSH1 0x60 DUP3 ADD SWAP1 POP PUSH2 0x111F PUSH0 DUP4 ADD DUP7 PUSH2 0xC86 JUMP JUMPDEST PUSH2 0x112C PUSH1 0x20 DUP4 ADD DUP6 PUSH2 0xC86 JUMP JUMPDEST PUSH2 0x1139 PUSH1 0x40 DUP4 ADD DUP5 PUSH2 0xCAE JUMP JUMPDEST SWAP5 SWAP4 POP POP POP POP JUMP JUMPDEST PUSH32 0x50726F76696465206174206C65617374206F6E6520746F6B656E000000000000 PUSH0 DUP3 ADD MSTORE POP JUMP JUMPDEST PUSH0 PUSH2 0x1175 PUSH1 0x1A DUP4 PUSH2 0xDA7 JUMP JUMPDEST SWAP2 POP PUSH2 0x1180 DUP3 PUSH2 0x1141 JUMP JUMPDEST PUSH1 0x20 DUP3 ADD SWAP1 POP SWAP2 SWAP1 POP JUMP JUMPDEST PUSH0 PUSH1 0x20 DUP3 ADD SWAP1 POP DUP2 DUP2 SUB PUSH0 DUP4 ADD MSTORE PUSH2 0x11A2 DUP2 PUSH2 0x1169 JUMP JUMPDEST SWAP1 POP SWAP2 SWAP1 POP JUMP JUMPDEST PUSH32 0x5265736572766573206D7573742062652067726561746572207468616E207A65 PUSH0 DUP3 ADD MSTORE PUSH32 0x726F000000000000000000000000000000000000000000000000000000000000 PUSH1 0x20 DUP3 ADD MSTORE POP JUMP JUMPDEST PUSH0 PUSH2 0x1203 PUSH1 0x22 DUP4 PUSH2 0xDA7 JUMP JUMPDEST SWAP2 POP PUSH2 0x120E DUP3 PUSH2 0x11A9 JUMP JUMPDEST PUSH1 0x40 DUP3 ADD SWAP1 POP SWAP2 SWAP1 POP JUMP JUMPDEST PUSH0 PUSH1 0x20 DUP3 ADD SWAP1 POP DUP2 DUP2 SUB PUSH0 DUP4 ADD MSTORE PUSH2 0x1230 DUP2 PUSH2 0x11F7 JUMP JUMPDEST SWAP1 POP SWAP2 SWAP1 POP JUMP INVALID LOG2 PUSH5 0x6970667358 0x22 SLT KECCAK256 BYTE PUSH4 0xC0AE9A45 SWAP8 0xEB STOP 0xD8 CALLDATACOPY 0xBF 0x4B 0xAB BLOBHASH ISZERO SWAP2 0xC5 OR 0xB1 0xF8 PUSH17 0x38AF72A7E17CBF6B6C2864736F6C634300 ADDMOD XOR STOP CALLER "
		},
		"gasEstimates": {
			"creation": {
				"codeDepositCost": "943400",
				"executionCost": "infinite",
				"totalCost": "infinite"
			},
			"external": {
				"conversionRate()": "infinite",
				"getUserLiquidity(address)": "infinite",
				"provideLiquidity(uint256,uint256)": "infinite",
				"reserve0()": "2469",
				"reserve1()": "2492",
				"token0()": "infinite",
				"token1()": "infinite",
				"trade(address,uint256)": "infinite",
				"withdrawLiquidity(uint256)": "infinite"
			}
		},
		"methodIdentifiers": {
			"conversionRate()": "7ffdf53e",
			"getUserLiquidity(address)": "dbbdd935",
			"provideLiquidity(uint256,uint256)": "7a16af7f",
			"reserve0()": "443cb4bc",
			"reserve1()": "5a76f25e",
			"token0()": "0dfe1681",
			"token1()": "d21220a7",
			"trade(address,uint256)": "68f8c2a4",
			"withdrawLiquidity(uint256)": "0a861f2a"
		}
	},
	"abi": [
		{
			"inputs": [
				{
					"internalType": "address",
					"name": "_token0",
					"type": "address"
				},
				{
					"internalType": "address",
					"name": "_token1",
					"type": "address"
				},
				{
					"internalType": "uint256",
					"name": "_conversionRate",
					"type": "uint256"
				}
			],
			"stateMutability": "nonpayable",
			"type": "constructor"
		},
		{
			"inputs": [],
			"name": "conversionRate",
			"outputs": [
				{
					"internalType": "uint256",
					"name": "",
					"type": "uint256"
				}
			],
			"stateMutability": "view",
			"type": "function"
		},
		{
			"inputs": [
				{
					"internalType": "address",
					"name": "user",
					"type": "address"
				}
			],
			"name": "getUserLiquidity",
			"outputs": [
				{
					"internalType": "uint256",
					"name": "",
					"type": "uint256"
				}
			],
			"stateMutability": "view",
			"type": "function"
		},
		{
			"inputs": [
				{
					"internalType": "uint256",
					"name": "token0Amount",
					"type": "uint256"
				},
				{
					"internalType": "uint256",
					"name": "token1Amount",
					"type": "uint256"
				}
			],
			"name": "provideLiquidity",
			"outputs": [],
			"stateMutability": "nonpayable",
			"type": "function"
		},
		{
			"inputs": [],
			"name": "reserve0",
			"outputs": [
				{
					"internalType": "uint256",
					"name": "",
					"type": "uint256"
				}
			],
			"stateMutability": "view",
			"type": "function"
		},
		{
			"inputs": [],
			"name": "reserve1",
			"outputs": [
				{
					"internalType": "uint256",
					"name": "",
					"type": "uint256"
				}
			],
			"stateMutability": "view",
			"type": "function"
		},
		{
			"inputs": [],
			"name": "token0",
			"outputs": [
				{
					"internalType": "address",
					"name": "",
					"type": "address"
				}
			],
			"stateMutability": "view",
			"type": "function"
		},
		{
			"inputs": [],
			"name": "token1",
			"outputs": [
				{
					"internalType": "address",
					"name": "",
					"type": "address"
				}
			],
			"stateMutability": "view",
			"type": "function"
		},
		{
			"inputs": [
				{
					"internalType": "address",
					"name": "tokenFrom",
					"type": "address"
				},
				{
					"internalType": "uint256",
					"name": "fromAmount",
					"type": "uint256"
				}
			],
			"name": "trade",
			"outputs": [],
			"stateMutability": "nonpayable",
			"type": "function"
		},
		{
			"inputs": [
				{
					"internalType": "uint256",
					"name": "liquidity",
					"type": "uint256"
				}
			],
			"name": "withdrawLiquidity",
			"outputs": [],
			"stateMutability": "nonpayable",
			"type": "function"
		}
	]
}