{
	"Lab2_MalikDAHMANI/MagicPot.sol": {
		"MagicPot": {
			"abi": [
				{
					"inputs": [],
					"stateMutability": "nonpayable",
					"type": "constructor"
				},
				{
					"inputs": [
						{
							"internalType": "address",
							"name": "token",
							"type": "address"
						},
						{
							"internalType": "uint256",
							"name": "amount",
							"type": "uint256"
						}
					],
					"name": "theMagicPot",
					"outputs": [],
					"stateMutability": "nonpayable",
					"type": "function"
				}
			],
			"devdoc": {
				"kind": "dev",
				"methods": {},
				"version": 1
			},
			"evm": {
				"assembly": "    /* \"Lab2_MalikDAHMANI/MagicPot.sol\":169:559  contract MagicPot {... */\n  mstore(0x40, 0x80)\n    /* \"Lab2_MalikDAHMANI/MagicPot.sol\":229:271  0xCaAF1c4DAE435Db0085BA8B1C883b3566DE1C121 */\n  0xcaaf1c4dae435db0085ba8b1c883b3566de1c121\n    /* \"Lab2_MalikDAHMANI/MagicPot.sol\":216:271  address mt = 0xCaAF1c4DAE435Db0085BA8B1C883b3566DE1C121 */\n  0x00\n  dup1\n  0x0100\n  exp\n  dup2\n  sload\n  dup2\n  0xffffffffffffffffffffffffffffffffffffffff\n  mul\n  not\n  and\n  swap1\n  dup4\n  0xffffffffffffffffffffffffffffffffffffffff\n  and\n  mul\n  or\n  swap1\n  sstore\n  pop\n    /* \"Lab2_MalikDAHMANI/MagicPot.sol\":194:210  constructor() {} */\n  callvalue\n  dup1\n  iszero\n  tag_1\n  jumpi\n  0x00\n  dup1\n  revert\ntag_1:\n  pop\n    /* \"Lab2_MalikDAHMANI/MagicPot.sol\":169:559  contract MagicPot {... */\n  dataSize(sub_0)\n  dup1\n  dataOffset(sub_0)\n  0x00\n  codecopy\n  0x00\n  return\nstop\n\nsub_0: assembly {\n        /* \"Lab2_MalikDAHMANI/MagicPot.sol\":169:559  contract MagicPot {... */\n      mstore(0x40, 0x80)\n      callvalue\n      dup1\n      iszero\n      tag_1\n      jumpi\n      0x00\n      dup1\n      revert\n    tag_1:\n      pop\n      jumpi(tag_2, lt(calldatasize, 0x04))\n      shr(0xe0, calldataload(0x00))\n      dup1\n      0xe867fb97\n      eq\n      tag_3\n      jumpi\n    tag_2:\n      0x00\n      dup1\n      revert\n        /* \"Lab2_MalikDAHMANI/MagicPot.sol\":280:556  function theMagicPot(address token, uint256 amount) external {... */\n    tag_3:\n      tag_4\n      0x04\n      dup1\n      calldatasize\n      sub\n      dup2\n      add\n      swap1\n      tag_5\n      swap2\n      swap1\n      tag_6\n      jump\t// in\n    tag_5:\n      tag_7\n      jump\t// in\n    tag_4:\n      stop\n    tag_7:\n        /* \"Lab2_MalikDAHMANI/MagicPot.sol\":370:395  1000_000000_000000_000000 */\n      0x3635c9adc5dea00000\n        /* \"Lab2_MalikDAHMANI/MagicPot.sol\":360:366  amount */\n      dup2\n        /* \"Lab2_MalikDAHMANI/MagicPot.sol\":360:395  amount >= 1000_000000_000000_000000 */\n      lt\n      iszero\n        /* \"Lab2_MalikDAHMANI/MagicPot.sol\":352:410  require(amount >= 1000_000000_000000_000000, \"not enough\") */\n      tag_9\n      jumpi\n      mload(0x40)\n      0x08c379a000000000000000000000000000000000000000000000000000000000\n      dup2\n      mstore\n      0x04\n      add\n      tag_10\n      swap1\n      tag_11\n      jump\t// in\n    tag_10:\n      mload(0x40)\n      dup1\n      swap2\n      sub\n      swap1\n      revert\n    tag_9:\n        /* \"Lab2_MalikDAHMANI/MagicPot.sol\":428:433  token */\n      dup2\n        /* \"Lab2_MalikDAHMANI/MagicPot.sol\":421:447  IERC20(token).transferFrom */\n      0xffffffffffffffffffffffffffffffffffffffff\n      and\n      0x23b872dd\n        /* \"Lab2_MalikDAHMANI/MagicPot.sol\":448:458  msg.sender */\n      caller\n        /* \"Lab2_MalikDAHMANI/MagicPot.sol\":468:472  this */\n      address\n        /* \"Lab2_MalikDAHMANI/MagicPot.sol\":475:481  amount */\n      dup5\n        /* \"Lab2_MalikDAHMANI/MagicPot.sol\":421:482  IERC20(token).transferFrom(msg.sender, address(this), amount) */\n      mload(0x40)\n      dup5\n      0xffffffff\n      and\n      0xe0\n      shl\n      dup2\n      mstore\n      0x04\n      add\n      tag_12\n      swap4\n      swap3\n      swap2\n      swap1\n      tag_13\n      jump\t// in\n    tag_12:\n      0x20\n      mload(0x40)\n      dup1\n      dup4\n      sub\n      dup2\n      0x00\n      dup8\n      gas\n      call\n      iszero\n      dup1\n      iszero\n      tag_15\n      jumpi\n      returndatasize\n      0x00\n      dup1\n      returndatacopy\n      revert(0x00, returndatasize)\n    tag_15:\n      pop\n      pop\n      pop\n      pop\n      mload(0x40)\n      returndatasize\n      not(0x1f)\n      0x1f\n      dup3\n      add\n      and\n      dup3\n      add\n      dup1\n      0x40\n      mstore\n      pop\n      dup2\n      add\n      swap1\n      tag_16\n      swap2\n      swap1\n      tag_17\n      jump\t// in\n    tag_16:\n      pop\n        /* \"Lab2_MalikDAHMANI/MagicPot.sol\":500:502  mt */\n      0x00\n      dup1\n      sload\n      swap1\n      0x0100\n      exp\n      swap1\n      div\n      0xffffffffffffffffffffffffffffffffffffffff\n      and\n        /* \"Lab2_MalikDAHMANI/MagicPot.sol\":493:512  IERC20(mt).transfer */\n      0xffffffffffffffffffffffffffffffffffffffff\n      and\n      0xa9059cbb\n        /* \"Lab2_MalikDAHMANI/MagicPot.sol\":513:523  msg.sender */\n      caller\n        /* \"Lab2_MalikDAHMANI/MagicPot.sol\":525:547  1_000000_000000_000000 */\n      0x0de0b6b3a7640000\n        /* \"Lab2_MalikDAHMANI/MagicPot.sol\":493:548  IERC20(mt).transfer(msg.sender, 1_000000_000000_000000) */\n      mload(0x40)\n      dup4\n      0xffffffff\n      and\n      0xe0\n      shl\n      dup2\n      mstore\n      0x04\n      add\n      tag_18\n      swap3\n      swap2\n      swap1\n      tag_19\n      jump\t// in\n    tag_18:\n      0x20\n      mload(0x40)\n      dup1\n      dup4\n      sub\n      dup2\n      0x00\n      dup8\n      gas\n      call\n      iszero\n      dup1\n      iszero\n      tag_21\n      jumpi\n      returndatasize\n      0x00\n      dup1\n      returndatacopy\n      revert(0x00, returndatasize)\n    tag_21:\n      pop\n      pop\n      pop\n      pop\n      mload(0x40)\n      returndatasize\n      not(0x1f)\n      0x1f\n      dup3\n      add\n      and\n      dup3\n      add\n      dup1\n      0x40\n      mstore\n      pop\n      dup2\n      add\n      swap1\n      tag_22\n      swap2\n      swap1\n      tag_17\n      jump\t// in\n    tag_22:\n      pop\n        /* \"Lab2_MalikDAHMANI/MagicPot.sol\":280:556  function theMagicPot(address token, uint256 amount) external {... */\n      pop\n      pop\n      jump\t// out\n        /* \"#utility.yul\":88:205   */\n    tag_24:\n        /* \"#utility.yul\":197:198   */\n      0x00\n        /* \"#utility.yul\":194:195   */\n      dup1\n        /* \"#utility.yul\":187:199   */\n      revert\n        /* \"#utility.yul\":334:460   */\n    tag_26:\n        /* \"#utility.yul\":371:378   */\n      0x00\n        /* \"#utility.yul\":411:453   */\n      0xffffffffffffffffffffffffffffffffffffffff\n        /* \"#utility.yul\":404:409   */\n      dup3\n        /* \"#utility.yul\":400:454   */\n      and\n        /* \"#utility.yul\":389:454   */\n      swap1\n      pop\n        /* \"#utility.yul\":334:460   */\n      swap2\n      swap1\n      pop\n      jump\t// out\n        /* \"#utility.yul\":466:562   */\n    tag_27:\n        /* \"#utility.yul\":503:510   */\n      0x00\n        /* \"#utility.yul\":532:556   */\n      tag_51\n        /* \"#utility.yul\":550:555   */\n      dup3\n        /* \"#utility.yul\":532:556   */\n      tag_26\n      jump\t// in\n    tag_51:\n        /* \"#utility.yul\":521:556   */\n      swap1\n      pop\n        /* \"#utility.yul\":466:562   */\n      swap2\n      swap1\n      pop\n      jump\t// out\n        /* \"#utility.yul\":568:690   */\n    tag_28:\n        /* \"#utility.yul\":641:665   */\n      tag_53\n        /* \"#utility.yul\":659:664   */\n      dup2\n        /* \"#utility.yul\":641:665   */\n      tag_27\n      jump\t// in\n    tag_53:\n        /* \"#utility.yul\":634:639   */\n      dup2\n        /* \"#utility.yul\":631:666   */\n      eq\n        /* \"#utility.yul\":621:684   */\n      tag_54\n      jumpi\n        /* \"#utility.yul\":680:681   */\n      0x00\n        /* \"#utility.yul\":677:678   */\n      dup1\n        /* \"#utility.yul\":670:682   */\n      revert\n        /* \"#utility.yul\":621:684   */\n    tag_54:\n        /* \"#utility.yul\":568:690   */\n      pop\n      jump\t// out\n        /* \"#utility.yul\":696:835   */\n    tag_29:\n        /* \"#utility.yul\":742:747   */\n      0x00\n        /* \"#utility.yul\":780:786   */\n      dup2\n        /* \"#utility.yul\":767:787   */\n      calldataload\n        /* \"#utility.yul\":758:787   */\n      swap1\n      pop\n        /* \"#utility.yul\":796:829   */\n      tag_56\n        /* \"#utility.yul\":823:828   */\n      dup2\n        /* \"#utility.yul\":796:829   */\n      tag_28\n      jump\t// in\n    tag_56:\n        /* \"#utility.yul\":696:835   */\n      swap3\n      swap2\n      pop\n      pop\n      jump\t// out\n        /* \"#utility.yul\":841:918   */\n    tag_30:\n        /* \"#utility.yul\":878:885   */\n      0x00\n        /* \"#utility.yul\":907:912   */\n      dup2\n        /* \"#utility.yul\":896:912   */\n      swap1\n      pop\n        /* \"#utility.yul\":841:918   */\n      swap2\n      swap1\n      pop\n      jump\t// out\n        /* \"#utility.yul\":924:1046   */\n    tag_31:\n        /* \"#utility.yul\":997:1021   */\n      tag_59\n        /* \"#utility.yul\":1015:1020   */\n      dup2\n        /* \"#utility.yul\":997:1021   */\n      tag_30\n      jump\t// in\n    tag_59:\n        /* \"#utility.yul\":990:995   */\n      dup2\n        /* \"#utility.yul\":987:1022   */\n      eq\n        /* \"#utility.yul\":977:1040   */\n      tag_60\n      jumpi\n        /* \"#utility.yul\":1036:1037   */\n      0x00\n        /* \"#utility.yul\":1033:1034   */\n      dup1\n        /* \"#utility.yul\":1026:1038   */\n      revert\n        /* \"#utility.yul\":977:1040   */\n    tag_60:\n        /* \"#utility.yul\":924:1046   */\n      pop\n      jump\t// out\n        /* \"#utility.yul\":1052:1191   */\n    tag_32:\n        /* \"#utility.yul\":1098:1103   */\n      0x00\n        /* \"#utility.yul\":1136:1142   */\n      dup2\n        /* \"#utility.yul\":1123:1143   */\n      calldataload\n        /* \"#utility.yul\":1114:1143   */\n      swap1\n      pop\n        /* \"#utility.yul\":1152:1185   */\n      tag_62\n        /* \"#utility.yul\":1179:1184   */\n      dup2\n        /* \"#utility.yul\":1152:1185   */\n      tag_31\n      jump\t// in\n    tag_62:\n        /* \"#utility.yul\":1052:1191   */\n      swap3\n      swap2\n      pop\n      pop\n      jump\t// out\n        /* \"#utility.yul\":1197:1671   */\n    tag_6:\n        /* \"#utility.yul\":1265:1271   */\n      0x00\n        /* \"#utility.yul\":1273:1279   */\n      dup1\n        /* \"#utility.yul\":1322:1324   */\n      0x40\n        /* \"#utility.yul\":1310:1319   */\n      dup4\n        /* \"#utility.yul\":1301:1308   */\n      dup6\n        /* \"#utility.yul\":1297:1320   */\n      sub\n        /* \"#utility.yul\":1293:1325   */\n      slt\n        /* \"#utility.yul\":1290:1409   */\n      iszero\n      tag_64\n      jumpi\n        /* \"#utility.yul\":1328:1407   */\n      tag_65\n      tag_24\n      jump\t// in\n    tag_65:\n        /* \"#utility.yul\":1290:1409   */\n    tag_64:\n        /* \"#utility.yul\":1448:1449   */\n      0x00\n        /* \"#utility.yul\":1473:1526   */\n      tag_66\n        /* \"#utility.yul\":1518:1525   */\n      dup6\n        /* \"#utility.yul\":1509:1515   */\n      dup3\n        /* \"#utility.yul\":1498:1507   */\n      dup7\n        /* \"#utility.yul\":1494:1516   */\n      add\n        /* \"#utility.yul\":1473:1526   */\n      tag_29\n      jump\t// in\n    tag_66:\n        /* \"#utility.yul\":1463:1526   */\n      swap3\n      pop\n        /* \"#utility.yul\":1419:1536   */\n      pop\n        /* \"#utility.yul\":1575:1577   */\n      0x20\n        /* \"#utility.yul\":1601:1654   */\n      tag_67\n        /* \"#utility.yul\":1646:1653   */\n      dup6\n        /* \"#utility.yul\":1637:1643   */\n      dup3\n        /* \"#utility.yul\":1626:1635   */\n      dup7\n        /* \"#utility.yul\":1622:1644   */\n      add\n        /* \"#utility.yul\":1601:1654   */\n      tag_32\n      jump\t// in\n    tag_67:\n        /* \"#utility.yul\":1591:1654   */\n      swap2\n      pop\n        /* \"#utility.yul\":1546:1664   */\n      pop\n        /* \"#utility.yul\":1197:1671   */\n      swap3\n      pop\n      swap3\n      swap1\n      pop\n      jump\t// out\n        /* \"#utility.yul\":1677:1846   */\n    tag_33:\n        /* \"#utility.yul\":1761:1772   */\n      0x00\n        /* \"#utility.yul\":1795:1801   */\n      dup3\n        /* \"#utility.yul\":1790:1793   */\n      dup3\n        /* \"#utility.yul\":1783:1802   */\n      mstore\n        /* \"#utility.yul\":1835:1839   */\n      0x20\n        /* \"#utility.yul\":1830:1833   */\n      dup3\n        /* \"#utility.yul\":1826:1840   */\n      add\n        /* \"#utility.yul\":1811:1840   */\n      swap1\n      pop\n        /* \"#utility.yul\":1677:1846   */\n      swap3\n      swap2\n      pop\n      pop\n      jump\t// out\n        /* \"#utility.yul\":1852:2012   */\n    tag_34:\n        /* \"#utility.yul\":1992:2004   */\n      0x6e6f7420656e6f75676800000000000000000000000000000000000000000000\n        /* \"#utility.yul\":1988:1989   */\n      0x00\n        /* \"#utility.yul\":1980:1986   */\n      dup3\n        /* \"#utility.yul\":1976:1990   */\n      add\n        /* \"#utility.yul\":1969:2005   */\n      mstore\n        /* \"#utility.yul\":1852:2012   */\n      pop\n      jump\t// out\n        /* \"#utility.yul\":2018:2384   */\n    tag_35:\n        /* \"#utility.yul\":2160:2163   */\n      0x00\n        /* \"#utility.yul\":2181:2248   */\n      tag_71\n        /* \"#utility.yul\":2245:2247   */\n      0x0a\n        /* \"#utility.yul\":2240:2243   */\n      dup4\n        /* \"#utility.yul\":2181:2248   */\n      tag_33\n      jump\t// in\n    tag_71:\n        /* \"#utility.yul\":2174:2248   */\n      swap2\n      pop\n        /* \"#utility.yul\":2257:2350   */\n      tag_72\n        /* \"#utility.yul\":2346:2349   */\n      dup3\n        /* \"#utility.yul\":2257:2350   */\n      tag_34\n      jump\t// in\n    tag_72:\n        /* \"#utility.yul\":2375:2377   */\n      0x20\n        /* \"#utility.yul\":2370:2373   */\n      dup3\n        /* \"#utility.yul\":2366:2378   */\n      add\n        /* \"#utility.yul\":2359:2378   */\n      swap1\n      pop\n        /* \"#utility.yul\":2018:2384   */\n      swap2\n      swap1\n      pop\n      jump\t// out\n        /* \"#utility.yul\":2390:2809   */\n    tag_11:\n        /* \"#utility.yul\":2556:2560   */\n      0x00\n        /* \"#utility.yul\":2594:2596   */\n      0x20\n        /* \"#utility.yul\":2583:2592   */\n      dup3\n        /* \"#utility.yul\":2579:2597   */\n      add\n        /* \"#utility.yul\":2571:2597   */\n      swap1\n      pop\n        /* \"#utility.yul\":2643:2652   */\n      dup2\n        /* \"#utility.yul\":2637:2641   */\n      dup2\n        /* \"#utility.yul\":2633:2653   */\n      sub\n        /* \"#utility.yul\":2629:2630   */\n      0x00\n        /* \"#utility.yul\":2618:2627   */\n      dup4\n        /* \"#utility.yul\":2614:2631   */\n      add\n        /* \"#utility.yul\":2607:2654   */\n      mstore\n        /* \"#utility.yul\":2671:2802   */\n      tag_74\n        /* \"#utility.yul\":2797:2801   */\n      dup2\n        /* \"#utility.yul\":2671:2802   */\n      tag_35\n      jump\t// in\n    tag_74:\n        /* \"#utility.yul\":2663:2802   */\n      swap1\n      pop\n        /* \"#utility.yul\":2390:2809   */\n      swap2\n      swap1\n      pop\n      jump\t// out\n        /* \"#utility.yul\":2815:2933   */\n    tag_36:\n        /* \"#utility.yul\":2902:2926   */\n      tag_76\n        /* \"#utility.yul\":2920:2925   */\n      dup2\n        /* \"#utility.yul\":2902:2926   */\n      tag_27\n      jump\t// in\n    tag_76:\n        /* \"#utility.yul\":2897:2900   */\n      dup3\n        /* \"#utility.yul\":2890:2927   */\n      mstore\n        /* \"#utility.yul\":2815:2933   */\n      pop\n      pop\n      jump\t// out\n        /* \"#utility.yul\":2939:3057   */\n    tag_37:\n        /* \"#utility.yul\":3026:3050   */\n      tag_78\n        /* \"#utility.yul\":3044:3049   */\n      dup2\n        /* \"#utility.yul\":3026:3050   */\n      tag_30\n      jump\t// in\n    tag_78:\n        /* \"#utility.yul\":3021:3024   */\n      dup3\n        /* \"#utility.yul\":3014:3051   */\n      mstore\n        /* \"#utility.yul\":2939:3057   */\n      pop\n      pop\n      jump\t// out\n        /* \"#utility.yul\":3063:3505   */\n    tag_13:\n        /* \"#utility.yul\":3212:3216   */\n      0x00\n        /* \"#utility.yul\":3250:3252   */\n      0x60\n        /* \"#utility.yul\":3239:3248   */\n      dup3\n        /* \"#utility.yul\":3235:3253   */\n      add\n        /* \"#utility.yul\":3227:3253   */\n      swap1\n      pop\n        /* \"#utility.yul\":3263:3334   */\n      tag_80\n        /* \"#utility.yul\":3331:3332   */\n      0x00\n        /* \"#utility.yul\":3320:3329   */\n      dup4\n        /* \"#utility.yul\":3316:3333   */\n      add\n        /* \"#utility.yul\":3307:3313   */\n      dup7\n        /* \"#utility.yul\":3263:3334   */\n      tag_36\n      jump\t// in\n    tag_80:\n        /* \"#utility.yul\":3344:3416   */\n      tag_81\n        /* \"#utility.yul\":3412:3414   */\n      0x20\n        /* \"#utility.yul\":3401:3410   */\n      dup4\n        /* \"#utility.yul\":3397:3415   */\n      add\n        /* \"#utility.yul\":3388:3394   */\n      dup6\n        /* \"#utility.yul\":3344:3416   */\n      tag_36\n      jump\t// in\n    tag_81:\n        /* \"#utility.yul\":3426:3498   */\n      tag_82\n        /* \"#utility.yul\":3494:3496   */\n      0x40\n        /* \"#utility.yul\":3483:3492   */\n      dup4\n        /* \"#utility.yul\":3479:3497   */\n      add\n        /* \"#utility.yul\":3470:3476   */\n      dup5\n        /* \"#utility.yul\":3426:3498   */\n      tag_37\n      jump\t// in\n    tag_82:\n        /* \"#utility.yul\":3063:3505   */\n      swap5\n      swap4\n      pop\n      pop\n      pop\n      pop\n      jump\t// out\n        /* \"#utility.yul\":3511:3601   */\n    tag_38:\n        /* \"#utility.yul\":3545:3552   */\n      0x00\n        /* \"#utility.yul\":3588:3593   */\n      dup2\n        /* \"#utility.yul\":3581:3594   */\n      iszero\n        /* \"#utility.yul\":3574:3595   */\n      iszero\n        /* \"#utility.yul\":3563:3595   */\n      swap1\n      pop\n        /* \"#utility.yul\":3511:3601   */\n      swap2\n      swap1\n      pop\n      jump\t// out\n        /* \"#utility.yul\":3607:3723   */\n    tag_39:\n        /* \"#utility.yul\":3677:3698   */\n      tag_85\n        /* \"#utility.yul\":3692:3697   */\n      dup2\n        /* \"#utility.yul\":3677:3698   */\n      tag_38\n      jump\t// in\n    tag_85:\n        /* \"#utility.yul\":3670:3675   */\n      dup2\n        /* \"#utility.yul\":3667:3699   */\n      eq\n        /* \"#utility.yul\":3657:3717   */\n      tag_86\n      jumpi\n        /* \"#utility.yul\":3713:3714   */\n      0x00\n        /* \"#utility.yul\":3710:3711   */\n      dup1\n        /* \"#utility.yul\":3703:3715   */\n      revert\n        /* \"#utility.yul\":3657:3717   */\n    tag_86:\n        /* \"#utility.yul\":3607:3723   */\n      pop\n      jump\t// out\n        /* \"#utility.yul\":3729:3866   */\n    tag_40:\n        /* \"#utility.yul\":3783:3788   */\n      0x00\n        /* \"#utility.yul\":3814:3820   */\n      dup2\n        /* \"#utility.yul\":3808:3821   */\n      mload\n        /* \"#utility.yul\":3799:3821   */\n      swap1\n      pop\n        /* \"#utility.yul\":3830:3860   */\n      tag_88\n        /* \"#utility.yul\":3854:3859   */\n      dup2\n        /* \"#utility.yul\":3830:3860   */\n      tag_39\n      jump\t// in\n    tag_88:\n        /* \"#utility.yul\":3729:3866   */\n      swap3\n      swap2\n      pop\n      pop\n      jump\t// out\n        /* \"#utility.yul\":3872:4217   */\n    tag_17:\n        /* \"#utility.yul\":3939:3945   */\n      0x00\n        /* \"#utility.yul\":3988:3990   */\n      0x20\n        /* \"#utility.yul\":3976:3985   */\n      dup3\n        /* \"#utility.yul\":3967:3974   */\n      dup5\n        /* \"#utility.yul\":3963:3986   */\n      sub\n        /* \"#utility.yul\":3959:3991   */\n      slt\n        /* \"#utility.yul\":3956:4075   */\n      iszero\n      tag_90\n      jumpi\n        /* \"#utility.yul\":3994:4073   */\n      tag_91\n      tag_24\n      jump\t// in\n    tag_91:\n        /* \"#utility.yul\":3956:4075   */\n    tag_90:\n        /* \"#utility.yul\":4114:4115   */\n      0x00\n        /* \"#utility.yul\":4139:4200   */\n      tag_92\n        /* \"#utility.yul\":4192:4199   */\n      dup5\n        /* \"#utility.yul\":4183:4189   */\n      dup3\n        /* \"#utility.yul\":4172:4181   */\n      dup6\n        /* \"#utility.yul\":4168:4190   */\n      add\n        /* \"#utility.yul\":4139:4200   */\n      tag_40\n      jump\t// in\n    tag_92:\n        /* \"#utility.yul\":4129:4200   */\n      swap2\n      pop\n        /* \"#utility.yul\":4085:4210   */\n      pop\n        /* \"#utility.yul\":3872:4217   */\n      swap3\n      swap2\n      pop\n      pop\n      jump\t// out\n        /* \"#utility.yul\":4223:4326   */\n    tag_41:\n        /* \"#utility.yul\":4286:4293   */\n      0x00\n        /* \"#utility.yul\":4315:4320   */\n      dup2\n        /* \"#utility.yul\":4304:4320   */\n      swap1\n      pop\n        /* \"#utility.yul\":4223:4326   */\n      swap2\n      swap1\n      pop\n      jump\t// out\n        /* \"#utility.yul\":4332:4392   */\n    tag_42:\n        /* \"#utility.yul\":4360:4363   */\n      0x00\n        /* \"#utility.yul\":4381:4386   */\n      dup2\n        /* \"#utility.yul\":4374:4386   */\n      swap1\n      pop\n        /* \"#utility.yul\":4332:4392   */\n      swap2\n      swap1\n      pop\n      jump\t// out\n        /* \"#utility.yul\":4398:4592   */\n    tag_43:\n        /* \"#utility.yul\":4474:4483   */\n      0x00\n        /* \"#utility.yul\":4507:4586   */\n      tag_96\n        /* \"#utility.yul\":4525:4585   */\n      tag_97\n        /* \"#utility.yul\":4534:4584   */\n      tag_98\n        /* \"#utility.yul\":4578:4583   */\n      dup5\n        /* \"#utility.yul\":4534:4584   */\n      tag_41\n      jump\t// in\n    tag_98:\n        /* \"#utility.yul\":4525:4585   */\n      tag_42\n      jump\t// in\n    tag_97:\n        /* \"#utility.yul\":4507:4586   */\n      tag_30\n      jump\t// in\n    tag_96:\n        /* \"#utility.yul\":4494:4586   */\n      swap1\n      pop\n        /* \"#utility.yul\":4398:4592   */\n      swap2\n      swap1\n      pop\n      jump\t// out\n        /* \"#utility.yul\":4598:4781   */\n    tag_44:\n        /* \"#utility.yul\":4711:4774   */\n      tag_100\n        /* \"#utility.yul\":4768:4773   */\n      dup2\n        /* \"#utility.yul\":4711:4774   */\n      tag_43\n      jump\t// in\n    tag_100:\n        /* \"#utility.yul\":4706:4709   */\n      dup3\n        /* \"#utility.yul\":4699:4775   */\n      mstore\n        /* \"#utility.yul\":4598:4781   */\n      pop\n      pop\n      jump\t// out\n        /* \"#utility.yul\":4787:5171   */\n    tag_19:\n        /* \"#utility.yul\":4934:4938   */\n      0x00\n        /* \"#utility.yul\":4972:4974   */\n      0x40\n        /* \"#utility.yul\":4961:4970   */\n      dup3\n        /* \"#utility.yul\":4957:4975   */\n      add\n        /* \"#utility.yul\":4949:4975   */\n      swap1\n      pop\n        /* \"#utility.yul\":4985:5056   */\n      tag_102\n        /* \"#utility.yul\":5053:5054   */\n      0x00\n        /* \"#utility.yul\":5042:5051   */\n      dup4\n        /* \"#utility.yul\":5038:5055   */\n      add\n        /* \"#utility.yul\":5029:5035   */\n      dup6\n        /* \"#utility.yul\":4985:5056   */\n      tag_36\n      jump\t// in\n    tag_102:\n        /* \"#utility.yul\":5066:5164   */\n      tag_103\n        /* \"#utility.yul\":5160:5162   */\n      0x20\n        /* \"#utility.yul\":5149:5158   */\n      dup4\n        /* \"#utility.yul\":5145:5163   */\n      add\n        /* \"#utility.yul\":5136:5142   */\n      dup5\n        /* \"#utility.yul\":5066:5164   */\n      tag_44\n      jump\t// in\n    tag_103:\n        /* \"#utility.yul\":4787:5171   */\n      swap4\n      swap3\n      pop\n      pop\n      pop\n      jump\t// out\n\n    auxdata: 0xa2646970667358221220c79f2e49f7ed578743507f7868e8990470a34fb1e4e73bbddbae8803bc9f159564736f6c63430008180033\n}\n",
				"bytecode": {
					"linkReferences": {},
					"object": "608060405273caaf1c4dae435db0085ba8b1c883b3566de1c1215f806101000a81548173ffffffffffffffffffffffffffffffffffffffff021916908373ffffffffffffffffffffffffffffffffffffffff160217905550348015610062575f80fd5b50610453806100705f395ff3fe608060405234801561000f575f80fd5b5060043610610029575f3560e01c8063e867fb971461002d575b5f80fd5b6100476004803603810190610042919061024b565b610049565b005b683635c9adc5dea00000811015610095576040517f08c379a000000000000000000000000000000000000000000000000000000000815260040161008c906102e3565b60405180910390fd5b8173ffffffffffffffffffffffffffffffffffffffff166323b872dd3330846040518463ffffffff1660e01b81526004016100d29392919061031f565b6020604051808303815f875af11580156100ee573d5f803e3d5ffd5b505050506040513d601f19601f820116820180604052508101906101129190610389565b505f8054906101000a900473ffffffffffffffffffffffffffffffffffffffff1673ffffffffffffffffffffffffffffffffffffffff1663a9059cbb33670de0b6b3a76400006040518363ffffffff1660e01b81526004016101759291906103f6565b6020604051808303815f875af1158015610191573d5f803e3d5ffd5b505050506040513d601f19601f820116820180604052508101906101b59190610389565b505050565b5f80fd5b5f73ffffffffffffffffffffffffffffffffffffffff82169050919050565b5f6101e7826101be565b9050919050565b6101f7816101dd565b8114610201575f80fd5b50565b5f81359050610212816101ee565b92915050565b5f819050919050565b61022a81610218565b8114610234575f80fd5b50565b5f8135905061024581610221565b92915050565b5f8060408385031215610261576102606101ba565b5b5f61026e85828601610204565b925050602061027f85828601610237565b9150509250929050565b5f82825260208201905092915050565b7f6e6f7420656e6f756768000000000000000000000000000000000000000000005f82015250565b5f6102cd600a83610289565b91506102d882610299565b602082019050919050565b5f6020820190508181035f8301526102fa816102c1565b9050919050565b61030a816101dd565b82525050565b61031981610218565b82525050565b5f6060820190506103325f830186610301565b61033f6020830185610301565b61034c6040830184610310565b949350505050565b5f8115159050919050565b61036881610354565b8114610372575f80fd5b50565b5f815190506103838161035f565b92915050565b5f6020828403121561039e5761039d6101ba565b5b5f6103ab84828501610375565b91505092915050565b5f819050919050565b5f819050919050565b5f6103e06103db6103d6846103b4565b6103bd565b610218565b9050919050565b6103f0816103c6565b82525050565b5f6040820190506104095f830185610301565b61041660208301846103e7565b939250505056fea2646970667358221220c79f2e49f7ed578743507f7868e8990470a34fb1e4e73bbddbae8803bc9f159564736f6c63430008180033",
					"opcodes": "PUSH1 0x80 PUSH1 0x40 MSTORE PUSH20 0xCAAF1C4DAE435DB0085BA8B1C883B3566DE1C121 PUSH0 DUP1 PUSH2 0x100 EXP DUP2 SLOAD DUP2 PUSH20 0xFFFFFFFFFFFFFFFFFFFFFFFFFFFFFFFFFFFFFFFF MUL NOT AND SWAP1 DUP4 PUSH20 0xFFFFFFFFFFFFFFFFFFFFFFFFFFFFFFFFFFFFFFFF AND MUL OR SWAP1 SSTORE POP CALLVALUE DUP1 ISZERO PUSH2 0x62 JUMPI PUSH0 DUP1 REVERT JUMPDEST POP PUSH2 0x453 DUP1 PUSH2 0x70 PUSH0 CODECOPY PUSH0 RETURN INVALID PUSH1 0x80 PUSH1 0x40 MSTORE CALLVALUE DUP1 ISZERO PUSH2 0xF JUMPI PUSH0 DUP1 REVERT JUMPDEST POP PUSH1 0x4 CALLDATASIZE LT PUSH2 0x29 JUMPI PUSH0 CALLDATALOAD PUSH1 0xE0 SHR DUP1 PUSH4 0xE867FB97 EQ PUSH2 0x2D JUMPI JUMPDEST PUSH0 DUP1 REVERT JUMPDEST PUSH2 0x47 PUSH1 0x4 DUP1 CALLDATASIZE SUB DUP2 ADD SWAP1 PUSH2 0x42 SWAP2 SWAP1 PUSH2 0x24B JUMP JUMPDEST PUSH2 0x49 JUMP JUMPDEST STOP JUMPDEST PUSH9 0x3635C9ADC5DEA00000 DUP2 LT ISZERO PUSH2 0x95 JUMPI PUSH1 0x40 MLOAD PUSH32 0x8C379A000000000000000000000000000000000000000000000000000000000 DUP2 MSTORE PUSH1 0x4 ADD PUSH2 0x8C SWAP1 PUSH2 0x2E3 JUMP JUMPDEST PUSH1 0x40 MLOAD DUP1 SWAP2 SUB SWAP1 REVERT JUMPDEST DUP2 PUSH20 0xFFFFFFFFFFFFFFFFFFFFFFFFFFFFFFFFFFFFFFFF AND PUSH4 0x23B872DD CALLER ADDRESS DUP5 PUSH1 0x40 MLOAD DUP5 PUSH4 0xFFFFFFFF AND PUSH1 0xE0 SHL DUP2 MSTORE PUSH1 0x4 ADD PUSH2 0xD2 SWAP4 SWAP3 SWAP2 SWAP1 PUSH2 0x31F JUMP JUMPDEST PUSH1 0x20 PUSH1 0x40 MLOAD DUP1 DUP4 SUB DUP2 PUSH0 DUP8 GAS CALL ISZERO DUP1 ISZERO PUSH2 0xEE JUMPI RETURNDATASIZE PUSH0 DUP1 RETURNDATACOPY RETURNDATASIZE PUSH0 REVERT JUMPDEST POP POP POP POP PUSH1 0x40 MLOAD RETURNDATASIZE PUSH1 0x1F NOT PUSH1 0x1F DUP3 ADD AND DUP3 ADD DUP1 PUSH1 0x40 MSTORE POP DUP2 ADD SWAP1 PUSH2 0x112 SWAP2 SWAP1 PUSH2 0x389 JUMP JUMPDEST POP PUSH0 DUP1 SLOAD SWAP1 PUSH2 0x100 EXP SWAP1 DIV PUSH20 0xFFFFFFFFFFFFFFFFFFFFFFFFFFFFFFFFFFFFFFFF AND PUSH20 0xFFFFFFFFFFFFFFFFFFFFFFFFFFFFFFFFFFFFFFFF AND PUSH4 0xA9059CBB CALLER PUSH8 0xDE0B6B3A7640000 PUSH1 0x40 MLOAD DUP4 PUSH4 0xFFFFFFFF AND PUSH1 0xE0 SHL DUP2 MSTORE PUSH1 0x4 ADD PUSH2 0x175 SWAP3 SWAP2 SWAP1 PUSH2 0x3F6 JUMP JUMPDEST PUSH1 0x20 PUSH1 0x40 MLOAD DUP1 DUP4 SUB DUP2 PUSH0 DUP8 GAS CALL ISZERO DUP1 ISZERO PUSH2 0x191 JUMPI RETURNDATASIZE PUSH0 DUP1 RETURNDATACOPY RETURNDATASIZE PUSH0 REVERT JUMPDEST POP POP POP POP PUSH1 0x40 MLOAD RETURNDATASIZE PUSH1 0x1F NOT PUSH1 0x1F DUP3 ADD AND DUP3 ADD DUP1 PUSH1 0x40 MSTORE POP DUP2 ADD SWAP1 PUSH2 0x1B5 SWAP2 SWAP1 PUSH2 0x389 JUMP JUMPDEST POP POP POP JUMP JUMPDEST PUSH0 DUP1 REVERT JUMPDEST PUSH0 PUSH20 0xFFFFFFFFFFFFFFFFFFFFFFFFFFFFFFFFFFFFFFFF DUP3 AND SWAP1 POP SWAP2 SWAP1 POP JUMP JUMPDEST PUSH0 PUSH2 0x1E7 DUP3 PUSH2 0x1BE JUMP JUMPDEST SWAP1 POP SWAP2 SWAP1 POP JUMP JUMPDEST PUSH2 0x1F7 DUP2 PUSH2 0x1DD JUMP JUMPDEST DUP2 EQ PUSH2 0x201 JUMPI PUSH0 DUP1 REVERT JUMPDEST POP JUMP JUMPDEST PUSH0 DUP2 CALLDATALOAD SWAP1 POP PUSH2 0x212 DUP2 PUSH2 0x1EE JUMP JUMPDEST SWAP3 SWAP2 POP POP JUMP JUMPDEST PUSH0 DUP2 SWAP1 POP SWAP2 SWAP1 POP JUMP JUMPDEST PUSH2 0x22A DUP2 PUSH2 0x218 JUMP JUMPDEST DUP2 EQ PUSH2 0x234 JUMPI PUSH0 DUP1 REVERT JUMPDEST POP JUMP JUMPDEST PUSH0 DUP2 CALLDATALOAD SWAP1 POP PUSH2 0x245 DUP2 PUSH2 0x221 JUMP JUMPDEST SWAP3 SWAP2 POP POP JUMP JUMPDEST PUSH0 DUP1 PUSH1 0x40 DUP4 DUP6 SUB SLT ISZERO PUSH2 0x261 JUMPI PUSH2 0x260 PUSH2 0x1BA JUMP JUMPDEST JUMPDEST PUSH0 PUSH2 0x26E DUP6 DUP3 DUP7 ADD PUSH2 0x204 JUMP JUMPDEST SWAP3 POP POP PUSH1 0x20 PUSH2 0x27F DUP6 DUP3 DUP7 ADD PUSH2 0x237 JUMP JUMPDEST SWAP2 POP POP SWAP3 POP SWAP3 SWAP1 POP JUMP JUMPDEST PUSH0 DUP3 DUP3 MSTORE PUSH1 0x20 DUP3 ADD SWAP1 POP SWAP3 SWAP2 POP POP JUMP JUMPDEST PUSH32 0x6E6F7420656E6F75676800000000000000000000000000000000000000000000 PUSH0 DUP3 ADD MSTORE POP JUMP JUMPDEST PUSH0 PUSH2 0x2CD PUSH1 0xA DUP4 PUSH2 0x289 JUMP JUMPDEST SWAP2 POP PUSH2 0x2D8 DUP3 PUSH2 0x299 JUMP JUMPDEST PUSH1 0x20 DUP3 ADD SWAP1 POP SWAP2 SWAP1 POP JUMP JUMPDEST PUSH0 PUSH1 0x20 DUP3 ADD SWAP1 POP DUP2 DUP2 SUB PUSH0 DUP4 ADD MSTORE PUSH2 0x2FA DUP2 PUSH2 0x2C1 JUMP JUMPDEST SWAP1 POP SWAP2 SWAP1 POP JUMP JUMPDEST PUSH2 0x30A DUP2 PUSH2 0x1DD JUMP JUMPDEST DUP3 MSTORE POP POP JUMP JUMPDEST PUSH2 0x319 DUP2 PUSH2 0x218 JUMP JUMPDEST DUP3 MSTORE POP POP JUMP JUMPDEST PUSH0 PUSH1 0x60 DUP3 ADD SWAP1 POP PUSH2 0x332 PUSH0 DUP4 ADD DUP7 PUSH2 0x301 JUMP JUMPDEST PUSH2 0x33F PUSH1 0x20 DUP4 ADD DUP6 PUSH2 0x301 JUMP JUMPDEST PUSH2 0x34C PUSH1 0x40 DUP4 ADD DUP5 PUSH2 0x310 JUMP JUMPDEST SWAP5 SWAP4 POP POP POP POP JUMP JUMPDEST PUSH0 DUP2 ISZERO ISZERO SWAP1 POP SWAP2 SWAP1 POP JUMP JUMPDEST PUSH2 0x368 DUP2 PUSH2 0x354 JUMP JUMPDEST DUP2 EQ PUSH2 0x372 JUMPI PUSH0 DUP1 REVERT JUMPDEST POP JUMP JUMPDEST PUSH0 DUP2 MLOAD SWAP1 POP PUSH2 0x383 DUP2 PUSH2 0x35F JUMP JUMPDEST SWAP3 SWAP2 POP POP JUMP JUMPDEST PUSH0 PUSH1 0x20 DUP3 DUP5 SUB SLT ISZERO PUSH2 0x39E JUMPI PUSH2 0x39D PUSH2 0x1BA JUMP JUMPDEST JUMPDEST PUSH0 PUSH2 0x3AB DUP5 DUP3 DUP6 ADD PUSH2 0x375 JUMP JUMPDEST SWAP2 POP POP SWAP3 SWAP2 POP POP JUMP JUMPDEST PUSH0 DUP2 SWAP1 POP SWAP2 SWAP1 POP JUMP JUMPDEST PUSH0 DUP2 SWAP1 POP SWAP2 SWAP1 POP JUMP JUMPDEST PUSH0 PUSH2 0x3E0 PUSH2 0x3DB PUSH2 0x3D6 DUP5 PUSH2 0x3B4 JUMP JUMPDEST PUSH2 0x3BD JUMP JUMPDEST PUSH2 0x218 JUMP JUMPDEST SWAP1 POP SWAP2 SWAP1 POP JUMP JUMPDEST PUSH2 0x3F0 DUP2 PUSH2 0x3C6 JUMP JUMPDEST DUP3 MSTORE POP POP JUMP JUMPDEST PUSH0 PUSH1 0x40 DUP3 ADD SWAP1 POP PUSH2 0x409 PUSH0 DUP4 ADD DUP6 PUSH2 0x301 JUMP JUMPDEST PUSH2 0x416 PUSH1 0x20 DUP4 ADD DUP5 PUSH2 0x3E7 JUMP JUMPDEST SWAP4 SWAP3 POP POP POP JUMP INVALID LOG2 PUSH5 0x6970667358 0x22 SLT KECCAK256 0xC7 SWAP16 0x2E BLOBHASH 0xF7 0xED JUMPI DUP8 NUMBER POP PUSH32 0x7868E8990470A34FB1E4E73BBDDBAE8803BC9F159564736F6C63430008180033 "
				},
				"gasEstimates": {
					"creation": {
						"codeDepositCost": "221400",
						"executionCost": "24527",
						"totalCost": "245927"
					},
					"external": {
						"theMagicPot(address,uint256)": "infinite"
					}
				},
				"methodIdentifiers": {
					"theMagicPot(address,uint256)": "e867fb97"
				}
			},
			"storageLayout": {
				"storage": [
					{
						"astId": 87,
						"contract": "Lab2_MalikDAHMANI/MagicPot.sol:MagicPot",
						"label": "mt",
						"offset": 0,
						"slot": "0",
						"type": "t_address"
					}
				],
				"types": {
					"t_address": {
						"encoding": "inplace",
						"label": "address",
						"numberOfBytes": "20"
					}
				}
			},
			"userdoc": {
				"kind": "user",
				"methods": {},
				"version": 1
			}
		}
	}
}