{
  "_format": "hh-sol-artifact-1",
  "contractName": "MyOwnSafeFactory",
  "sourceName": "contracts/SafeFactory.sol",
  "abi": [
    {
      "inputs": [],
      "stateMutability": "nonpayable",
      "type": "constructor"
    },
    {
      "inputs": [],
      "name": "Create2EmptyBytecode",
      "type": "error"
    },
    {
      "inputs": [],
      "name": "Create2FailedDeployment",
      "type": "error"
    },
    {
      "inputs": [
        {
          "internalType": "uint256",
          "name": "balance",
          "type": "uint256"
        },
        {
          "internalType": "uint256",
          "name": "needed",
          "type": "uint256"
        }
      ],
      "name": "Create2InsufficientBalance",
      "type": "error"
    },
    {
      "inputs": [],
      "name": "ERC1167FailedCreateClone",
      "type": "error"
    },
    {
      "anonymous": false,
      "inputs": [
        {
          "indexed": true,
          "internalType": "address",
          "name": "safeAddress",
          "type": "address"
        },
        {
          "indexed": true,
          "internalType": "address",
          "name": "owner",
          "type": "address"
        }
      ],
      "name": "SafeDeployed",
      "type": "event"
    },
    {
      "anonymous": false,
      "inputs": [
        {
          "indexed": true,
          "internalType": "address",
          "name": "proxyAddress",
          "type": "address"
        },
        {
          "indexed": true,
          "internalType": "address",
          "name": "owner",
          "type": "address"
        }
      ],
      "name": "SafeUpgradeableDeployed",
      "type": "event"
    },
    {
      "inputs": [
        {
          "internalType": "address",
          "name": "_owner",
          "type": "address"
        }
      ],
      "name": "deploySafe",
      "outputs": [
        {
          "internalType": "address",
          "name": "",
          "type": "address"
        }
      ],
      "stateMutability": "nonpayable",
      "type": "function"
    },
    {
      "inputs": [
        {
          "internalType": "address",
          "name": "_owner",
          "type": "address"
        }
      ],
      "name": "deploySafeUpgradeable",
      "outputs": [
        {
          "internalType": "address",
          "name": "",
          "type": "address"
        }
      ],
      "stateMutability": "nonpayable",
      "type": "function"
    },
    {
      "inputs": [
        {
          "internalType": "address",
          "name": "_owner",
          "type": "address"
        },
        {
          "internalType": "bytes32",
          "name": "salt",
          "type": "bytes32"
        }
      ],
      "name": "deploySafeUpgradeableWithCreate2",
      "outputs": [
        {
          "internalType": "address",
          "name": "",
          "type": "address"
        }
      ],
      "stateMutability": "nonpayable",
      "type": "function"
    },
    {
      "inputs": [
        {
          "internalType": "address",
          "name": "_owner",
          "type": "address"
        },
        {
          "internalType": "bytes32",
          "name": "salt",
          "type": "bytes32"
        }
      ],
      "name": "deploySafeWithCreate2",
      "outputs": [
        {
          "internalType": "address",
          "name": "",
          "type": "address"
        }
      ],
      "stateMutability": "nonpayable",
      "type": "function"
    },
    {
      "inputs": [],
      "name": "myOwnSafeImplementation",
      "outputs": [
        {
          "internalType": "address",
          "name": "",
          "type": "address"
        }
      ],
      "stateMutability": "view",
      "type": "function"
    },
    {
      "inputs": [],
      "name": "myOwnSafeUpgradeableImplementation",
      "outputs": [
        {
          "internalType": "address",
          "name": "",
          "type": "address"
        }
      ],
      "stateMutability": "view",
      "type": "function"
    }
  ],
  "bytecode": "0x60c060405234801561001057600080fd5b503060405161001e90610091565b6001600160a01b039091168152602001604051809103906000f08015801561004a573d6000803e3d6000fd5b506001600160a01b03166080526040516100639061009e565b604051809103906000f08015801561007f573d6000803e3d6000fd5b506001600160a01b031660a0526100ab565b61032d80610aad83390190565b61039b80610dda83390190565b60805160a0516109d06100dd6000396000818161010b0152818161013501526102b90152600060be01526109d06000f3fe608060405234801561001057600080fd5b50600436106100725760003560e01c8063688610351161005057806368861035146100e0578063c97bec9b146100f3578063d92360141461010657600080fd5b8063202aed4514610077578063443930be146100a65780635a49fd4c146100b9575b600080fd5b61008a6100853660046105db565b61012d565b6040516001600160a01b03909116815260200160405180910390f35b61008a6100b43660046105f6565b6101f6565b61008a7f000000000000000000000000000000000000000000000000000000000000000081565b61008a6100ee3660046105f6565b6102b1565b61008a6101013660046105db565b61037c565b61008a7f000000000000000000000000000000000000000000000000000000000000000081565b6000806101597f0000000000000000000000000000000000000000000000000000000000000000610401565b60405163189acdbd60e31b81526001600160a01b0385811660048301529192509082169063c4d66de890602401600060405180830381600087803b1580156101a057600080fd5b505af11580156101b4573d6000803e3d6000fd5b50506040516001600160a01b038087169350841691507fc5aee479f0a332528d9978bb3faef4c74b7425d29183509edd10706788eae79490600090a392915050565b6000806102666000846040518060200161020f906105b7565b601f1982820381018352601f9091011660408181526001600160a01b038a1660208301520160408051601f19818403018152908290526102529291602001610650565b604051602081830303815290604052610473565b9050836001600160a01b0316816001600160a01b03167f9f57f38058d39775937e43acd5aa6c8585579f7bffbe10c631db6e29f64086c160405160405180910390a390505b92915050565b6000806102de7f000000000000000000000000000000000000000000000000000000000000000084610549565b60405163189acdbd60e31b81526001600160a01b0386811660048301529192509082169063c4d66de890602401600060405180830381600087803b15801561032557600080fd5b505af1158015610339573d6000803e3d6000fd5b50506040516001600160a01b038088169350841691507fc5aee479f0a332528d9978bb3faef4c74b7425d29183509edd10706788eae79490600090a39392505050565b6000808260405161038c906105b7565b6001600160a01b039091168152602001604051809103906000f0801580156103b8573d6000803e3d6000fd5b509050826001600160a01b0316816001600160a01b03167f9f57f38058d39775937e43acd5aa6c8585579f7bffbe10c631db6e29f64086c160405160405180910390a392915050565b6000763d602d80600a3d3981f3363d3d373d3d3d363d730000008260601b60e81c176000526e5af43d82803e903d91602b57fd5bf38260781b17602052603760096000f090506001600160a01b03811661046e576040516330be1a3d60e21b815260040160405180910390fd5b919050565b6000834710156104bc576040517fe4bbecac0000000000000000000000000000000000000000000000000000000081524760048201526024810185905260440160405180910390fd5b81516000036104f7576040517f4ca249dc00000000000000000000000000000000000000000000000000000000815260040160405180910390fd5b8282516020840186f590506001600160a01b038116610542576040517f741752c200000000000000000000000000000000000000000000000000000000815260040160405180910390fd5b9392505050565b6000763d602d80600a3d3981f3363d3d373d3d3d363d730000008360601b60e81c176000526e5af43d82803e903d91602b57fd5bf38360781b1760205281603760096000f590506001600160a01b0381166102ab576040516330be1a3d60e21b815260040160405180910390fd5b61032d8061066e83390190565b80356001600160a01b038116811461046e57600080fd5b6000602082840312156105ed57600080fd5b610542826105c4565b6000806040838503121561060957600080fd5b610612836105c4565b946020939093013593505050565b6000815160005b818110156106415760208185018101518683015201610627565b50600093019283525090919050565b600061066561065f8386610620565b84610620565b94935050505056fe608060405234801561001057600080fd5b5060405161032d38038061032d83398101604081905261002f91610054565b600080546001600160a01b0319166001600160a01b0392909216919091179055610084565b60006020828403121561006657600080fd5b81516001600160a01b038116811461007d57600080fd5b9392505050565b61029a806100936000396000f3fe608060405234801561001057600080fd5b50600436106100415760003560e01c806306661abd146100465780638da5cb5b14610050578063f3fef3a31461007f575b600080fd5b61004e610092565b005b600054610063906001600160a01b031681565b6040516001600160a01b03909116815260200160405180910390f35b61004e61008d3660046101c3565b6100f1565b6000546001600160a01b031633146100da5760405162461bcd60e51b815260206004820152600660248201526510b7bbb732b960d11b60448201526064015b60405180910390fd5b600180549060006100ea836101fb565b9190505550565b6000546001600160a01b031633146101345760405162461bcd60e51b815260206004820152600660248201526510b7bbb732b960d11b60448201526064016100d1565b6040517fa9059cbb000000000000000000000000000000000000000000000000000000008152336004820152602481018290526001600160a01b0383169063a9059cbb906044016020604051808303816000875af115801561019a573d6000803e3d6000fd5b505050506040513d601f19601f820116820180604052508101906101be919061023b565b505050565b600080604083850312156101d657600080fd5b82356001600160a01b03811681146101ed57600080fd5b946020939093013593505050565b600060018201610234577f4e487b7100000000000000000000000000000000000000000000000000000000600052601160045260246000fd5b5060010190565b60006020828403121561024d57600080fd5b8151801515811461025d57600080fd5b939250505056fea2646970667358221220da9bd2b31c2e906cf83da4de568e9eeb25f53e4c4c66ff0e82370ba833baeaa164736f6c63430008180033a2646970667358221220f7a1ee0f12d0f0be93625f210a1802402ccfdfd034e5cfb22a2f46f431db53a864736f6c63430008180033608060405234801561001057600080fd5b5060405161032d38038061032d83398101604081905261002f91610054565b600080546001600160a01b0319166001600160a01b0392909216919091179055610084565b60006020828403121561006657600080fd5b81516001600160a01b038116811461007d57600080fd5b9392505050565b61029a806100936000396000f3fe608060405234801561001057600080fd5b50600436106100415760003560e01c806306661abd146100465780638da5cb5b14610050578063f3fef3a31461007f575b600080fd5b61004e610092565b005b600054610063906001600160a01b031681565b6040516001600160a01b03909116815260200160405180910390f35b61004e61008d3660046101c3565b6100f1565b6000546001600160a01b031633146100da5760405162461bcd60e51b815260206004820152600660248201526510b7bbb732b960d11b60448201526064015b60405180910390fd5b600180549060006100ea836101fb565b9190505550565b6000546001600160a01b031633146101345760405162461bcd60e51b815260206004820152600660248201526510b7bbb732b960d11b60448201526064016100d1565b6040517fa9059cbb000000000000000000000000000000000000000000000000000000008152336004820152602481018290526001600160a01b0383169063a9059cbb906044016020604051808303816000875af115801561019a573d6000803e3d6000fd5b505050506040513d601f19601f820116820180604052508101906101be919061023b565b505050565b600080604083850312156101d657600080fd5b82356001600160a01b03811681146101ed57600080fd5b946020939093013593505050565b600060018201610234577f4e487b7100000000000000000000000000000000000000000000000000000000600052601160045260246000fd5b5060010190565b60006020828403121561024d57600080fd5b8151801515811461025d57600080fd5b939250505056fea2646970667358221220da9bd2b31c2e906cf83da4de568e9eeb25f53e4c4c66ff0e82370ba833baeaa164736f6c63430008180033608060405234801561001057600080fd5b5061037b806100206000396000f3fe608060405234801561001057600080fd5b506004361061004c5760003560e01c806306661abd146100515780638da5cb5b1461005b578063c4d66de81461008a578063f3fef3a31461009d575b600080fd5b6100596100b0565b005b60005461006e906001600160a01b031681565b6040516001600160a01b03909116815260200160405180910390f35b610059610098366004610297565b61010f565b6100596100ab3660046102b9565b6101a9565b6000546001600160a01b031633146100f85760405162461bcd60e51b815260206004820152600660248201526510b7bbb732b960d11b60448201526064015b60405180910390fd5b60018054906000610108836102e3565b9190505550565b60025460ff16156101625760405162461bcd60e51b815260206004820152600b60248201527f696e697469616c697a656400000000000000000000000000000000000000000060448201526064016100ef565b600080547fffffffffffffffffffffffff0000000000000000000000000000000000000000166001600160a01b03929092169190911790556002805460ff19166001179055565b6000546001600160a01b031633146101ec5760405162461bcd60e51b815260206004820152600660248201526510b7bbb732b960d11b60448201526064016100ef565b6040517fa9059cbb000000000000000000000000000000000000000000000000000000008152336004820152602481018290526001600160a01b0383169063a9059cbb906044016020604051808303816000875af1158015610252573d6000803e3d6000fd5b505050506040513d601f19601f820116820180604052508101906102769190610323565b505050565b80356001600160a01b038116811461029257600080fd5b919050565b6000602082840312156102a957600080fd5b6102b28261027b565b9392505050565b600080604083850312156102cc57600080fd5b6102d58361027b565b946020939093013593505050565b60006001820161031c577f4e487b7100000000000000000000000000000000000000000000000000000000600052601160045260246000fd5b5060010190565b60006020828403121561033557600080fd5b815180151581146102b257600080fdfea2646970667358221220684c14092dec444b50eed8979c49384bb3e5a05f680631c58308e6c7663d86a764736f6c63430008180033",
  "linkReferences": {},
  "deployedLinkReferences": {}
}