{
  "_format": "hh-sol-artifact-1",
  "contractName": "MyOwnSafeFactory",
  "sourceName": "contracts/MyOwnSafeFactory.sol",
  "abi": [
    {
      "inputs": [],
      "stateMutability": "nonpayable",
      "type": "constructor"
    },
    {
      "inputs": [],
      "name": "Create2EmptyBytecode",
      "type": "error"
    },
    {
      "inputs": [],
      "name": "Create2FailedDeployment",
      "type": "error"
    },
    {
      "inputs": [
        {
          "internalType": "uint256",
          "name": "balance",
          "type": "uint256"
        },
        {
          "internalType": "uint256",
          "name": "needed",
          "type": "uint256"
        }
      ],
      "name": "Create2InsufficientBalance",
      "type": "error"
    },
    {
      "inputs": [],
      "name": "ERC1167FailedCreateClone",
      "type": "error"
    },
    {
      "anonymous": false,
      "inputs": [
        {
          "indexed": true,
          "internalType": "address",
          "name": "safeAddress",
          "type": "address"
        },
        {
          "indexed": true,
          "internalType": "address",
          "name": "owner",
          "type": "address"
        }
      ],
      "name": "SafeDeployed",
      "type": "event"
    },
    {
      "anonymous": false,
      "inputs": [
        {
          "indexed": true,
          "internalType": "address",
          "name": "proxyAddress",
          "type": "address"
        },
        {
          "indexed": true,
          "internalType": "address",
          "name": "owner",
          "type": "address"
        }
      ],
      "name": "SafeUpgradeableDeployed",
      "type": "event"
    },
    {
      "inputs": [
        {
          "internalType": "address",
          "name": "_owner",
          "type": "address"
        }
      ],
      "name": "deploySafe",
      "outputs": [
        {
          "internalType": "address",
          "name": "",
          "type": "address"
        }
      ],
      "stateMutability": "nonpayable",
      "type": "function"
    },
    {
      "inputs": [
        {
          "internalType": "address",
          "name": "_owner",
          "type": "address"
        }
      ],
      "name": "deploySafeUpgradeable",
      "outputs": [
        {
          "internalType": "address",
          "name": "",
          "type": "address"
        }
      ],
      "stateMutability": "nonpayable",
      "type": "function"
    },
    {
      "inputs": [
        {
          "internalType": "address",
          "name": "_owner",
          "type": "address"
        },
        {
          "internalType": "bytes32",
          "name": "salt",
          "type": "bytes32"
        }
      ],
      "name": "deploySafeUpgradeableWithCreate2",
      "outputs": [
        {
          "internalType": "address",
          "name": "",
          "type": "address"
        }
      ],
      "stateMutability": "nonpayable",
      "type": "function"
    },
    {
      "inputs": [
        {
          "internalType": "address",
          "name": "_owner",
          "type": "address"
        },
        {
          "internalType": "bytes32",
          "name": "salt",
          "type": "bytes32"
        }
      ],
      "name": "deploySafeWithCreate2",
      "outputs": [
        {
          "internalType": "address",
          "name": "",
          "type": "address"
        }
      ],
      "stateMutability": "nonpayable",
      "type": "function"
    },
    {
      "inputs": [],
      "name": "myOwnSafeImplementation",
      "outputs": [
        {
          "internalType": "address",
          "name": "",
          "type": "address"
        }
      ],
      "stateMutability": "view",
      "type": "function"
    },
    {
      "inputs": [],
      "name": "myOwnSafeUpgradeableImplementation",
      "outputs": [
        {
          "internalType": "address",
          "name": "",
          "type": "address"
        }
      ],
      "stateMutability": "view",
      "type": "function"
    }
  ],
  "bytecode": "0x60c06040523480156200001157600080fd5b506200002e6778209f56ddc171f960c01b6200013760201b60201c565b6200004a671bc21773da88d4ce60c01b6200013760201b60201c565b3060405162000059906200013a565b6200006591906200019b565b604051809103906000f08015801562000082573d6000803e3d6000fd5b5073ffffffffffffffffffffffffffffffffffffffff1660808173ffffffffffffffffffffffffffffffffffffffff1681525050620000d267aa07b3ec9a0649a960c01b6200013760201b60201c565b604051620000e09062000148565b604051809103906000f080158015620000fd573d6000803e3d6000fd5b5073ffffffffffffffffffffffffffffffffffffffff1660a08173ffffffffffffffffffffffffffffffffffffffff1681525050620001b8565b50565b610826806200166c83390190565b6108f28062001e9283390190565b600073ffffffffffffffffffffffffffffffffffffffff82169050919050565b6000620001838262000156565b9050919050565b620001958162000176565b82525050565b6000602082019050620001b260008301846200018a565b92915050565b60805160a051611480620001ec600039600081816101b8015281816104f2015261078b0152600061048b01526114806000f3fe608060405234801561001057600080fd5b50600436106100725760003560e01c8063688610351161005057806368861035146100f5578063c97bec9b14610125578063d92360141461015557610072565b8063202aed4514610077578063443930be146100a75780635a49fd4c146100d7575b600080fd5b610091600480360381019061008c9190610a80565b610173565b60405161009e9190610abc565b60405180910390f35b6100c160048036038101906100bc9190610b0d565b610324565b6040516100ce9190610abc565b60405180910390f35b6100df610489565b6040516100ec9190610abc565b60405180910390f35b61010f600480360381019061010a9190610b0d565b6104ad565b60405161011c9190610abc565b60405180910390f35b61013f600480360381019061013a9190610a80565b610660565b60405161014c9190610abc565b60405180910390f35b61015d610789565b60405161016a9190610abc565b60405180910390f35b600061018967518456449cf4647960c01b6107ad565b61019d670ff2120e2bb453bd60c01b6107ad565b6101b167540444ee4b56b21760c01b6107ad565b60006101dc7f00000000000000000000000000000000000000000000000000000000000000006107b0565b90506101f26776ecaead8724026060c01b6107ad565b61020667dc86a7e4d2ad2e9560c01b6107ad565b8073ffffffffffffffffffffffffffffffffffffffff1663c4d66de8846040518263ffffffff1660e01b815260040161023f9190610abc565b600060405180830381600087803b15801561025957600080fd5b505af115801561026d573d6000803e3d6000fd5b505050506102856738bbd253e8c4d69160c01b6107ad565b610299676c3a7ea2023de19660c01b6107ad565b8273ffffffffffffffffffffffffffffffffffffffff168173ffffffffffffffffffffffffffffffffffffffff167fc5aee479f0a332528d9978bb3faef4c74b7425d29183509edd10706788eae79460405160405180910390a361030767ccbd938577aa720b60c01b6107ad565b61031b6746039eafbb77888260c01b6107ad565b80915050919050565b600061033a67a73953d92cd1e39460c01b6107ad565b61034e67786bc651fb53d40160c01b6107ad565b6103626796d7176e0425fb5960c01b6107ad565b60006103d36000846040518060200161037a90610a10565b6020820181038252601f19601f820116604052508760405160200161039f9190610abc565b6040516020818303038152906040526040516020016103bf929190610bbe565b604051602081830303815290604052610861565b90506103e96786a8f92a12400cf360c01b6107ad565b6103fd67c63a9e7ef11f04de60c01b6107ad565b8373ffffffffffffffffffffffffffffffffffffffff168173ffffffffffffffffffffffffffffffffffffffff167f9f57f38058d39775937e43acd5aa6c8585579f7bffbe10c631db6e29f64086c160405160405180910390a361046b67848442922c629b2860c01b6107ad565b61047f674e63b6a9195c36b960c01b6107ad565b8091505092915050565b7f000000000000000000000000000000000000000000000000000000000000000081565b60006104c367e138e8cf5ac6279560c01b6107ad565b6104d767fd20f2a3d5703e3a60c01b6107ad565b6104eb674743e5099229e6ac60c01b6107ad565b60006105177f00000000000000000000000000000000000000000000000000000000000000008461095d565b905061052d67d1bbcb01ba5114b760c01b6107ad565b61054167d465b30b77c5d01060c01b6107ad565b8073ffffffffffffffffffffffffffffffffffffffff1663c4d66de8856040518263ffffffff1660e01b815260040161057a9190610abc565b600060405180830381600087803b15801561059457600080fd5b505af11580156105a8573d6000803e3d6000fd5b505050506105c067046ed0dc4892aabf60c01b6107ad565b6105d4675084919e1134ac3e60c01b6107ad565b8373ffffffffffffffffffffffffffffffffffffffff168173ffffffffffffffffffffffffffffffffffffffff167fc5aee479f0a332528d9978bb3faef4c74b7425d29183509edd10706788eae79460405160405180910390a36106426751bd7ed8ca43550560c01b6107ad565b610656670edcf94b379a727c60c01b6107ad565b8091505092915050565b6000610676671c97250bf775dbbb60c01b6107ad565b61068a673ecd783dfc5ef4ca60c01b6107ad565b61069e67c47728265f53cb8f60c01b6107ad565b6000826040516106ad90610a10565b6106b79190610abc565b604051809103906000f0801580156106d3573d6000803e3d6000fd5b5090506106ea672c98f63343583c1a60c01b6107ad565b6106fe6707a7fbd6a21a4c3a60c01b6107ad565b8273ffffffffffffffffffffffffffffffffffffffff168173ffffffffffffffffffffffffffffffffffffffff167f9f57f38058d39775937e43acd5aa6c8585579f7bffbe10c631db6e29f64086c160405160405180910390a361076c67fb27d947e53c746c60c01b6107ad565b61078067b9d5c3ff9bee68c060c01b6107ad565b80915050919050565b7f000000000000000000000000000000000000000000000000000000000000000081565b50565b6000763d602d80600a3d3981f3363d3d373d3d3d363d730000008260601b60e81c176000526e5af43d82803e903d91602b57fd5bf38260781b17602052603760096000f09050600073ffffffffffffffffffffffffffffffffffffffff168173ffffffffffffffffffffffffffffffffffffffff160361085c576040517fc2f868f400000000000000000000000000000000000000000000000000000000815260040160405180910390fd5b919050565b6000834710156108aa5747846040517fe4bbecac0000000000000000000000000000000000000000000000000000000081526004016108a1929190610bfb565b60405180910390fd5b60008251036108e5576040517f4ca249dc00000000000000000000000000000000000000000000000000000000815260040160405180910390fd5b8282516020840186f59050600073ffffffffffffffffffffffffffffffffffffffff168173ffffffffffffffffffffffffffffffffffffffff1603610956576040517f741752c200000000000000000000000000000000000000000000000000000000815260040160405180910390fd5b9392505050565b6000763d602d80600a3d3981f3363d3d373d3d3d363d730000008360601b60e81c176000526e5af43d82803e903d91602b57fd5bf38360781b1760205281603760096000f59050600073ffffffffffffffffffffffffffffffffffffffff168173ffffffffffffffffffffffffffffffffffffffff1603610a0a576040517fc2f868f400000000000000000000000000000000000000000000000000000000815260040160405180910390fd5b92915050565b61082680610c2583390190565b600080fd5b600073ffffffffffffffffffffffffffffffffffffffff82169050919050565b6000610a4d82610a22565b9050919050565b610a5d81610a42565b8114610a6857600080fd5b50565b600081359050610a7a81610a54565b92915050565b600060208284031215610a9657610a95610a1d565b5b6000610aa484828501610a6b565b91505092915050565b610ab681610a42565b82525050565b6000602082019050610ad16000830184610aad565b92915050565b6000819050919050565b610aea81610ad7565b8114610af557600080fd5b50565b600081359050610b0781610ae1565b92915050565b60008060408385031215610b2457610b23610a1d565b5b6000610b3285828601610a6b565b9250506020610b4385828601610af8565b9150509250929050565b600081519050919050565b600081905092915050565b60005b83811015610b81578082015181840152602081019050610b66565b60008484015250505050565b6000610b9882610b4d565b610ba28185610b58565b9350610bb2818560208601610b63565b80840191505092915050565b6000610bca8285610b8d565b9150610bd68284610b8d565b91508190509392505050565b6000819050919050565b610bf581610be2565b82525050565b6000604082019050610c106000830185610bec565b610c1d6020830184610bec565b939250505056fe608060405234801561001057600080fd5b5060405161082638038061082683398181016040528101906100329190610112565b61004c6742ed833a7f96941560c01b6100ac60201b60201c565b61006667042983fd182700b660c01b6100ac60201b60201c565b806000806101000a81548173ffffffffffffffffffffffffffffffffffffffff021916908373ffffffffffffffffffffffffffffffffffffffff1602179055505061013f565b50565b600080fd5b600073ffffffffffffffffffffffffffffffffffffffff82169050919050565b60006100df826100b4565b9050919050565b6100ef816100d4565b81146100fa57600080fd5b50565b60008151905061010c816100e6565b92915050565b600060208284031215610128576101276100af565b5b6000610136848285016100fd565b91505092915050565b6106d88061014e6000396000f3fe608060405234801561001057600080fd5b50600436106100415760003560e01c806306661abd146100465780638da5cb5b14610050578063f3fef3a31461006e575b600080fd5b61004e61008a565b005b6100586101fa565b604051610065919061044f565b60405180910390f35b610088600480360381019061008391906104d1565b61021e565b005b61009e679cb98b270348be2960c01b61040b565b6100b267297982510b1d433860c01b61040b565b6100c6675b2b0654536c17fc60c01b61040b565b6100da67a305fb29f8ddbcf760c01b61040b565b6100ee676c43e096419f332c60c01b61040b565b60008054906101000a900473ffffffffffffffffffffffffffffffffffffffff1673ffffffffffffffffffffffffffffffffffffffff163373ffffffffffffffffffffffffffffffffffffffff161461017c576040517f08c379a00000000000000000000000000000000000000000000000000000000081526004016101739061056e565b60405180910390fd5b610190677d416ab2e74ecfc760c01b61040b565b6101a46712cc9acafac88e9a60c01b61040b565b6101b867113012d5654817dd60c01b61040b565b6101cc6750cfbce54280ee6660c01b61040b565b6101e067ff8dcace9c05a70d60c01b61040b565b600160008154809291906101f3906105bd565b9190505550565b60008054906101000a900473ffffffffffffffffffffffffffffffffffffffff1681565b610232678bf1cfb2deb00dd560c01b61040b565b61024667297982510b1d433860c01b61040b565b61025a675b2b0654536c17fc60c01b61040b565b61026e67a305fb29f8ddbcf760c01b61040b565b610282676c43e096419f332c60c01b61040b565b60008054906101000a900473ffffffffffffffffffffffffffffffffffffffff1673ffffffffffffffffffffffffffffffffffffffff163373ffffffffffffffffffffffffffffffffffffffff1614610310576040517f08c379a00000000000000000000000000000000000000000000000000000000081526004016103079061056e565b60405180910390fd5b610324677d416ab2e74ecfc760c01b61040b565b6103386712cc9acafac88e9a60c01b61040b565b61034c67906e59ca18d4837860c01b61040b565b6103606772ed60df6a0a6fd460c01b61040b565b61037467093bf0f2418ddf7c60c01b61040b565b61038867707bd7df863dd67460c01b61040b565b8173ffffffffffffffffffffffffffffffffffffffff1663a9059cbb33836040518363ffffffff1660e01b81526004016103c3929190610614565b6020604051808303816000875af11580156103e2573d6000803e3d6000fd5b505050506040513d601f19601f820116820180604052508101906104069190610675565b505050565b50565b600073ffffffffffffffffffffffffffffffffffffffff82169050919050565b60006104398261040e565b9050919050565b6104498161042e565b82525050565b60006020820190506104646000830184610440565b92915050565b600080fd5b6104788161042e565b811461048357600080fd5b50565b6000813590506104958161046f565b92915050565b6000819050919050565b6104ae8161049b565b81146104b957600080fd5b50565b6000813590506104cb816104a5565b92915050565b600080604083850312156104e8576104e761046a565b5b60006104f685828601610486565b9250506020610507858286016104bc565b9150509250929050565b600082825260208201905092915050565b7f216f776e65720000000000000000000000000000000000000000000000000000600082015250565b6000610558600683610511565b915061056382610522565b602082019050919050565b600060208201905081810360008301526105878161054b565b9050919050565b7f4e487b7100000000000000000000000000000000000000000000000000000000600052601160045260246000fd5b60006105c88261049b565b91507fffffffffffffffffffffffffffffffffffffffffffffffffffffffffffffffff82036105fa576105f961058e565b5b600182019050919050565b61060e8161049b565b82525050565b60006040820190506106296000830185610440565b6106366020830184610605565b9392505050565b60008115159050919050565b6106528161063d565b811461065d57600080fd5b50565b60008151905061066f81610649565b92915050565b60006020828403121561068b5761068a61046a565b5b600061069984828501610660565b9150509291505056fea26469706673582212205e0efafad654555fdc55725336be2a753fa98127f50cc4cfd03420588c9f38a364736f6c63430008180033a2646970667358221220cecabf4931bbc01fc3cc4f7203cd70a70ff77f1e55b12012ced88ffefb5c88fd64736f6c63430008180033608060405234801561001057600080fd5b5060405161082638038061082683398181016040528101906100329190610112565b61004c6742ed833a7f96941560c01b6100ac60201b60201c565b61006667042983fd182700b660c01b6100ac60201b60201c565b806000806101000a81548173ffffffffffffffffffffffffffffffffffffffff021916908373ffffffffffffffffffffffffffffffffffffffff1602179055505061013f565b50565b600080fd5b600073ffffffffffffffffffffffffffffffffffffffff82169050919050565b60006100df826100b4565b9050919050565b6100ef816100d4565b81146100fa57600080fd5b50565b60008151905061010c816100e6565b92915050565b600060208284031215610128576101276100af565b5b6000610136848285016100fd565b91505092915050565b6106d88061014e6000396000f3fe608060405234801561001057600080fd5b50600436106100415760003560e01c806306661abd146100465780638da5cb5b14610050578063f3fef3a31461006e575b600080fd5b61004e61008a565b005b6100586101fa565b604051610065919061044f565b60405180910390f35b610088600480360381019061008391906104d1565b61021e565b005b61009e679cb98b270348be2960c01b61040b565b6100b267297982510b1d433860c01b61040b565b6100c6675b2b0654536c17fc60c01b61040b565b6100da67a305fb29f8ddbcf760c01b61040b565b6100ee676c43e096419f332c60c01b61040b565b60008054906101000a900473ffffffffffffffffffffffffffffffffffffffff1673ffffffffffffffffffffffffffffffffffffffff163373ffffffffffffffffffffffffffffffffffffffff161461017c576040517f08c379a00000000000000000000000000000000000000000000000000000000081526004016101739061056e565b60405180910390fd5b610190677d416ab2e74ecfc760c01b61040b565b6101a46712cc9acafac88e9a60c01b61040b565b6101b867113012d5654817dd60c01b61040b565b6101cc6750cfbce54280ee6660c01b61040b565b6101e067ff8dcace9c05a70d60c01b61040b565b600160008154809291906101f3906105bd565b9190505550565b60008054906101000a900473ffffffffffffffffffffffffffffffffffffffff1681565b610232678bf1cfb2deb00dd560c01b61040b565b61024667297982510b1d433860c01b61040b565b61025a675b2b0654536c17fc60c01b61040b565b61026e67a305fb29f8ddbcf760c01b61040b565b610282676c43e096419f332c60c01b61040b565b60008054906101000a900473ffffffffffffffffffffffffffffffffffffffff1673ffffffffffffffffffffffffffffffffffffffff163373ffffffffffffffffffffffffffffffffffffffff1614610310576040517f08c379a00000000000000000000000000000000000000000000000000000000081526004016103079061056e565b60405180910390fd5b610324677d416ab2e74ecfc760c01b61040b565b6103386712cc9acafac88e9a60c01b61040b565b61034c67906e59ca18d4837860c01b61040b565b6103606772ed60df6a0a6fd460c01b61040b565b61037467093bf0f2418ddf7c60c01b61040b565b61038867707bd7df863dd67460c01b61040b565b8173ffffffffffffffffffffffffffffffffffffffff1663a9059cbb33836040518363ffffffff1660e01b81526004016103c3929190610614565b6020604051808303816000875af11580156103e2573d6000803e3d6000fd5b505050506040513d601f19601f820116820180604052508101906104069190610675565b505050565b50565b600073ffffffffffffffffffffffffffffffffffffffff82169050919050565b60006104398261040e565b9050919050565b6104498161042e565b82525050565b60006020820190506104646000830184610440565b92915050565b600080fd5b6104788161042e565b811461048357600080fd5b50565b6000813590506104958161046f565b92915050565b6000819050919050565b6104ae8161049b565b81146104b957600080fd5b50565b6000813590506104cb816104a5565b92915050565b600080604083850312156104e8576104e761046a565b5b60006104f685828601610486565b9250506020610507858286016104bc565b9150509250929050565b600082825260208201905092915050565b7f216f776e65720000000000000000000000000000000000000000000000000000600082015250565b6000610558600683610511565b915061056382610522565b602082019050919050565b600060208201905081810360008301526105878161054b565b9050919050565b7f4e487b7100000000000000000000000000000000000000000000000000000000600052601160045260246000fd5b60006105c88261049b565b91507fffffffffffffffffffffffffffffffffffffffffffffffffffffffffffffffff82036105fa576105f961058e565b5b600182019050919050565b61060e8161049b565b82525050565b60006040820190506106296000830185610440565b6106366020830184610605565b9392505050565b60008115159050919050565b6106528161063d565b811461065d57600080fd5b50565b60008151905061066f81610649565b92915050565b60006020828403121561068b5761068a61046a565b5b600061069984828501610660565b9150509291505056fea26469706673582212205e0efafad654555fdc55725336be2a753fa98127f50cc4cfd03420588c9f38a364736f6c63430008180033608060405234801561001057600080fd5b506108d2806100206000396000f3fe608060405234801561001057600080fd5b506004361061004c5760003560e01c806306661abd146100515780638da5cb5b1461005b578063c4d66de814610079578063f3fef3a314610095575b600080fd5b6100596100b1565b005b610063610221565b60405161007091906105b0565b60405180910390f35b610093600480360381019061008e91906105fc565b610245565b005b6100af60048036038101906100aa919061065f565b61037f565b005b6100c56723ded1a1511b113160c01b61056c565b6100d9676b0def5d0ed3bb6b60c01b61056c565b6100ed67ab4c908531715b8260c01b61056c565b6101016773ad55ec0bc9e7f260c01b61056c565b610115673091ba46adf5ec1460c01b61056c565b60008054906101000a900473ffffffffffffffffffffffffffffffffffffffff1673ffffffffffffffffffffffffffffffffffffffff163373ffffffffffffffffffffffffffffffffffffffff16146101a3576040517f08c379a000000000000000000000000000000000000000000000000000000000815260040161019a906106fc565b60405180910390fd5b6101b76752f15b034399fd6360c01b61056c565b6101cb67185bb85af1249eaf60c01b61056c565b6101df672b16289f23e2e34060c01b61056c565b6101f367ea16914648055e2a60c01b61056c565b6102076718aca0e28b7c2dbb60c01b61056c565b6001600081548092919061021a9061074b565b9190505550565b60008054906101000a900473ffffffffffffffffffffffffffffffffffffffff1681565b6102596795955827a7bb608f60c01b61056c565b61026d672506eb04ce786bb560c01b61056c565b61028167be797345e58009b460c01b61056c565b61029567bd04bd1428a74dfd60c01b61056c565b600260009054906101000a900460ff16156102e5576040517f08c379a00000000000000000000000000000000000000000000000000000000081526004016102dc906107df565b60405180910390fd5b6102f9679c177d0c1f0688c060c01b61056c565b61030d6733165e7ea6d94a4f60c01b61056c565b806000806101000a81548173ffffffffffffffffffffffffffffffffffffffff021916908373ffffffffffffffffffffffffffffffffffffffff16021790555061036167da6376194f008bef60c01b61056c565b6001600260006101000a81548160ff02191690831515021790555050565b6103936751c4654e2ce76cc460c01b61056c565b6103a7676b0def5d0ed3bb6b60c01b61056c565b6103bb67ab4c908531715b8260c01b61056c565b6103cf6773ad55ec0bc9e7f260c01b61056c565b6103e3673091ba46adf5ec1460c01b61056c565b60008054906101000a900473ffffffffffffffffffffffffffffffffffffffff1673ffffffffffffffffffffffffffffffffffffffff163373ffffffffffffffffffffffffffffffffffffffff1614610471576040517f08c379a0000000000000000000000000000000000000000000000000000000008152600401610468906106fc565b60405180910390fd5b6104856752f15b034399fd6360c01b61056c565b61049967185bb85af1249eaf60c01b61056c565b6104ad6798aaff2abaada2e960c01b61056c565b6104c16764c172189912d5cd60c01b61056c565b6104d567f8b2bf7457ca30fb60c01b61056c565b6104e9675a18666c0fe4860360c01b61056c565b8173ffffffffffffffffffffffffffffffffffffffff1663a9059cbb33836040518363ffffffff1660e01b815260040161052492919061080e565b6020604051808303816000875af1158015610543573d6000803e3d6000fd5b505050506040513d601f19601f82011682018060405250810190610567919061086f565b505050565b50565b600073ffffffffffffffffffffffffffffffffffffffff82169050919050565b600061059a8261056f565b9050919050565b6105aa8161058f565b82525050565b60006020820190506105c560008301846105a1565b92915050565b600080fd5b6105d98161058f565b81146105e457600080fd5b50565b6000813590506105f6816105d0565b92915050565b600060208284031215610612576106116105cb565b5b6000610620848285016105e7565b91505092915050565b6000819050919050565b61063c81610629565b811461064757600080fd5b50565b60008135905061065981610633565b92915050565b60008060408385031215610676576106756105cb565b5b6000610684858286016105e7565b92505060206106958582860161064a565b9150509250929050565b600082825260208201905092915050565b7f216f776e65720000000000000000000000000000000000000000000000000000600082015250565b60006106e660068361069f565b91506106f1826106b0565b602082019050919050565b60006020820190508181036000830152610715816106d9565b9050919050565b7f4e487b7100000000000000000000000000000000000000000000000000000000600052601160045260246000fd5b600061075682610629565b91507fffffffffffffffffffffffffffffffffffffffffffffffffffffffffffffffff82036107885761078761071c565b5b600182019050919050565b7f696e697469616c697a6564000000000000000000000000000000000000000000600082015250565b60006107c9600b8361069f565b91506107d482610793565b602082019050919050565b600060208201905081810360008301526107f8816107bc565b9050919050565b61080881610629565b82525050565b600060408201905061082360008301856105a1565b61083060208301846107ff565b9392505050565b60008115159050919050565b61084c81610837565b811461085757600080fd5b50565b60008151905061086981610843565b92915050565b600060208284031215610885576108846105cb565b5b60006108938482850161085a565b9150509291505056fea264697066735822122017d4b6eb379a0158911a0e5b0263db22978c99d9c1e974a6dc6e5ada6941a98564736f6c63430008180033",
  "linkReferences": {},
  "deployedLinkReferences": {}
}