{
  "_format": "hh-sol-artifact-1",
  "contractName": "MyOwnSafeUpgradeableContract",
  "sourceName": "contracts/MyOwnSafeUpgradeableContract.sol",
  "abi": [
    {
      "inputs": [],
      "name": "count",
      "outputs": [],
      "stateMutability": "nonpayable",
      "type": "function"
    },
    {
      "inputs": [
        {
          "internalType": "address",
          "name": "_owner",
          "type": "address"
        }
      ],
      "name": "initialize",
      "outputs": [],
      "stateMutability": "nonpayable",
      "type": "function"
    },
    {
      "inputs": [],
      "name": "owner",
      "outputs": [
        {
          "internalType": "address",
          "name": "",
          "type": "address"
        }
      ],
      "stateMutability": "view",
      "type": "function"
    },
    {
      "inputs": [
        {
          "internalType": "address",
          "name": "token",
          "type": "address"
        },
        {
          "internalType": "uint256",
          "name": "amount",
          "type": "uint256"
        }
      ],
      "name": "withdraw",
      "outputs": [],
      "stateMutability": "nonpayable",
      "type": "function"
    }
  ],
  "bytecode": "0x608060405234801561001057600080fd5b506108d2806100206000396000f3fe608060405234801561001057600080fd5b506004361061004c5760003560e01c806306661abd146100515780638da5cb5b1461005b578063c4d66de814610079578063f3fef3a314610095575b600080fd5b6100596100b1565b005b610063610221565b60405161007091906105b0565b60405180910390f35b610093600480360381019061008e91906105fc565b610245565b005b6100af60048036038101906100aa919061065f565b61037f565b005b6100c56723ded1a1511b113160c01b61056c565b6100d9676b0def5d0ed3bb6b60c01b61056c565b6100ed67ab4c908531715b8260c01b61056c565b6101016773ad55ec0bc9e7f260c01b61056c565b610115673091ba46adf5ec1460c01b61056c565b60008054906101000a900473ffffffffffffffffffffffffffffffffffffffff1673ffffffffffffffffffffffffffffffffffffffff163373ffffffffffffffffffffffffffffffffffffffff16146101a3576040517f08c379a000000000000000000000000000000000000000000000000000000000815260040161019a906106fc565b60405180910390fd5b6101b76752f15b034399fd6360c01b61056c565b6101cb67185bb85af1249eaf60c01b61056c565b6101df672b16289f23e2e34060c01b61056c565b6101f367ea16914648055e2a60c01b61056c565b6102076718aca0e28b7c2dbb60c01b61056c565b6001600081548092919061021a9061074b565b9190505550565b60008054906101000a900473ffffffffffffffffffffffffffffffffffffffff1681565b6102596795955827a7bb608f60c01b61056c565b61026d672506eb04ce786bb560c01b61056c565b61028167be797345e58009b460c01b61056c565b61029567bd04bd1428a74dfd60c01b61056c565b600260009054906101000a900460ff16156102e5576040517f08c379a00000000000000000000000000000000000000000000000000000000081526004016102dc906107df565b60405180910390fd5b6102f9679c177d0c1f0688c060c01b61056c565b61030d6733165e7ea6d94a4f60c01b61056c565b806000806101000a81548173ffffffffffffffffffffffffffffffffffffffff021916908373ffffffffffffffffffffffffffffffffffffffff16021790555061036167da6376194f008bef60c01b61056c565b6001600260006101000a81548160ff02191690831515021790555050565b6103936751c4654e2ce76cc460c01b61056c565b6103a7676b0def5d0ed3bb6b60c01b61056c565b6103bb67ab4c908531715b8260c01b61056c565b6103cf6773ad55ec0bc9e7f260c01b61056c565b6103e3673091ba46adf5ec1460c01b61056c565b60008054906101000a900473ffffffffffffffffffffffffffffffffffffffff1673ffffffffffffffffffffffffffffffffffffffff163373ffffffffffffffffffffffffffffffffffffffff1614610471576040517f08c379a0000000000000000000000000000000000000000000000000000000008152600401610468906106fc565b60405180910390fd5b6104856752f15b034399fd6360c01b61056c565b61049967185bb85af1249eaf60c01b61056c565b6104ad6798aaff2abaada2e960c01b61056c565b6104c16764c172189912d5cd60c01b61056c565b6104d567f8b2bf7457ca30fb60c01b61056c565b6104e9675a18666c0fe4860360c01b61056c565b8173ffffffffffffffffffffffffffffffffffffffff1663a9059cbb33836040518363ffffffff1660e01b815260040161052492919061080e565b6020604051808303816000875af1158015610543573d6000803e3d6000fd5b505050506040513d601f19601f82011682018060405250810190610567919061086f565b505050565b50565b600073ffffffffffffffffffffffffffffffffffffffff82169050919050565b600061059a8261056f565b9050919050565b6105aa8161058f565b82525050565b60006020820190506105c560008301846105a1565b92915050565b600080fd5b6105d98161058f565b81146105e457600080fd5b50565b6000813590506105f6816105d0565b92915050565b600060208284031215610612576106116105cb565b5b6000610620848285016105e7565b91505092915050565b6000819050919050565b61063c81610629565b811461064757600080fd5b50565b60008135905061065981610633565b92915050565b60008060408385031215610676576106756105cb565b5b6000610684858286016105e7565b92505060206106958582860161064a565b9150509250929050565b600082825260208201905092915050565b7f216f776e65720000000000000000000000000000000000000000000000000000600082015250565b60006106e660068361069f565b91506106f1826106b0565b602082019050919050565b60006020820190508181036000830152610715816106d9565b9050919050565b7f4e487b7100000000000000000000000000000000000000000000000000000000600052601160045260246000fd5b600061075682610629565b91507fffffffffffffffffffffffffffffffffffffffffffffffffffffffffffffffff82036107885761078761071c565b5b600182019050919050565b7f696e697469616c697a6564000000000000000000000000000000000000000000600082015250565b60006107c9600b8361069f565b91506107d482610793565b602082019050919050565b600060208201905081810360008301526107f8816107bc565b9050919050565b61080881610629565b82525050565b600060408201905061082360008301856105a1565b61083060208301846107ff565b9392505050565b60008115159050919050565b61084c81610837565b811461085757600080fd5b50565b60008151905061086981610843565b92915050565b600060208284031215610885576108846105cb565b5b60006108938482850161085a565b9150509291505056fea264697066735822122017d4b6eb379a0158911a0e5b0263db22978c99d9c1e974a6dc6e5ada6941a98564736f6c63430008180033",
  "linkReferences": {},
  "deployedLinkReferences": {}
}