{
  "_format": "hh-sol-artifact-1",
  "contractName": "SafeProxy",
  "sourceName": "contracts/SafeProxy.sol",
  "abi": [
    {
      "inputs": [
        {
          "internalType": "address",
          "name": "safeContractV1",
          "type": "address"
        }
      ],
      "stateMutability": "nonpayable",
      "type": "constructor"
    },
    {
      "anonymous": false,
      "inputs": [
        {
          "indexed": true,
          "internalType": "address",
          "name": "owner",
          "type": "address"
        }
      ],
      "name": "NewOwner",
      "type": "event"
    },
    {
      "anonymous": false,
      "inputs": [
        {
          "indexed": true,
          "internalType": "address",
          "name": "implementation",
          "type": "address"
        }
      ],
      "name": "Upgraded",
      "type": "event"
    },
    {
      "stateMutability": "payable",
      "type": "fallback"
    },
    {
      "inputs": [],
      "name": "_getImplementation",
      "outputs": [
        {
          "internalType": "address",
          "name": "theSafeContractV2",
          "type": "address"
        }
      ],
      "stateMutability": "view",
      "type": "function"
    },
    {
      "inputs": [],
      "name": "_getOwner",
      "outputs": [
        {
          "internalType": "address",
          "name": "theOwnerV1",
          "type": "address"
        }
      ],
      "stateMutability": "view",
      "type": "function"
    },
    {
      "inputs": [
        {
          "internalType": "address",
          "name": "newImplementation",
          "type": "address"
        }
      ],
      "name": "upgradeTo",
      "outputs": [],
      "stateMutability": "nonpayable",
      "type": "function"
    },
    {
      "stateMutability": "payable",
      "type": "receive"
    }
  ],
  "bytecode": "0x608060405234801561001057600080fd5b5060405161046d38038061046d83398101604081905261002f916100f7565b61003833610047565b6100418161009f565b50610127565b6040516001600160a01b038216907f3edd90e7770f06fafde38004653b33870066c33bfc923ff6102acd601f85dfbc90600090a27fdd92988e442ec1d7d1f04f038e3b4ddf6c4062d4b1f911859f8ab9a7176f58b055565b6040516001600160a01b038216907fbc7cd75a20ee27fd9adebab32041f755214dbc6bffa90cc0225b39da2e5c2d3b90600090a27f7ba17480f3990f0fabef11595b32986f2212bf740a5e7dddf05e094f41b7397255565b60006020828403121561010957600080fd5b81516001600160a01b038116811461012057600080fd5b9392505050565b610337806101366000396000f3fe6080604052600436106100385760003560e01c80633659cfe6146100eb57806342404e071461010d578063f7e6af80146101595761003f565b3661003f57005b6000366060600061006e7f7ba17480f3990f0fabef11595b32986f2212bf740a5e7dddf05e094f41b739725490565b90506000816001600160a01b0316858560405161008c9291906102c1565b600060405180830381855af49150503d80600081146100c7576040519150601f19603f3d011682016040523d82523d6000602084013e6100cc565b606091505b5093509050806100de57825460208401fd5b5050915050805190602001f35b3480156100f757600080fd5b5061010b6101063660046102d1565b61018d565b005b34801561011957600080fd5b507f7ba17480f3990f0fabef11595b32986f2212bf740a5e7dddf05e094f41b73972545b6040516001600160a01b03909116815260200160405180910390f35b34801561016557600080fd5b507fdd92988e442ec1d7d1f04f038e3b4ddf6c4062d4b1f911859f8ab9a7176f58b05461013d565b7fdd92988e442ec1d7d1f04f038e3b4ddf6c4062d4b1f911859f8ab9a7176f58b0805490336001600160a01b03831614610227576040517f08c379a000000000000000000000000000000000000000000000000000000000815260206004820152601460248201527f596f75277265206e6f7420746865206f776e6572000000000000000000000000604482015260640160405180910390fd5b6040516001600160a01b038416907fbc7cd75a20ee27fd9adebab32041f755214dbc6bffa90cc0225b39da2e5c2d3b90600090a261026483610269565b505050565b6040516001600160a01b038216907fbc7cd75a20ee27fd9adebab32041f755214dbc6bffa90cc0225b39da2e5c2d3b90600090a27f7ba17480f3990f0fabef11595b32986f2212bf740a5e7dddf05e094f41b7397255565b8183823760009101908152919050565b6000602082840312156102e357600080fd5b81356001600160a01b03811681146102fa57600080fd5b939250505056fea2646970667358221220942f3a493527c87769a411f4a70856a1b39be04ba5adc964a194b27308e0735564736f6c63430008180033",
  "linkReferences": {},
  "deployedLinkReferences": {}
}