{"contracts/MyOwnSafeUpgradeableContract.sol":{"MyOwnSafeUpgradeableContract":{"abi":[{"inputs":[],"name":"count","outputs":[],"stateMutability":"nonpayable","type":"function"},{"inputs":[{"internalType":"address","name":"_owner","type":"address"}],"name":"initialize","outputs":[],"stateMutability":"nonpayable","type":"function"},{"inputs":[],"name":"owner","outputs":[{"internalType":"address","name":"","type":"address"}],"stateMutability":"view","type":"function"},{"inputs":[{"internalType":"address","name":"token","type":"address"},{"internalType":"uint256","name":"amount","type":"uint256"}],"name":"withdraw","outputs":[],"stateMutability":"nonpayable","type":"function"}],"evm":{"bytecode":{"linkReferences":{},"object":"608060405234801561001057600080fd5b506108d2806100206000396000f3fe608060405234801561001057600080fd5b506004361061004c5760003560e01c806306661abd146100515780638da5cb5b1461005b578063c4d66de814610079578063f3fef3a314610095575b600080fd5b6100596100b1565b005b610063610221565b60405161007091906105b0565b60405180910390f35b610093600480360381019061008e91906105fc565b610245565b005b6100af60048036038101906100aa919061065f565b61037f565b005b6100c56723ded1a1511b113160c01b61056c565b6100d9676b0def5d0ed3bb6b60c01b61056c565b6100ed67ab4c908531715b8260c01b61056c565b6101016773ad55ec0bc9e7f260c01b61056c565b610115673091ba46adf5ec1460c01b61056c565b60008054906101000a900473ffffffffffffffffffffffffffffffffffffffff1673ffffffffffffffffffffffffffffffffffffffff163373ffffffffffffffffffffffffffffffffffffffff16146101a3576040517f08c379a000000000000000000000000000000000000000000000000000000000815260040161019a906106fc565b60405180910390fd5b6101b76752f15b034399fd6360c01b61056c565b6101cb67185bb85af1249eaf60c01b61056c565b6101df672b16289f23e2e34060c01b61056c565b6101f367ea16914648055e2a60c01b61056c565b6102076718aca0e28b7c2dbb60c01b61056c565b6001600081548092919061021a9061074b565b9190505550565b60008054906101000a900473ffffffffffffffffffffffffffffffffffffffff1681565b6102596795955827a7bb608f60c01b61056c565b61026d672506eb04ce786bb560c01b61056c565b61028167be797345e58009b460c01b61056c565b61029567bd04bd1428a74dfd60c01b61056c565b600260009054906101000a900460ff16156102e5576040517f08c379a00000000000000000000000000000000000000000000000000000000081526004016102dc906107df565b60405180910390fd5b6102f9679c177d0c1f0688c060c01b61056c565b61030d6733165e7ea6d94a4f60c01b61056c565b806000806101000a81548173ffffffffffffffffffffffffffffffffffffffff021916908373ffffffffffffffffffffffffffffffffffffffff16021790555061036167da6376194f008bef60c01b61056c565b6001600260006101000a81548160ff02191690831515021790555050565b6103936751c4654e2ce76cc460c01b61056c565b6103a7676b0def5d0ed3bb6b60c01b61056c565b6103bb67ab4c908531715b8260c01b61056c565b6103cf6773ad55ec0bc9e7f260c01b61056c565b6103e3673091ba46adf5ec1460c01b61056c565b60008054906101000a900473ffffffffffffffffffffffffffffffffffffffff1673ffffffffffffffffffffffffffffffffffffffff163373ffffffffffffffffffffffffffffffffffffffff1614610471576040517f08c379a0000000000000000000000000000000000000000000000000000000008152600401610468906106fc565b60405180910390fd5b6104856752f15b034399fd6360c01b61056c565b61049967185bb85af1249eaf60c01b61056c565b6104ad6798aaff2abaada2e960c01b61056c565b6104c16764c172189912d5cd60c01b61056c565b6104d567f8b2bf7457ca30fb60c01b61056c565b6104e9675a18666c0fe4860360c01b61056c565b8173ffffffffffffffffffffffffffffffffffffffff1663a9059cbb33836040518363ffffffff1660e01b815260040161052492919061080e565b6020604051808303816000875af1158015610543573d6000803e3d6000fd5b505050506040513d601f19601f82011682018060405250810190610567919061086f565b505050565b50565b600073ffffffffffffffffffffffffffffffffffffffff82169050919050565b600061059a8261056f565b9050919050565b6105aa8161058f565b82525050565b60006020820190506105c560008301846105a1565b92915050565b600080fd5b6105d98161058f565b81146105e457600080fd5b50565b6000813590506105f6816105d0565b92915050565b600060208284031215610612576106116105cb565b5b6000610620848285016105e7565b91505092915050565b6000819050919050565b61063c81610629565b811461064757600080fd5b50565b60008135905061065981610633565b92915050565b60008060408385031215610676576106756105cb565b5b6000610684858286016105e7565b92505060206106958582860161064a565b9150509250929050565b600082825260208201905092915050565b7f216f776e65720000000000000000000000000000000000000000000000000000600082015250565b60006106e660068361069f565b91506106f1826106b0565b602082019050919050565b60006020820190508181036000830152610715816106d9565b9050919050565b7f4e487b7100000000000000000000000000000000000000000000000000000000600052601160045260246000fd5b600061075682610629565b91507fffffffffffffffffffffffffffffffffffffffffffffffffffffffffffffffff82036107885761078761071c565b5b600182019050919050565b7f696e697469616c697a6564000000000000000000000000000000000000000000600082015250565b60006107c9600b8361069f565b91506107d482610793565b602082019050919050565b600060208201905081810360008301526107f8816107bc565b9050919050565b61080881610629565b82525050565b600060408201905061082360008301856105a1565b61083060208301846107ff565b9392505050565b60008115159050919050565b61084c81610837565b811461085757600080fd5b50565b60008151905061086981610843565b92915050565b600060208284031215610885576108846105cb565b5b60006108938482850161085a565b9150509291505056fea264697066735822122017d4b6eb379a0158911a0e5b0263db22978c99d9c1e974a6dc6e5ada6941a98564736f6c63430008180033","opcodes":"PUSH1 0x80 PUSH1 0x40 MSTORE CALLVALUE DUP1 ISZERO PUSH2 0x10 JUMPI PUSH1 0x0 DUP1 REVERT JUMPDEST POP PUSH2 0x8D2 DUP1 PUSH2 0x20 PUSH1 0x0 CODECOPY PUSH1 0x0 RETURN INVALID PUSH1 0x80 PUSH1 0x40 MSTORE CALLVALUE DUP1 ISZERO PUSH2 0x10 JUMPI PUSH1 0x0 DUP1 REVERT JUMPDEST POP PUSH1 0x4 CALLDATASIZE LT PUSH2 0x4C JUMPI PUSH1 0x0 CALLDATALOAD PUSH1 0xE0 SHR DUP1 PUSH4 0x6661ABD EQ PUSH2 0x51 JUMPI DUP1 PUSH4 0x8DA5CB5B EQ PUSH2 0x5B JUMPI DUP1 PUSH4 0xC4D66DE8 EQ PUSH2 0x79 JUMPI DUP1 PUSH4 0xF3FEF3A3 EQ PUSH2 0x95 JUMPI JUMPDEST PUSH1 0x0 DUP1 REVERT JUMPDEST PUSH2 0x59 PUSH2 0xB1 JUMP JUMPDEST STOP JUMPDEST PUSH2 0x63 PUSH2 0x221 JUMP JUMPDEST PUSH1 0x40 MLOAD PUSH2 0x70 SWAP2 SWAP1 PUSH2 0x5B0 JUMP JUMPDEST PUSH1 0x40 MLOAD DUP1 SWAP2 SUB SWAP1 RETURN JUMPDEST PUSH2 0x93 PUSH1 0x4 DUP1 CALLDATASIZE SUB DUP2 ADD SWAP1 PUSH2 0x8E SWAP2 SWAP1 PUSH2 0x5FC JUMP JUMPDEST PUSH2 0x245 JUMP JUMPDEST STOP JUMPDEST PUSH2 0xAF PUSH1 0x4 DUP1 CALLDATASIZE SUB DUP2 ADD SWAP1 PUSH2 0xAA SWAP2 SWAP1 PUSH2 0x65F JUMP JUMPDEST PUSH2 0x37F JUMP JUMPDEST STOP JUMPDEST PUSH2 0xC5 PUSH8 0x23DED1A1511B1131 PUSH1 0xC0 SHL PUSH2 0x56C JUMP JUMPDEST PUSH2 0xD9 PUSH8 0x6B0DEF5D0ED3BB6B PUSH1 0xC0 SHL PUSH2 0x56C JUMP JUMPDEST PUSH2 0xED PUSH8 0xAB4C908531715B82 PUSH1 0xC0 SHL PUSH2 0x56C JUMP JUMPDEST PUSH2 0x101 PUSH8 0x73AD55EC0BC9E7F2 PUSH1 0xC0 SHL PUSH2 0x56C JUMP JUMPDEST PUSH2 0x115 PUSH8 0x3091BA46ADF5EC14 PUSH1 0xC0 SHL PUSH2 0x56C JUMP JUMPDEST PUSH1 0x0 DUP1 SLOAD SWAP1 PUSH2 0x100 EXP SWAP1 DIV PUSH20 0xFFFFFFFFFFFFFFFFFFFFFFFFFFFFFFFFFFFFFFFF AND PUSH20 0xFFFFFFFFFFFFFFFFFFFFFFFFFFFFFFFFFFFFFFFF AND CALLER PUSH20 0xFFFFFFFFFFFFFFFFFFFFFFFFFFFFFFFFFFFFFFFF AND EQ PUSH2 0x1A3 JUMPI PUSH1 0x40 MLOAD PUSH32 0x8C379A000000000000000000000000000000000000000000000000000000000 DUP2 MSTORE PUSH1 0x4 ADD PUSH2 0x19A SWAP1 PUSH2 0x6FC JUMP JUMPDEST PUSH1 0x40 MLOAD DUP1 SWAP2 SUB SWAP1 REVERT JUMPDEST PUSH2 0x1B7 PUSH8 0x52F15B034399FD63 PUSH1 0xC0 SHL PUSH2 0x56C JUMP JUMPDEST PUSH2 0x1CB PUSH8 0x185BB85AF1249EAF PUSH1 0xC0 SHL PUSH2 0x56C JUMP JUMPDEST PUSH2 0x1DF PUSH8 0x2B16289F23E2E340 PUSH1 0xC0 SHL PUSH2 0x56C JUMP JUMPDEST PUSH2 0x1F3 PUSH8 0xEA16914648055E2A PUSH1 0xC0 SHL PUSH2 0x56C JUMP JUMPDEST PUSH2 0x207 PUSH8 0x18ACA0E28B7C2DBB PUSH1 0xC0 SHL PUSH2 0x56C JUMP JUMPDEST PUSH1 0x1 PUSH1 0x0 DUP2 SLOAD DUP1 SWAP3 SWAP2 SWAP1 PUSH2 0x21A SWAP1 PUSH2 0x74B JUMP JUMPDEST SWAP2 SWAP1 POP SSTORE POP JUMP JUMPDEST PUSH1 0x0 DUP1 SLOAD SWAP1 PUSH2 0x100 EXP SWAP1 DIV PUSH20 0xFFFFFFFFFFFFFFFFFFFFFFFFFFFFFFFFFFFFFFFF AND DUP2 JUMP JUMPDEST PUSH2 0x259 PUSH8 0x95955827A7BB608F PUSH1 0xC0 SHL PUSH2 0x56C JUMP JUMPDEST PUSH2 0x26D PUSH8 0x2506EB04CE786BB5 PUSH1 0xC0 SHL PUSH2 0x56C JUMP JUMPDEST PUSH2 0x281 PUSH8 0xBE797345E58009B4 PUSH1 0xC0 SHL PUSH2 0x56C JUMP JUMPDEST PUSH2 0x295 PUSH8 0xBD04BD1428A74DFD PUSH1 0xC0 SHL PUSH2 0x56C JUMP JUMPDEST PUSH1 0x2 PUSH1 0x0 SWAP1 SLOAD SWAP1 PUSH2 0x100 EXP SWAP1 DIV PUSH1 0xFF AND ISZERO PUSH2 0x2E5 JUMPI PUSH1 0x40 MLOAD PUSH32 0x8C379A000000000000000000000000000000000000000000000000000000000 DUP2 MSTORE PUSH1 0x4 ADD PUSH2 0x2DC SWAP1 PUSH2 0x7DF JUMP JUMPDEST PUSH1 0x40 MLOAD DUP1 SWAP2 SUB SWAP1 REVERT JUMPDEST PUSH2 0x2F9 PUSH8 0x9C177D0C1F0688C0 PUSH1 0xC0 SHL PUSH2 0x56C JUMP JUMPDEST PUSH2 0x30D PUSH8 0x33165E7EA6D94A4F PUSH1 0xC0 SHL PUSH2 0x56C JUMP JUMPDEST DUP1 PUSH1 0x0 DUP1 PUSH2 0x100 EXP DUP2 SLOAD DUP2 PUSH20 0xFFFFFFFFFFFFFFFFFFFFFFFFFFFFFFFFFFFFFFFF MUL NOT AND SWAP1 DUP4 PUSH20 0xFFFFFFFFFFFFFFFFFFFFFFFFFFFFFFFFFFFFFFFF AND MUL OR SWAP1 SSTORE POP PUSH2 0x361 PUSH8 0xDA6376194F008BEF PUSH1 0xC0 SHL PUSH2 0x56C JUMP JUMPDEST PUSH1 0x1 PUSH1 0x2 PUSH1 0x0 PUSH2 0x100 EXP DUP2 SLOAD DUP2 PUSH1 0xFF MUL NOT AND SWAP1 DUP4 ISZERO ISZERO MUL OR SWAP1 SSTORE POP POP JUMP JUMPDEST PUSH2 0x393 PUSH8 0x51C4654E2CE76CC4 PUSH1 0xC0 SHL PUSH2 0x56C JUMP JUMPDEST PUSH2 0x3A7 PUSH8 0x6B0DEF5D0ED3BB6B PUSH1 0xC0 SHL PUSH2 0x56C JUMP JUMPDEST PUSH2 0x3BB PUSH8 0xAB4C908531715B82 PUSH1 0xC0 SHL PUSH2 0x56C JUMP JUMPDEST PUSH2 0x3CF PUSH8 0x73AD55EC0BC9E7F2 PUSH1 0xC0 SHL PUSH2 0x56C JUMP JUMPDEST PUSH2 0x3E3 PUSH8 0x3091BA46ADF5EC14 PUSH1 0xC0 SHL PUSH2 0x56C JUMP JUMPDEST PUSH1 0x0 DUP1 SLOAD SWAP1 PUSH2 0x100 EXP SWAP1 DIV PUSH20 0xFFFFFFFFFFFFFFFFFFFFFFFFFFFFFFFFFFFFFFFF AND PUSH20 0xFFFFFFFFFFFFFFFFFFFFFFFFFFFFFFFFFFFFFFFF AND CALLER PUSH20 0xFFFFFFFFFFFFFFFFFFFFFFFFFFFFFFFFFFFFFFFF AND EQ PUSH2 0x471 JUMPI PUSH1 0x40 MLOAD PUSH32 0x8C379A000000000000000000000000000000000000000000000000000000000 DUP2 MSTORE PUSH1 0x4 ADD PUSH2 0x468 SWAP1 PUSH2 0x6FC JUMP JUMPDEST PUSH1 0x40 MLOAD DUP1 SWAP2 SUB SWAP1 REVERT JUMPDEST PUSH2 0x485 PUSH8 0x52F15B034399FD63 PUSH1 0xC0 SHL PUSH2 0x56C JUMP JUMPDEST PUSH2 0x499 PUSH8 0x185BB85AF1249EAF PUSH1 0xC0 SHL PUSH2 0x56C JUMP JUMPDEST PUSH2 0x4AD PUSH8 0x98AAFF2ABAADA2E9 PUSH1 0xC0 SHL PUSH2 0x56C JUMP JUMPDEST PUSH2 0x4C1 PUSH8 0x64C172189912D5CD PUSH1 0xC0 SHL PUSH2 0x56C JUMP JUMPDEST PUSH2 0x4D5 PUSH8 0xF8B2BF7457CA30FB PUSH1 0xC0 SHL PUSH2 0x56C JUMP JUMPDEST PUSH2 0x4E9 PUSH8 0x5A18666C0FE48603 PUSH1 0xC0 SHL PUSH2 0x56C JUMP JUMPDEST DUP2 PUSH20 0xFFFFFFFFFFFFFFFFFFFFFFFFFFFFFFFFFFFFFFFF AND PUSH4 0xA9059CBB CALLER DUP4 PUSH1 0x40 MLOAD DUP4 PUSH4 0xFFFFFFFF AND PUSH1 0xE0 SHL DUP2 MSTORE PUSH1 0x4 ADD PUSH2 0x524 SWAP3 SWAP2 SWAP1 PUSH2 0x80E JUMP JUMPDEST PUSH1 0x20 PUSH1 0x40 MLOAD DUP1 DUP4 SUB DUP2 PUSH1 0x0 DUP8 GAS CALL ISZERO DUP1 ISZERO PUSH2 0x543 JUMPI RETURNDATASIZE PUSH1 0x0 DUP1 RETURNDATACOPY RETURNDATASIZE PUSH1 0x0 REVERT JUMPDEST POP POP POP POP PUSH1 0x40 MLOAD RETURNDATASIZE PUSH1 0x1F NOT PUSH1 0x1F DUP3 ADD AND DUP3 ADD DUP1 PUSH1 0x40 MSTORE POP DUP2 ADD SWAP1 PUSH2 0x567 SWAP2 SWAP1 PUSH2 0x86F JUMP JUMPDEST POP POP POP JUMP JUMPDEST POP JUMP JUMPDEST PUSH1 0x0 PUSH20 0xFFFFFFFFFFFFFFFFFFFFFFFFFFFFFFFFFFFFFFFF DUP3 AND SWAP1 POP SWAP2 SWAP1 POP JUMP JUMPDEST PUSH1 0x0 PUSH2 0x59A DUP3 PUSH2 0x56F JUMP JUMPDEST SWAP1 POP SWAP2 SWAP1 POP JUMP JUMPDEST PUSH2 0x5AA DUP2 PUSH2 0x58F JUMP JUMPDEST DUP3 MSTORE POP POP JUMP JUMPDEST PUSH1 0x0 PUSH1 0x20 DUP3 ADD SWAP1 POP PUSH2 0x5C5 PUSH1 0x0 DUP4 ADD DUP5 PUSH2 0x5A1 JUMP JUMPDEST SWAP3 SWAP2 POP POP JUMP JUMPDEST PUSH1 0x0 DUP1 REVERT JUMPDEST PUSH2 0x5D9 DUP2 PUSH2 0x58F JUMP JUMPDEST DUP2 EQ PUSH2 0x5E4 JUMPI PUSH1 0x0 DUP1 REVERT JUMPDEST POP JUMP JUMPDEST PUSH1 0x0 DUP2 CALLDATALOAD SWAP1 POP PUSH2 0x5F6 DUP2 PUSH2 0x5D0 JUMP JUMPDEST SWAP3 SWAP2 POP POP JUMP JUMPDEST PUSH1 0x0 PUSH1 0x20 DUP3 DUP5 SUB SLT ISZERO PUSH2 0x612 JUMPI PUSH2 0x611 PUSH2 0x5CB JUMP JUMPDEST JUMPDEST PUSH1 0x0 PUSH2 0x620 DUP5 DUP3 DUP6 ADD PUSH2 0x5E7 JUMP JUMPDEST SWAP2 POP POP SWAP3 SWAP2 POP POP JUMP JUMPDEST PUSH1 0x0 DUP2 SWAP1 POP SWAP2 SWAP1 POP JUMP JUMPDEST PUSH2 0x63C DUP2 PUSH2 0x629 JUMP JUMPDEST DUP2 EQ PUSH2 0x647 JUMPI PUSH1 0x0 DUP1 REVERT JUMPDEST POP JUMP JUMPDEST PUSH1 0x0 DUP2 CALLDATALOAD SWAP1 POP PUSH2 0x659 DUP2 PUSH2 0x633 JUMP JUMPDEST SWAP3 SWAP2 POP POP JUMP JUMPDEST PUSH1 0x0 DUP1 PUSH1 0x40 DUP4 DUP6 SUB SLT ISZERO PUSH2 0x676 JUMPI PUSH2 0x675 PUSH2 0x5CB JUMP JUMPDEST JUMPDEST PUSH1 0x0 PUSH2 0x684 DUP6 DUP3 DUP7 ADD PUSH2 0x5E7 JUMP JUMPDEST SWAP3 POP POP PUSH1 0x20 PUSH2 0x695 DUP6 DUP3 DUP7 ADD PUSH2 0x64A JUMP JUMPDEST SWAP2 POP POP SWAP3 POP SWAP3 SWAP1 POP JUMP JUMPDEST PUSH1 0x0 DUP3 DUP3 MSTORE PUSH1 0x20 DUP3 ADD SWAP1 POP SWAP3 SWAP2 POP POP JUMP JUMPDEST PUSH32 0x216F776E65720000000000000000000000000000000000000000000000000000 PUSH1 0x0 DUP3 ADD MSTORE POP JUMP JUMPDEST PUSH1 0x0 PUSH2 0x6E6 PUSH1 0x6 DUP4 PUSH2 0x69F JUMP JUMPDEST SWAP2 POP PUSH2 0x6F1 DUP3 PUSH2 0x6B0 JUMP JUMPDEST PUSH1 0x20 DUP3 ADD SWAP1 POP SWAP2 SWAP1 POP JUMP JUMPDEST PUSH1 0x0 PUSH1 0x20 DUP3 ADD SWAP1 POP DUP2 DUP2 SUB PUSH1 0x0 DUP4 ADD MSTORE PUSH2 0x715 DUP2 PUSH2 0x6D9 JUMP JUMPDEST SWAP1 POP SWAP2 SWAP1 POP JUMP JUMPDEST PUSH32 0x4E487B7100000000000000000000000000000000000000000000000000000000 PUSH1 0x0 MSTORE PUSH1 0x11 PUSH1 0x4 MSTORE PUSH1 0x24 PUSH1 0x0 REVERT JUMPDEST PUSH1 0x0 PUSH2 0x756 DUP3 PUSH2 0x629 JUMP JUMPDEST SWAP2 POP PUSH32 0xFFFFFFFFFFFFFFFFFFFFFFFFFFFFFFFFFFFFFFFFFFFFFFFFFFFFFFFFFFFFFFFF DUP3 SUB PUSH2 0x788 JUMPI PUSH2 0x787 PUSH2 0x71C JUMP JUMPDEST JUMPDEST PUSH1 0x1 DUP3 ADD SWAP1 POP SWAP2 SWAP1 POP JUMP JUMPDEST PUSH32 0x696E697469616C697A6564000000000000000000000000000000000000000000 PUSH1 0x0 DUP3 ADD MSTORE POP JUMP JUMPDEST PUSH1 0x0 PUSH2 0x7C9 PUSH1 0xB DUP4 PUSH2 0x69F JUMP JUMPDEST SWAP2 POP PUSH2 0x7D4 DUP3 PUSH2 0x793 JUMP JUMPDEST PUSH1 0x20 DUP3 ADD SWAP1 POP SWAP2 SWAP1 POP JUMP JUMPDEST PUSH1 0x0 PUSH1 0x20 DUP3 ADD SWAP1 POP DUP2 DUP2 SUB PUSH1 0x0 DUP4 ADD MSTORE PUSH2 0x7F8 DUP2 PUSH2 0x7BC JUMP JUMPDEST SWAP1 POP SWAP2 SWAP1 POP JUMP JUMPDEST PUSH2 0x808 DUP2 PUSH2 0x629 JUMP JUMPDEST DUP3 MSTORE POP POP JUMP JUMPDEST PUSH1 0x0 PUSH1 0x40 DUP3 ADD SWAP1 POP PUSH2 0x823 PUSH1 0x0 DUP4 ADD DUP6 PUSH2 0x5A1 JUMP JUMPDEST PUSH2 0x830 PUSH1 0x20 DUP4 ADD DUP5 PUSH2 0x7FF JUMP JUMPDEST SWAP4 SWAP3 POP POP POP JUMP JUMPDEST PUSH1 0x0 DUP2 ISZERO ISZERO SWAP1 POP SWAP2 SWAP1 POP JUMP JUMPDEST PUSH2 0x84C DUP2 PUSH2 0x837 JUMP JUMPDEST DUP2 EQ PUSH2 0x857 JUMPI PUSH1 0x0 DUP1 REVERT JUMPDEST POP JUMP JUMPDEST PUSH1 0x0 DUP2 MLOAD SWAP1 POP PUSH2 0x869 DUP2 PUSH2 0x843 JUMP JUMPDEST SWAP3 SWAP2 POP POP JUMP JUMPDEST PUSH1 0x0 PUSH1 0x20 DUP3 DUP5 SUB SLT ISZERO PUSH2 0x885 JUMPI PUSH2 0x884 PUSH2 0x5CB JUMP JUMPDEST JUMPDEST PUSH1 0x0 PUSH2 0x893 DUP5 DUP3 DUP6 ADD PUSH2 0x85A JUMP JUMPDEST SWAP2 POP POP SWAP3 SWAP2 POP POP JUMP INVALID LOG2 PUSH5 0x6970667358 0x22 SLT KECCAK256 OR 0xD4 0xB6 0xEB CALLDATACOPY SWAP11 ADD PC SWAP2 BYTE 0xE JUMPDEST MUL PUSH4 0xDB22978C SWAP10 0xD9 0xC1 0xE9 PUSH21 0xA6DC6E5ADA6941A98564736F6C6343000818003300 "},"methodIdentifiers":{"count()":"06661abd","initialize(address)":"c4d66de8","owner()":"8da5cb5b","withdraw(address,uint256)":"f3fef3a3"}}}}}