{"contracts/MyOwnSafeFactory.sol":{"MyOwnSafeFactory":{"abi":[{"inputs":[],"stateMutability":"nonpayable","type":"constructor"},{"inputs":[],"name":"Create2EmptyBytecode","type":"error"},{"inputs":[],"name":"Create2FailedDeployment","type":"error"},{"inputs":[{"internalType":"uint256","name":"balance","type":"uint256"},{"internalType":"uint256","name":"needed","type":"uint256"}],"name":"Create2InsufficientBalance","type":"error"},{"inputs":[],"name":"ERC1167FailedCreateClone","type":"error"},{"anonymous":false,"inputs":[{"indexed":true,"internalType":"address","name":"safeAddress","type":"address"},{"indexed":true,"internalType":"address","name":"owner","type":"address"}],"name":"SafeDeployed","type":"event"},{"anonymous":false,"inputs":[{"indexed":true,"internalType":"address","name":"proxyAddress","type":"address"},{"indexed":true,"internalType":"address","name":"owner","type":"address"}],"name":"SafeUpgradeableDeployed","type":"event"},{"inputs":[{"internalType":"address","name":"_owner","type":"address"}],"name":"deploySafe","outputs":[{"internalType":"address","name":"","type":"address"}],"stateMutability":"nonpayable","type":"function"},{"inputs":[{"internalType":"address","name":"_owner","type":"address"}],"name":"deploySafeUpgradeable","outputs":[{"internalType":"address","name":"","type":"address"}],"stateMutability":"nonpayable","type":"function"},{"inputs":[{"internalType":"address","name":"_owner","type":"address"},{"internalType":"bytes32","name":"salt","type":"bytes32"}],"name":"deploySafeUpgradeableWithCreate2","outputs":[{"internalType":"address","name":"","type":"address"}],"stateMutability":"nonpayable","type":"function"},{"inputs":[{"internalType":"address","name":"_owner","type":"address"},{"internalType":"bytes32","name":"salt","type":"bytes32"}],"name":"deploySafeWithCreate2","outputs":[{"internalType":"address","name":"","type":"address"}],"stateMutability":"nonpayable","type":"function"},{"inputs":[],"name":"myOwnSafeImplementation","outputs":[{"internalType":"address","name":"","type":"address"}],"stateMutability":"view","type":"function"},{"inputs":[],"name":"myOwnSafeUpgradeableImplementation","outputs":[{"internalType":"address","name":"","type":"address"}],"stateMutability":"view","type":"function"}],"evm":{"bytecode":{"linkReferences":{},"object":"60c06040523480156200001157600080fd5b506200002e6778209f56ddc171f960c01b6200013760201b60201c565b6200004a671bc21773da88d4ce60c01b6200013760201b60201c565b3060405162000059906200013a565b6200006591906200019b565b604051809103906000f08015801562000082573d6000803e3d6000fd5b5073ffffffffffffffffffffffffffffffffffffffff1660808173ffffffffffffffffffffffffffffffffffffffff1681525050620000d267aa07b3ec9a0649a960c01b6200013760201b60201c565b604051620000e09062000148565b604051809103906000f080158015620000fd573d6000803e3d6000fd5b5073ffffffffffffffffffffffffffffffffffffffff1660a08173ffffffffffffffffffffffffffffffffffffffff1681525050620001b8565b50565b610826806200166c83390190565b6108f28062001e9283390190565b600073ffffffffffffffffffffffffffffffffffffffff82169050919050565b6000620001838262000156565b9050919050565b620001958162000176565b82525050565b6000602082019050620001b260008301846200018a565b92915050565b60805160a051611480620001ec600039600081816101b8015281816104f2015261078b0152600061048b01526114806000f3fe608060405234801561001057600080fd5b50600436106100725760003560e01c8063688610351161005057806368861035146100f5578063c97bec9b14610125578063d92360141461015557610072565b8063202aed4514610077578063443930be146100a75780635a49fd4c146100d7575b600080fd5b610091600480360381019061008c9190610a80565b610173565b60405161009e9190610abc565b60405180910390f35b6100c160048036038101906100bc9190610b0d565b610324565b6040516100ce9190610abc565b60405180910390f35b6100df610489565b6040516100ec9190610abc565b60405180910390f35b61010f600480360381019061010a9190610b0d565b6104ad565b60405161011c9190610abc565b60405180910390f35b61013f600480360381019061013a9190610a80565b610660565b60405161014c9190610abc565b60405180910390f35b61015d610789565b60405161016a9190610abc565b60405180910390f35b600061018967518456449cf4647960c01b6107ad565b61019d670ff2120e2bb453bd60c01b6107ad565b6101b167540444ee4b56b21760c01b6107ad565b60006101dc7f00000000000000000000000000000000000000000000000000000000000000006107b0565b90506101f26776ecaead8724026060c01b6107ad565b61020667dc86a7e4d2ad2e9560c01b6107ad565b8073ffffffffffffffffffffffffffffffffffffffff1663c4d66de8846040518263ffffffff1660e01b815260040161023f9190610abc565b600060405180830381600087803b15801561025957600080fd5b505af115801561026d573d6000803e3d6000fd5b505050506102856738bbd253e8c4d69160c01b6107ad565b610299676c3a7ea2023de19660c01b6107ad565b8273ffffffffffffffffffffffffffffffffffffffff168173ffffffffffffffffffffffffffffffffffffffff167fc5aee479f0a332528d9978bb3faef4c74b7425d29183509edd10706788eae79460405160405180910390a361030767ccbd938577aa720b60c01b6107ad565b61031b6746039eafbb77888260c01b6107ad565b80915050919050565b600061033a67a73953d92cd1e39460c01b6107ad565b61034e67786bc651fb53d40160c01b6107ad565b6103626796d7176e0425fb5960c01b6107ad565b60006103d36000846040518060200161037a90610a10565b6020820181038252601f19601f820116604052508760405160200161039f9190610abc565b6040516020818303038152906040526040516020016103bf929190610bbe565b604051602081830303815290604052610861565b90506103e96786a8f92a12400cf360c01b6107ad565b6103fd67c63a9e7ef11f04de60c01b6107ad565b8373ffffffffffffffffffffffffffffffffffffffff168173ffffffffffffffffffffffffffffffffffffffff167f9f57f38058d39775937e43acd5aa6c8585579f7bffbe10c631db6e29f64086c160405160405180910390a361046b67848442922c629b2860c01b6107ad565b61047f674e63b6a9195c36b960c01b6107ad565b8091505092915050565b7f000000000000000000000000000000000000000000000000000000000000000081565b60006104c367e138e8cf5ac6279560c01b6107ad565b6104d767fd20f2a3d5703e3a60c01b6107ad565b6104eb674743e5099229e6ac60c01b6107ad565b60006105177f00000000000000000000000000000000000000000000000000000000000000008461095d565b905061052d67d1bbcb01ba5114b760c01b6107ad565b61054167d465b30b77c5d01060c01b6107ad565b8073ffffffffffffffffffffffffffffffffffffffff1663c4d66de8856040518263ffffffff1660e01b815260040161057a9190610abc565b600060405180830381600087803b15801561059457600080fd5b505af11580156105a8573d6000803e3d6000fd5b505050506105c067046ed0dc4892aabf60c01b6107ad565b6105d4675084919e1134ac3e60c01b6107ad565b8373ffffffffffffffffffffffffffffffffffffffff168173ffffffffffffffffffffffffffffffffffffffff167fc5aee479f0a332528d9978bb3faef4c74b7425d29183509edd10706788eae79460405160405180910390a36106426751bd7ed8ca43550560c01b6107ad565b610656670edcf94b379a727c60c01b6107ad565b8091505092915050565b6000610676671c97250bf775dbbb60c01b6107ad565b61068a673ecd783dfc5ef4ca60c01b6107ad565b61069e67c47728265f53cb8f60c01b6107ad565b6000826040516106ad90610a10565b6106b79190610abc565b604051809103906000f0801580156106d3573d6000803e3d6000fd5b5090506106ea672c98f63343583c1a60c01b6107ad565b6106fe6707a7fbd6a21a4c3a60c01b6107ad565b8273ffffffffffffffffffffffffffffffffffffffff168173ffffffffffffffffffffffffffffffffffffffff167f9f57f38058d39775937e43acd5aa6c8585579f7bffbe10c631db6e29f64086c160405160405180910390a361076c67fb27d947e53c746c60c01b6107ad565b61078067b9d5c3ff9bee68c060c01b6107ad565b80915050919050565b7f000000000000000000000000000000000000000000000000000000000000000081565b50565b6000763d602d80600a3d3981f3363d3d373d3d3d363d730000008260601b60e81c176000526e5af43d82803e903d91602b57fd5bf38260781b17602052603760096000f09050600073ffffffffffffffffffffffffffffffffffffffff168173ffffffffffffffffffffffffffffffffffffffff160361085c576040517fc2f868f400000000000000000000000000000000000000000000000000000000815260040160405180910390fd5b919050565b6000834710156108aa5747846040517fe4bbecac0000000000000000000000000000000000000000000000000000000081526004016108a1929190610bfb565b60405180910390fd5b60008251036108e5576040517f4ca249dc00000000000000000000000000000000000000000000000000000000815260040160405180910390fd5b8282516020840186f59050600073ffffffffffffffffffffffffffffffffffffffff168173ffffffffffffffffffffffffffffffffffffffff1603610956576040517f741752c200000000000000000000000000000000000000000000000000000000815260040160405180910390fd5b9392505050565b6000763d602d80600a3d3981f3363d3d373d3d3d363d730000008360601b60e81c176000526e5af43d82803e903d91602b57fd5bf38360781b1760205281603760096000f59050600073ffffffffffffffffffffffffffffffffffffffff168173ffffffffffffffffffffffffffffffffffffffff1603610a0a576040517fc2f868f400000000000000000000000000000000000000000000000000000000815260040160405180910390fd5b92915050565b61082680610c2583390190565b600080fd5b600073ffffffffffffffffffffffffffffffffffffffff82169050919050565b6000610a4d82610a22565b9050919050565b610a5d81610a42565b8114610a6857600080fd5b50565b600081359050610a7a81610a54565b92915050565b600060208284031215610a9657610a95610a1d565b5b6000610aa484828501610a6b565b91505092915050565b610ab681610a42565b82525050565b6000602082019050610ad16000830184610aad565b92915050565b6000819050919050565b610aea81610ad7565b8114610af557600080fd5b50565b600081359050610b0781610ae1565b92915050565b60008060408385031215610b2457610b23610a1d565b5b6000610b3285828601610a6b565b9250506020610b4385828601610af8565b9150509250929050565b600081519050919050565b600081905092915050565b60005b83811015610b81578082015181840152602081019050610b66565b60008484015250505050565b6000610b9882610b4d565b610ba28185610b58565b9350610bb2818560208601610b63565b80840191505092915050565b6000610bca8285610b8d565b9150610bd68284610b8d565b91508190509392505050565b6000819050919050565b610bf581610be2565b82525050565b6000604082019050610c106000830185610bec565b610c1d6020830184610bec565b939250505056fe608060405234801561001057600080fd5b5060405161082638038061082683398181016040528101906100329190610112565b61004c6742ed833a7f96941560c01b6100ac60201b60201c565b61006667042983fd182700b660c01b6100ac60201b60201c565b806000806101000a81548173ffffffffffffffffffffffffffffffffffffffff021916908373ffffffffffffffffffffffffffffffffffffffff1602179055505061013f565b50565b600080fd5b600073ffffffffffffffffffffffffffffffffffffffff82169050919050565b60006100df826100b4565b9050919050565b6100ef816100d4565b81146100fa57600080fd5b50565b60008151905061010c816100e6565b92915050565b600060208284031215610128576101276100af565b5b6000610136848285016100fd565b91505092915050565b6106d88061014e6000396000f3fe608060405234801561001057600080fd5b50600436106100415760003560e01c806306661abd146100465780638da5cb5b14610050578063f3fef3a31461006e575b600080fd5b61004e61008a565b005b6100586101fa565b604051610065919061044f565b60405180910390f35b610088600480360381019061008391906104d1565b61021e565b005b61009e679cb98b270348be2960c01b61040b565b6100b267297982510b1d433860c01b61040b565b6100c6675b2b0654536c17fc60c01b61040b565b6100da67a305fb29f8ddbcf760c01b61040b565b6100ee676c43e096419f332c60c01b61040b565b60008054906101000a900473ffffffffffffffffffffffffffffffffffffffff1673ffffffffffffffffffffffffffffffffffffffff163373ffffffffffffffffffffffffffffffffffffffff161461017c576040517f08c379a00000000000000000000000000000000000000000000000000000000081526004016101739061056e565b60405180910390fd5b610190677d416ab2e74ecfc760c01b61040b565b6101a46712cc9acafac88e9a60c01b61040b565b6101b867113012d5654817dd60c01b61040b565b6101cc6750cfbce54280ee6660c01b61040b565b6101e067ff8dcace9c05a70d60c01b61040b565b600160008154809291906101f3906105bd565b9190505550565b60008054906101000a900473ffffffffffffffffffffffffffffffffffffffff1681565b610232678bf1cfb2deb00dd560c01b61040b565b61024667297982510b1d433860c01b61040b565b61025a675b2b0654536c17fc60c01b61040b565b61026e67a305fb29f8ddbcf760c01b61040b565b610282676c43e096419f332c60c01b61040b565b60008054906101000a900473ffffffffffffffffffffffffffffffffffffffff1673ffffffffffffffffffffffffffffffffffffffff163373ffffffffffffffffffffffffffffffffffffffff1614610310576040517f08c379a00000000000000000000000000000000000000000000000000000000081526004016103079061056e565b60405180910390fd5b610324677d416ab2e74ecfc760c01b61040b565b6103386712cc9acafac88e9a60c01b61040b565b61034c67906e59ca18d4837860c01b61040b565b6103606772ed60df6a0a6fd460c01b61040b565b61037467093bf0f2418ddf7c60c01b61040b565b61038867707bd7df863dd67460c01b61040b565b8173ffffffffffffffffffffffffffffffffffffffff1663a9059cbb33836040518363ffffffff1660e01b81526004016103c3929190610614565b6020604051808303816000875af11580156103e2573d6000803e3d6000fd5b505050506040513d601f19601f820116820180604052508101906104069190610675565b505050565b50565b600073ffffffffffffffffffffffffffffffffffffffff82169050919050565b60006104398261040e565b9050919050565b6104498161042e565b82525050565b60006020820190506104646000830184610440565b92915050565b600080fd5b6104788161042e565b811461048357600080fd5b50565b6000813590506104958161046f565b92915050565b6000819050919050565b6104ae8161049b565b81146104b957600080fd5b50565b6000813590506104cb816104a5565b92915050565b600080604083850312156104e8576104e761046a565b5b60006104f685828601610486565b9250506020610507858286016104bc565b9150509250929050565b600082825260208201905092915050565b7f216f776e65720000000000000000000000000000000000000000000000000000600082015250565b6000610558600683610511565b915061056382610522565b602082019050919050565b600060208201905081810360008301526105878161054b565b9050919050565b7f4e487b7100000000000000000000000000000000000000000000000000000000600052601160045260246000fd5b60006105c88261049b565b91507fffffffffffffffffffffffffffffffffffffffffffffffffffffffffffffffff82036105fa576105f961058e565b5b600182019050919050565b61060e8161049b565b82525050565b60006040820190506106296000830185610440565b6106366020830184610605565b9392505050565b60008115159050919050565b6106528161063d565b811461065d57600080fd5b50565b60008151905061066f81610649565b92915050565b60006020828403121561068b5761068a61046a565b5b600061069984828501610660565b9150509291505056fea26469706673582212205e0efafad654555fdc55725336be2a753fa98127f50cc4cfd03420588c9f38a364736f6c63430008180033a2646970667358221220cecabf4931bbc01fc3cc4f7203cd70a70ff77f1e55b12012ced88ffefb5c88fd64736f6c63430008180033608060405234801561001057600080fd5b5060405161082638038061082683398181016040528101906100329190610112565b61004c6742ed833a7f96941560c01b6100ac60201b60201c565b61006667042983fd182700b660c01b6100ac60201b60201c565b806000806101000a81548173ffffffffffffffffffffffffffffffffffffffff021916908373ffffffffffffffffffffffffffffffffffffffff1602179055505061013f565b50565b600080fd5b600073ffffffffffffffffffffffffffffffffffffffff82169050919050565b60006100df826100b4565b9050919050565b6100ef816100d4565b81146100fa57600080fd5b50565b60008151905061010c816100e6565b92915050565b600060208284031215610128576101276100af565b5b6000610136848285016100fd565b91505092915050565b6106d88061014e6000396000f3fe608060405234801561001057600080fd5b50600436106100415760003560e01c806306661abd146100465780638da5cb5b14610050578063f3fef3a31461006e575b600080fd5b61004e61008a565b005b6100586101fa565b604051610065919061044f565b60405180910390f35b610088600480360381019061008391906104d1565b61021e565b005b61009e679cb98b270348be2960c01b61040b565b6100b267297982510b1d433860c01b61040b565b6100c6675b2b0654536c17fc60c01b61040b565b6100da67a305fb29f8ddbcf760c01b61040b565b6100ee676c43e096419f332c60c01b61040b565b60008054906101000a900473ffffffffffffffffffffffffffffffffffffffff1673ffffffffffffffffffffffffffffffffffffffff163373ffffffffffffffffffffffffffffffffffffffff161461017c576040517f08c379a00000000000000000000000000000000000000000000000000000000081526004016101739061056e565b60405180910390fd5b610190677d416ab2e74ecfc760c01b61040b565b6101a46712cc9acafac88e9a60c01b61040b565b6101b867113012d5654817dd60c01b61040b565b6101cc6750cfbce54280ee6660c01b61040b565b6101e067ff8dcace9c05a70d60c01b61040b565b600160008154809291906101f3906105bd565b9190505550565b60008054906101000a900473ffffffffffffffffffffffffffffffffffffffff1681565b610232678bf1cfb2deb00dd560c01b61040b565b61024667297982510b1d433860c01b61040b565b61025a675b2b0654536c17fc60c01b61040b565b61026e67a305fb29f8ddbcf760c01b61040b565b610282676c43e096419f332c60c01b61040b565b60008054906101000a900473ffffffffffffffffffffffffffffffffffffffff1673ffffffffffffffffffffffffffffffffffffffff163373ffffffffffffffffffffffffffffffffffffffff1614610310576040517f08c379a00000000000000000000000000000000000000000000000000000000081526004016103079061056e565b60405180910390fd5b610324677d416ab2e74ecfc760c01b61040b565b6103386712cc9acafac88e9a60c01b61040b565b61034c67906e59ca18d4837860c01b61040b565b6103606772ed60df6a0a6fd460c01b61040b565b61037467093bf0f2418ddf7c60c01b61040b565b61038867707bd7df863dd67460c01b61040b565b8173ffffffffffffffffffffffffffffffffffffffff1663a9059cbb33836040518363ffffffff1660e01b81526004016103c3929190610614565b6020604051808303816000875af11580156103e2573d6000803e3d6000fd5b505050506040513d601f19601f820116820180604052508101906104069190610675565b505050565b50565b600073ffffffffffffffffffffffffffffffffffffffff82169050919050565b60006104398261040e565b9050919050565b6104498161042e565b82525050565b60006020820190506104646000830184610440565b92915050565b600080fd5b6104788161042e565b811461048357600080fd5b50565b6000813590506104958161046f565b92915050565b6000819050919050565b6104ae8161049b565b81146104b957600080fd5b50565b6000813590506104cb816104a5565b92915050565b600080604083850312156104e8576104e761046a565b5b60006104f685828601610486565b9250506020610507858286016104bc565b9150509250929050565b600082825260208201905092915050565b7f216f776e65720000000000000000000000000000000000000000000000000000600082015250565b6000610558600683610511565b915061056382610522565b602082019050919050565b600060208201905081810360008301526105878161054b565b9050919050565b7f4e487b7100000000000000000000000000000000000000000000000000000000600052601160045260246000fd5b60006105c88261049b565b91507fffffffffffffffffffffffffffffffffffffffffffffffffffffffffffffffff82036105fa576105f961058e565b5b600182019050919050565b61060e8161049b565b82525050565b60006040820190506106296000830185610440565b6106366020830184610605565b9392505050565b60008115159050919050565b6106528161063d565b811461065d57600080fd5b50565b60008151905061066f81610649565b92915050565b60006020828403121561068b5761068a61046a565b5b600061069984828501610660565b9150509291505056fea26469706673582212205e0efafad654555fdc55725336be2a753fa98127f50cc4cfd03420588c9f38a364736f6c63430008180033608060405234801561001057600080fd5b506108d2806100206000396000f3fe608060405234801561001057600080fd5b506004361061004c5760003560e01c806306661abd146100515780638da5cb5b1461005b578063c4d66de814610079578063f3fef3a314610095575b600080fd5b6100596100b1565b005b610063610221565b60405161007091906105b0565b60405180910390f35b610093600480360381019061008e91906105fc565b610245565b005b6100af60048036038101906100aa919061065f565b61037f565b005b6100c56723ded1a1511b113160c01b61056c565b6100d9676b0def5d0ed3bb6b60c01b61056c565b6100ed67ab4c908531715b8260c01b61056c565b6101016773ad55ec0bc9e7f260c01b61056c565b610115673091ba46adf5ec1460c01b61056c565b60008054906101000a900473ffffffffffffffffffffffffffffffffffffffff1673ffffffffffffffffffffffffffffffffffffffff163373ffffffffffffffffffffffffffffffffffffffff16146101a3576040517f08c379a000000000000000000000000000000000000000000000000000000000815260040161019a906106fc565b60405180910390fd5b6101b76752f15b034399fd6360c01b61056c565b6101cb67185bb85af1249eaf60c01b61056c565b6101df672b16289f23e2e34060c01b61056c565b6101f367ea16914648055e2a60c01b61056c565b6102076718aca0e28b7c2dbb60c01b61056c565b6001600081548092919061021a9061074b565b9190505550565b60008054906101000a900473ffffffffffffffffffffffffffffffffffffffff1681565b6102596795955827a7bb608f60c01b61056c565b61026d672506eb04ce786bb560c01b61056c565b61028167be797345e58009b460c01b61056c565b61029567bd04bd1428a74dfd60c01b61056c565b600260009054906101000a900460ff16156102e5576040517f08c379a00000000000000000000000000000000000000000000000000000000081526004016102dc906107df565b60405180910390fd5b6102f9679c177d0c1f0688c060c01b61056c565b61030d6733165e7ea6d94a4f60c01b61056c565b806000806101000a81548173ffffffffffffffffffffffffffffffffffffffff021916908373ffffffffffffffffffffffffffffffffffffffff16021790555061036167da6376194f008bef60c01b61056c565b6001600260006101000a81548160ff02191690831515021790555050565b6103936751c4654e2ce76cc460c01b61056c565b6103a7676b0def5d0ed3bb6b60c01b61056c565b6103bb67ab4c908531715b8260c01b61056c565b6103cf6773ad55ec0bc9e7f260c01b61056c565b6103e3673091ba46adf5ec1460c01b61056c565b60008054906101000a900473ffffffffffffffffffffffffffffffffffffffff1673ffffffffffffffffffffffffffffffffffffffff163373ffffffffffffffffffffffffffffffffffffffff1614610471576040517f08c379a0000000000000000000000000000000000000000000000000000000008152600401610468906106fc565b60405180910390fd5b6104856752f15b034399fd6360c01b61056c565b61049967185bb85af1249eaf60c01b61056c565b6104ad6798aaff2abaada2e960c01b61056c565b6104c16764c172189912d5cd60c01b61056c565b6104d567f8b2bf7457ca30fb60c01b61056c565b6104e9675a18666c0fe4860360c01b61056c565b8173ffffffffffffffffffffffffffffffffffffffff1663a9059cbb33836040518363ffffffff1660e01b815260040161052492919061080e565b6020604051808303816000875af1158015610543573d6000803e3d6000fd5b505050506040513d601f19601f82011682018060405250810190610567919061086f565b505050565b50565b600073ffffffffffffffffffffffffffffffffffffffff82169050919050565b600061059a8261056f565b9050919050565b6105aa8161058f565b82525050565b60006020820190506105c560008301846105a1565b92915050565b600080fd5b6105d98161058f565b81146105e457600080fd5b50565b6000813590506105f6816105d0565b92915050565b600060208284031215610612576106116105cb565b5b6000610620848285016105e7565b91505092915050565b6000819050919050565b61063c81610629565b811461064757600080fd5b50565b60008135905061065981610633565b92915050565b60008060408385031215610676576106756105cb565b5b6000610684858286016105e7565b92505060206106958582860161064a565b9150509250929050565b600082825260208201905092915050565b7f216f776e65720000000000000000000000000000000000000000000000000000600082015250565b60006106e660068361069f565b91506106f1826106b0565b602082019050919050565b60006020820190508181036000830152610715816106d9565b9050919050565b7f4e487b7100000000000000000000000000000000000000000000000000000000600052601160045260246000fd5b600061075682610629565b91507fffffffffffffffffffffffffffffffffffffffffffffffffffffffffffffffff82036107885761078761071c565b5b600182019050919050565b7f696e697469616c697a6564000000000000000000000000000000000000000000600082015250565b60006107c9600b8361069f565b91506107d482610793565b602082019050919050565b600060208201905081810360008301526107f8816107bc565b9050919050565b61080881610629565b82525050565b600060408201905061082360008301856105a1565b61083060208301846107ff565b9392505050565b60008115159050919050565b61084c81610837565b811461085757600080fd5b50565b60008151905061086981610843565b92915050565b600060208284031215610885576108846105cb565b5b60006108938482850161085a565b9150509291505056fea264697066735822122017d4b6eb379a0158911a0e5b0263db22978c99d9c1e974a6dc6e5ada6941a98564736f6c63430008180033","opcodes":"PUSH1 0xC0 PUSH1 0x40 MSTORE CALLVALUE DUP1 ISZERO PUSH3 0x11 JUMPI PUSH1 0x0 DUP1 REVERT JUMPDEST POP PUSH3 0x2E PUSH8 0x78209F56DDC171F9 PUSH1 0xC0 SHL PUSH3 0x137 PUSH1 0x20 SHL PUSH1 0x20 SHR JUMP JUMPDEST PUSH3 0x4A PUSH8 0x1BC21773DA88D4CE PUSH1 0xC0 SHL PUSH3 0x137 PUSH1 0x20 SHL PUSH1 0x20 SHR JUMP JUMPDEST ADDRESS PUSH1 0x40 MLOAD PUSH3 0x59 SWAP1 PUSH3 0x13A JUMP JUMPDEST PUSH3 0x65 SWAP2 SWAP1 PUSH3 0x19B JUMP JUMPDEST PUSH1 0x40 MLOAD DUP1 SWAP2 SUB SWAP1 PUSH1 0x0 CREATE DUP1 ISZERO DUP1 ISZERO PUSH3 0x82 JUMPI RETURNDATASIZE PUSH1 0x0 DUP1 RETURNDATACOPY RETURNDATASIZE PUSH1 0x0 REVERT JUMPDEST POP PUSH20 0xFFFFFFFFFFFFFFFFFFFFFFFFFFFFFFFFFFFFFFFF AND PUSH1 0x80 DUP2 PUSH20 0xFFFFFFFFFFFFFFFFFFFFFFFFFFFFFFFFFFFFFFFF AND DUP2 MSTORE POP POP PUSH3 0xD2 PUSH8 0xAA07B3EC9A0649A9 PUSH1 0xC0 SHL PUSH3 0x137 PUSH1 0x20 SHL PUSH1 0x20 SHR JUMP JUMPDEST PUSH1 0x40 MLOAD PUSH3 0xE0 SWAP1 PUSH3 0x148 JUMP JUMPDEST PUSH1 0x40 MLOAD DUP1 SWAP2 SUB SWAP1 PUSH1 0x0 CREATE DUP1 ISZERO DUP1 ISZERO PUSH3 0xFD JUMPI RETURNDATASIZE PUSH1 0x0 DUP1 RETURNDATACOPY RETURNDATASIZE PUSH1 0x0 REVERT JUMPDEST POP PUSH20 0xFFFFFFFFFFFFFFFFFFFFFFFFFFFFFFFFFFFFFFFF AND PUSH1 0xA0 DUP2 PUSH20 0xFFFFFFFFFFFFFFFFFFFFFFFFFFFFFFFFFFFFFFFF AND DUP2 MSTORE POP POP PUSH3 0x1B8 JUMP JUMPDEST POP JUMP JUMPDEST PUSH2 0x826 DUP1 PUSH3 0x166C DUP4 CODECOPY ADD SWAP1 JUMP JUMPDEST PUSH2 0x8F2 DUP1 PUSH3 0x1E92 DUP4 CODECOPY ADD SWAP1 JUMP JUMPDEST PUSH1 0x0 PUSH20 0xFFFFFFFFFFFFFFFFFFFFFFFFFFFFFFFFFFFFFFFF DUP3 AND SWAP1 POP SWAP2 SWAP1 POP JUMP JUMPDEST PUSH1 0x0 PUSH3 0x183 DUP3 PUSH3 0x156 JUMP JUMPDEST SWAP1 POP SWAP2 SWAP1 POP JUMP JUMPDEST PUSH3 0x195 DUP2 PUSH3 0x176 JUMP JUMPDEST DUP3 MSTORE POP POP JUMP JUMPDEST PUSH1 0x0 PUSH1 0x20 DUP3 ADD SWAP1 POP PUSH3 0x1B2 PUSH1 0x0 DUP4 ADD DUP5 PUSH3 0x18A JUMP JUMPDEST SWAP3 SWAP2 POP POP JUMP JUMPDEST PUSH1 0x80 MLOAD PUSH1 0xA0 MLOAD PUSH2 0x1480 PUSH3 0x1EC PUSH1 0x0 CODECOPY PUSH1 0x0 DUP2 DUP2 PUSH2 0x1B8 ADD MSTORE DUP2 DUP2 PUSH2 0x4F2 ADD MSTORE PUSH2 0x78B ADD MSTORE PUSH1 0x0 PUSH2 0x48B ADD MSTORE PUSH2 0x1480 PUSH1 0x0 RETURN INVALID PUSH1 0x80 PUSH1 0x40 MSTORE CALLVALUE DUP1 ISZERO PUSH2 0x10 JUMPI PUSH1 0x0 DUP1 REVERT JUMPDEST POP PUSH1 0x4 CALLDATASIZE LT PUSH2 0x72 JUMPI PUSH1 0x0 CALLDATALOAD PUSH1 0xE0 SHR DUP1 PUSH4 0x68861035 GT PUSH2 0x50 JUMPI DUP1 PUSH4 0x68861035 EQ PUSH2 0xF5 JUMPI DUP1 PUSH4 0xC97BEC9B EQ PUSH2 0x125 JUMPI DUP1 PUSH4 0xD9236014 EQ PUSH2 0x155 JUMPI PUSH2 0x72 JUMP JUMPDEST DUP1 PUSH4 0x202AED45 EQ PUSH2 0x77 JUMPI DUP1 PUSH4 0x443930BE EQ PUSH2 0xA7 JUMPI DUP1 PUSH4 0x5A49FD4C EQ PUSH2 0xD7 JUMPI JUMPDEST PUSH1 0x0 DUP1 REVERT JUMPDEST PUSH2 0x91 PUSH1 0x4 DUP1 CALLDATASIZE SUB DUP2 ADD SWAP1 PUSH2 0x8C SWAP2 SWAP1 PUSH2 0xA80 JUMP JUMPDEST PUSH2 0x173 JUMP JUMPDEST PUSH1 0x40 MLOAD PUSH2 0x9E SWAP2 SWAP1 PUSH2 0xABC JUMP JUMPDEST PUSH1 0x40 MLOAD DUP1 SWAP2 SUB SWAP1 RETURN JUMPDEST PUSH2 0xC1 PUSH1 0x4 DUP1 CALLDATASIZE SUB DUP2 ADD SWAP1 PUSH2 0xBC SWAP2 SWAP1 PUSH2 0xB0D JUMP JUMPDEST PUSH2 0x324 JUMP JUMPDEST PUSH1 0x40 MLOAD PUSH2 0xCE SWAP2 SWAP1 PUSH2 0xABC JUMP JUMPDEST PUSH1 0x40 MLOAD DUP1 SWAP2 SUB SWAP1 RETURN JUMPDEST PUSH2 0xDF PUSH2 0x489 JUMP JUMPDEST PUSH1 0x40 MLOAD PUSH2 0xEC SWAP2 SWAP1 PUSH2 0xABC JUMP JUMPDEST PUSH1 0x40 MLOAD DUP1 SWAP2 SUB SWAP1 RETURN JUMPDEST PUSH2 0x10F PUSH1 0x4 DUP1 CALLDATASIZE SUB DUP2 ADD SWAP1 PUSH2 0x10A SWAP2 SWAP1 PUSH2 0xB0D JUMP JUMPDEST PUSH2 0x4AD JUMP JUMPDEST PUSH1 0x40 MLOAD PUSH2 0x11C SWAP2 SWAP1 PUSH2 0xABC JUMP JUMPDEST PUSH1 0x40 MLOAD DUP1 SWAP2 SUB SWAP1 RETURN JUMPDEST PUSH2 0x13F PUSH1 0x4 DUP1 CALLDATASIZE SUB DUP2 ADD SWAP1 PUSH2 0x13A SWAP2 SWAP1 PUSH2 0xA80 JUMP JUMPDEST PUSH2 0x660 JUMP JUMPDEST PUSH1 0x40 MLOAD PUSH2 0x14C SWAP2 SWAP1 PUSH2 0xABC JUMP JUMPDEST PUSH1 0x40 MLOAD DUP1 SWAP2 SUB SWAP1 RETURN JUMPDEST PUSH2 0x15D PUSH2 0x789 JUMP JUMPDEST PUSH1 0x40 MLOAD PUSH2 0x16A SWAP2 SWAP1 PUSH2 0xABC JUMP JUMPDEST PUSH1 0x40 MLOAD DUP1 SWAP2 SUB SWAP1 RETURN JUMPDEST PUSH1 0x0 PUSH2 0x189 PUSH8 0x518456449CF46479 PUSH1 0xC0 SHL PUSH2 0x7AD JUMP JUMPDEST PUSH2 0x19D PUSH8 0xFF2120E2BB453BD PUSH1 0xC0 SHL PUSH2 0x7AD JUMP JUMPDEST PUSH2 0x1B1 PUSH8 0x540444EE4B56B217 PUSH1 0xC0 SHL PUSH2 0x7AD JUMP JUMPDEST PUSH1 0x0 PUSH2 0x1DC PUSH32 0x0 PUSH2 0x7B0 JUMP JUMPDEST SWAP1 POP PUSH2 0x1F2 PUSH8 0x76ECAEAD87240260 PUSH1 0xC0 SHL PUSH2 0x7AD JUMP JUMPDEST PUSH2 0x206 PUSH8 0xDC86A7E4D2AD2E95 PUSH1 0xC0 SHL PUSH2 0x7AD JUMP JUMPDEST DUP1 PUSH20 0xFFFFFFFFFFFFFFFFFFFFFFFFFFFFFFFFFFFFFFFF AND PUSH4 0xC4D66DE8 DUP5 PUSH1 0x40 MLOAD DUP3 PUSH4 0xFFFFFFFF AND PUSH1 0xE0 SHL DUP2 MSTORE PUSH1 0x4 ADD PUSH2 0x23F SWAP2 SWAP1 PUSH2 0xABC JUMP JUMPDEST PUSH1 0x0 PUSH1 0x40 MLOAD DUP1 DUP4 SUB DUP2 PUSH1 0x0 DUP8 DUP1 EXTCODESIZE ISZERO DUP1 ISZERO PUSH2 0x259 JUMPI PUSH1 0x0 DUP1 REVERT JUMPDEST POP GAS CALL ISZERO DUP1 ISZERO PUSH2 0x26D JUMPI RETURNDATASIZE PUSH1 0x0 DUP1 RETURNDATACOPY RETURNDATASIZE PUSH1 0x0 REVERT JUMPDEST POP POP POP POP PUSH2 0x285 PUSH8 0x38BBD253E8C4D691 PUSH1 0xC0 SHL PUSH2 0x7AD JUMP JUMPDEST PUSH2 0x299 PUSH8 0x6C3A7EA2023DE196 PUSH1 0xC0 SHL PUSH2 0x7AD JUMP JUMPDEST DUP3 PUSH20 0xFFFFFFFFFFFFFFFFFFFFFFFFFFFFFFFFFFFFFFFF AND DUP2 PUSH20 0xFFFFFFFFFFFFFFFFFFFFFFFFFFFFFFFFFFFFFFFF AND PUSH32 0xC5AEE479F0A332528D9978BB3FAEF4C74B7425D29183509EDD10706788EAE794 PUSH1 0x40 MLOAD PUSH1 0x40 MLOAD DUP1 SWAP2 SUB SWAP1 LOG3 PUSH2 0x307 PUSH8 0xCCBD938577AA720B PUSH1 0xC0 SHL PUSH2 0x7AD JUMP JUMPDEST PUSH2 0x31B PUSH8 0x46039EAFBB778882 PUSH1 0xC0 SHL PUSH2 0x7AD JUMP JUMPDEST DUP1 SWAP2 POP POP SWAP2 SWAP1 POP JUMP JUMPDEST PUSH1 0x0 PUSH2 0x33A PUSH8 0xA73953D92CD1E394 PUSH1 0xC0 SHL PUSH2 0x7AD JUMP JUMPDEST PUSH2 0x34E PUSH8 0x786BC651FB53D401 PUSH1 0xC0 SHL PUSH2 0x7AD JUMP JUMPDEST PUSH2 0x362 PUSH8 0x96D7176E0425FB59 PUSH1 0xC0 SHL PUSH2 0x7AD JUMP JUMPDEST PUSH1 0x0 PUSH2 0x3D3 PUSH1 0x0 DUP5 PUSH1 0x40 MLOAD DUP1 PUSH1 0x20 ADD PUSH2 0x37A SWAP1 PUSH2 0xA10 JUMP JUMPDEST PUSH1 0x20 DUP3 ADD DUP2 SUB DUP3 MSTORE PUSH1 0x1F NOT PUSH1 0x1F DUP3 ADD AND PUSH1 0x40 MSTORE POP DUP8 PUSH1 0x40 MLOAD PUSH1 0x20 ADD PUSH2 0x39F SWAP2 SWAP1 PUSH2 0xABC JUMP JUMPDEST PUSH1 0x40 MLOAD PUSH1 0x20 DUP2 DUP4 SUB SUB DUP2 MSTORE SWAP1 PUSH1 0x40 MSTORE PUSH1 0x40 MLOAD PUSH1 0x20 ADD PUSH2 0x3BF SWAP3 SWAP2 SWAP1 PUSH2 0xBBE JUMP JUMPDEST PUSH1 0x40 MLOAD PUSH1 0x20 DUP2 DUP4 SUB SUB DUP2 MSTORE SWAP1 PUSH1 0x40 MSTORE PUSH2 0x861 JUMP JUMPDEST SWAP1 POP PUSH2 0x3E9 PUSH8 0x86A8F92A12400CF3 PUSH1 0xC0 SHL PUSH2 0x7AD JUMP JUMPDEST PUSH2 0x3FD PUSH8 0xC63A9E7EF11F04DE PUSH1 0xC0 SHL PUSH2 0x7AD JUMP JUMPDEST DUP4 PUSH20 0xFFFFFFFFFFFFFFFFFFFFFFFFFFFFFFFFFFFFFFFF AND DUP2 PUSH20 0xFFFFFFFFFFFFFFFFFFFFFFFFFFFFFFFFFFFFFFFF AND PUSH32 0x9F57F38058D39775937E43ACD5AA6C8585579F7BFFBE10C631DB6E29F64086C1 PUSH1 0x40 MLOAD PUSH1 0x40 MLOAD DUP1 SWAP2 SUB SWAP1 LOG3 PUSH2 0x46B PUSH8 0x848442922C629B28 PUSH1 0xC0 SHL PUSH2 0x7AD JUMP JUMPDEST PUSH2 0x47F PUSH8 0x4E63B6A9195C36B9 PUSH1 0xC0 SHL PUSH2 0x7AD JUMP JUMPDEST DUP1 SWAP2 POP POP SWAP3 SWAP2 POP POP JUMP JUMPDEST PUSH32 0x0 DUP2 JUMP JUMPDEST PUSH1 0x0 PUSH2 0x4C3 PUSH8 0xE138E8CF5AC62795 PUSH1 0xC0 SHL PUSH2 0x7AD JUMP JUMPDEST PUSH2 0x4D7 PUSH8 0xFD20F2A3D5703E3A PUSH1 0xC0 SHL PUSH2 0x7AD JUMP JUMPDEST PUSH2 0x4EB PUSH8 0x4743E5099229E6AC PUSH1 0xC0 SHL PUSH2 0x7AD JUMP JUMPDEST PUSH1 0x0 PUSH2 0x517 PUSH32 0x0 DUP5 PUSH2 0x95D JUMP JUMPDEST SWAP1 POP PUSH2 0x52D PUSH8 0xD1BBCB01BA5114B7 PUSH1 0xC0 SHL PUSH2 0x7AD JUMP JUMPDEST PUSH2 0x541 PUSH8 0xD465B30B77C5D010 PUSH1 0xC0 SHL PUSH2 0x7AD JUMP JUMPDEST DUP1 PUSH20 0xFFFFFFFFFFFFFFFFFFFFFFFFFFFFFFFFFFFFFFFF AND PUSH4 0xC4D66DE8 DUP6 PUSH1 0x40 MLOAD DUP3 PUSH4 0xFFFFFFFF AND PUSH1 0xE0 SHL DUP2 MSTORE PUSH1 0x4 ADD PUSH2 0x57A SWAP2 SWAP1 PUSH2 0xABC JUMP JUMPDEST PUSH1 0x0 PUSH1 0x40 MLOAD DUP1 DUP4 SUB DUP2 PUSH1 0x0 DUP8 DUP1 EXTCODESIZE ISZERO DUP1 ISZERO PUSH2 0x594 JUMPI PUSH1 0x0 DUP1 REVERT JUMPDEST POP GAS CALL ISZERO DUP1 ISZERO PUSH2 0x5A8 JUMPI RETURNDATASIZE PUSH1 0x0 DUP1 RETURNDATACOPY RETURNDATASIZE PUSH1 0x0 REVERT JUMPDEST POP POP POP POP PUSH2 0x5C0 PUSH8 0x46ED0DC4892AABF PUSH1 0xC0 SHL PUSH2 0x7AD JUMP JUMPDEST PUSH2 0x5D4 PUSH8 0x5084919E1134AC3E PUSH1 0xC0 SHL PUSH2 0x7AD JUMP JUMPDEST DUP4 PUSH20 0xFFFFFFFFFFFFFFFFFFFFFFFFFFFFFFFFFFFFFFFF AND DUP2 PUSH20 0xFFFFFFFFFFFFFFFFFFFFFFFFFFFFFFFFFFFFFFFF AND PUSH32 0xC5AEE479F0A332528D9978BB3FAEF4C74B7425D29183509EDD10706788EAE794 PUSH1 0x40 MLOAD PUSH1 0x40 MLOAD DUP1 SWAP2 SUB SWAP1 LOG3 PUSH2 0x642 PUSH8 0x51BD7ED8CA435505 PUSH1 0xC0 SHL PUSH2 0x7AD JUMP JUMPDEST PUSH2 0x656 PUSH8 0xEDCF94B379A727C PUSH1 0xC0 SHL PUSH2 0x7AD JUMP JUMPDEST DUP1 SWAP2 POP POP SWAP3 SWAP2 POP POP JUMP JUMPDEST PUSH1 0x0 PUSH2 0x676 PUSH8 0x1C97250BF775DBBB PUSH1 0xC0 SHL PUSH2 0x7AD JUMP JUMPDEST PUSH2 0x68A PUSH8 0x3ECD783DFC5EF4CA PUSH1 0xC0 SHL PUSH2 0x7AD JUMP JUMPDEST PUSH2 0x69E PUSH8 0xC47728265F53CB8F PUSH1 0xC0 SHL PUSH2 0x7AD JUMP JUMPDEST PUSH1 0x0 DUP3 PUSH1 0x40 MLOAD PUSH2 0x6AD SWAP1 PUSH2 0xA10 JUMP JUMPDEST PUSH2 0x6B7 SWAP2 SWAP1 PUSH2 0xABC JUMP JUMPDEST PUSH1 0x40 MLOAD DUP1 SWAP2 SUB SWAP1 PUSH1 0x0 CREATE DUP1 ISZERO DUP1 ISZERO PUSH2 0x6D3 JUMPI RETURNDATASIZE PUSH1 0x0 DUP1 RETURNDATACOPY RETURNDATASIZE PUSH1 0x0 REVERT JUMPDEST POP SWAP1 POP PUSH2 0x6EA PUSH8 0x2C98F63343583C1A PUSH1 0xC0 SHL PUSH2 0x7AD JUMP JUMPDEST PUSH2 0x6FE PUSH8 0x7A7FBD6A21A4C3A PUSH1 0xC0 SHL PUSH2 0x7AD JUMP JUMPDEST DUP3 PUSH20 0xFFFFFFFFFFFFFFFFFFFFFFFFFFFFFFFFFFFFFFFF AND DUP2 PUSH20 0xFFFFFFFFFFFFFFFFFFFFFFFFFFFFFFFFFFFFFFFF AND PUSH32 0x9F57F38058D39775937E43ACD5AA6C8585579F7BFFBE10C631DB6E29F64086C1 PUSH1 0x40 MLOAD PUSH1 0x40 MLOAD DUP1 SWAP2 SUB SWAP1 LOG3 PUSH2 0x76C PUSH8 0xFB27D947E53C746C PUSH1 0xC0 SHL PUSH2 0x7AD JUMP JUMPDEST PUSH2 0x780 PUSH8 0xB9D5C3FF9BEE68C0 PUSH1 0xC0 SHL PUSH2 0x7AD JUMP JUMPDEST DUP1 SWAP2 POP POP SWAP2 SWAP1 POP JUMP JUMPDEST PUSH32 0x0 DUP2 JUMP JUMPDEST POP JUMP JUMPDEST PUSH1 0x0 PUSH23 0x3D602D80600A3D3981F3363D3D373D3D3D363D73000000 DUP3 PUSH1 0x60 SHL PUSH1 0xE8 SHR OR PUSH1 0x0 MSTORE PUSH15 0x5AF43D82803E903D91602B57FD5BF3 DUP3 PUSH1 0x78 SHL OR PUSH1 0x20 MSTORE PUSH1 0x37 PUSH1 0x9 PUSH1 0x0 CREATE SWAP1 POP PUSH1 0x0 PUSH20 0xFFFFFFFFFFFFFFFFFFFFFFFFFFFFFFFFFFFFFFFF AND DUP2 PUSH20 0xFFFFFFFFFFFFFFFFFFFFFFFFFFFFFFFFFFFFFFFF AND SUB PUSH2 0x85C JUMPI PUSH1 0x40 MLOAD PUSH32 0xC2F868F400000000000000000000000000000000000000000000000000000000 DUP2 MSTORE PUSH1 0x4 ADD PUSH1 0x40 MLOAD DUP1 SWAP2 SUB SWAP1 REVERT JUMPDEST SWAP2 SWAP1 POP JUMP JUMPDEST PUSH1 0x0 DUP4 SELFBALANCE LT ISZERO PUSH2 0x8AA JUMPI SELFBALANCE DUP5 PUSH1 0x40 MLOAD PUSH32 0xE4BBECAC00000000000000000000000000000000000000000000000000000000 DUP2 MSTORE PUSH1 0x4 ADD PUSH2 0x8A1 SWAP3 SWAP2 SWAP1 PUSH2 0xBFB JUMP JUMPDEST PUSH1 0x40 MLOAD DUP1 SWAP2 SUB SWAP1 REVERT JUMPDEST PUSH1 0x0 DUP3 MLOAD SUB PUSH2 0x8E5 JUMPI PUSH1 0x40 MLOAD PUSH32 0x4CA249DC00000000000000000000000000000000000000000000000000000000 DUP2 MSTORE PUSH1 0x4 ADD PUSH1 0x40 MLOAD DUP1 SWAP2 SUB SWAP1 REVERT JUMPDEST DUP3 DUP3 MLOAD PUSH1 0x20 DUP5 ADD DUP7 CREATE2 SWAP1 POP PUSH1 0x0 PUSH20 0xFFFFFFFFFFFFFFFFFFFFFFFFFFFFFFFFFFFFFFFF AND DUP2 PUSH20 0xFFFFFFFFFFFFFFFFFFFFFFFFFFFFFFFFFFFFFFFF AND SUB PUSH2 0x956 JUMPI PUSH1 0x40 MLOAD PUSH32 0x741752C200000000000000000000000000000000000000000000000000000000 DUP2 MSTORE PUSH1 0x4 ADD PUSH1 0x40 MLOAD DUP1 SWAP2 SUB SWAP1 REVERT JUMPDEST SWAP4 SWAP3 POP POP POP JUMP JUMPDEST PUSH1 0x0 PUSH23 0x3D602D80600A3D3981F3363D3D373D3D3D363D73000000 DUP4 PUSH1 0x60 SHL PUSH1 0xE8 SHR OR PUSH1 0x0 MSTORE PUSH15 0x5AF43D82803E903D91602B57FD5BF3 DUP4 PUSH1 0x78 SHL OR PUSH1 0x20 MSTORE DUP2 PUSH1 0x37 PUSH1 0x9 PUSH1 0x0 CREATE2 SWAP1 POP PUSH1 0x0 PUSH20 0xFFFFFFFFFFFFFFFFFFFFFFFFFFFFFFFFFFFFFFFF AND DUP2 PUSH20 0xFFFFFFFFFFFFFFFFFFFFFFFFFFFFFFFFFFFFFFFF AND SUB PUSH2 0xA0A JUMPI PUSH1 0x40 MLOAD PUSH32 0xC2F868F400000000000000000000000000000000000000000000000000000000 DUP2 MSTORE PUSH1 0x4 ADD PUSH1 0x40 MLOAD DUP1 SWAP2 SUB SWAP1 REVERT JUMPDEST SWAP3 SWAP2 POP POP JUMP JUMPDEST PUSH2 0x826 DUP1 PUSH2 0xC25 DUP4 CODECOPY ADD SWAP1 JUMP JUMPDEST PUSH1 0x0 DUP1 REVERT JUMPDEST PUSH1 0x0 PUSH20 0xFFFFFFFFFFFFFFFFFFFFFFFFFFFFFFFFFFFFFFFF DUP3 AND SWAP1 POP SWAP2 SWAP1 POP JUMP JUMPDEST PUSH1 0x0 PUSH2 0xA4D DUP3 PUSH2 0xA22 JUMP JUMPDEST SWAP1 POP SWAP2 SWAP1 POP JUMP JUMPDEST PUSH2 0xA5D DUP2 PUSH2 0xA42 JUMP JUMPDEST DUP2 EQ PUSH2 0xA68 JUMPI PUSH1 0x0 DUP1 REVERT JUMPDEST POP JUMP JUMPDEST PUSH1 0x0 DUP2 CALLDATALOAD SWAP1 POP PUSH2 0xA7A DUP2 PUSH2 0xA54 JUMP JUMPDEST SWAP3 SWAP2 POP POP JUMP JUMPDEST PUSH1 0x0 PUSH1 0x20 DUP3 DUP5 SUB SLT ISZERO PUSH2 0xA96 JUMPI PUSH2 0xA95 PUSH2 0xA1D JUMP JUMPDEST JUMPDEST PUSH1 0x0 PUSH2 0xAA4 DUP5 DUP3 DUP6 ADD PUSH2 0xA6B JUMP JUMPDEST SWAP2 POP POP SWAP3 SWAP2 POP POP JUMP JUMPDEST PUSH2 0xAB6 DUP2 PUSH2 0xA42 JUMP JUMPDEST DUP3 MSTORE POP POP JUMP JUMPDEST PUSH1 0x0 PUSH1 0x20 DUP3 ADD SWAP1 POP PUSH2 0xAD1 PUSH1 0x0 DUP4 ADD DUP5 PUSH2 0xAAD JUMP JUMPDEST SWAP3 SWAP2 POP POP JUMP JUMPDEST PUSH1 0x0 DUP2 SWAP1 POP SWAP2 SWAP1 POP JUMP JUMPDEST PUSH2 0xAEA DUP2 PUSH2 0xAD7 JUMP JUMPDEST DUP2 EQ PUSH2 0xAF5 JUMPI PUSH1 0x0 DUP1 REVERT JUMPDEST POP JUMP JUMPDEST PUSH1 0x0 DUP2 CALLDATALOAD SWAP1 POP PUSH2 0xB07 DUP2 PUSH2 0xAE1 JUMP JUMPDEST SWAP3 SWAP2 POP POP JUMP JUMPDEST PUSH1 0x0 DUP1 PUSH1 0x40 DUP4 DUP6 SUB SLT ISZERO PUSH2 0xB24 JUMPI PUSH2 0xB23 PUSH2 0xA1D JUMP JUMPDEST JUMPDEST PUSH1 0x0 PUSH2 0xB32 DUP6 DUP3 DUP7 ADD PUSH2 0xA6B JUMP JUMPDEST SWAP3 POP POP PUSH1 0x20 PUSH2 0xB43 DUP6 DUP3 DUP7 ADD PUSH2 0xAF8 JUMP JUMPDEST SWAP2 POP POP SWAP3 POP SWAP3 SWAP1 POP JUMP JUMPDEST PUSH1 0x0 DUP2 MLOAD SWAP1 POP SWAP2 SWAP1 POP JUMP JUMPDEST PUSH1 0x0 DUP2 SWAP1 POP SWAP3 SWAP2 POP POP JUMP JUMPDEST PUSH1 0x0 JUMPDEST DUP4 DUP2 LT ISZERO PUSH2 0xB81 JUMPI DUP1 DUP3 ADD MLOAD DUP2 DUP5 ADD MSTORE PUSH1 0x20 DUP2 ADD SWAP1 POP PUSH2 0xB66 JUMP JUMPDEST PUSH1 0x0 DUP5 DUP5 ADD MSTORE POP POP POP POP JUMP JUMPDEST PUSH1 0x0 PUSH2 0xB98 DUP3 PUSH2 0xB4D JUMP JUMPDEST PUSH2 0xBA2 DUP2 DUP6 PUSH2 0xB58 JUMP JUMPDEST SWAP4 POP PUSH2 0xBB2 DUP2 DUP6 PUSH1 0x20 DUP7 ADD PUSH2 0xB63 JUMP JUMPDEST DUP1 DUP5 ADD SWAP2 POP POP SWAP3 SWAP2 POP POP JUMP JUMPDEST PUSH1 0x0 PUSH2 0xBCA DUP3 DUP6 PUSH2 0xB8D JUMP JUMPDEST SWAP2 POP PUSH2 0xBD6 DUP3 DUP5 PUSH2 0xB8D JUMP JUMPDEST SWAP2 POP DUP2 SWAP1 POP SWAP4 SWAP3 POP POP POP JUMP JUMPDEST PUSH1 0x0 DUP2 SWAP1 POP SWAP2 SWAP1 POP JUMP JUMPDEST PUSH2 0xBF5 DUP2 PUSH2 0xBE2 JUMP JUMPDEST DUP3 MSTORE POP POP JUMP JUMPDEST PUSH1 0x0 PUSH1 0x40 DUP3 ADD SWAP1 POP PUSH2 0xC10 PUSH1 0x0 DUP4 ADD DUP6 PUSH2 0xBEC JUMP JUMPDEST PUSH2 0xC1D PUSH1 0x20 DUP4 ADD DUP5 PUSH2 0xBEC JUMP JUMPDEST SWAP4 SWAP3 POP POP POP JUMP INVALID PUSH1 0x80 PUSH1 0x40 MSTORE CALLVALUE DUP1 ISZERO PUSH2 0x10 JUMPI PUSH1 0x0 DUP1 REVERT JUMPDEST POP PUSH1 0x40 MLOAD PUSH2 0x826 CODESIZE SUB DUP1 PUSH2 0x826 DUP4 CODECOPY DUP2 DUP2 ADD PUSH1 0x40 MSTORE DUP2 ADD SWAP1 PUSH2 0x32 SWAP2 SWAP1 PUSH2 0x112 JUMP JUMPDEST PUSH2 0x4C PUSH8 0x42ED833A7F969415 PUSH1 0xC0 SHL PUSH2 0xAC PUSH1 0x20 SHL PUSH1 0x20 SHR JUMP JUMPDEST PUSH2 0x66 PUSH8 0x42983FD182700B6 PUSH1 0xC0 SHL PUSH2 0xAC PUSH1 0x20 SHL PUSH1 0x20 SHR JUMP JUMPDEST DUP1 PUSH1 0x0 DUP1 PUSH2 0x100 EXP DUP2 SLOAD DUP2 PUSH20 0xFFFFFFFFFFFFFFFFFFFFFFFFFFFFFFFFFFFFFFFF MUL NOT AND SWAP1 DUP4 PUSH20 0xFFFFFFFFFFFFFFFFFFFFFFFFFFFFFFFFFFFFFFFF AND MUL OR SWAP1 SSTORE POP POP PUSH2 0x13F JUMP JUMPDEST POP JUMP JUMPDEST PUSH1 0x0 DUP1 REVERT JUMPDEST PUSH1 0x0 PUSH20 0xFFFFFFFFFFFFFFFFFFFFFFFFFFFFFFFFFFFFFFFF DUP3 AND SWAP1 POP SWAP2 SWAP1 POP JUMP JUMPDEST PUSH1 0x0 PUSH2 0xDF DUP3 PUSH2 0xB4 JUMP JUMPDEST SWAP1 POP SWAP2 SWAP1 POP JUMP JUMPDEST PUSH2 0xEF DUP2 PUSH2 0xD4 JUMP JUMPDEST DUP2 EQ PUSH2 0xFA JUMPI PUSH1 0x0 DUP1 REVERT JUMPDEST POP JUMP JUMPDEST PUSH1 0x0 DUP2 MLOAD SWAP1 POP PUSH2 0x10C DUP2 PUSH2 0xE6 JUMP JUMPDEST SWAP3 SWAP2 POP POP JUMP JUMPDEST PUSH1 0x0 PUSH1 0x20 DUP3 DUP5 SUB SLT ISZERO PUSH2 0x128 JUMPI PUSH2 0x127 PUSH2 0xAF JUMP JUMPDEST JUMPDEST PUSH1 0x0 PUSH2 0x136 DUP5 DUP3 DUP6 ADD PUSH2 0xFD JUMP JUMPDEST SWAP2 POP POP SWAP3 SWAP2 POP POP JUMP JUMPDEST PUSH2 0x6D8 DUP1 PUSH2 0x14E PUSH1 0x0 CODECOPY PUSH1 0x0 RETURN INVALID PUSH1 0x80 PUSH1 0x40 MSTORE CALLVALUE DUP1 ISZERO PUSH2 0x10 JUMPI PUSH1 0x0 DUP1 REVERT JUMPDEST POP PUSH1 0x4 CALLDATASIZE LT PUSH2 0x41 JUMPI PUSH1 0x0 CALLDATALOAD PUSH1 0xE0 SHR DUP1 PUSH4 0x6661ABD EQ PUSH2 0x46 JUMPI DUP1 PUSH4 0x8DA5CB5B EQ PUSH2 0x50 JUMPI DUP1 PUSH4 0xF3FEF3A3 EQ PUSH2 0x6E JUMPI JUMPDEST PUSH1 0x0 DUP1 REVERT JUMPDEST PUSH2 0x4E PUSH2 0x8A JUMP JUMPDEST STOP JUMPDEST PUSH2 0x58 PUSH2 0x1FA JUMP JUMPDEST PUSH1 0x40 MLOAD PUSH2 0x65 SWAP2 SWAP1 PUSH2 0x44F JUMP JUMPDEST PUSH1 0x40 MLOAD DUP1 SWAP2 SUB SWAP1 RETURN JUMPDEST PUSH2 0x88 PUSH1 0x4 DUP1 CALLDATASIZE SUB DUP2 ADD SWAP1 PUSH2 0x83 SWAP2 SWAP1 PUSH2 0x4D1 JUMP JUMPDEST PUSH2 0x21E JUMP JUMPDEST STOP JUMPDEST PUSH2 0x9E PUSH8 0x9CB98B270348BE29 PUSH1 0xC0 SHL PUSH2 0x40B JUMP JUMPDEST PUSH2 0xB2 PUSH8 0x297982510B1D4338 PUSH1 0xC0 SHL PUSH2 0x40B JUMP JUMPDEST PUSH2 0xC6 PUSH8 0x5B2B0654536C17FC PUSH1 0xC0 SHL PUSH2 0x40B JUMP JUMPDEST PUSH2 0xDA PUSH8 0xA305FB29F8DDBCF7 PUSH1 0xC0 SHL PUSH2 0x40B JUMP JUMPDEST PUSH2 0xEE PUSH8 0x6C43E096419F332C PUSH1 0xC0 SHL PUSH2 0x40B JUMP JUMPDEST PUSH1 0x0 DUP1 SLOAD SWAP1 PUSH2 0x100 EXP SWAP1 DIV PUSH20 0xFFFFFFFFFFFFFFFFFFFFFFFFFFFFFFFFFFFFFFFF AND PUSH20 0xFFFFFFFFFFFFFFFFFFFFFFFFFFFFFFFFFFFFFFFF AND CALLER PUSH20 0xFFFFFFFFFFFFFFFFFFFFFFFFFFFFFFFFFFFFFFFF AND EQ PUSH2 0x17C JUMPI PUSH1 0x40 MLOAD PUSH32 0x8C379A000000000000000000000000000000000000000000000000000000000 DUP2 MSTORE PUSH1 0x4 ADD PUSH2 0x173 SWAP1 PUSH2 0x56E JUMP JUMPDEST PUSH1 0x40 MLOAD DUP1 SWAP2 SUB SWAP1 REVERT JUMPDEST PUSH2 0x190 PUSH8 0x7D416AB2E74ECFC7 PUSH1 0xC0 SHL PUSH2 0x40B JUMP JUMPDEST PUSH2 0x1A4 PUSH8 0x12CC9ACAFAC88E9A PUSH1 0xC0 SHL PUSH2 0x40B JUMP JUMPDEST PUSH2 0x1B8 PUSH8 0x113012D5654817DD PUSH1 0xC0 SHL PUSH2 0x40B JUMP JUMPDEST PUSH2 0x1CC PUSH8 0x50CFBCE54280EE66 PUSH1 0xC0 SHL PUSH2 0x40B JUMP JUMPDEST PUSH2 0x1E0 PUSH8 0xFF8DCACE9C05A70D PUSH1 0xC0 SHL PUSH2 0x40B JUMP JUMPDEST PUSH1 0x1 PUSH1 0x0 DUP2 SLOAD DUP1 SWAP3 SWAP2 SWAP1 PUSH2 0x1F3 SWAP1 PUSH2 0x5BD JUMP JUMPDEST SWAP2 SWAP1 POP SSTORE POP JUMP JUMPDEST PUSH1 0x0 DUP1 SLOAD SWAP1 PUSH2 0x100 EXP SWAP1 DIV PUSH20 0xFFFFFFFFFFFFFFFFFFFFFFFFFFFFFFFFFFFFFFFF AND DUP2 JUMP JUMPDEST PUSH2 0x232 PUSH8 0x8BF1CFB2DEB00DD5 PUSH1 0xC0 SHL PUSH2 0x40B JUMP JUMPDEST PUSH2 0x246 PUSH8 0x297982510B1D4338 PUSH1 0xC0 SHL PUSH2 0x40B JUMP JUMPDEST PUSH2 0x25A PUSH8 0x5B2B0654536C17FC PUSH1 0xC0 SHL PUSH2 0x40B JUMP JUMPDEST PUSH2 0x26E PUSH8 0xA305FB29F8DDBCF7 PUSH1 0xC0 SHL PUSH2 0x40B JUMP JUMPDEST PUSH2 0x282 PUSH8 0x6C43E096419F332C PUSH1 0xC0 SHL PUSH2 0x40B JUMP JUMPDEST PUSH1 0x0 DUP1 SLOAD SWAP1 PUSH2 0x100 EXP SWAP1 DIV PUSH20 0xFFFFFFFFFFFFFFFFFFFFFFFFFFFFFFFFFFFFFFFF AND PUSH20 0xFFFFFFFFFFFFFFFFFFFFFFFFFFFFFFFFFFFFFFFF AND CALLER PUSH20 0xFFFFFFFFFFFFFFFFFFFFFFFFFFFFFFFFFFFFFFFF AND EQ PUSH2 0x310 JUMPI PUSH1 0x40 MLOAD PUSH32 0x8C379A000000000000000000000000000000000000000000000000000000000 DUP2 MSTORE PUSH1 0x4 ADD PUSH2 0x307 SWAP1 PUSH2 0x56E JUMP JUMPDEST PUSH1 0x40 MLOAD DUP1 SWAP2 SUB SWAP1 REVERT JUMPDEST PUSH2 0x324 PUSH8 0x7D416AB2E74ECFC7 PUSH1 0xC0 SHL PUSH2 0x40B JUMP JUMPDEST PUSH2 0x338 PUSH8 0x12CC9ACAFAC88E9A PUSH1 0xC0 SHL PUSH2 0x40B JUMP JUMPDEST PUSH2 0x34C PUSH8 0x906E59CA18D48378 PUSH1 0xC0 SHL PUSH2 0x40B JUMP JUMPDEST PUSH2 0x360 PUSH8 0x72ED60DF6A0A6FD4 PUSH1 0xC0 SHL PUSH2 0x40B JUMP JUMPDEST PUSH2 0x374 PUSH8 0x93BF0F2418DDF7C PUSH1 0xC0 SHL PUSH2 0x40B JUMP JUMPDEST PUSH2 0x388 PUSH8 0x707BD7DF863DD674 PUSH1 0xC0 SHL PUSH2 0x40B JUMP JUMPDEST DUP2 PUSH20 0xFFFFFFFFFFFFFFFFFFFFFFFFFFFFFFFFFFFFFFFF AND PUSH4 0xA9059CBB CALLER DUP4 PUSH1 0x40 MLOAD DUP4 PUSH4 0xFFFFFFFF AND PUSH1 0xE0 SHL DUP2 MSTORE PUSH1 0x4 ADD PUSH2 0x3C3 SWAP3 SWAP2 SWAP1 PUSH2 0x614 JUMP JUMPDEST PUSH1 0x20 PUSH1 0x40 MLOAD DUP1 DUP4 SUB DUP2 PUSH1 0x0 DUP8 GAS CALL ISZERO DUP1 ISZERO PUSH2 0x3E2 JUMPI RETURNDATASIZE PUSH1 0x0 DUP1 RETURNDATACOPY RETURNDATASIZE PUSH1 0x0 REVERT JUMPDEST POP POP POP POP PUSH1 0x40 MLOAD RETURNDATASIZE PUSH1 0x1F NOT PUSH1 0x1F DUP3 ADD AND DUP3 ADD DUP1 PUSH1 0x40 MSTORE POP DUP2 ADD SWAP1 PUSH2 0x406 SWAP2 SWAP1 PUSH2 0x675 JUMP JUMPDEST POP POP POP JUMP JUMPDEST POP JUMP JUMPDEST PUSH1 0x0 PUSH20 0xFFFFFFFFFFFFFFFFFFFFFFFFFFFFFFFFFFFFFFFF DUP3 AND SWAP1 POP SWAP2 SWAP1 POP JUMP JUMPDEST PUSH1 0x0 PUSH2 0x439 DUP3 PUSH2 0x40E JUMP JUMPDEST SWAP1 POP SWAP2 SWAP1 POP JUMP JUMPDEST PUSH2 0x449 DUP2 PUSH2 0x42E JUMP JUMPDEST DUP3 MSTORE POP POP JUMP JUMPDEST PUSH1 0x0 PUSH1 0x20 DUP3 ADD SWAP1 POP PUSH2 0x464 PUSH1 0x0 DUP4 ADD DUP5 PUSH2 0x440 JUMP JUMPDEST SWAP3 SWAP2 POP POP JUMP JUMPDEST PUSH1 0x0 DUP1 REVERT JUMPDEST PUSH2 0x478 DUP2 PUSH2 0x42E JUMP JUMPDEST DUP2 EQ PUSH2 0x483 JUMPI PUSH1 0x0 DUP1 REVERT JUMPDEST POP JUMP JUMPDEST PUSH1 0x0 DUP2 CALLDATALOAD SWAP1 POP PUSH2 0x495 DUP2 PUSH2 0x46F JUMP JUMPDEST SWAP3 SWAP2 POP POP JUMP JUMPDEST PUSH1 0x0 DUP2 SWAP1 POP SWAP2 SWAP1 POP JUMP JUMPDEST PUSH2 0x4AE DUP2 PUSH2 0x49B JUMP JUMPDEST DUP2 EQ PUSH2 0x4B9 JUMPI PUSH1 0x0 DUP1 REVERT JUMPDEST POP JUMP JUMPDEST PUSH1 0x0 DUP2 CALLDATALOAD SWAP1 POP PUSH2 0x4CB DUP2 PUSH2 0x4A5 JUMP JUMPDEST SWAP3 SWAP2 POP POP JUMP JUMPDEST PUSH1 0x0 DUP1 PUSH1 0x40 DUP4 DUP6 SUB SLT ISZERO PUSH2 0x4E8 JUMPI PUSH2 0x4E7 PUSH2 0x46A JUMP JUMPDEST JUMPDEST PUSH1 0x0 PUSH2 0x4F6 DUP6 DUP3 DUP7 ADD PUSH2 0x486 JUMP JUMPDEST SWAP3 POP POP PUSH1 0x20 PUSH2 0x507 DUP6 DUP3 DUP7 ADD PUSH2 0x4BC JUMP JUMPDEST SWAP2 POP POP SWAP3 POP SWAP3 SWAP1 POP JUMP JUMPDEST PUSH1 0x0 DUP3 DUP3 MSTORE PUSH1 0x20 DUP3 ADD SWAP1 POP SWAP3 SWAP2 POP POP JUMP JUMPDEST PUSH32 0x216F776E65720000000000000000000000000000000000000000000000000000 PUSH1 0x0 DUP3 ADD MSTORE POP JUMP JUMPDEST PUSH1 0x0 PUSH2 0x558 PUSH1 0x6 DUP4 PUSH2 0x511 JUMP JUMPDEST SWAP2 POP PUSH2 0x563 DUP3 PUSH2 0x522 JUMP JUMPDEST PUSH1 0x20 DUP3 ADD SWAP1 POP SWAP2 SWAP1 POP JUMP JUMPDEST PUSH1 0x0 PUSH1 0x20 DUP3 ADD SWAP1 POP DUP2 DUP2 SUB PUSH1 0x0 DUP4 ADD MSTORE PUSH2 0x587 DUP2 PUSH2 0x54B JUMP JUMPDEST SWAP1 POP SWAP2 SWAP1 POP JUMP JUMPDEST PUSH32 0x4E487B7100000000000000000000000000000000000000000000000000000000 PUSH1 0x0 MSTORE PUSH1 0x11 PUSH1 0x4 MSTORE PUSH1 0x24 PUSH1 0x0 REVERT JUMPDEST PUSH1 0x0 PUSH2 0x5C8 DUP3 PUSH2 0x49B JUMP JUMPDEST SWAP2 POP PUSH32 0xFFFFFFFFFFFFFFFFFFFFFFFFFFFFFFFFFFFFFFFFFFFFFFFFFFFFFFFFFFFFFFFF DUP3 SUB PUSH2 0x5FA JUMPI PUSH2 0x5F9 PUSH2 0x58E JUMP JUMPDEST JUMPDEST PUSH1 0x1 DUP3 ADD SWAP1 POP SWAP2 SWAP1 POP JUMP JUMPDEST PUSH2 0x60E DUP2 PUSH2 0x49B JUMP JUMPDEST DUP3 MSTORE POP POP JUMP JUMPDEST PUSH1 0x0 PUSH1 0x40 DUP3 ADD SWAP1 POP PUSH2 0x629 PUSH1 0x0 DUP4 ADD DUP6 PUSH2 0x440 JUMP JUMPDEST PUSH2 0x636 PUSH1 0x20 DUP4 ADD DUP5 PUSH2 0x605 JUMP JUMPDEST SWAP4 SWAP3 POP POP POP JUMP JUMPDEST PUSH1 0x0 DUP2 ISZERO ISZERO SWAP1 POP SWAP2 SWAP1 POP JUMP JUMPDEST PUSH2 0x652 DUP2 PUSH2 0x63D JUMP JUMPDEST DUP2 EQ PUSH2 0x65D JUMPI PUSH1 0x0 DUP1 REVERT JUMPDEST POP JUMP JUMPDEST PUSH1 0x0 DUP2 MLOAD SWAP1 POP PUSH2 0x66F DUP2 PUSH2 0x649 JUMP JUMPDEST SWAP3 SWAP2 POP POP JUMP JUMPDEST PUSH1 0x0 PUSH1 0x20 DUP3 DUP5 SUB SLT ISZERO PUSH2 0x68B JUMPI PUSH2 0x68A PUSH2 0x46A JUMP JUMPDEST JUMPDEST PUSH1 0x0 PUSH2 0x699 DUP5 DUP3 DUP6 ADD PUSH2 0x660 JUMP JUMPDEST SWAP2 POP POP SWAP3 SWAP2 POP POP JUMP INVALID LOG2 PUSH5 0x6970667358 0x22 SLT KECCAK256 MCOPY 0xE STATICCALL STATICCALL 0xD6 SLOAD SSTORE PUSH0 0xDC SSTORE PUSH19 0x5336BE2A753FA98127F50CC4CFD03420588C9F CODESIZE LOG3 PUSH5 0x736F6C6343 STOP ADDMOD XOR STOP CALLER LOG2 PUSH5 0x6970667358 0x22 SLT KECCAK256 0xCE 0xCA 0xBF BLOBHASH BALANCE 0xBB 0xC0 0x1F 0xC3 0xCC 0x4F PUSH19 0x3CD70A70FF77F1E55B12012CED88FFEFB5C88 REVERT PUSH5 0x736F6C6343 STOP ADDMOD XOR STOP CALLER PUSH1 0x80 PUSH1 0x40 MSTORE CALLVALUE DUP1 ISZERO PUSH2 0x10 JUMPI PUSH1 0x0 DUP1 REVERT JUMPDEST POP PUSH1 0x40 MLOAD PUSH2 0x826 CODESIZE SUB DUP1 PUSH2 0x826 DUP4 CODECOPY DUP2 DUP2 ADD PUSH1 0x40 MSTORE DUP2 ADD SWAP1 PUSH2 0x32 SWAP2 SWAP1 PUSH2 0x112 JUMP JUMPDEST PUSH2 0x4C PUSH8 0x42ED833A7F969415 PUSH1 0xC0 SHL PUSH2 0xAC PUSH1 0x20 SHL PUSH1 0x20 SHR JUMP JUMPDEST PUSH2 0x66 PUSH8 0x42983FD182700B6 PUSH1 0xC0 SHL PUSH2 0xAC PUSH1 0x20 SHL PUSH1 0x20 SHR JUMP JUMPDEST DUP1 PUSH1 0x0 DUP1 PUSH2 0x100 EXP DUP2 SLOAD DUP2 PUSH20 0xFFFFFFFFFFFFFFFFFFFFFFFFFFFFFFFFFFFFFFFF MUL NOT AND SWAP1 DUP4 PUSH20 0xFFFFFFFFFFFFFFFFFFFFFFFFFFFFFFFFFFFFFFFF AND MUL OR SWAP1 SSTORE POP POP PUSH2 0x13F JUMP JUMPDEST POP JUMP JUMPDEST PUSH1 0x0 DUP1 REVERT JUMPDEST PUSH1 0x0 PUSH20 0xFFFFFFFFFFFFFFFFFFFFFFFFFFFFFFFFFFFFFFFF DUP3 AND SWAP1 POP SWAP2 SWAP1 POP JUMP JUMPDEST PUSH1 0x0 PUSH2 0xDF DUP3 PUSH2 0xB4 JUMP JUMPDEST SWAP1 POP SWAP2 SWAP1 POP JUMP JUMPDEST PUSH2 0xEF DUP2 PUSH2 0xD4 JUMP JUMPDEST DUP2 EQ PUSH2 0xFA JUMPI PUSH1 0x0 DUP1 REVERT JUMPDEST POP JUMP JUMPDEST PUSH1 0x0 DUP2 MLOAD SWAP1 POP PUSH2 0x10C DUP2 PUSH2 0xE6 JUMP JUMPDEST SWAP3 SWAP2 POP POP JUMP JUMPDEST PUSH1 0x0 PUSH1 0x20 DUP3 DUP5 SUB SLT ISZERO PUSH2 0x128 JUMPI PUSH2 0x127 PUSH2 0xAF JUMP JUMPDEST JUMPDEST PUSH1 0x0 PUSH2 0x136 DUP5 DUP3 DUP6 ADD PUSH2 0xFD JUMP JUMPDEST SWAP2 POP POP SWAP3 SWAP2 POP POP JUMP JUMPDEST PUSH2 0x6D8 DUP1 PUSH2 0x14E PUSH1 0x0 CODECOPY PUSH1 0x0 RETURN INVALID PUSH1 0x80 PUSH1 0x40 MSTORE CALLVALUE DUP1 ISZERO PUSH2 0x10 JUMPI PUSH1 0x0 DUP1 REVERT JUMPDEST POP PUSH1 0x4 CALLDATASIZE LT PUSH2 0x41 JUMPI PUSH1 0x0 CALLDATALOAD PUSH1 0xE0 SHR DUP1 PUSH4 0x6661ABD EQ PUSH2 0x46 JUMPI DUP1 PUSH4 0x8DA5CB5B EQ PUSH2 0x50 JUMPI DUP1 PUSH4 0xF3FEF3A3 EQ PUSH2 0x6E JUMPI JUMPDEST PUSH1 0x0 DUP1 REVERT JUMPDEST PUSH2 0x4E PUSH2 0x8A JUMP JUMPDEST STOP JUMPDEST PUSH2 0x58 PUSH2 0x1FA JUMP JUMPDEST PUSH1 0x40 MLOAD PUSH2 0x65 SWAP2 SWAP1 PUSH2 0x44F JUMP JUMPDEST PUSH1 0x40 MLOAD DUP1 SWAP2 SUB SWAP1 RETURN JUMPDEST PUSH2 0x88 PUSH1 0x4 DUP1 CALLDATASIZE SUB DUP2 ADD SWAP1 PUSH2 0x83 SWAP2 SWAP1 PUSH2 0x4D1 JUMP JUMPDEST PUSH2 0x21E JUMP JUMPDEST STOP JUMPDEST PUSH2 0x9E PUSH8 0x9CB98B270348BE29 PUSH1 0xC0 SHL PUSH2 0x40B JUMP JUMPDEST PUSH2 0xB2 PUSH8 0x297982510B1D4338 PUSH1 0xC0 SHL PUSH2 0x40B JUMP JUMPDEST PUSH2 0xC6 PUSH8 0x5B2B0654536C17FC PUSH1 0xC0 SHL PUSH2 0x40B JUMP JUMPDEST PUSH2 0xDA PUSH8 0xA305FB29F8DDBCF7 PUSH1 0xC0 SHL PUSH2 0x40B JUMP JUMPDEST PUSH2 0xEE PUSH8 0x6C43E096419F332C PUSH1 0xC0 SHL PUSH2 0x40B JUMP JUMPDEST PUSH1 0x0 DUP1 SLOAD SWAP1 PUSH2 0x100 EXP SWAP1 DIV PUSH20 0xFFFFFFFFFFFFFFFFFFFFFFFFFFFFFFFFFFFFFFFF AND PUSH20 0xFFFFFFFFFFFFFFFFFFFFFFFFFFFFFFFFFFFFFFFF AND CALLER PUSH20 0xFFFFFFFFFFFFFFFFFFFFFFFFFFFFFFFFFFFFFFFF AND EQ PUSH2 0x17C JUMPI PUSH1 0x40 MLOAD PUSH32 0x8C379A000000000000000000000000000000000000000000000000000000000 DUP2 MSTORE PUSH1 0x4 ADD PUSH2 0x173 SWAP1 PUSH2 0x56E JUMP JUMPDEST PUSH1 0x40 MLOAD DUP1 SWAP2 SUB SWAP1 REVERT JUMPDEST PUSH2 0x190 PUSH8 0x7D416AB2E74ECFC7 PUSH1 0xC0 SHL PUSH2 0x40B JUMP JUMPDEST PUSH2 0x1A4 PUSH8 0x12CC9ACAFAC88E9A PUSH1 0xC0 SHL PUSH2 0x40B JUMP JUMPDEST PUSH2 0x1B8 PUSH8 0x113012D5654817DD PUSH1 0xC0 SHL PUSH2 0x40B JUMP JUMPDEST PUSH2 0x1CC PUSH8 0x50CFBCE54280EE66 PUSH1 0xC0 SHL PUSH2 0x40B JUMP JUMPDEST PUSH2 0x1E0 PUSH8 0xFF8DCACE9C05A70D PUSH1 0xC0 SHL PUSH2 0x40B JUMP JUMPDEST PUSH1 0x1 PUSH1 0x0 DUP2 SLOAD DUP1 SWAP3 SWAP2 SWAP1 PUSH2 0x1F3 SWAP1 PUSH2 0x5BD JUMP JUMPDEST SWAP2 SWAP1 POP SSTORE POP JUMP JUMPDEST PUSH1 0x0 DUP1 SLOAD SWAP1 PUSH2 0x100 EXP SWAP1 DIV PUSH20 0xFFFFFFFFFFFFFFFFFFFFFFFFFFFFFFFFFFFFFFFF AND DUP2 JUMP JUMPDEST PUSH2 0x232 PUSH8 0x8BF1CFB2DEB00DD5 PUSH1 0xC0 SHL PUSH2 0x40B JUMP JUMPDEST PUSH2 0x246 PUSH8 0x297982510B1D4338 PUSH1 0xC0 SHL PUSH2 0x40B JUMP JUMPDEST PUSH2 0x25A PUSH8 0x5B2B0654536C17FC PUSH1 0xC0 SHL PUSH2 0x40B JUMP JUMPDEST PUSH2 0x26E PUSH8 0xA305FB29F8DDBCF7 PUSH1 0xC0 SHL PUSH2 0x40B JUMP JUMPDEST PUSH2 0x282 PUSH8 0x6C43E096419F332C PUSH1 0xC0 SHL PUSH2 0x40B JUMP JUMPDEST PUSH1 0x0 DUP1 SLOAD SWAP1 PUSH2 0x100 EXP SWAP1 DIV PUSH20 0xFFFFFFFFFFFFFFFFFFFFFFFFFFFFFFFFFFFFFFFF AND PUSH20 0xFFFFFFFFFFFFFFFFFFFFFFFFFFFFFFFFFFFFFFFF AND CALLER PUSH20 0xFFFFFFFFFFFFFFFFFFFFFFFFFFFFFFFFFFFFFFFF AND EQ PUSH2 0x310 JUMPI PUSH1 0x40 MLOAD PUSH32 0x8C379A000000000000000000000000000000000000000000000000000000000 DUP2 MSTORE PUSH1 0x4 ADD PUSH2 0x307 SWAP1 PUSH2 0x56E JUMP JUMPDEST PUSH1 0x40 MLOAD DUP1 SWAP2 SUB SWAP1 REVERT JUMPDEST PUSH2 0x324 PUSH8 0x7D416AB2E74ECFC7 PUSH1 0xC0 SHL PUSH2 0x40B JUMP JUMPDEST PUSH2 0x338 PUSH8 0x12CC9ACAFAC88E9A PUSH1 0xC0 SHL PUSH2 0x40B JUMP JUMPDEST PUSH2 0x34C PUSH8 0x906E59CA18D48378 PUSH1 0xC0 SHL PUSH2 0x40B JUMP JUMPDEST PUSH2 0x360 PUSH8 0x72ED60DF6A0A6FD4 PUSH1 0xC0 SHL PUSH2 0x40B JUMP JUMPDEST PUSH2 0x374 PUSH8 0x93BF0F2418DDF7C PUSH1 0xC0 SHL PUSH2 0x40B JUMP JUMPDEST PUSH2 0x388 PUSH8 0x707BD7DF863DD674 PUSH1 0xC0 SHL PUSH2 0x40B JUMP JUMPDEST DUP2 PUSH20 0xFFFFFFFFFFFFFFFFFFFFFFFFFFFFFFFFFFFFFFFF AND PUSH4 0xA9059CBB CALLER DUP4 PUSH1 0x40 MLOAD DUP4 PUSH4 0xFFFFFFFF AND PUSH1 0xE0 SHL DUP2 MSTORE PUSH1 0x4 ADD PUSH2 0x3C3 SWAP3 SWAP2 SWAP1 PUSH2 0x614 JUMP JUMPDEST PUSH1 0x20 PUSH1 0x40 MLOAD DUP1 DUP4 SUB DUP2 PUSH1 0x0 DUP8 GAS CALL ISZERO DUP1 ISZERO PUSH2 0x3E2 JUMPI RETURNDATASIZE PUSH1 0x0 DUP1 RETURNDATACOPY RETURNDATASIZE PUSH1 0x0 REVERT JUMPDEST POP POP POP POP PUSH1 0x40 MLOAD RETURNDATASIZE PUSH1 0x1F NOT PUSH1 0x1F DUP3 ADD AND DUP3 ADD DUP1 PUSH1 0x40 MSTORE POP DUP2 ADD SWAP1 PUSH2 0x406 SWAP2 SWAP1 PUSH2 0x675 JUMP JUMPDEST POP POP POP JUMP JUMPDEST POP JUMP JUMPDEST PUSH1 0x0 PUSH20 0xFFFFFFFFFFFFFFFFFFFFFFFFFFFFFFFFFFFFFFFF DUP3 AND SWAP1 POP SWAP2 SWAP1 POP JUMP JUMPDEST PUSH1 0x0 PUSH2 0x439 DUP3 PUSH2 0x40E JUMP JUMPDEST SWAP1 POP SWAP2 SWAP1 POP JUMP JUMPDEST PUSH2 0x449 DUP2 PUSH2 0x42E JUMP JUMPDEST DUP3 MSTORE POP POP JUMP JUMPDEST PUSH1 0x0 PUSH1 0x20 DUP3 ADD SWAP1 POP PUSH2 0x464 PUSH1 0x0 DUP4 ADD DUP5 PUSH2 0x440 JUMP JUMPDEST SWAP3 SWAP2 POP POP JUMP JUMPDEST PUSH1 0x0 DUP1 REVERT JUMPDEST PUSH2 0x478 DUP2 PUSH2 0x42E JUMP JUMPDEST DUP2 EQ PUSH2 0x483 JUMPI PUSH1 0x0 DUP1 REVERT JUMPDEST POP JUMP JUMPDEST PUSH1 0x0 DUP2 CALLDATALOAD SWAP1 POP PUSH2 0x495 DUP2 PUSH2 0x46F JUMP JUMPDEST SWAP3 SWAP2 POP POP JUMP JUMPDEST PUSH1 0x0 DUP2 SWAP1 POP SWAP2 SWAP1 POP JUMP JUMPDEST PUSH2 0x4AE DUP2 PUSH2 0x49B JUMP JUMPDEST DUP2 EQ PUSH2 0x4B9 JUMPI PUSH1 0x0 DUP1 REVERT JUMPDEST POP JUMP JUMPDEST PUSH1 0x0 DUP2 CALLDATALOAD SWAP1 POP PUSH2 0x4CB DUP2 PUSH2 0x4A5 JUMP JUMPDEST SWAP3 SWAP2 POP POP JUMP JUMPDEST PUSH1 0x0 DUP1 PUSH1 0x40 DUP4 DUP6 SUB SLT ISZERO PUSH2 0x4E8 JUMPI PUSH2 0x4E7 PUSH2 0x46A JUMP JUMPDEST JUMPDEST PUSH1 0x0 PUSH2 0x4F6 DUP6 DUP3 DUP7 ADD PUSH2 0x486 JUMP JUMPDEST SWAP3 POP POP PUSH1 0x20 PUSH2 0x507 DUP6 DUP3 DUP7 ADD PUSH2 0x4BC JUMP JUMPDEST SWAP2 POP POP SWAP3 POP SWAP3 SWAP1 POP JUMP JUMPDEST PUSH1 0x0 DUP3 DUP3 MSTORE PUSH1 0x20 DUP3 ADD SWAP1 POP SWAP3 SWAP2 POP POP JUMP JUMPDEST PUSH32 0x216F776E65720000000000000000000000000000000000000000000000000000 PUSH1 0x0 DUP3 ADD MSTORE POP JUMP JUMPDEST PUSH1 0x0 PUSH2 0x558 PUSH1 0x6 DUP4 PUSH2 0x511 JUMP JUMPDEST SWAP2 POP PUSH2 0x563 DUP3 PUSH2 0x522 JUMP JUMPDEST PUSH1 0x20 DUP3 ADD SWAP1 POP SWAP2 SWAP1 POP JUMP JUMPDEST PUSH1 0x0 PUSH1 0x20 DUP3 ADD SWAP1 POP DUP2 DUP2 SUB PUSH1 0x0 DUP4 ADD MSTORE PUSH2 0x587 DUP2 PUSH2 0x54B JUMP JUMPDEST SWAP1 POP SWAP2 SWAP1 POP JUMP JUMPDEST PUSH32 0x4E487B7100000000000000000000000000000000000000000000000000000000 PUSH1 0x0 MSTORE PUSH1 0x11 PUSH1 0x4 MSTORE PUSH1 0x24 PUSH1 0x0 REVERT JUMPDEST PUSH1 0x0 PUSH2 0x5C8 DUP3 PUSH2 0x49B JUMP JUMPDEST SWAP2 POP PUSH32 0xFFFFFFFFFFFFFFFFFFFFFFFFFFFFFFFFFFFFFFFFFFFFFFFFFFFFFFFFFFFFFFFF DUP3 SUB PUSH2 0x5FA JUMPI PUSH2 0x5F9 PUSH2 0x58E JUMP JUMPDEST JUMPDEST PUSH1 0x1 DUP3 ADD SWAP1 POP SWAP2 SWAP1 POP JUMP JUMPDEST PUSH2 0x60E DUP2 PUSH2 0x49B JUMP JUMPDEST DUP3 MSTORE POP POP JUMP JUMPDEST PUSH1 0x0 PUSH1 0x40 DUP3 ADD SWAP1 POP PUSH2 0x629 PUSH1 0x0 DUP4 ADD DUP6 PUSH2 0x440 JUMP JUMPDEST PUSH2 0x636 PUSH1 0x20 DUP4 ADD DUP5 PUSH2 0x605 JUMP JUMPDEST SWAP4 SWAP3 POP POP POP JUMP JUMPDEST PUSH1 0x0 DUP2 ISZERO ISZERO SWAP1 POP SWAP2 SWAP1 POP JUMP JUMPDEST PUSH2 0x652 DUP2 PUSH2 0x63D JUMP JUMPDEST DUP2 EQ PUSH2 0x65D JUMPI PUSH1 0x0 DUP1 REVERT JUMPDEST POP JUMP JUMPDEST PUSH1 0x0 DUP2 MLOAD SWAP1 POP PUSH2 0x66F DUP2 PUSH2 0x649 JUMP JUMPDEST SWAP3 SWAP2 POP POP JUMP JUMPDEST PUSH1 0x0 PUSH1 0x20 DUP3 DUP5 SUB SLT ISZERO PUSH2 0x68B JUMPI PUSH2 0x68A PUSH2 0x46A JUMP JUMPDEST JUMPDEST PUSH1 0x0 PUSH2 0x699 DUP5 DUP3 DUP6 ADD PUSH2 0x660 JUMP JUMPDEST SWAP2 POP POP SWAP3 SWAP2 POP POP JUMP INVALID LOG2 PUSH5 0x6970667358 0x22 SLT KECCAK256 MCOPY 0xE STATICCALL STATICCALL 0xD6 SLOAD SSTORE PUSH0 0xDC SSTORE PUSH19 0x5336BE2A753FA98127F50CC4CFD03420588C9F CODESIZE LOG3 PUSH5 0x736F6C6343 STOP ADDMOD XOR STOP CALLER PUSH1 0x80 PUSH1 0x40 MSTORE CALLVALUE DUP1 ISZERO PUSH2 0x10 JUMPI PUSH1 0x0 DUP1 REVERT JUMPDEST POP PUSH2 0x8D2 DUP1 PUSH2 0x20 PUSH1 0x0 CODECOPY PUSH1 0x0 RETURN INVALID PUSH1 0x80 PUSH1 0x40 MSTORE CALLVALUE DUP1 ISZERO PUSH2 0x10 JUMPI PUSH1 0x0 DUP1 REVERT JUMPDEST POP PUSH1 0x4 CALLDATASIZE LT PUSH2 0x4C JUMPI PUSH1 0x0 CALLDATALOAD PUSH1 0xE0 SHR DUP1 PUSH4 0x6661ABD EQ PUSH2 0x51 JUMPI DUP1 PUSH4 0x8DA5CB5B EQ PUSH2 0x5B JUMPI DUP1 PUSH4 0xC4D66DE8 EQ PUSH2 0x79 JUMPI DUP1 PUSH4 0xF3FEF3A3 EQ PUSH2 0x95 JUMPI JUMPDEST PUSH1 0x0 DUP1 REVERT JUMPDEST PUSH2 0x59 PUSH2 0xB1 JUMP JUMPDEST STOP JUMPDEST PUSH2 0x63 PUSH2 0x221 JUMP JUMPDEST PUSH1 0x40 MLOAD PUSH2 0x70 SWAP2 SWAP1 PUSH2 0x5B0 JUMP JUMPDEST PUSH1 0x40 MLOAD DUP1 SWAP2 SUB SWAP1 RETURN JUMPDEST PUSH2 0x93 PUSH1 0x4 DUP1 CALLDATASIZE SUB DUP2 ADD SWAP1 PUSH2 0x8E SWAP2 SWAP1 PUSH2 0x5FC JUMP JUMPDEST PUSH2 0x245 JUMP JUMPDEST STOP JUMPDEST PUSH2 0xAF PUSH1 0x4 DUP1 CALLDATASIZE SUB DUP2 ADD SWAP1 PUSH2 0xAA SWAP2 SWAP1 PUSH2 0x65F JUMP JUMPDEST PUSH2 0x37F JUMP JUMPDEST STOP JUMPDEST PUSH2 0xC5 PUSH8 0x23DED1A1511B1131 PUSH1 0xC0 SHL PUSH2 0x56C JUMP JUMPDEST PUSH2 0xD9 PUSH8 0x6B0DEF5D0ED3BB6B PUSH1 0xC0 SHL PUSH2 0x56C JUMP JUMPDEST PUSH2 0xED PUSH8 0xAB4C908531715B82 PUSH1 0xC0 SHL PUSH2 0x56C JUMP JUMPDEST PUSH2 0x101 PUSH8 0x73AD55EC0BC9E7F2 PUSH1 0xC0 SHL PUSH2 0x56C JUMP JUMPDEST PUSH2 0x115 PUSH8 0x3091BA46ADF5EC14 PUSH1 0xC0 SHL PUSH2 0x56C JUMP JUMPDEST PUSH1 0x0 DUP1 SLOAD SWAP1 PUSH2 0x100 EXP SWAP1 DIV PUSH20 0xFFFFFFFFFFFFFFFFFFFFFFFFFFFFFFFFFFFFFFFF AND PUSH20 0xFFFFFFFFFFFFFFFFFFFFFFFFFFFFFFFFFFFFFFFF AND CALLER PUSH20 0xFFFFFFFFFFFFFFFFFFFFFFFFFFFFFFFFFFFFFFFF AND EQ PUSH2 0x1A3 JUMPI PUSH1 0x40 MLOAD PUSH32 0x8C379A000000000000000000000000000000000000000000000000000000000 DUP2 MSTORE PUSH1 0x4 ADD PUSH2 0x19A SWAP1 PUSH2 0x6FC JUMP JUMPDEST PUSH1 0x40 MLOAD DUP1 SWAP2 SUB SWAP1 REVERT JUMPDEST PUSH2 0x1B7 PUSH8 0x52F15B034399FD63 PUSH1 0xC0 SHL PUSH2 0x56C JUMP JUMPDEST PUSH2 0x1CB PUSH8 0x185BB85AF1249EAF PUSH1 0xC0 SHL PUSH2 0x56C JUMP JUMPDEST PUSH2 0x1DF PUSH8 0x2B16289F23E2E340 PUSH1 0xC0 SHL PUSH2 0x56C JUMP JUMPDEST PUSH2 0x1F3 PUSH8 0xEA16914648055E2A PUSH1 0xC0 SHL PUSH2 0x56C JUMP JUMPDEST PUSH2 0x207 PUSH8 0x18ACA0E28B7C2DBB PUSH1 0xC0 SHL PUSH2 0x56C JUMP JUMPDEST PUSH1 0x1 PUSH1 0x0 DUP2 SLOAD DUP1 SWAP3 SWAP2 SWAP1 PUSH2 0x21A SWAP1 PUSH2 0x74B JUMP JUMPDEST SWAP2 SWAP1 POP SSTORE POP JUMP JUMPDEST PUSH1 0x0 DUP1 SLOAD SWAP1 PUSH2 0x100 EXP SWAP1 DIV PUSH20 0xFFFFFFFFFFFFFFFFFFFFFFFFFFFFFFFFFFFFFFFF AND DUP2 JUMP JUMPDEST PUSH2 0x259 PUSH8 0x95955827A7BB608F PUSH1 0xC0 SHL PUSH2 0x56C JUMP JUMPDEST PUSH2 0x26D PUSH8 0x2506EB04CE786BB5 PUSH1 0xC0 SHL PUSH2 0x56C JUMP JUMPDEST PUSH2 0x281 PUSH8 0xBE797345E58009B4 PUSH1 0xC0 SHL PUSH2 0x56C JUMP JUMPDEST PUSH2 0x295 PUSH8 0xBD04BD1428A74DFD PUSH1 0xC0 SHL PUSH2 0x56C JUMP JUMPDEST PUSH1 0x2 PUSH1 0x0 SWAP1 SLOAD SWAP1 PUSH2 0x100 EXP SWAP1 DIV PUSH1 0xFF AND ISZERO PUSH2 0x2E5 JUMPI PUSH1 0x40 MLOAD PUSH32 0x8C379A000000000000000000000000000000000000000000000000000000000 DUP2 MSTORE PUSH1 0x4 ADD PUSH2 0x2DC SWAP1 PUSH2 0x7DF JUMP JUMPDEST PUSH1 0x40 MLOAD DUP1 SWAP2 SUB SWAP1 REVERT JUMPDEST PUSH2 0x2F9 PUSH8 0x9C177D0C1F0688C0 PUSH1 0xC0 SHL PUSH2 0x56C JUMP JUMPDEST PUSH2 0x30D PUSH8 0x33165E7EA6D94A4F PUSH1 0xC0 SHL PUSH2 0x56C JUMP JUMPDEST DUP1 PUSH1 0x0 DUP1 PUSH2 0x100 EXP DUP2 SLOAD DUP2 PUSH20 0xFFFFFFFFFFFFFFFFFFFFFFFFFFFFFFFFFFFFFFFF MUL NOT AND SWAP1 DUP4 PUSH20 0xFFFFFFFFFFFFFFFFFFFFFFFFFFFFFFFFFFFFFFFF AND MUL OR SWAP1 SSTORE POP PUSH2 0x361 PUSH8 0xDA6376194F008BEF PUSH1 0xC0 SHL PUSH2 0x56C JUMP JUMPDEST PUSH1 0x1 PUSH1 0x2 PUSH1 0x0 PUSH2 0x100 EXP DUP2 SLOAD DUP2 PUSH1 0xFF MUL NOT AND SWAP1 DUP4 ISZERO ISZERO MUL OR SWAP1 SSTORE POP POP JUMP JUMPDEST PUSH2 0x393 PUSH8 0x51C4654E2CE76CC4 PUSH1 0xC0 SHL PUSH2 0x56C JUMP JUMPDEST PUSH2 0x3A7 PUSH8 0x6B0DEF5D0ED3BB6B PUSH1 0xC0 SHL PUSH2 0x56C JUMP JUMPDEST PUSH2 0x3BB PUSH8 0xAB4C908531715B82 PUSH1 0xC0 SHL PUSH2 0x56C JUMP JUMPDEST PUSH2 0x3CF PUSH8 0x73AD55EC0BC9E7F2 PUSH1 0xC0 SHL PUSH2 0x56C JUMP JUMPDEST PUSH2 0x3E3 PUSH8 0x3091BA46ADF5EC14 PUSH1 0xC0 SHL PUSH2 0x56C JUMP JUMPDEST PUSH1 0x0 DUP1 SLOAD SWAP1 PUSH2 0x100 EXP SWAP1 DIV PUSH20 0xFFFFFFFFFFFFFFFFFFFFFFFFFFFFFFFFFFFFFFFF AND PUSH20 0xFFFFFFFFFFFFFFFFFFFFFFFFFFFFFFFFFFFFFFFF AND CALLER PUSH20 0xFFFFFFFFFFFFFFFFFFFFFFFFFFFFFFFFFFFFFFFF AND EQ PUSH2 0x471 JUMPI PUSH1 0x40 MLOAD PUSH32 0x8C379A000000000000000000000000000000000000000000000000000000000 DUP2 MSTORE PUSH1 0x4 ADD PUSH2 0x468 SWAP1 PUSH2 0x6FC JUMP JUMPDEST PUSH1 0x40 MLOAD DUP1 SWAP2 SUB SWAP1 REVERT JUMPDEST PUSH2 0x485 PUSH8 0x52F15B034399FD63 PUSH1 0xC0 SHL PUSH2 0x56C JUMP JUMPDEST PUSH2 0x499 PUSH8 0x185BB85AF1249EAF PUSH1 0xC0 SHL PUSH2 0x56C JUMP JUMPDEST PUSH2 0x4AD PUSH8 0x98AAFF2ABAADA2E9 PUSH1 0xC0 SHL PUSH2 0x56C JUMP JUMPDEST PUSH2 0x4C1 PUSH8 0x64C172189912D5CD PUSH1 0xC0 SHL PUSH2 0x56C JUMP JUMPDEST PUSH2 0x4D5 PUSH8 0xF8B2BF7457CA30FB PUSH1 0xC0 SHL PUSH2 0x56C JUMP JUMPDEST PUSH2 0x4E9 PUSH8 0x5A18666C0FE48603 PUSH1 0xC0 SHL PUSH2 0x56C JUMP JUMPDEST DUP2 PUSH20 0xFFFFFFFFFFFFFFFFFFFFFFFFFFFFFFFFFFFFFFFF AND PUSH4 0xA9059CBB CALLER DUP4 PUSH1 0x40 MLOAD DUP4 PUSH4 0xFFFFFFFF AND PUSH1 0xE0 SHL DUP2 MSTORE PUSH1 0x4 ADD PUSH2 0x524 SWAP3 SWAP2 SWAP1 PUSH2 0x80E JUMP JUMPDEST PUSH1 0x20 PUSH1 0x40 MLOAD DUP1 DUP4 SUB DUP2 PUSH1 0x0 DUP8 GAS CALL ISZERO DUP1 ISZERO PUSH2 0x543 JUMPI RETURNDATASIZE PUSH1 0x0 DUP1 RETURNDATACOPY RETURNDATASIZE PUSH1 0x0 REVERT JUMPDEST POP POP POP POP PUSH1 0x40 MLOAD RETURNDATASIZE PUSH1 0x1F NOT PUSH1 0x1F DUP3 ADD AND DUP3 ADD DUP1 PUSH1 0x40 MSTORE POP DUP2 ADD SWAP1 PUSH2 0x567 SWAP2 SWAP1 PUSH2 0x86F JUMP JUMPDEST POP POP POP JUMP JUMPDEST POP JUMP JUMPDEST PUSH1 0x0 PUSH20 0xFFFFFFFFFFFFFFFFFFFFFFFFFFFFFFFFFFFFFFFF DUP3 AND SWAP1 POP SWAP2 SWAP1 POP JUMP JUMPDEST PUSH1 0x0 PUSH2 0x59A DUP3 PUSH2 0x56F JUMP JUMPDEST SWAP1 POP SWAP2 SWAP1 POP JUMP JUMPDEST PUSH2 0x5AA DUP2 PUSH2 0x58F JUMP JUMPDEST DUP3 MSTORE POP POP JUMP JUMPDEST PUSH1 0x0 PUSH1 0x20 DUP3 ADD SWAP1 POP PUSH2 0x5C5 PUSH1 0x0 DUP4 ADD DUP5 PUSH2 0x5A1 JUMP JUMPDEST SWAP3 SWAP2 POP POP JUMP JUMPDEST PUSH1 0x0 DUP1 REVERT JUMPDEST PUSH2 0x5D9 DUP2 PUSH2 0x58F JUMP JUMPDEST DUP2 EQ PUSH2 0x5E4 JUMPI PUSH1 0x0 DUP1 REVERT JUMPDEST POP JUMP JUMPDEST PUSH1 0x0 DUP2 CALLDATALOAD SWAP1 POP PUSH2 0x5F6 DUP2 PUSH2 0x5D0 JUMP JUMPDEST SWAP3 SWAP2 POP POP JUMP JUMPDEST PUSH1 0x0 PUSH1 0x20 DUP3 DUP5 SUB SLT ISZERO PUSH2 0x612 JUMPI PUSH2 0x611 PUSH2 0x5CB JUMP JUMPDEST JUMPDEST PUSH1 0x0 PUSH2 0x620 DUP5 DUP3 DUP6 ADD PUSH2 0x5E7 JUMP JUMPDEST SWAP2 POP POP SWAP3 SWAP2 POP POP JUMP JUMPDEST PUSH1 0x0 DUP2 SWAP1 POP SWAP2 SWAP1 POP JUMP JUMPDEST PUSH2 0x63C DUP2 PUSH2 0x629 JUMP JUMPDEST DUP2 EQ PUSH2 0x647 JUMPI PUSH1 0x0 DUP1 REVERT JUMPDEST POP JUMP JUMPDEST PUSH1 0x0 DUP2 CALLDATALOAD SWAP1 POP PUSH2 0x659 DUP2 PUSH2 0x633 JUMP JUMPDEST SWAP3 SWAP2 POP POP JUMP JUMPDEST PUSH1 0x0 DUP1 PUSH1 0x40 DUP4 DUP6 SUB SLT ISZERO PUSH2 0x676 JUMPI PUSH2 0x675 PUSH2 0x5CB JUMP JUMPDEST JUMPDEST PUSH1 0x0 PUSH2 0x684 DUP6 DUP3 DUP7 ADD PUSH2 0x5E7 JUMP JUMPDEST SWAP3 POP POP PUSH1 0x20 PUSH2 0x695 DUP6 DUP3 DUP7 ADD PUSH2 0x64A JUMP JUMPDEST SWAP2 POP POP SWAP3 POP SWAP3 SWAP1 POP JUMP JUMPDEST PUSH1 0x0 DUP3 DUP3 MSTORE PUSH1 0x20 DUP3 ADD SWAP1 POP SWAP3 SWAP2 POP POP JUMP JUMPDEST PUSH32 0x216F776E65720000000000000000000000000000000000000000000000000000 PUSH1 0x0 DUP3 ADD MSTORE POP JUMP JUMPDEST PUSH1 0x0 PUSH2 0x6E6 PUSH1 0x6 DUP4 PUSH2 0x69F JUMP JUMPDEST SWAP2 POP PUSH2 0x6F1 DUP3 PUSH2 0x6B0 JUMP JUMPDEST PUSH1 0x20 DUP3 ADD SWAP1 POP SWAP2 SWAP1 POP JUMP JUMPDEST PUSH1 0x0 PUSH1 0x20 DUP3 ADD SWAP1 POP DUP2 DUP2 SUB PUSH1 0x0 DUP4 ADD MSTORE PUSH2 0x715 DUP2 PUSH2 0x6D9 JUMP JUMPDEST SWAP1 POP SWAP2 SWAP1 POP JUMP JUMPDEST PUSH32 0x4E487B7100000000000000000000000000000000000000000000000000000000 PUSH1 0x0 MSTORE PUSH1 0x11 PUSH1 0x4 MSTORE PUSH1 0x24 PUSH1 0x0 REVERT JUMPDEST PUSH1 0x0 PUSH2 0x756 DUP3 PUSH2 0x629 JUMP JUMPDEST SWAP2 POP PUSH32 0xFFFFFFFFFFFFFFFFFFFFFFFFFFFFFFFFFFFFFFFFFFFFFFFFFFFFFFFFFFFFFFFF DUP3 SUB PUSH2 0x788 JUMPI PUSH2 0x787 PUSH2 0x71C JUMP JUMPDEST JUMPDEST PUSH1 0x1 DUP3 ADD SWAP1 POP SWAP2 SWAP1 POP JUMP JUMPDEST PUSH32 0x696E697469616C697A6564000000000000000000000000000000000000000000 PUSH1 0x0 DUP3 ADD MSTORE POP JUMP JUMPDEST PUSH1 0x0 PUSH2 0x7C9 PUSH1 0xB DUP4 PUSH2 0x69F JUMP JUMPDEST SWAP2 POP PUSH2 0x7D4 DUP3 PUSH2 0x793 JUMP JUMPDEST PUSH1 0x20 DUP3 ADD SWAP1 POP SWAP2 SWAP1 POP JUMP JUMPDEST PUSH1 0x0 PUSH1 0x20 DUP3 ADD SWAP1 POP DUP2 DUP2 SUB PUSH1 0x0 DUP4 ADD MSTORE PUSH2 0x7F8 DUP2 PUSH2 0x7BC JUMP JUMPDEST SWAP1 POP SWAP2 SWAP1 POP JUMP JUMPDEST PUSH2 0x808 DUP2 PUSH2 0x629 JUMP JUMPDEST DUP3 MSTORE POP POP JUMP JUMPDEST PUSH1 0x0 PUSH1 0x40 DUP3 ADD SWAP1 POP PUSH2 0x823 PUSH1 0x0 DUP4 ADD DUP6 PUSH2 0x5A1 JUMP JUMPDEST PUSH2 0x830 PUSH1 0x20 DUP4 ADD DUP5 PUSH2 0x7FF JUMP JUMPDEST SWAP4 SWAP3 POP POP POP JUMP JUMPDEST PUSH1 0x0 DUP2 ISZERO ISZERO SWAP1 POP SWAP2 SWAP1 POP JUMP JUMPDEST PUSH2 0x84C DUP2 PUSH2 0x837 JUMP JUMPDEST DUP2 EQ PUSH2 0x857 JUMPI PUSH1 0x0 DUP1 REVERT JUMPDEST POP JUMP JUMPDEST PUSH1 0x0 DUP2 MLOAD SWAP1 POP PUSH2 0x869 DUP2 PUSH2 0x843 JUMP JUMPDEST SWAP3 SWAP2 POP POP JUMP JUMPDEST PUSH1 0x0 PUSH1 0x20 DUP3 DUP5 SUB SLT ISZERO PUSH2 0x885 JUMPI PUSH2 0x884 PUSH2 0x5CB JUMP JUMPDEST JUMPDEST PUSH1 0x0 PUSH2 0x893 DUP5 DUP3 DUP6 ADD PUSH2 0x85A JUMP JUMPDEST SWAP2 POP POP SWAP3 SWAP2 POP POP JUMP INVALID LOG2 PUSH5 0x6970667358 0x22 SLT KECCAK256 OR 0xD4 0xB6 0xEB CALLDATACOPY SWAP11 ADD PC SWAP2 BYTE 0xE JUMPDEST MUL PUSH4 0xDB22978C SWAP10 0xD9 0xC1 0xE9 PUSH21 0xA6DC6E5ADA6941A98564736F6C6343000818003300 "},"methodIdentifiers":{"deploySafe(address)":"c97bec9b","deploySafeUpgradeable(address)":"202aed45","deploySafeUpgradeableWithCreate2(address,bytes32)":"68861035","deploySafeWithCreate2(address,bytes32)":"443930be","myOwnSafeImplementation()":"5a49fd4c","myOwnSafeUpgradeableImplementation()":"d9236014"}}}}}