{
  "_format": "hh-sol-artifact-1",
  "contractName": "MyOwnSafeContract",
  "sourceName": "contracts/MyOwnSafeContract.sol",
  "abi": [
    {
      "inputs": [
        {
          "internalType": "address",
          "name": "_owner",
          "type": "address"
        }
      ],
      "stateMutability": "nonpayable",
      "type": "constructor"
    },
    {
      "inputs": [],
      "name": "count",
      "outputs": [],
      "stateMutability": "nonpayable",
      "type": "function"
    },
    {
      "inputs": [],
      "name": "owner",
      "outputs": [
        {
          "internalType": "address",
          "name": "",
          "type": "address"
        }
      ],
      "stateMutability": "view",
      "type": "function"
    },
    {
      "inputs": [
        {
          "internalType": "address",
          "name": "token",
          "type": "address"
        },
        {
          "internalType": "uint256",
          "name": "amount",
          "type": "uint256"
        }
      ],
      "name": "withdraw",
      "outputs": [],
      "stateMutability": "nonpayable",
      "type": "function"
    }
  ],
  "bytecode": "0x608060405234801561001057600080fd5b5060405161082638038061082683398181016040528101906100329190610112565b61004c6742ed833a7f96941560c01b6100ac60201b60201c565b61006667042983fd182700b660c01b6100ac60201b60201c565b806000806101000a81548173ffffffffffffffffffffffffffffffffffffffff021916908373ffffffffffffffffffffffffffffffffffffffff1602179055505061013f565b50565b600080fd5b600073ffffffffffffffffffffffffffffffffffffffff82169050919050565b60006100df826100b4565b9050919050565b6100ef816100d4565b81146100fa57600080fd5b50565b60008151905061010c816100e6565b92915050565b600060208284031215610128576101276100af565b5b6000610136848285016100fd565b91505092915050565b6106d88061014e6000396000f3fe608060405234801561001057600080fd5b50600436106100415760003560e01c806306661abd146100465780638da5cb5b14610050578063f3fef3a31461006e575b600080fd5b61004e61008a565b005b6100586101fa565b604051610065919061044f565b60405180910390f35b610088600480360381019061008391906104d1565b61021e565b005b61009e679cb98b270348be2960c01b61040b565b6100b267297982510b1d433860c01b61040b565b6100c6675b2b0654536c17fc60c01b61040b565b6100da67a305fb29f8ddbcf760c01b61040b565b6100ee676c43e096419f332c60c01b61040b565b60008054906101000a900473ffffffffffffffffffffffffffffffffffffffff1673ffffffffffffffffffffffffffffffffffffffff163373ffffffffffffffffffffffffffffffffffffffff161461017c576040517f08c379a00000000000000000000000000000000000000000000000000000000081526004016101739061056e565b60405180910390fd5b610190677d416ab2e74ecfc760c01b61040b565b6101a46712cc9acafac88e9a60c01b61040b565b6101b867113012d5654817dd60c01b61040b565b6101cc6750cfbce54280ee6660c01b61040b565b6101e067ff8dcace9c05a70d60c01b61040b565b600160008154809291906101f3906105bd565b9190505550565b60008054906101000a900473ffffffffffffffffffffffffffffffffffffffff1681565b610232678bf1cfb2deb00dd560c01b61040b565b61024667297982510b1d433860c01b61040b565b61025a675b2b0654536c17fc60c01b61040b565b61026e67a305fb29f8ddbcf760c01b61040b565b610282676c43e096419f332c60c01b61040b565b60008054906101000a900473ffffffffffffffffffffffffffffffffffffffff1673ffffffffffffffffffffffffffffffffffffffff163373ffffffffffffffffffffffffffffffffffffffff1614610310576040517f08c379a00000000000000000000000000000000000000000000000000000000081526004016103079061056e565b60405180910390fd5b610324677d416ab2e74ecfc760c01b61040b565b6103386712cc9acafac88e9a60c01b61040b565b61034c67906e59ca18d4837860c01b61040b565b6103606772ed60df6a0a6fd460c01b61040b565b61037467093bf0f2418ddf7c60c01b61040b565b61038867707bd7df863dd67460c01b61040b565b8173ffffffffffffffffffffffffffffffffffffffff1663a9059cbb33836040518363ffffffff1660e01b81526004016103c3929190610614565b6020604051808303816000875af11580156103e2573d6000803e3d6000fd5b505050506040513d601f19601f820116820180604052508101906104069190610675565b505050565b50565b600073ffffffffffffffffffffffffffffffffffffffff82169050919050565b60006104398261040e565b9050919050565b6104498161042e565b82525050565b60006020820190506104646000830184610440565b92915050565b600080fd5b6104788161042e565b811461048357600080fd5b50565b6000813590506104958161046f565b92915050565b6000819050919050565b6104ae8161049b565b81146104b957600080fd5b50565b6000813590506104cb816104a5565b92915050565b600080604083850312156104e8576104e761046a565b5b60006104f685828601610486565b9250506020610507858286016104bc565b9150509250929050565b600082825260208201905092915050565b7f216f776e65720000000000000000000000000000000000000000000000000000600082015250565b6000610558600683610511565b915061056382610522565b602082019050919050565b600060208201905081810360008301526105878161054b565b9050919050565b7f4e487b7100000000000000000000000000000000000000000000000000000000600052601160045260246000fd5b60006105c88261049b565b91507fffffffffffffffffffffffffffffffffffffffffffffffffffffffffffffffff82036105fa576105f961058e565b5b600182019050919050565b61060e8161049b565b82525050565b60006040820190506106296000830185610440565b6106366020830184610605565b9392505050565b60008115159050919050565b6106528161063d565b811461065d57600080fd5b50565b60008151905061066f81610649565b92915050565b60006020828403121561068b5761068a61046a565b5b600061069984828501610660565b9150509291505056fea26469706673582212205e0efafad654555fdc55725336be2a753fa98127f50cc4cfd03420588c9f38a364736f6c63430008180033",
  "linkReferences": {},
  "deployedLinkReferences": {}
}