{
  "_format": "hh-sol-artifact-1",
  "contractName": "MyOwnSafeContract",
  "sourceName": "contracts/MyOwnSafeContract.sol",
  "abi": [
    {
      "inputs": [
        {
          "internalType": "address",
          "name": "_owner",
          "type": "address"
        }
      ],
      "stateMutability": "nonpayable",
      "type": "constructor"
    },
    {
      "inputs": [],
      "name": "count",
      "outputs": [],
      "stateMutability": "nonpayable",
      "type": "function"
    },
    {
      "inputs": [],
      "name": "owner",
      "outputs": [
        {
          "internalType": "address",
          "name": "",
          "type": "address"
        }
      ],
      "stateMutability": "view",
      "type": "function"
    },
    {
      "inputs": [
        {
          "internalType": "address",
          "name": "token",
          "type": "address"
        },
        {
          "internalType": "uint256",
          "name": "amount",
          "type": "uint256"
        }
      ],
      "name": "withdraw",
      "outputs": [],
      "stateMutability": "nonpayable",
      "type": "function"
    }
  ],
  "bytecode": "0x608060405234801561001057600080fd5b5060405161032d38038061032d83398101604081905261002f91610054565b600080546001600160a01b0319166001600160a01b0392909216919091179055610084565b60006020828403121561006657600080fd5b81516001600160a01b038116811461007d57600080fd5b9392505050565b61029a806100936000396000f3fe608060405234801561001057600080fd5b50600436106100415760003560e01c806306661abd146100465780638da5cb5b14610050578063f3fef3a31461007f575b600080fd5b61004e610092565b005b600054610063906001600160a01b031681565b6040516001600160a01b03909116815260200160405180910390f35b61004e61008d3660046101c3565b6100f1565b6000546001600160a01b031633146100da5760405162461bcd60e51b815260206004820152600660248201526510b7bbb732b960d11b60448201526064015b60405180910390fd5b600180549060006100ea836101fb565b9190505550565b6000546001600160a01b031633146101345760405162461bcd60e51b815260206004820152600660248201526510b7bbb732b960d11b60448201526064016100d1565b6040517fa9059cbb000000000000000000000000000000000000000000000000000000008152336004820152602481018290526001600160a01b0383169063a9059cbb906044016020604051808303816000875af115801561019a573d6000803e3d6000fd5b505050506040513d601f19601f820116820180604052508101906101be919061023b565b505050565b600080604083850312156101d657600080fd5b82356001600160a01b03811681146101ed57600080fd5b946020939093013593505050565b600060018201610234577f4e487b7100000000000000000000000000000000000000000000000000000000600052601160045260246000fd5b5060010190565b60006020828403121561024d57600080fd5b8151801515811461025d57600080fd5b939250505056fea2646970667358221220da9bd2b31c2e906cf83da4de568e9eeb25f53e4c4c66ff0e82370ba833baeaa164736f6c63430008180033",
  "linkReferences": {},
  "deployedLinkReferences": {}
}