{
  "_format": "hh-sol-artifact-1",
  "contractName": "SafeContract",
  "sourceName": "contracts/SafeContract.sol",
  "abi": [
    {
      "inputs": [],
      "stateMutability": "nonpayable",
      "type": "constructor"
    },
    {
      "inputs": [
        {
          "internalType": "address",
          "name": "",
          "type": "address"
        }
      ],
      "name": "balances",
      "outputs": [
        {
          "internalType": "uint256",
          "name": "",
          "type": "uint256"
        }
      ],
      "stateMutability": "view",
      "type": "function"
    },
    {
      "inputs": [
        {
          "internalType": "address",
          "name": "token",
          "type": "address"
        },
        {
          "internalType": "uint256",
          "name": "amount",
          "type": "uint256"
        }
      ],
      "name": "deposit",
      "outputs": [],
      "stateMutability": "nonpayable",
      "type": "function"
    },
    {
      "inputs": [
        {
          "internalType": "address",
          "name": "",
          "type": "address"
        }
      ],
      "name": "fees",
      "outputs": [
        {
          "internalType": "uint256",
          "name": "",
          "type": "uint256"
        }
      ],
      "stateMutability": "view",
      "type": "function"
    },
    {
      "inputs": [],
      "name": "getOwner",
      "outputs": [
        {
          "internalType": "address",
          "name": "theOwnerV1",
          "type": "address"
        }
      ],
      "stateMutability": "view",
      "type": "function"
    },
    {
      "inputs": [],
      "name": "owner",
      "outputs": [
        {
          "internalType": "address",
          "name": "",
          "type": "address"
        }
      ],
      "stateMutability": "view",
      "type": "function"
    },
    {
      "inputs": [
        {
          "internalType": "address",
          "name": "token",
          "type": "address"
        }
      ],
      "name": "takeFee",
      "outputs": [],
      "stateMutability": "nonpayable",
      "type": "function"
    },
    {
      "inputs": [
        {
          "internalType": "address",
          "name": "token",
          "type": "address"
        },
        {
          "internalType": "uint256",
          "name": "amount",
          "type": "uint256"
        }
      ],
      "name": "withdraw",
      "outputs": [],
      "stateMutability": "nonpayable",
      "type": "function"
    }
  ],
  "bytecode": "0x608060405234801561001057600080fd5b50600080546001600160a01b03191633179055610786806100326000396000f3fe608060405234801561001057600080fd5b506004361061007d5760003560e01c80638da5cb5b1161005b5780638da5cb5b146100ef578063a5bf8ec614610102578063f3fef3a314610115578063faaebd211461012857600080fd5b806327e235e31461008257806347e7ef24146100b5578063893d20e8146100ca575b600080fd5b6100a261009036600461067e565b60016020526000908152604090205481565b6040519081526020015b60405180910390f35b6100c86100c33660046106a0565b610148565b005b6000546001600160a01b03165b6040516001600160a01b0390911681526020016100ac565b6000546100d7906001600160a01b031681565b6100c861011036600461067e565b6102f2565b6100c86101233660046106a0565b61047c565b6100a261013636600461067e565b60026020526000908152604090205481565b6000811161019d5760405162461bcd60e51b815260206004820152601d60248201527f416d6f756e74206d7573742062652067726561746572207468616e203000000060448201526064015b60405180910390fd5b6001600160a01b0382166101f35760405162461bcd60e51b815260206004820152601560248201527f496e76616c696420746f6b656e206164647265737300000000000000000000006044820152606401610194565b6040517f23b872dd000000000000000000000000000000000000000000000000000000008152336004820152306024820152604481018290526001600160a01b038316906323b872dd906064016020604051808303816000875af115801561025f573d6000803e3d6000fd5b505050506040513d601f19601f8201168201806040525081019061028391906106ca565b6102c15760405162461bcd60e51b815260206004820152600f60248201526e151c985b9cd9995c8819985a5b1959608a1b6044820152606401610194565b6001600160a01b038216600090815260016020526040812080548392906102e9908490610702565b90915550505050565b6000546001600160a01b0316331461034c5760405162461bcd60e51b815260206004820152601460248201527f596f75277265206e6f7420746865204f776e65720000000000000000000000006044820152606401610194565b6001600160a01b0381166000908152600260205260409020546103b15760405162461bcd60e51b815260206004820181905260248201527f4e6f206665657320617661696c61626c6520666f72207468697320746f6b656e6044820152606401610194565b6001600160a01b038181166000818152600260205260408082208054908390559154905163a9059cbb60e01b815293166004840152602483018190529163a9059cbb906044016020604051808303816000875af1158015610416573d6000803e3d6000fd5b505050506040513d601f19601f8201168201806040525081019061043a91906106ca565b6104785760405162461bcd60e51b815260206004820152600f60248201526e151c985b9cd9995c8819985a5b1959608a1b6044820152606401610194565b5050565b600081116104cc5760405162461bcd60e51b815260206004820152601d60248201527f416d6f756e74206d7573742062652067726561746572207468616e20300000006044820152606401610194565b6001600160a01b0382166000908152600160205260409020548111156105345760405162461bcd60e51b815260206004820152601460248201527f496e73756666696369656e742062616c616e63650000000000000000000000006044820152606401610194565b60006105426103e88361071b565b90506000610550828461073d565b60405163a9059cbb60e01b8152336004820152602481018290529091506001600160a01b0385169063a9059cbb906044016020604051808303816000875af11580156105a0573d6000803e3d6000fd5b505050506040513d601f19601f820116820180604052508101906105c491906106ca565b6106025760405162461bcd60e51b815260206004820152600f60248201526e151c985b9cd9995c8819985a5b1959608a1b6044820152606401610194565b6001600160a01b0384166000908152600160205260408120805485929061062a90849061073d565b90915550506001600160a01b03841660009081526002602052604081208054849290610657908490610702565b909155505050505050565b80356001600160a01b038116811461067957600080fd5b919050565b60006020828403121561069057600080fd5b61069982610662565b9392505050565b600080604083850312156106b357600080fd5b6106bc83610662565b946020939093013593505050565b6000602082840312156106dc57600080fd5b8151801515811461069957600080fd5b634e487b7160e01b600052601160045260246000fd5b80820180821115610715576107156106ec565b92915050565b60008261073857634e487b7160e01b600052601260045260246000fd5b500490565b81810381811115610715576107156106ec56fea26469706673582212208b2f00626b138bddd1f5be56aa010ca61fa60c0a6b5eeb34c9e739ab213c75c664736f6c63430008180033",
  "linkReferences": {},
  "deployedLinkReferences": {}
}