{
	"Lab3_MalikDAHMANI/Contrat.sol": {
		"MyContract": {
			"abi": [
				{
					"inputs": [
						{
							"internalType": "address",
							"name": "_token0",
							"type": "address"
						},
						{
							"internalType": "address",
							"name": "_token1",
							"type": "address"
						},
						{
							"internalType": "uint256",
							"name": "_conversionRate",
							"type": "uint256"
						}
					],
					"stateMutability": "nonpayable",
					"type": "constructor"
				},
				{
					"inputs": [],
					"name": "conversionRate",
					"outputs": [
						{
							"internalType": "uint256",
							"name": "",
							"type": "uint256"
						}
					],
					"stateMutability": "view",
					"type": "function"
				},
				{
					"inputs": [
						{
							"internalType": "uint256",
							"name": "token0Amount",
							"type": "uint256"
						},
						{
							"internalType": "uint256",
							"name": "token1Amount",
							"type": "uint256"
						}
					],
					"name": "provideLiquidity",
					"outputs": [],
					"stateMutability": "nonpayable",
					"type": "function"
				},
				{
					"inputs": [],
					"name": "token0",
					"outputs": [
						{
							"internalType": "address",
							"name": "",
							"type": "address"
						}
					],
					"stateMutability": "view",
					"type": "function"
				},
				{
					"inputs": [],
					"name": "token1",
					"outputs": [
						{
							"internalType": "address",
							"name": "",
							"type": "address"
						}
					],
					"stateMutability": "view",
					"type": "function"
				},
				{
					"inputs": [
						{
							"internalType": "address",
							"name": "tokenFrom",
							"type": "address"
						},
						{
							"internalType": "uint256",
							"name": "fromAmount",
							"type": "uint256"
						}
					],
					"name": "trade",
					"outputs": [],
					"stateMutability": "nonpayable",
					"type": "function"
				},
				{
					"inputs": [
						{
							"internalType": "address",
							"name": "",
							"type": "address"
						}
					],
					"name": "userLiquidityPercentage",
					"outputs": [
						{
							"internalType": "uint256",
							"name": "",
							"type": "uint256"
						}
					],
					"stateMutability": "view",
					"type": "function"
				},
				{
					"inputs": [
						{
							"internalType": "address",
							"name": "",
							"type": "address"
						}
					],
					"name": "userToken0Balance",
					"outputs": [
						{
							"internalType": "uint256",
							"name": "",
							"type": "uint256"
						}
					],
					"stateMutability": "view",
					"type": "function"
				},
				{
					"inputs": [
						{
							"internalType": "address",
							"name": "",
							"type": "address"
						}
					],
					"name": "userToken1Balance",
					"outputs": [
						{
							"internalType": "uint256",
							"name": "",
							"type": "uint256"
						}
					],
					"stateMutability": "view",
					"type": "function"
				},
				{
					"inputs": [],
					"name": "withdrawLiquidity",
					"outputs": [],
					"stateMutability": "nonpayable",
					"type": "function"
				}
			],
			"devdoc": {
				"kind": "dev",
				"methods": {},
				"version": 1
			},
			"evm": {
				"assembly": "    /* \"Lab3_MalikDAHMANI/Contrat.sol\":120:6915  contract MyContract {... */\n  mstore(0x40, 0x80)\n    /* \"Lab3_MalikDAHMANI/Contrat.sol\":580:756  constructor(address _token0, address _token1, uint256 _conversionRate) {... */\n  callvalue\n  dup1\n  iszero\n  tag_1\n  jumpi\n  0x00\n  dup1\n  revert\ntag_1:\n  pop\n  mload(0x40)\n  sub(codesize, bytecodeSize)\n  dup1\n  bytecodeSize\n  dup4\n  codecopy\n  dup2\n  dup2\n  add\n  0x40\n  mstore\n  dup2\n  add\n  swap1\n  tag_2\n  swap2\n  swap1\n  tag_3\n  jump\t// in\ntag_2:\n    /* \"Lab3_MalikDAHMANI/Contrat.sol\":671:678  _token0 */\n  dup3\n    /* \"Lab3_MalikDAHMANI/Contrat.sol\":662:668  token0 */\n  0x00\n  dup1\n    /* \"Lab3_MalikDAHMANI/Contrat.sol\":662:678  token0 = _token0 */\n  0x0100\n  exp\n  dup2\n  sload\n  dup2\n  0xffffffffffffffffffffffffffffffffffffffff\n  mul\n  not\n  and\n  swap1\n  dup4\n  0xffffffffffffffffffffffffffffffffffffffff\n  and\n  mul\n  or\n  swap1\n  sstore\n  pop\n    /* \"Lab3_MalikDAHMANI/Contrat.sol\":698:705  _token1 */\n  dup2\n    /* \"Lab3_MalikDAHMANI/Contrat.sol\":689:695  token1 */\n  0x01\n  0x00\n    /* \"Lab3_MalikDAHMANI/Contrat.sol\":689:705  token1 = _token1 */\n  0x0100\n  exp\n  dup2\n  sload\n  dup2\n  0xffffffffffffffffffffffffffffffffffffffff\n  mul\n  not\n  and\n  swap1\n  dup4\n  0xffffffffffffffffffffffffffffffffffffffff\n  and\n  mul\n  or\n  swap1\n  sstore\n  pop\n    /* \"Lab3_MalikDAHMANI/Contrat.sol\":733:748  _conversionRate */\n  dup1\n    /* \"Lab3_MalikDAHMANI/Contrat.sol\":716:730  conversionRate */\n  0x02\n    /* \"Lab3_MalikDAHMANI/Contrat.sol\":716:748  conversionRate = _conversionRate */\n  dup2\n  swap1\n  sstore\n  pop\n    /* \"Lab3_MalikDAHMANI/Contrat.sol\":580:756  constructor(address _token0, address _token1, uint256 _conversionRate) {... */\n  pop\n  pop\n  pop\n    /* \"Lab3_MalikDAHMANI/Contrat.sol\":120:6915  contract MyContract {... */\n  jump(tag_6)\n    /* \"#utility.yul\":88:205   */\ntag_8:\n    /* \"#utility.yul\":197:198   */\n  0x00\n    /* \"#utility.yul\":194:195   */\n  dup1\n    /* \"#utility.yul\":187:199   */\n  revert\n    /* \"#utility.yul\":334:460   */\ntag_10:\n    /* \"#utility.yul\":371:378   */\n  0x00\n    /* \"#utility.yul\":411:453   */\n  0xffffffffffffffffffffffffffffffffffffffff\n    /* \"#utility.yul\":404:409   */\n  dup3\n    /* \"#utility.yul\":400:454   */\n  and\n    /* \"#utility.yul\":389:454   */\n  swap1\n  pop\n    /* \"#utility.yul\":334:460   */\n  swap2\n  swap1\n  pop\n  jump\t// out\n    /* \"#utility.yul\":466:562   */\ntag_11:\n    /* \"#utility.yul\":503:510   */\n  0x00\n    /* \"#utility.yul\":532:556   */\n  tag_23\n    /* \"#utility.yul\":550:555   */\n  dup3\n    /* \"#utility.yul\":532:556   */\n  tag_10\n  jump\t// in\ntag_23:\n    /* \"#utility.yul\":521:556   */\n  swap1\n  pop\n    /* \"#utility.yul\":466:562   */\n  swap2\n  swap1\n  pop\n  jump\t// out\n    /* \"#utility.yul\":568:690   */\ntag_12:\n    /* \"#utility.yul\":641:665   */\n  tag_25\n    /* \"#utility.yul\":659:664   */\n  dup2\n    /* \"#utility.yul\":641:665   */\n  tag_11\n  jump\t// in\ntag_25:\n    /* \"#utility.yul\":634:639   */\n  dup2\n    /* \"#utility.yul\":631:666   */\n  eq\n    /* \"#utility.yul\":621:684   */\n  tag_26\n  jumpi\n    /* \"#utility.yul\":680:681   */\n  0x00\n    /* \"#utility.yul\":677:678   */\n  dup1\n    /* \"#utility.yul\":670:682   */\n  revert\n    /* \"#utility.yul\":621:684   */\ntag_26:\n    /* \"#utility.yul\":568:690   */\n  pop\n  jump\t// out\n    /* \"#utility.yul\":696:839   */\ntag_13:\n    /* \"#utility.yul\":753:758   */\n  0x00\n    /* \"#utility.yul\":784:790   */\n  dup2\n    /* \"#utility.yul\":778:791   */\n  mload\n    /* \"#utility.yul\":769:791   */\n  swap1\n  pop\n    /* \"#utility.yul\":800:833   */\n  tag_28\n    /* \"#utility.yul\":827:832   */\n  dup2\n    /* \"#utility.yul\":800:833   */\n  tag_12\n  jump\t// in\ntag_28:\n    /* \"#utility.yul\":696:839   */\n  swap3\n  swap2\n  pop\n  pop\n  jump\t// out\n    /* \"#utility.yul\":845:922   */\ntag_14:\n    /* \"#utility.yul\":882:889   */\n  0x00\n    /* \"#utility.yul\":911:916   */\n  dup2\n    /* \"#utility.yul\":900:916   */\n  swap1\n  pop\n    /* \"#utility.yul\":845:922   */\n  swap2\n  swap1\n  pop\n  jump\t// out\n    /* \"#utility.yul\":928:1050   */\ntag_15:\n    /* \"#utility.yul\":1001:1025   */\n  tag_31\n    /* \"#utility.yul\":1019:1024   */\n  dup2\n    /* \"#utility.yul\":1001:1025   */\n  tag_14\n  jump\t// in\ntag_31:\n    /* \"#utility.yul\":994:999   */\n  dup2\n    /* \"#utility.yul\":991:1026   */\n  eq\n    /* \"#utility.yul\":981:1044   */\n  tag_32\n  jumpi\n    /* \"#utility.yul\":1040:1041   */\n  0x00\n    /* \"#utility.yul\":1037:1038   */\n  dup1\n    /* \"#utility.yul\":1030:1042   */\n  revert\n    /* \"#utility.yul\":981:1044   */\ntag_32:\n    /* \"#utility.yul\":928:1050   */\n  pop\n  jump\t// out\n    /* \"#utility.yul\":1056:1199   */\ntag_16:\n    /* \"#utility.yul\":1113:1118   */\n  0x00\n    /* \"#utility.yul\":1144:1150   */\n  dup2\n    /* \"#utility.yul\":1138:1151   */\n  mload\n    /* \"#utility.yul\":1129:1151   */\n  swap1\n  pop\n    /* \"#utility.yul\":1160:1193   */\n  tag_34\n    /* \"#utility.yul\":1187:1192   */\n  dup2\n    /* \"#utility.yul\":1160:1193   */\n  tag_15\n  jump\t// in\ntag_34:\n    /* \"#utility.yul\":1056:1199   */\n  swap3\n  swap2\n  pop\n  pop\n  jump\t// out\n    /* \"#utility.yul\":1205:1868   */\ntag_3:\n    /* \"#utility.yul\":1293:1299   */\n  0x00\n    /* \"#utility.yul\":1301:1307   */\n  dup1\n    /* \"#utility.yul\":1309:1315   */\n  0x00\n    /* \"#utility.yul\":1358:1360   */\n  0x60\n    /* \"#utility.yul\":1346:1355   */\n  dup5\n    /* \"#utility.yul\":1337:1344   */\n  dup7\n    /* \"#utility.yul\":1333:1356   */\n  sub\n    /* \"#utility.yul\":1329:1361   */\n  slt\n    /* \"#utility.yul\":1326:1445   */\n  iszero\n  tag_36\n  jumpi\n    /* \"#utility.yul\":1364:1443   */\n  tag_37\n  tag_8\n  jump\t// in\ntag_37:\n    /* \"#utility.yul\":1326:1445   */\ntag_36:\n    /* \"#utility.yul\":1484:1485   */\n  0x00\n    /* \"#utility.yul\":1509:1573   */\n  tag_38\n    /* \"#utility.yul\":1565:1572   */\n  dup7\n    /* \"#utility.yul\":1556:1562   */\n  dup3\n    /* \"#utility.yul\":1545:1554   */\n  dup8\n    /* \"#utility.yul\":1541:1563   */\n  add\n    /* \"#utility.yul\":1509:1573   */\n  tag_13\n  jump\t// in\ntag_38:\n    /* \"#utility.yul\":1499:1573   */\n  swap4\n  pop\n    /* \"#utility.yul\":1455:1583   */\n  pop\n    /* \"#utility.yul\":1622:1624   */\n  0x20\n    /* \"#utility.yul\":1648:1712   */\n  tag_39\n    /* \"#utility.yul\":1704:1711   */\n  dup7\n    /* \"#utility.yul\":1695:1701   */\n  dup3\n    /* \"#utility.yul\":1684:1693   */\n  dup8\n    /* \"#utility.yul\":1680:1702   */\n  add\n    /* \"#utility.yul\":1648:1712   */\n  tag_13\n  jump\t// in\ntag_39:\n    /* \"#utility.yul\":1638:1712   */\n  swap3\n  pop\n    /* \"#utility.yul\":1593:1722   */\n  pop\n    /* \"#utility.yul\":1761:1763   */\n  0x40\n    /* \"#utility.yul\":1787:1851   */\n  tag_40\n    /* \"#utility.yul\":1843:1850   */\n  dup7\n    /* \"#utility.yul\":1834:1840   */\n  dup3\n    /* \"#utility.yul\":1823:1832   */\n  dup8\n    /* \"#utility.yul\":1819:1841   */\n  add\n    /* \"#utility.yul\":1787:1851   */\n  tag_16\n  jump\t// in\ntag_40:\n    /* \"#utility.yul\":1777:1851   */\n  swap2\n  pop\n    /* \"#utility.yul\":1732:1861   */\n  pop\n    /* \"#utility.yul\":1205:1868   */\n  swap3\n  pop\n  swap3\n  pop\n  swap3\n  jump\t// out\n    /* \"Lab3_MalikDAHMANI/Contrat.sol\":120:6915  contract MyContract {... */\ntag_6:\n  dataSize(sub_0)\n  dup1\n  dataOffset(sub_0)\n  0x00\n  codecopy\n  0x00\n  return\nstop\n\nsub_0: assembly {\n        /* \"Lab3_MalikDAHMANI/Contrat.sol\":120:6915  contract MyContract {... */\n      mstore(0x40, 0x80)\n      callvalue\n      dup1\n      iszero\n      tag_1\n      jumpi\n      0x00\n      dup1\n      revert\n    tag_1:\n      pop\n      jumpi(tag_2, lt(calldatasize, 0x04))\n      shr(0xe0, calldataload(0x00))\n      dup1\n      0x7a16af7f\n      gt\n      tag_12\n      jumpi\n      dup1\n      0x7a16af7f\n      eq\n      tag_7\n      jumpi\n      dup1\n      0x7ea382c1\n      eq\n      tag_8\n      jumpi\n      dup1\n      0x7ffdf53e\n      eq\n      tag_9\n      jumpi\n      dup1\n      0xd21220a7\n      eq\n      tag_10\n      jumpi\n      dup1\n      0xd991ee4a\n      eq\n      tag_11\n      jumpi\n      jump(tag_2)\n    tag_12:\n      dup1\n      0x0dfe1681\n      eq\n      tag_3\n      jumpi\n      dup1\n      0x575da5e3\n      eq\n      tag_4\n      jumpi\n      dup1\n      0x6342ba4c\n      eq\n      tag_5\n      jumpi\n      dup1\n      0x68f8c2a4\n      eq\n      tag_6\n      jumpi\n    tag_2:\n      0x00\n      dup1\n      revert\n        /* \"Lab3_MalikDAHMANI/Contrat.sol\":147:168  address public token0 */\n    tag_3:\n      tag_13\n      tag_14\n      jump\t// in\n    tag_13:\n      mload(0x40)\n      tag_15\n      swap2\n      swap1\n      tag_16\n      jump\t// in\n    tag_15:\n      mload(0x40)\n      dup1\n      swap2\n      sub\n      swap1\n      return\n        /* \"Lab3_MalikDAHMANI/Contrat.sol\":264:316  mapping(address => uint256) public userToken0Balance */\n    tag_4:\n      tag_17\n      0x04\n      dup1\n      calldatasize\n      sub\n      dup2\n      add\n      swap1\n      tag_18\n      swap2\n      swap1\n      tag_19\n      jump\t// in\n    tag_18:\n      tag_20\n      jump\t// in\n    tag_17:\n      mload(0x40)\n      tag_21\n      swap2\n      swap1\n      tag_22\n      jump\t// in\n    tag_21:\n      mload(0x40)\n      dup1\n      swap2\n      sub\n      swap1\n      return\n        /* \"Lab3_MalikDAHMANI/Contrat.sol\":466:524  mapping(address => uint256) public userLiquidityPercentage */\n    tag_5:\n      tag_23\n      0x04\n      dup1\n      calldatasize\n      sub\n      dup2\n      add\n      swap1\n      tag_24\n      swap2\n      swap1\n      tag_19\n      jump\t// in\n    tag_24:\n      tag_25\n      jump\t// in\n    tag_23:\n      mload(0x40)\n      tag_26\n      swap2\n      swap1\n      tag_22\n      jump\t// in\n    tag_26:\n      mload(0x40)\n      dup1\n      swap2\n      sub\n      swap1\n      return\n        /* \"Lab3_MalikDAHMANI/Contrat.sol\":1319:3042  function trade(address tokenFrom, uint256 fromAmount) external {... */\n    tag_6:\n      tag_27\n      0x04\n      dup1\n      calldatasize\n      sub\n      dup2\n      add\n      swap1\n      tag_28\n      swap2\n      swap1\n      tag_29\n      jump\t// in\n    tag_28:\n      tag_30\n      jump\t// in\n    tag_27:\n      stop\n        /* \"Lab3_MalikDAHMANI/Contrat.sol\":3050:5347  function provideLiquidity(uint256 token0Amount, uint256 token1Amount) external {... */\n    tag_7:\n      tag_31\n      0x04\n      dup1\n      calldatasize\n      sub\n      dup2\n      add\n      swap1\n      tag_32\n      swap2\n      swap1\n      tag_33\n      jump\t// in\n    tag_32:\n      tag_34\n      jump\t// in\n    tag_31:\n      stop\n        /* \"Lab3_MalikDAHMANI/Contrat.sol\":5355:6912  function withdrawLiquidity() external {... */\n    tag_8:\n      tag_35\n      tag_36\n      jump\t// in\n    tag_35:\n      stop\n        /* \"Lab3_MalikDAHMANI/Contrat.sol\":203:232  uint256 public conversionRate */\n    tag_9:\n      tag_37\n      tag_38\n      jump\t// in\n    tag_37:\n      mload(0x40)\n      tag_39\n      swap2\n      swap1\n      tag_22\n      jump\t// in\n    tag_39:\n      mload(0x40)\n      dup1\n      swap2\n      sub\n      swap1\n      return\n        /* \"Lab3_MalikDAHMANI/Contrat.sol\":175:196  address public token1 */\n    tag_10:\n      tag_40\n      tag_41\n      jump\t// in\n    tag_40:\n      mload(0x40)\n      tag_42\n      swap2\n      swap1\n      tag_16\n      jump\t// in\n    tag_42:\n      mload(0x40)\n      dup1\n      swap2\n      sub\n      swap1\n      return\n        /* \"Lab3_MalikDAHMANI/Contrat.sol\":365:417  mapping(address => uint256) public userToken1Balance */\n    tag_11:\n      tag_43\n      0x04\n      dup1\n      calldatasize\n      sub\n      dup2\n      add\n      swap1\n      tag_44\n      swap2\n      swap1\n      tag_19\n      jump\t// in\n    tag_44:\n      tag_45\n      jump\t// in\n    tag_43:\n      mload(0x40)\n      tag_46\n      swap2\n      swap1\n      tag_22\n      jump\t// in\n    tag_46:\n      mload(0x40)\n      dup1\n      swap2\n      sub\n      swap1\n      return\n        /* \"Lab3_MalikDAHMANI/Contrat.sol\":147:168  address public token0 */\n    tag_14:\n      0x00\n      dup1\n      sload\n      swap1\n      0x0100\n      exp\n      swap1\n      div\n      0xffffffffffffffffffffffffffffffffffffffff\n      and\n      dup2\n      jump\t// out\n        /* \"Lab3_MalikDAHMANI/Contrat.sol\":264:316  mapping(address => uint256) public userToken0Balance */\n    tag_20:\n      mstore(0x20, 0x04)\n      dup1\n      0x00\n      mstore\n      keccak256(0x00, 0x40)\n      0x00\n      swap2\n      pop\n      swap1\n      pop\n      sload\n      dup2\n      jump\t// out\n        /* \"Lab3_MalikDAHMANI/Contrat.sol\":466:524  mapping(address => uint256) public userLiquidityPercentage */\n    tag_25:\n      mstore(0x20, 0x06)\n      dup1\n      0x00\n      mstore\n      keccak256(0x00, 0x40)\n      0x00\n      swap2\n      pop\n      swap1\n      pop\n      sload\n      dup2\n      jump\t// out\n        /* \"Lab3_MalikDAHMANI/Contrat.sol\":1319:3042  function trade(address tokenFrom, uint256 fromAmount) external {... */\n    tag_30:\n        /* \"Lab3_MalikDAHMANI/Contrat.sol\":1494:1500  token0 */\n      0x00\n      dup1\n      sload\n      swap1\n      0x0100\n      exp\n      swap1\n      div\n      0xffffffffffffffffffffffffffffffffffffffff\n      and\n        /* \"Lab3_MalikDAHMANI/Contrat.sol\":1481:1500  tokenFrom == token0 */\n      0xffffffffffffffffffffffffffffffffffffffff\n      and\n        /* \"Lab3_MalikDAHMANI/Contrat.sol\":1481:1490  tokenFrom */\n      dup3\n        /* \"Lab3_MalikDAHMANI/Contrat.sol\":1481:1500  tokenFrom == token0 */\n      0xffffffffffffffffffffffffffffffffffffffff\n      and\n      eq\n        /* \"Lab3_MalikDAHMANI/Contrat.sol\":1481:1523  tokenFrom == token0 || tokenFrom == token1 */\n      dup1\n      tag_48\n      jumpi\n      pop\n        /* \"Lab3_MalikDAHMANI/Contrat.sol\":1517:1523  token1 */\n      0x01\n      0x00\n      swap1\n      sload\n      swap1\n      0x0100\n      exp\n      swap1\n      div\n      0xffffffffffffffffffffffffffffffffffffffff\n      and\n        /* \"Lab3_MalikDAHMANI/Contrat.sol\":1504:1523  tokenFrom == token1 */\n      0xffffffffffffffffffffffffffffffffffffffff\n      and\n        /* \"Lab3_MalikDAHMANI/Contrat.sol\":1504:1513  tokenFrom */\n      dup3\n        /* \"Lab3_MalikDAHMANI/Contrat.sol\":1504:1523  tokenFrom == token1 */\n      0xffffffffffffffffffffffffffffffffffffffff\n      and\n      eq\n        /* \"Lab3_MalikDAHMANI/Contrat.sol\":1481:1523  tokenFrom == token0 || tokenFrom == token1 */\n    tag_48:\n        /* \"Lab3_MalikDAHMANI/Contrat.sol\":1473:1541  require(tokenFrom == token0 || tokenFrom == token1, \"Invalid token\") */\n      tag_49\n      jumpi\n      mload(0x40)\n      0x08c379a000000000000000000000000000000000000000000000000000000000\n      dup2\n      mstore\n      0x04\n      add\n      tag_50\n      swap1\n      tag_51\n      jump\t// in\n    tag_50:\n      mload(0x40)\n      dup1\n      swap2\n      sub\n      swap1\n      revert\n    tag_49:\n        /* \"Lab3_MalikDAHMANI/Contrat.sol\":1617:1633  uint256 toAmount */\n      0x00\n        /* \"Lab3_MalikDAHMANI/Contrat.sol\":1747:1753  token0 */\n      dup1\n      0x00\n      swap1\n      sload\n      swap1\n      0x0100\n      exp\n      swap1\n      div\n      0xffffffffffffffffffffffffffffffffffffffff\n      and\n        /* \"Lab3_MalikDAHMANI/Contrat.sol\":1734:1753  tokenFrom == token0 */\n      0xffffffffffffffffffffffffffffffffffffffff\n      and\n        /* \"Lab3_MalikDAHMANI/Contrat.sol\":1734:1743  tokenFrom */\n      dup4\n        /* \"Lab3_MalikDAHMANI/Contrat.sol\":1734:1753  tokenFrom == token0 */\n      0xffffffffffffffffffffffffffffffffffffffff\n      and\n      sub\n        /* \"Lab3_MalikDAHMANI/Contrat.sol\":1730:1911  if (tokenFrom == token0) {... */\n      tag_52\n      jumpi\n        /* \"Lab3_MalikDAHMANI/Contrat.sol\":1804:1818  conversionRate */\n      sload(0x02)\n        /* \"Lab3_MalikDAHMANI/Contrat.sol\":1795:1800  10000 */\n      0x2710\n        /* \"Lab3_MalikDAHMANI/Contrat.sol\":1782:1792  fromAmount */\n      dup4\n        /* \"Lab3_MalikDAHMANI/Contrat.sol\":1782:1800  fromAmount * 10000 */\n      tag_53\n      swap2\n      swap1\n      tag_54\n      jump\t// in\n    tag_53:\n        /* \"Lab3_MalikDAHMANI/Contrat.sol\":1781:1818  (fromAmount * 10000) / conversionRate */\n      tag_55\n      swap2\n      swap1\n      tag_56\n      jump\t// in\n    tag_55:\n        /* \"Lab3_MalikDAHMANI/Contrat.sol\":1770:1818  toAmount = (fromAmount * 10000) / conversionRate */\n      swap1\n      pop\n        /* \"Lab3_MalikDAHMANI/Contrat.sol\":1730:1911  if (tokenFrom == token0) {... */\n      jump(tag_57)\n    tag_52:\n        /* \"Lab3_MalikDAHMANI/Contrat.sol\":1894:1899  10000 */\n      0x2710\n        /* \"Lab3_MalikDAHMANI/Contrat.sol\":1876:1890  conversionRate */\n      sload(0x02)\n        /* \"Lab3_MalikDAHMANI/Contrat.sol\":1863:1873  fromAmount */\n      dup4\n        /* \"Lab3_MalikDAHMANI/Contrat.sol\":1863:1890  fromAmount * conversionRate */\n      tag_58\n      swap2\n      swap1\n      tag_54\n      jump\t// in\n    tag_58:\n        /* \"Lab3_MalikDAHMANI/Contrat.sol\":1862:1899  (fromAmount * conversionRate) / 10000 */\n      tag_59\n      swap2\n      swap1\n      tag_56\n      jump\t// in\n    tag_59:\n        /* \"Lab3_MalikDAHMANI/Contrat.sol\":1851:1899  toAmount = (fromAmount * conversionRate) / 10000 */\n      swap1\n      pop\n        /* \"Lab3_MalikDAHMANI/Contrat.sol\":1730:1911  if (tokenFrom == token0) {... */\n    tag_57:\n        /* \"Lab3_MalikDAHMANI/Contrat.sol\":2047:2057  fromAmount */\n      dup2\n        /* \"Lab3_MalikDAHMANI/Contrat.sol\":2011:2020  tokenFrom */\n      dup4\n        /* \"Lab3_MalikDAHMANI/Contrat.sol\":2004:2031  IERC20(tokenFrom).balanceOf */\n      0xffffffffffffffffffffffffffffffffffffffff\n      and\n      0x70a08231\n        /* \"Lab3_MalikDAHMANI/Contrat.sol\":2032:2042  msg.sender */\n      caller\n        /* \"Lab3_MalikDAHMANI/Contrat.sol\":2004:2043  IERC20(tokenFrom).balanceOf(msg.sender) */\n      mload(0x40)\n      dup3\n      0xffffffff\n      and\n      0xe0\n      shl\n      dup2\n      mstore\n      0x04\n      add\n      tag_60\n      swap2\n      swap1\n      tag_16\n      jump\t// in\n    tag_60:\n      0x20\n      mload(0x40)\n      dup1\n      dup4\n      sub\n      dup2\n      dup7\n      gas\n      staticcall\n      iszero\n      dup1\n      iszero\n      tag_62\n      jumpi\n      returndatasize\n      0x00\n      dup1\n      returndatacopy\n      revert(0x00, returndatasize)\n    tag_62:\n      pop\n      pop\n      pop\n      pop\n      mload(0x40)\n      returndatasize\n      not(0x1f)\n      0x1f\n      dup3\n      add\n      and\n      dup3\n      add\n      dup1\n      0x40\n      mstore\n      pop\n      dup2\n      add\n      swap1\n      tag_63\n      swap2\n      swap1\n      tag_64\n      jump\t// in\n    tag_63:\n        /* \"Lab3_MalikDAHMANI/Contrat.sol\":2004:2057  IERC20(tokenFrom).balanceOf(msg.sender) >= fromAmount */\n      lt\n      iszero\n        /* \"Lab3_MalikDAHMANI/Contrat.sol\":1996:2082  require(IERC20(tokenFrom).balanceOf(msg.sender) >= fromAmount, \"Insufficient balance\") */\n      tag_65\n      jumpi\n      mload(0x40)\n      0x08c379a000000000000000000000000000000000000000000000000000000000\n      dup2\n      mstore\n      0x04\n      add\n      tag_66\n      swap1\n      tag_67\n      jump\t// in\n    tag_66:\n      mload(0x40)\n      dup1\n      swap2\n      sub\n      swap1\n      revert\n    tag_65:\n        /* \"Lab3_MalikDAHMANI/Contrat.sol\":2164:2173  tokenFrom */\n      dup3\n        /* \"Lab3_MalikDAHMANI/Contrat.sol\":2157:2187  IERC20(tokenFrom).transferFrom */\n      0xffffffffffffffffffffffffffffffffffffffff\n      and\n      0x23b872dd\n        /* \"Lab3_MalikDAHMANI/Contrat.sol\":2188:2198  msg.sender */\n      caller\n        /* \"Lab3_MalikDAHMANI/Contrat.sol\":2208:2212  this */\n      address\n        /* \"Lab3_MalikDAHMANI/Contrat.sol\":2215:2225  fromAmount */\n      dup6\n        /* \"Lab3_MalikDAHMANI/Contrat.sol\":2157:2226  IERC20(tokenFrom).transferFrom(msg.sender, address(this), fromAmount) */\n      mload(0x40)\n      dup5\n      0xffffffff\n      and\n      0xe0\n      shl\n      dup2\n      mstore\n      0x04\n      add\n      tag_68\n      swap4\n      swap3\n      swap2\n      swap1\n      tag_69\n      jump\t// in\n    tag_68:\n      0x20\n      mload(0x40)\n      dup1\n      dup4\n      sub\n      dup2\n      0x00\n      dup8\n      gas\n      call\n      iszero\n      dup1\n      iszero\n      tag_71\n      jumpi\n      returndatasize\n      0x00\n      dup1\n      returndatacopy\n      revert(0x00, returndatasize)\n    tag_71:\n      pop\n      pop\n      pop\n      pop\n      mload(0x40)\n      returndatasize\n      not(0x1f)\n      0x1f\n      dup3\n      add\n      and\n      dup3\n      add\n      dup1\n      0x40\n      mstore\n      pop\n      dup2\n      add\n      swap1\n      tag_72\n      swap2\n      swap1\n      tag_73\n      jump\t// in\n    tag_72:\n      pop\n        /* \"Lab3_MalikDAHMANI/Contrat.sol\":2336:2355  uint256 totalToken0 */\n      0x00\n        /* \"Lab3_MalikDAHMANI/Contrat.sol\":2365:2371  token0 */\n      dup1\n      0x00\n      swap1\n      sload\n      swap1\n      0x0100\n      exp\n      swap1\n      div\n      0xffffffffffffffffffffffffffffffffffffffff\n      and\n        /* \"Lab3_MalikDAHMANI/Contrat.sol\":2358:2382  IERC20(token0).balanceOf */\n      0xffffffffffffffffffffffffffffffffffffffff\n      and\n      0x70a08231\n        /* \"Lab3_MalikDAHMANI/Contrat.sol\":2391:2395  this */\n      address\n        /* \"Lab3_MalikDAHMANI/Contrat.sol\":2358:2397  IERC20(token0).balanceOf(address(this)) */\n      mload(0x40)\n      dup3\n      0xffffffff\n      and\n      0xe0\n      shl\n      dup2\n      mstore\n      0x04\n      add\n      tag_74\n      swap2\n      swap1\n      tag_16\n      jump\t// in\n    tag_74:\n      0x20\n      mload(0x40)\n      dup1\n      dup4\n      sub\n      dup2\n      dup7\n      gas\n      staticcall\n      iszero\n      dup1\n      iszero\n      tag_76\n      jumpi\n      returndatasize\n      0x00\n      dup1\n      returndatacopy\n      revert(0x00, returndatasize)\n    tag_76:\n      pop\n      pop\n      pop\n      pop\n      mload(0x40)\n      returndatasize\n      not(0x1f)\n      0x1f\n      dup3\n      add\n      and\n      dup3\n      add\n      dup1\n      0x40\n      mstore\n      pop\n      dup2\n      add\n      swap1\n      tag_77\n      swap2\n      swap1\n      tag_64\n      jump\t// in\n    tag_77:\n        /* \"Lab3_MalikDAHMANI/Contrat.sol\":2336:2397  uint256 totalToken0 = IERC20(token0).balanceOf(address(this)) */\n      swap1\n      pop\n        /* \"Lab3_MalikDAHMANI/Contrat.sol\":2408:2427  uint256 totalToken1 */\n      0x00\n        /* \"Lab3_MalikDAHMANI/Contrat.sol\":2437:2443  token1 */\n      0x01\n      0x00\n      swap1\n      sload\n      swap1\n      0x0100\n      exp\n      swap1\n      div\n      0xffffffffffffffffffffffffffffffffffffffff\n      and\n        /* \"Lab3_MalikDAHMANI/Contrat.sol\":2430:2454  IERC20(token1).balanceOf */\n      0xffffffffffffffffffffffffffffffffffffffff\n      and\n      0x70a08231\n        /* \"Lab3_MalikDAHMANI/Contrat.sol\":2463:2467  this */\n      address\n        /* \"Lab3_MalikDAHMANI/Contrat.sol\":2430:2469  IERC20(token1).balanceOf(address(this)) */\n      mload(0x40)\n      dup3\n      0xffffffff\n      and\n      0xe0\n      shl\n      dup2\n      mstore\n      0x04\n      add\n      tag_78\n      swap2\n      swap1\n      tag_16\n      jump\t// in\n    tag_78:\n      0x20\n      mload(0x40)\n      dup1\n      dup4\n      sub\n      dup2\n      dup7\n      gas\n      staticcall\n      iszero\n      dup1\n      iszero\n      tag_80\n      jumpi\n      returndatasize\n      0x00\n      dup1\n      returndatacopy\n      revert(0x00, returndatasize)\n    tag_80:\n      pop\n      pop\n      pop\n      pop\n      mload(0x40)\n      returndatasize\n      not(0x1f)\n      0x1f\n      dup3\n      add\n      and\n      dup3\n      add\n      dup1\n      0x40\n      mstore\n      pop\n      dup2\n      add\n      swap1\n      tag_81\n      swap2\n      swap1\n      tag_64\n      jump\t// in\n    tag_81:\n        /* \"Lab3_MalikDAHMANI/Contrat.sol\":2408:2469  uint256 totalToken1 = IERC20(token1).balanceOf(address(this)) */\n      swap1\n      pop\n        /* \"Lab3_MalikDAHMANI/Contrat.sol\":2480:2509  uint256 contractToken0Balance */\n      0x00\n        /* \"Lab3_MalikDAHMANI/Contrat.sol\":2526:2536  fromAmount */\n      dup5\n        /* \"Lab3_MalikDAHMANI/Contrat.sol\":2512:2523  totalToken0 */\n      dup4\n        /* \"Lab3_MalikDAHMANI/Contrat.sol\":2512:2536  totalToken0 - fromAmount */\n      tag_82\n      swap2\n      swap1\n      tag_83\n      jump\t// in\n    tag_82:\n        /* \"Lab3_MalikDAHMANI/Contrat.sol\":2480:2536  uint256 contractToken0Balance = totalToken0 - fromAmount */\n      swap1\n      pop\n        /* \"Lab3_MalikDAHMANI/Contrat.sol\":2547:2576  uint256 contractToken1Balance */\n      0x00\n        /* \"Lab3_MalikDAHMANI/Contrat.sol\":2593:2601  toAmount */\n      dup5\n        /* \"Lab3_MalikDAHMANI/Contrat.sol\":2579:2590  totalToken1 */\n      dup4\n        /* \"Lab3_MalikDAHMANI/Contrat.sol\":2579:2601  totalToken1 - toAmount */\n      tag_84\n      swap2\n      swap1\n      tag_83\n      jump\t// in\n    tag_84:\n        /* \"Lab3_MalikDAHMANI/Contrat.sol\":2547:2601  uint256 contractToken1Balance = totalToken1 - toAmount */\n      swap1\n      pop\n        /* \"Lab3_MalikDAHMANI/Contrat.sol\":2688:2709  contractToken0Balance */\n      dup2\n        /* \"Lab3_MalikDAHMANI/Contrat.sol\":2653:2670  userToken0Balance */\n      0x04\n        /* \"Lab3_MalikDAHMANI/Contrat.sol\":2653:2685  userToken0Balance[address(this)] */\n      0x00\n        /* \"Lab3_MalikDAHMANI/Contrat.sol\":2679:2683  this */\n      address\n        /* \"Lab3_MalikDAHMANI/Contrat.sol\":2653:2685  userToken0Balance[address(this)] */\n      0xffffffffffffffffffffffffffffffffffffffff\n      and\n      0xffffffffffffffffffffffffffffffffffffffff\n      and\n      dup2\n      mstore\n      0x20\n      add\n      swap1\n      dup2\n      mstore\n      0x20\n      add\n      0x00\n      keccak256\n        /* \"Lab3_MalikDAHMANI/Contrat.sol\":2653:2709  userToken0Balance[address(this)] = contractToken0Balance */\n      dup2\n      swap1\n      sstore\n      pop\n        /* \"Lab3_MalikDAHMANI/Contrat.sol\":2755:2776  contractToken1Balance */\n      dup1\n        /* \"Lab3_MalikDAHMANI/Contrat.sol\":2720:2737  userToken1Balance */\n      0x05\n        /* \"Lab3_MalikDAHMANI/Contrat.sol\":2720:2752  userToken1Balance[address(this)] */\n      0x00\n        /* \"Lab3_MalikDAHMANI/Contrat.sol\":2746:2750  this */\n      address\n        /* \"Lab3_MalikDAHMANI/Contrat.sol\":2720:2752  userToken1Balance[address(this)] */\n      0xffffffffffffffffffffffffffffffffffffffff\n      and\n      0xffffffffffffffffffffffffffffffffffffffff\n      and\n      dup2\n      mstore\n      0x20\n      add\n      swap1\n      dup2\n      mstore\n      0x20\n      add\n      0x00\n      keccak256\n        /* \"Lab3_MalikDAHMANI/Contrat.sol\":2720:2776  userToken1Balance[address(this)] = contractToken1Balance */\n      dup2\n      swap1\n      sstore\n      pop\n        /* \"Lab3_MalikDAHMANI/Contrat.sol\":2877:2883  token0 */\n      0x00\n      dup1\n      sload\n      swap1\n      0x0100\n      exp\n      swap1\n      div\n      0xffffffffffffffffffffffffffffffffffffffff\n      and\n        /* \"Lab3_MalikDAHMANI/Contrat.sol\":2864:2883  tokenFrom == token0 */\n      0xffffffffffffffffffffffffffffffffffffffff\n      and\n        /* \"Lab3_MalikDAHMANI/Contrat.sol\":2864:2873  tokenFrom */\n      dup8\n        /* \"Lab3_MalikDAHMANI/Contrat.sol\":2864:2883  tokenFrom == token0 */\n      0xffffffffffffffffffffffffffffffffffffffff\n      and\n      sub\n        /* \"Lab3_MalikDAHMANI/Contrat.sol\":2860:3035  if (tokenFrom == token0) {... */\n      tag_85\n      jumpi\n        /* \"Lab3_MalikDAHMANI/Contrat.sol\":2907:2913  token1 */\n      0x01\n      0x00\n      swap1\n      sload\n      swap1\n      0x0100\n      exp\n      swap1\n      div\n      0xffffffffffffffffffffffffffffffffffffffff\n      and\n        /* \"Lab3_MalikDAHMANI/Contrat.sol\":2900:2923  IERC20(token1).transfer */\n      0xffffffffffffffffffffffffffffffffffffffff\n      and\n      0xa9059cbb\n        /* \"Lab3_MalikDAHMANI/Contrat.sol\":2924:2934  msg.sender */\n      caller\n        /* \"Lab3_MalikDAHMANI/Contrat.sol\":2936:2944  toAmount */\n      dup8\n        /* \"Lab3_MalikDAHMANI/Contrat.sol\":2900:2945  IERC20(token1).transfer(msg.sender, toAmount) */\n      mload(0x40)\n      dup4\n      0xffffffff\n      and\n      0xe0\n      shl\n      dup2\n      mstore\n      0x04\n      add\n      tag_86\n      swap3\n      swap2\n      swap1\n      tag_87\n      jump\t// in\n    tag_86:\n      0x20\n      mload(0x40)\n      dup1\n      dup4\n      sub\n      dup2\n      0x00\n      dup8\n      gas\n      call\n      iszero\n      dup1\n      iszero\n      tag_89\n      jumpi\n      returndatasize\n      0x00\n      dup1\n      returndatacopy\n      revert(0x00, returndatasize)\n    tag_89:\n      pop\n      pop\n      pop\n      pop\n      mload(0x40)\n      returndatasize\n      not(0x1f)\n      0x1f\n      dup3\n      add\n      and\n      dup3\n      add\n      dup1\n      0x40\n      mstore\n      pop\n      dup2\n      add\n      swap1\n      tag_90\n      swap2\n      swap1\n      tag_73\n      jump\t// in\n    tag_90:\n      pop\n        /* \"Lab3_MalikDAHMANI/Contrat.sol\":2860:3035  if (tokenFrom == token0) {... */\n      jump(tag_91)\n    tag_85:\n        /* \"Lab3_MalikDAHMANI/Contrat.sol\":2985:2991  token0 */\n      0x00\n      dup1\n      sload\n      swap1\n      0x0100\n      exp\n      swap1\n      div\n      0xffffffffffffffffffffffffffffffffffffffff\n      and\n        /* \"Lab3_MalikDAHMANI/Contrat.sol\":2978:3001  IERC20(token0).transfer */\n      0xffffffffffffffffffffffffffffffffffffffff\n      and\n      0xa9059cbb\n        /* \"Lab3_MalikDAHMANI/Contrat.sol\":3002:3012  msg.sender */\n      caller\n        /* \"Lab3_MalikDAHMANI/Contrat.sol\":3014:3022  toAmount */\n      dup8\n        /* \"Lab3_MalikDAHMANI/Contrat.sol\":2978:3023  IERC20(token0).transfer(msg.sender, toAmount) */\n      mload(0x40)\n      dup4\n      0xffffffff\n      and\n      0xe0\n      shl\n      dup2\n      mstore\n      0x04\n      add\n      tag_92\n      swap3\n      swap2\n      swap1\n      tag_87\n      jump\t// in\n    tag_92:\n      0x20\n      mload(0x40)\n      dup1\n      dup4\n      sub\n      dup2\n      0x00\n      dup8\n      gas\n      call\n      iszero\n      dup1\n      iszero\n      tag_94\n      jumpi\n      returndatasize\n      0x00\n      dup1\n      returndatacopy\n      revert(0x00, returndatasize)\n    tag_94:\n      pop\n      pop\n      pop\n      pop\n      mload(0x40)\n      returndatasize\n      not(0x1f)\n      0x1f\n      dup3\n      add\n      and\n      dup3\n      add\n      dup1\n      0x40\n      mstore\n      pop\n      dup2\n      add\n      swap1\n      tag_95\n      swap2\n      swap1\n      tag_73\n      jump\t// in\n    tag_95:\n      pop\n        /* \"Lab3_MalikDAHMANI/Contrat.sol\":2860:3035  if (tokenFrom == token0) {... */\n    tag_91:\n        /* \"Lab3_MalikDAHMANI/Contrat.sol\":1382:3042  {... */\n      pop\n      pop\n      pop\n      pop\n      pop\n        /* \"Lab3_MalikDAHMANI/Contrat.sol\":1319:3042  function trade(address tokenFrom, uint256 fromAmount) external {... */\n      pop\n      pop\n      jump\t// out\n        /* \"Lab3_MalikDAHMANI/Contrat.sol\":3050:5347  function provideLiquidity(uint256 token0Amount, uint256 token1Amount) external {... */\n    tag_34:\n        /* \"Lab3_MalikDAHMANI/Contrat.sol\":3220:3239  uint256 totalToken0 */\n      0x00\n        /* \"Lab3_MalikDAHMANI/Contrat.sol\":3249:3255  token0 */\n      dup1\n      0x00\n      swap1\n      sload\n      swap1\n      0x0100\n      exp\n      swap1\n      div\n      0xffffffffffffffffffffffffffffffffffffffff\n      and\n        /* \"Lab3_MalikDAHMANI/Contrat.sol\":3242:3266  IERC20(token0).balanceOf */\n      0xffffffffffffffffffffffffffffffffffffffff\n      and\n      0x70a08231\n        /* \"Lab3_MalikDAHMANI/Contrat.sol\":3275:3279  this */\n      address\n        /* \"Lab3_MalikDAHMANI/Contrat.sol\":3242:3281  IERC20(token0).balanceOf(address(this)) */\n      mload(0x40)\n      dup3\n      0xffffffff\n      and\n      0xe0\n      shl\n      dup2\n      mstore\n      0x04\n      add\n      tag_97\n      swap2\n      swap1\n      tag_16\n      jump\t// in\n    tag_97:\n      0x20\n      mload(0x40)\n      dup1\n      dup4\n      sub\n      dup2\n      dup7\n      gas\n      staticcall\n      iszero\n      dup1\n      iszero\n      tag_99\n      jumpi\n      returndatasize\n      0x00\n      dup1\n      returndatacopy\n      revert(0x00, returndatasize)\n    tag_99:\n      pop\n      pop\n      pop\n      pop\n      mload(0x40)\n      returndatasize\n      not(0x1f)\n      0x1f\n      dup3\n      add\n      and\n      dup3\n      add\n      dup1\n      0x40\n      mstore\n      pop\n      dup2\n      add\n      swap1\n      tag_100\n      swap2\n      swap1\n      tag_64\n      jump\t// in\n    tag_100:\n        /* \"Lab3_MalikDAHMANI/Contrat.sol\":3220:3281  uint256 totalToken0 = IERC20(token0).balanceOf(address(this)) */\n      swap1\n      pop\n        /* \"Lab3_MalikDAHMANI/Contrat.sol\":3292:3311  uint256 totalToken1 */\n      0x00\n        /* \"Lab3_MalikDAHMANI/Contrat.sol\":3321:3327  token1 */\n      0x01\n      0x00\n      swap1\n      sload\n      swap1\n      0x0100\n      exp\n      swap1\n      div\n      0xffffffffffffffffffffffffffffffffffffffff\n      and\n        /* \"Lab3_MalikDAHMANI/Contrat.sol\":3314:3338  IERC20(token1).balanceOf */\n      0xffffffffffffffffffffffffffffffffffffffff\n      and\n      0x70a08231\n        /* \"Lab3_MalikDAHMANI/Contrat.sol\":3347:3351  this */\n      address\n        /* \"Lab3_MalikDAHMANI/Contrat.sol\":3314:3353  IERC20(token1).balanceOf(address(this)) */\n      mload(0x40)\n      dup3\n      0xffffffff\n      and\n      0xe0\n      shl\n      dup2\n      mstore\n      0x04\n      add\n      tag_101\n      swap2\n      swap1\n      tag_16\n      jump\t// in\n    tag_101:\n      0x20\n      mload(0x40)\n      dup1\n      dup4\n      sub\n      dup2\n      dup7\n      gas\n      staticcall\n      iszero\n      dup1\n      iszero\n      tag_103\n      jumpi\n      returndatasize\n      0x00\n      dup1\n      returndatacopy\n      revert(0x00, returndatasize)\n    tag_103:\n      pop\n      pop\n      pop\n      pop\n      mload(0x40)\n      returndatasize\n      not(0x1f)\n      0x1f\n      dup3\n      add\n      and\n      dup3\n      add\n      dup1\n      0x40\n      mstore\n      pop\n      dup2\n      add\n      swap1\n      tag_104\n      swap2\n      swap1\n      tag_64\n      jump\t// in\n    tag_104:\n        /* \"Lab3_MalikDAHMANI/Contrat.sol\":3292:3353  uint256 totalToken1 = IERC20(token1).balanceOf(address(this)) */\n      swap1\n      pop\n        /* \"Lab3_MalikDAHMANI/Contrat.sol\":3450:3469  uint256 token0Ratio */\n      0x00\n        /* \"Lab3_MalikDAHMANI/Contrat.sol\":3486:3487  0 */\n      dup1\n        /* \"Lab3_MalikDAHMANI/Contrat.sol\":3472:3483  totalToken0 */\n      dup4\n        /* \"Lab3_MalikDAHMANI/Contrat.sol\":3472:3487  totalToken0 > 0 */\n      gt\n        /* \"Lab3_MalikDAHMANI/Contrat.sol\":3472:3546  totalToken0 > 0 ? (totalToken0 * 10000) / (totalToken0 + token0Amount) : 0 */\n      tag_105\n      jumpi\n        /* \"Lab3_MalikDAHMANI/Contrat.sol\":3545:3546  0 */\n      0x00\n        /* \"Lab3_MalikDAHMANI/Contrat.sol\":3472:3546  totalToken0 > 0 ? (totalToken0 * 10000) / (totalToken0 + token0Amount) : 0 */\n      jump(tag_106)\n    tag_105:\n        /* \"Lab3_MalikDAHMANI/Contrat.sol\":3529:3541  token0Amount */\n      dup5\n        /* \"Lab3_MalikDAHMANI/Contrat.sol\":3515:3526  totalToken0 */\n      dup4\n        /* \"Lab3_MalikDAHMANI/Contrat.sol\":3515:3541  totalToken0 + token0Amount */\n      tag_107\n      swap2\n      swap1\n      tag_108\n      jump\t// in\n    tag_107:\n        /* \"Lab3_MalikDAHMANI/Contrat.sol\":3505:3510  10000 */\n      0x2710\n        /* \"Lab3_MalikDAHMANI/Contrat.sol\":3491:3502  totalToken0 */\n      dup5\n        /* \"Lab3_MalikDAHMANI/Contrat.sol\":3491:3510  totalToken0 * 10000 */\n      tag_109\n      swap2\n      swap1\n      tag_54\n      jump\t// in\n    tag_109:\n        /* \"Lab3_MalikDAHMANI/Contrat.sol\":3490:3542  (totalToken0 * 10000) / (totalToken0 + token0Amount) */\n      tag_110\n      swap2\n      swap1\n      tag_56\n      jump\t// in\n    tag_110:\n        /* \"Lab3_MalikDAHMANI/Contrat.sol\":3472:3546  totalToken0 > 0 ? (totalToken0 * 10000) / (totalToken0 + token0Amount) : 0 */\n    tag_106:\n        /* \"Lab3_MalikDAHMANI/Contrat.sol\":3450:3546  uint256 token0Ratio = totalToken0 > 0 ? (totalToken0 * 10000) / (totalToken0 + token0Amount) : 0 */\n      swap1\n      pop\n        /* \"Lab3_MalikDAHMANI/Contrat.sol\":3557:3576  uint256 token1Ratio */\n      0x00\n        /* \"Lab3_MalikDAHMANI/Contrat.sol\":3593:3594  0 */\n      dup1\n        /* \"Lab3_MalikDAHMANI/Contrat.sol\":3579:3590  totalToken1 */\n      dup4\n        /* \"Lab3_MalikDAHMANI/Contrat.sol\":3579:3594  totalToken1 > 0 */\n      gt\n        /* \"Lab3_MalikDAHMANI/Contrat.sol\":3579:3653  totalToken1 > 0 ? (totalToken1 * 10000) / (totalToken1 + token1Amount) : 0 */\n      tag_111\n      jumpi\n        /* \"Lab3_MalikDAHMANI/Contrat.sol\":3652:3653  0 */\n      0x00\n        /* \"Lab3_MalikDAHMANI/Contrat.sol\":3579:3653  totalToken1 > 0 ? (totalToken1 * 10000) / (totalToken1 + token1Amount) : 0 */\n      jump(tag_112)\n    tag_111:\n        /* \"Lab3_MalikDAHMANI/Contrat.sol\":3636:3648  token1Amount */\n      dup5\n        /* \"Lab3_MalikDAHMANI/Contrat.sol\":3622:3633  totalToken1 */\n      dup4\n        /* \"Lab3_MalikDAHMANI/Contrat.sol\":3622:3648  totalToken1 + token1Amount */\n      tag_113\n      swap2\n      swap1\n      tag_108\n      jump\t// in\n    tag_113:\n        /* \"Lab3_MalikDAHMANI/Contrat.sol\":3612:3617  10000 */\n      0x2710\n        /* \"Lab3_MalikDAHMANI/Contrat.sol\":3598:3609  totalToken1 */\n      dup5\n        /* \"Lab3_MalikDAHMANI/Contrat.sol\":3598:3617  totalToken1 * 10000 */\n      tag_114\n      swap2\n      swap1\n      tag_54\n      jump\t// in\n    tag_114:\n        /* \"Lab3_MalikDAHMANI/Contrat.sol\":3597:3649  (totalToken1 * 10000) / (totalToken1 + token1Amount) */\n      tag_115\n      swap2\n      swap1\n      tag_56\n      jump\t// in\n    tag_115:\n        /* \"Lab3_MalikDAHMANI/Contrat.sol\":3579:3653  totalToken1 > 0 ? (totalToken1 * 10000) / (totalToken1 + token1Amount) : 0 */\n    tag_112:\n        /* \"Lab3_MalikDAHMANI/Contrat.sol\":3557:3653  uint256 token1Ratio = totalToken1 > 0 ? (totalToken1 * 10000) / (totalToken1 + token1Amount) : 0 */\n      swap1\n      pop\n        /* \"Lab3_MalikDAHMANI/Contrat.sol\":3744:3755  token1Ratio */\n      dup1\n        /* \"Lab3_MalikDAHMANI/Contrat.sol\":3730:3741  token0Ratio */\n      dup3\n        /* \"Lab3_MalikDAHMANI/Contrat.sol\":3730:3755  token0Ratio > token1Ratio */\n      gt\n        /* \"Lab3_MalikDAHMANI/Contrat.sol\":3726:3962  if (token0Ratio > token1Ratio) {... */\n      iszero\n      tag_116\n      jumpi\n        /* \"Lab3_MalikDAHMANI/Contrat.sol\":3818:3829  totalToken0 */\n      dup4\n        /* \"Lab3_MalikDAHMANI/Contrat.sol\":3803:3814  totalToken1 */\n      dup4\n        /* \"Lab3_MalikDAHMANI/Contrat.sol\":3788:3800  token0Amount */\n      dup8\n        /* \"Lab3_MalikDAHMANI/Contrat.sol\":3788:3814  token0Amount * totalToken1 */\n      tag_117\n      swap2\n      swap1\n      tag_54\n      jump\t// in\n    tag_117:\n        /* \"Lab3_MalikDAHMANI/Contrat.sol\":3787:3829  (token0Amount * totalToken1) / totalToken0 */\n      tag_118\n      swap2\n      swap1\n      tag_56\n      jump\t// in\n    tag_118:\n        /* \"Lab3_MalikDAHMANI/Contrat.sol\":3772:3829  token1Amount = (token0Amount * totalToken1) / totalToken0 */\n      swap5\n      pop\n        /* \"Lab3_MalikDAHMANI/Contrat.sol\":3726:3962  if (token0Ratio > token1Ratio) {... */\n      jump(tag_119)\n    tag_116:\n        /* \"Lab3_MalikDAHMANI/Contrat.sol\":3865:3876  token1Ratio */\n      dup1\n        /* \"Lab3_MalikDAHMANI/Contrat.sol\":3851:3862  token0Ratio */\n      dup3\n        /* \"Lab3_MalikDAHMANI/Contrat.sol\":3851:3876  token0Ratio < token1Ratio */\n      lt\n        /* \"Lab3_MalikDAHMANI/Contrat.sol\":3847:3962  if (token0Ratio < token1Ratio) {... */\n      iszero\n      tag_120\n      jumpi\n        /* \"Lab3_MalikDAHMANI/Contrat.sol\":3939:3950  totalToken1 */\n      dup3\n        /* \"Lab3_MalikDAHMANI/Contrat.sol\":3924:3935  totalToken0 */\n      dup5\n        /* \"Lab3_MalikDAHMANI/Contrat.sol\":3909:3921  token1Amount */\n      dup7\n        /* \"Lab3_MalikDAHMANI/Contrat.sol\":3909:3935  token1Amount * totalToken0 */\n      tag_121\n      swap2\n      swap1\n      tag_54\n      jump\t// in\n    tag_121:\n        /* \"Lab3_MalikDAHMANI/Contrat.sol\":3908:3950  (token1Amount * totalToken0) / totalToken1 */\n      tag_122\n      swap2\n      swap1\n      tag_56\n      jump\t// in\n    tag_122:\n        /* \"Lab3_MalikDAHMANI/Contrat.sol\":3893:3950  token0Amount = (token1Amount * totalToken0) / totalToken1 */\n      swap6\n      pop\n        /* \"Lab3_MalikDAHMANI/Contrat.sol\":3847:3962  if (token0Ratio < token1Ratio) {... */\n    tag_120:\n        /* \"Lab3_MalikDAHMANI/Contrat.sol\":3726:3962  if (token0Ratio > token1Ratio) {... */\n    tag_119:\n        /* \"Lab3_MalikDAHMANI/Contrat.sol\":4073:4085  token0Amount */\n      dup6\n        /* \"Lab3_MalikDAHMANI/Contrat.sol\":4040:4057  userToken0Balance */\n      0x04\n        /* \"Lab3_MalikDAHMANI/Contrat.sol\":4040:4069  userToken0Balance[msg.sender] */\n      0x00\n        /* \"Lab3_MalikDAHMANI/Contrat.sol\":4058:4068  msg.sender */\n      caller\n        /* \"Lab3_MalikDAHMANI/Contrat.sol\":4040:4069  userToken0Balance[msg.sender] */\n      0xffffffffffffffffffffffffffffffffffffffff\n      and\n      0xffffffffffffffffffffffffffffffffffffffff\n      and\n      dup2\n      mstore\n      0x20\n      add\n      swap1\n      dup2\n      mstore\n      0x20\n      add\n      0x00\n      keccak256\n      0x00\n        /* \"Lab3_MalikDAHMANI/Contrat.sol\":4040:4085  userToken0Balance[msg.sender] += token0Amount */\n      dup3\n      dup3\n      sload\n      tag_123\n      swap2\n      swap1\n      tag_108\n      jump\t// in\n    tag_123:\n      swap3\n      pop\n      pop\n      dup2\n      swap1\n      sstore\n      pop\n        /* \"Lab3_MalikDAHMANI/Contrat.sol\":4129:4141  token1Amount */\n      dup5\n        /* \"Lab3_MalikDAHMANI/Contrat.sol\":4096:4113  userToken1Balance */\n      0x05\n        /* \"Lab3_MalikDAHMANI/Contrat.sol\":4096:4125  userToken1Balance[msg.sender] */\n      0x00\n        /* \"Lab3_MalikDAHMANI/Contrat.sol\":4114:4124  msg.sender */\n      caller\n        /* \"Lab3_MalikDAHMANI/Contrat.sol\":4096:4125  userToken1Balance[msg.sender] */\n      0xffffffffffffffffffffffffffffffffffffffff\n      and\n      0xffffffffffffffffffffffffffffffffffffffff\n      and\n      dup2\n      mstore\n      0x20\n      add\n      swap1\n      dup2\n      mstore\n      0x20\n      add\n      0x00\n      keccak256\n      0x00\n        /* \"Lab3_MalikDAHMANI/Contrat.sol\":4096:4141  userToken1Balance[msg.sender] += token1Amount */\n      dup3\n      dup3\n      sload\n      tag_124\n      swap2\n      swap1\n      tag_108\n      jump\t// in\n    tag_124:\n      swap3\n      pop\n      pop\n      dup2\n      swap1\n      sstore\n      pop\n        /* \"Lab3_MalikDAHMANI/Contrat.sol\":4222:4228  token0 */\n      0x00\n      dup1\n      sload\n      swap1\n      0x0100\n      exp\n      swap1\n      div\n      0xffffffffffffffffffffffffffffffffffffffff\n      and\n        /* \"Lab3_MalikDAHMANI/Contrat.sol\":4215:4242  IERC20(token0).transferFrom */\n      0xffffffffffffffffffffffffffffffffffffffff\n      and\n      0x23b872dd\n        /* \"Lab3_MalikDAHMANI/Contrat.sol\":4243:4253  msg.sender */\n      caller\n        /* \"Lab3_MalikDAHMANI/Contrat.sol\":4263:4267  this */\n      address\n        /* \"Lab3_MalikDAHMANI/Contrat.sol\":4270:4282  token0Amount */\n      dup10\n        /* \"Lab3_MalikDAHMANI/Contrat.sol\":4215:4283  IERC20(token0).transferFrom(msg.sender, address(this), token0Amount) */\n      mload(0x40)\n      dup5\n      0xffffffff\n      and\n      0xe0\n      shl\n      dup2\n      mstore\n      0x04\n      add\n      tag_125\n      swap4\n      swap3\n      swap2\n      swap1\n      tag_69\n      jump\t// in\n    tag_125:\n      0x20\n      mload(0x40)\n      dup1\n      dup4\n      sub\n      dup2\n      0x00\n      dup8\n      gas\n      call\n      iszero\n      dup1\n      iszero\n      tag_127\n      jumpi\n      returndatasize\n      0x00\n      dup1\n      returndatacopy\n      revert(0x00, returndatasize)\n    tag_127:\n      pop\n      pop\n      pop\n      pop\n      mload(0x40)\n      returndatasize\n      not(0x1f)\n      0x1f\n      dup3\n      add\n      and\n      dup3\n      add\n      dup1\n      0x40\n      mstore\n      pop\n      dup2\n      add\n      swap1\n      tag_128\n      swap2\n      swap1\n      tag_73\n      jump\t// in\n    tag_128:\n      pop\n        /* \"Lab3_MalikDAHMANI/Contrat.sol\":4301:4307  token1 */\n      0x01\n      0x00\n      swap1\n      sload\n      swap1\n      0x0100\n      exp\n      swap1\n      div\n      0xffffffffffffffffffffffffffffffffffffffff\n      and\n        /* \"Lab3_MalikDAHMANI/Contrat.sol\":4294:4321  IERC20(token1).transferFrom */\n      0xffffffffffffffffffffffffffffffffffffffff\n      and\n      0x23b872dd\n        /* \"Lab3_MalikDAHMANI/Contrat.sol\":4322:4332  msg.sender */\n      caller\n        /* \"Lab3_MalikDAHMANI/Contrat.sol\":4342:4346  this */\n      address\n        /* \"Lab3_MalikDAHMANI/Contrat.sol\":4349:4361  token1Amount */\n      dup9\n        /* \"Lab3_MalikDAHMANI/Contrat.sol\":4294:4362  IERC20(token1).transferFrom(msg.sender, address(this), token1Amount) */\n      mload(0x40)\n      dup5\n      0xffffffff\n      and\n      0xe0\n      shl\n      dup2\n      mstore\n      0x04\n      add\n      tag_129\n      swap4\n      swap3\n      swap2\n      swap1\n      tag_69\n      jump\t// in\n    tag_129:\n      0x20\n      mload(0x40)\n      dup1\n      dup4\n      sub\n      dup2\n      0x00\n      dup8\n      gas\n      call\n      iszero\n      dup1\n      iszero\n      tag_131\n      jumpi\n      returndatasize\n      0x00\n      dup1\n      returndatacopy\n      revert(0x00, returndatasize)\n    tag_131:\n      pop\n      pop\n      pop\n      pop\n      mload(0x40)\n      returndatasize\n      not(0x1f)\n      0x1f\n      dup3\n      add\n      and\n      dup3\n      add\n      dup1\n      0x40\n      mstore\n      pop\n      dup2\n      add\n      swap1\n      tag_132\n      swap2\n      swap1\n      tag_73\n      jump\t// in\n    tag_132:\n      pop\n        /* \"Lab3_MalikDAHMANI/Contrat.sol\":4449:4473  isUserInList(msg.sender) */\n      tag_133\n        /* \"Lab3_MalikDAHMANI/Contrat.sol\":4462:4472  msg.sender */\n      caller\n        /* \"Lab3_MalikDAHMANI/Contrat.sol\":4449:4461  isUserInList */\n      tag_134\n        /* \"Lab3_MalikDAHMANI/Contrat.sol\":4449:4473  isUserInList(msg.sender) */\n      jump\t// in\n    tag_133:\n        /* \"Lab3_MalikDAHMANI/Contrat.sol\":4444:4527  if (!isUserInList(msg.sender)) {... */\n      tag_135\n      jumpi\n        /* \"Lab3_MalikDAHMANI/Contrat.sol\":4490:4515  addUserToList(msg.sender) */\n      tag_136\n        /* \"Lab3_MalikDAHMANI/Contrat.sol\":4504:4514  msg.sender */\n      caller\n        /* \"Lab3_MalikDAHMANI/Contrat.sol\":4490:4503  addUserToList */\n      tag_137\n        /* \"Lab3_MalikDAHMANI/Contrat.sol\":4490:4515  addUserToList(msg.sender) */\n      jump\t// in\n    tag_136:\n        /* \"Lab3_MalikDAHMANI/Contrat.sol\":4444:4527  if (!isUserInList(msg.sender)) {... */\n    tag_135:\n        /* \"Lab3_MalikDAHMANI/Contrat.sol\":4595:4622  uint256 totalToken0Contract */\n      0x00\n        /* \"Lab3_MalikDAHMANI/Contrat.sol\":4632:4638  token0 */\n      dup1\n      0x00\n      swap1\n      sload\n      swap1\n      0x0100\n      exp\n      swap1\n      div\n      0xffffffffffffffffffffffffffffffffffffffff\n      and\n        /* \"Lab3_MalikDAHMANI/Contrat.sol\":4625:4649  IERC20(token0).balanceOf */\n      0xffffffffffffffffffffffffffffffffffffffff\n      and\n      0x70a08231\n        /* \"Lab3_MalikDAHMANI/Contrat.sol\":4658:4662  this */\n      address\n        /* \"Lab3_MalikDAHMANI/Contrat.sol\":4625:4664  IERC20(token0).balanceOf(address(this)) */\n      mload(0x40)\n      dup3\n      0xffffffff\n      and\n      0xe0\n      shl\n      dup2\n      mstore\n      0x04\n      add\n      tag_138\n      swap2\n      swap1\n      tag_16\n      jump\t// in\n    tag_138:\n      0x20\n      mload(0x40)\n      dup1\n      dup4\n      sub\n      dup2\n      dup7\n      gas\n      staticcall\n      iszero\n      dup1\n      iszero\n      tag_140\n      jumpi\n      returndatasize\n      0x00\n      dup1\n      returndatacopy\n      revert(0x00, returndatasize)\n    tag_140:\n      pop\n      pop\n      pop\n      pop\n      mload(0x40)\n      returndatasize\n      not(0x1f)\n      0x1f\n      dup3\n      add\n      and\n      dup3\n      add\n      dup1\n      0x40\n      mstore\n      pop\n      dup2\n      add\n      swap1\n      tag_141\n      swap2\n      swap1\n      tag_64\n      jump\t// in\n    tag_141:\n        /* \"Lab3_MalikDAHMANI/Contrat.sol\":4595:4664  uint256 totalToken0Contract = IERC20(token0).balanceOf(address(this)) */\n      swap1\n      pop\n        /* \"Lab3_MalikDAHMANI/Contrat.sol\":4675:4702  uint256 totalToken1Contract */\n      0x00\n        /* \"Lab3_MalikDAHMANI/Contrat.sol\":4712:4718  token1 */\n      0x01\n      0x00\n      swap1\n      sload\n      swap1\n      0x0100\n      exp\n      swap1\n      div\n      0xffffffffffffffffffffffffffffffffffffffff\n      and\n        /* \"Lab3_MalikDAHMANI/Contrat.sol\":4705:4729  IERC20(token1).balanceOf */\n      0xffffffffffffffffffffffffffffffffffffffff\n      and\n      0x70a08231\n        /* \"Lab3_MalikDAHMANI/Contrat.sol\":4738:4742  this */\n      address\n        /* \"Lab3_MalikDAHMANI/Contrat.sol\":4705:4744  IERC20(token1).balanceOf(address(this)) */\n      mload(0x40)\n      dup3\n      0xffffffff\n      and\n      0xe0\n      shl\n      dup2\n      mstore\n      0x04\n      add\n      tag_142\n      swap2\n      swap1\n      tag_16\n      jump\t// in\n    tag_142:\n      0x20\n      mload(0x40)\n      dup1\n      dup4\n      sub\n      dup2\n      dup7\n      gas\n      staticcall\n      iszero\n      dup1\n      iszero\n      tag_144\n      jumpi\n      returndatasize\n      0x00\n      dup1\n      returndatacopy\n      revert(0x00, returndatasize)\n    tag_144:\n      pop\n      pop\n      pop\n      pop\n      mload(0x40)\n      returndatasize\n      not(0x1f)\n      0x1f\n      dup3\n      add\n      and\n      dup3\n      add\n      dup1\n      0x40\n      mstore\n      pop\n      dup2\n      add\n      swap1\n      tag_145\n      swap2\n      swap1\n      tag_64\n      jump\t// in\n    tag_145:\n        /* \"Lab3_MalikDAHMANI/Contrat.sol\":4675:4744  uint256 totalToken1Contract = IERC20(token1).balanceOf(address(this)) */\n      swap1\n      pop\n        /* \"Lab3_MalikDAHMANI/Contrat.sol\":4755:4777  uint256 totalLiquidity */\n      0x00\n        /* \"Lab3_MalikDAHMANI/Contrat.sol\":4827:4846  totalToken1Contract */\n      dup2\n        /* \"Lab3_MalikDAHMANI/Contrat.sol\":4819:4824  10000 */\n      0x2710\n        /* \"Lab3_MalikDAHMANI/Contrat.sol\":4802:4816  conversionRate */\n      sload(0x02)\n        /* \"Lab3_MalikDAHMANI/Contrat.sol\":4780:4799  totalToken0Contract */\n      dup6\n        /* \"Lab3_MalikDAHMANI/Contrat.sol\":4780:4816  totalToken0Contract * conversionRate */\n      tag_146\n      swap2\n      swap1\n      tag_54\n      jump\t// in\n    tag_146:\n        /* \"Lab3_MalikDAHMANI/Contrat.sol\":4780:4824  totalToken0Contract * conversionRate / 10000 */\n      tag_147\n      swap2\n      swap1\n      tag_56\n      jump\t// in\n    tag_147:\n        /* \"Lab3_MalikDAHMANI/Contrat.sol\":4780:4846  totalToken0Contract * conversionRate / 10000 + totalToken1Contract */\n      tag_148\n      swap2\n      swap1\n      tag_108\n      jump\t// in\n    tag_148:\n        /* \"Lab3_MalikDAHMANI/Contrat.sol\":4755:4846  uint256 totalLiquidity = totalToken0Contract * conversionRate / 10000 + totalToken1Contract */\n      swap1\n      pop\n        /* \"Lab3_MalikDAHMANI/Contrat.sol\":4937:4946  uint256 i */\n      0x00\n        /* \"Lab3_MalikDAHMANI/Contrat.sol\":4932:5340  for (uint256 i = 0; i < userList.length; i++) {... */\n    tag_149:\n        /* \"Lab3_MalikDAHMANI/Contrat.sol\":4956:4964  userList */\n      0x03\n        /* \"Lab3_MalikDAHMANI/Contrat.sol\":4956:4971  userList.length */\n      dup1\n      sload\n      swap1\n      pop\n        /* \"Lab3_MalikDAHMANI/Contrat.sol\":4952:4953  i */\n      dup2\n        /* \"Lab3_MalikDAHMANI/Contrat.sol\":4952:4971  i < userList.length */\n      lt\n        /* \"Lab3_MalikDAHMANI/Contrat.sol\":4932:5340  for (uint256 i = 0; i < userList.length; i++) {... */\n      iszero\n      tag_150\n      jumpi\n        /* \"Lab3_MalikDAHMANI/Contrat.sol\":4993:5005  address user */\n      0x00\n        /* \"Lab3_MalikDAHMANI/Contrat.sol\":5008:5016  userList */\n      0x03\n        /* \"Lab3_MalikDAHMANI/Contrat.sol\":5017:5018  i */\n      dup3\n        /* \"Lab3_MalikDAHMANI/Contrat.sol\":5008:5019  userList[i] */\n      dup2\n      sload\n      dup2\n      lt\n      tag_152\n      jumpi\n      tag_153\n      tag_154\n      jump\t// in\n    tag_153:\n    tag_152:\n      swap1\n      0x00\n      mstore\n      keccak256(0x00, 0x20)\n      add\n      0x00\n      swap1\n      sload\n      swap1\n      0x0100\n      exp\n      swap1\n      div\n      0xffffffffffffffffffffffffffffffffffffffff\n      and\n        /* \"Lab3_MalikDAHMANI/Contrat.sol\":4993:5019  address user = userList[i] */\n      swap1\n      pop\n        /* \"Lab3_MalikDAHMANI/Contrat.sol\":5034:5064  uint256 newLiquidityPercentage */\n      0x00\n        /* \"Lab3_MalikDAHMANI/Contrat.sol\":5104:5105  0 */\n      dup1\n        /* \"Lab3_MalikDAHMANI/Contrat.sol\":5087:5101  totalLiquidity */\n      dup5\n        /* \"Lab3_MalikDAHMANI/Contrat.sol\":5087:5105  totalLiquidity > 0 */\n      gt\n        /* \"Lab3_MalikDAHMANI/Contrat.sol\":5083:5260  if (totalLiquidity > 0) {... */\n      iszero\n      tag_156\n      jumpi\n        /* \"Lab3_MalikDAHMANI/Contrat.sol\":5230:5244  totalLiquidity */\n      dup4\n        /* \"Lab3_MalikDAHMANI/Contrat.sol\":5203:5220  userToken1Balance */\n      0x05\n        /* \"Lab3_MalikDAHMANI/Contrat.sol\":5203:5226  userToken1Balance[user] */\n      0x00\n        /* \"Lab3_MalikDAHMANI/Contrat.sol\":5221:5225  user */\n      dup5\n        /* \"Lab3_MalikDAHMANI/Contrat.sol\":5203:5226  userToken1Balance[user] */\n      0xffffffffffffffffffffffffffffffffffffffff\n      and\n      0xffffffffffffffffffffffffffffffffffffffff\n      and\n      dup2\n      mstore\n      0x20\n      add\n      swap1\n      dup2\n      mstore\n      0x20\n      add\n      0x00\n      keccak256\n      sload\n        /* \"Lab3_MalikDAHMANI/Contrat.sol\":5195:5200  10000 */\n      0x2710\n        /* \"Lab3_MalikDAHMANI/Contrat.sol\":5178:5192  conversionRate */\n      sload(0x02)\n        /* \"Lab3_MalikDAHMANI/Contrat.sol\":5152:5169  userToken0Balance */\n      0x04\n        /* \"Lab3_MalikDAHMANI/Contrat.sol\":5152:5175  userToken0Balance[user] */\n      0x00\n        /* \"Lab3_MalikDAHMANI/Contrat.sol\":5170:5174  user */\n      dup8\n        /* \"Lab3_MalikDAHMANI/Contrat.sol\":5152:5175  userToken0Balance[user] */\n      0xffffffffffffffffffffffffffffffffffffffff\n      and\n      0xffffffffffffffffffffffffffffffffffffffff\n      and\n      dup2\n      mstore\n      0x20\n      add\n      swap1\n      dup2\n      mstore\n      0x20\n      add\n      0x00\n      keccak256\n      sload\n        /* \"Lab3_MalikDAHMANI/Contrat.sol\":5152:5192  userToken0Balance[user] * conversionRate */\n      tag_157\n      swap2\n      swap1\n      tag_54\n      jump\t// in\n    tag_157:\n        /* \"Lab3_MalikDAHMANI/Contrat.sol\":5152:5200  userToken0Balance[user] * conversionRate / 10000 */\n      tag_158\n      swap2\n      swap1\n      tag_56\n      jump\t// in\n    tag_158:\n        /* \"Lab3_MalikDAHMANI/Contrat.sol\":5152:5226  userToken0Balance[user] * conversionRate / 10000 + userToken1Balance[user] */\n      tag_159\n      swap2\n      swap1\n      tag_108\n      jump\t// in\n    tag_159:\n        /* \"Lab3_MalikDAHMANI/Contrat.sol\":5151:5244  (userToken0Balance[user] * conversionRate / 10000 + userToken1Balance[user]) / totalLiquidity */\n      tag_160\n      swap2\n      swap1\n      tag_56\n      jump\t// in\n    tag_160:\n        /* \"Lab3_MalikDAHMANI/Contrat.sol\":5126:5244  newLiquidityPercentage = (userToken0Balance[user] * conversionRate / 10000 + userToken1Balance[user]) / totalLiquidity */\n      swap1\n      pop\n        /* \"Lab3_MalikDAHMANI/Contrat.sol\":5083:5260  if (totalLiquidity > 0) {... */\n    tag_156:\n        /* \"Lab3_MalikDAHMANI/Contrat.sol\":5306:5328  newLiquidityPercentage */\n      dup1\n        /* \"Lab3_MalikDAHMANI/Contrat.sol\":5274:5297  userLiquidityPercentage */\n      0x06\n        /* \"Lab3_MalikDAHMANI/Contrat.sol\":5274:5303  userLiquidityPercentage[user] */\n      0x00\n        /* \"Lab3_MalikDAHMANI/Contrat.sol\":5298:5302  user */\n      dup5\n        /* \"Lab3_MalikDAHMANI/Contrat.sol\":5274:5303  userLiquidityPercentage[user] */\n      0xffffffffffffffffffffffffffffffffffffffff\n      and\n      0xffffffffffffffffffffffffffffffffffffffff\n      and\n      dup2\n      mstore\n      0x20\n      add\n      swap1\n      dup2\n      mstore\n      0x20\n      add\n      0x00\n      keccak256\n        /* \"Lab3_MalikDAHMANI/Contrat.sol\":5274:5328  userLiquidityPercentage[user] = newLiquidityPercentage */\n      dup2\n      swap1\n      sstore\n      pop\n        /* \"Lab3_MalikDAHMANI/Contrat.sol\":4978:5340  {... */\n      pop\n      pop\n        /* \"Lab3_MalikDAHMANI/Contrat.sol\":4973:4976  i++ */\n      dup1\n      dup1\n      0x01\n      add\n      swap2\n      pop\n      pop\n        /* \"Lab3_MalikDAHMANI/Contrat.sol\":4932:5340  for (uint256 i = 0; i < userList.length; i++) {... */\n      jump(tag_149)\n    tag_150:\n      pop\n        /* \"Lab3_MalikDAHMANI/Contrat.sol\":3129:5347  {... */\n      pop\n      pop\n      pop\n      pop\n      pop\n      pop\n      pop\n        /* \"Lab3_MalikDAHMANI/Contrat.sol\":3050:5347  function provideLiquidity(uint256 token0Amount, uint256 token1Amount) external {... */\n      pop\n      pop\n      jump\t// out\n        /* \"Lab3_MalikDAHMANI/Contrat.sol\":5355:6912  function withdrawLiquidity() external {... */\n    tag_36:\n        /* \"Lab3_MalikDAHMANI/Contrat.sol\":5467:5491  uint256 userToken0Amount */\n      0x00\n        /* \"Lab3_MalikDAHMANI/Contrat.sol\":5494:5511  userToken0Balance */\n      0x04\n        /* \"Lab3_MalikDAHMANI/Contrat.sol\":5494:5523  userToken0Balance[msg.sender] */\n      0x00\n        /* \"Lab3_MalikDAHMANI/Contrat.sol\":5512:5522  msg.sender */\n      caller\n        /* \"Lab3_MalikDAHMANI/Contrat.sol\":5494:5523  userToken0Balance[msg.sender] */\n      0xffffffffffffffffffffffffffffffffffffffff\n      and\n      0xffffffffffffffffffffffffffffffffffffffff\n      and\n      dup2\n      mstore\n      0x20\n      add\n      swap1\n      dup2\n      mstore\n      0x20\n      add\n      0x00\n      keccak256\n      sload\n        /* \"Lab3_MalikDAHMANI/Contrat.sol\":5467:5523  uint256 userToken0Amount = userToken0Balance[msg.sender] */\n      swap1\n      pop\n        /* \"Lab3_MalikDAHMANI/Contrat.sol\":5534:5558  uint256 userToken1Amount */\n      0x00\n        /* \"Lab3_MalikDAHMANI/Contrat.sol\":5561:5578  userToken1Balance */\n      0x05\n        /* \"Lab3_MalikDAHMANI/Contrat.sol\":5561:5590  userToken1Balance[msg.sender] */\n      0x00\n        /* \"Lab3_MalikDAHMANI/Contrat.sol\":5579:5589  msg.sender */\n      caller\n        /* \"Lab3_MalikDAHMANI/Contrat.sol\":5561:5590  userToken1Balance[msg.sender] */\n      0xffffffffffffffffffffffffffffffffffffffff\n      and\n      0xffffffffffffffffffffffffffffffffffffffff\n      and\n      dup2\n      mstore\n      0x20\n      add\n      swap1\n      dup2\n      mstore\n      0x20\n      add\n      0x00\n      keccak256\n      sload\n        /* \"Lab3_MalikDAHMANI/Contrat.sol\":5534:5590  uint256 userToken1Amount = userToken1Balance[msg.sender] */\n      swap1\n      pop\n        /* \"Lab3_MalikDAHMANI/Contrat.sol\":5681:5703  uint256 token0Contract */\n      0x00\n        /* \"Lab3_MalikDAHMANI/Contrat.sol\":5713:5719  token0 */\n      dup1\n      0x00\n      swap1\n      sload\n      swap1\n      0x0100\n      exp\n      swap1\n      div\n      0xffffffffffffffffffffffffffffffffffffffff\n      and\n        /* \"Lab3_MalikDAHMANI/Contrat.sol\":5706:5730  IERC20(token0).balanceOf */\n      0xffffffffffffffffffffffffffffffffffffffff\n      and\n      0x70a08231\n        /* \"Lab3_MalikDAHMANI/Contrat.sol\":5739:5743  this */\n      address\n        /* \"Lab3_MalikDAHMANI/Contrat.sol\":5706:5745  IERC20(token0).balanceOf(address(this)) */\n      mload(0x40)\n      dup3\n      0xffffffff\n      and\n      0xe0\n      shl\n      dup2\n      mstore\n      0x04\n      add\n      tag_162\n      swap2\n      swap1\n      tag_16\n      jump\t// in\n    tag_162:\n      0x20\n      mload(0x40)\n      dup1\n      dup4\n      sub\n      dup2\n      dup7\n      gas\n      staticcall\n      iszero\n      dup1\n      iszero\n      tag_164\n      jumpi\n      returndatasize\n      0x00\n      dup1\n      returndatacopy\n      revert(0x00, returndatasize)\n    tag_164:\n      pop\n      pop\n      pop\n      pop\n      mload(0x40)\n      returndatasize\n      not(0x1f)\n      0x1f\n      dup3\n      add\n      and\n      dup3\n      add\n      dup1\n      0x40\n      mstore\n      pop\n      dup2\n      add\n      swap1\n      tag_165\n      swap2\n      swap1\n      tag_64\n      jump\t// in\n    tag_165:\n        /* \"Lab3_MalikDAHMANI/Contrat.sol\":5681:5745  uint256 token0Contract = IERC20(token0).balanceOf(address(this)) */\n      swap1\n      pop\n        /* \"Lab3_MalikDAHMANI/Contrat.sol\":5756:5778  uint256 token1Contract */\n      0x00\n        /* \"Lab3_MalikDAHMANI/Contrat.sol\":5788:5794  token1 */\n      0x01\n      0x00\n      swap1\n      sload\n      swap1\n      0x0100\n      exp\n      swap1\n      div\n      0xffffffffffffffffffffffffffffffffffffffff\n      and\n        /* \"Lab3_MalikDAHMANI/Contrat.sol\":5781:5805  IERC20(token1).balanceOf */\n      0xffffffffffffffffffffffffffffffffffffffff\n      and\n      0x70a08231\n        /* \"Lab3_MalikDAHMANI/Contrat.sol\":5814:5818  this */\n      address\n        /* \"Lab3_MalikDAHMANI/Contrat.sol\":5781:5820  IERC20(token1).balanceOf(address(this)) */\n      mload(0x40)\n      dup3\n      0xffffffff\n      and\n      0xe0\n      shl\n      dup2\n      mstore\n      0x04\n      add\n      tag_166\n      swap2\n      swap1\n      tag_16\n      jump\t// in\n    tag_166:\n      0x20\n      mload(0x40)\n      dup1\n      dup4\n      sub\n      dup2\n      dup7\n      gas\n      staticcall\n      iszero\n      dup1\n      iszero\n      tag_168\n      jumpi\n      returndatasize\n      0x00\n      dup1\n      returndatacopy\n      revert(0x00, returndatasize)\n    tag_168:\n      pop\n      pop\n      pop\n      pop\n      mload(0x40)\n      returndatasize\n      not(0x1f)\n      0x1f\n      dup3\n      add\n      and\n      dup3\n      add\n      dup1\n      0x40\n      mstore\n      pop\n      dup2\n      add\n      swap1\n      tag_169\n      swap2\n      swap1\n      tag_64\n      jump\t// in\n    tag_169:\n        /* \"Lab3_MalikDAHMANI/Contrat.sol\":5756:5820  uint256 token1Contract = IERC20(token1).balanceOf(address(this)) */\n      swap1\n      pop\n        /* \"Lab3_MalikDAHMANI/Contrat.sol\":5930:5931  0 */\n      0x00\n        /* \"Lab3_MalikDAHMANI/Contrat.sol\":5911:5927  userToken0Amount */\n      dup5\n        /* \"Lab3_MalikDAHMANI/Contrat.sol\":5911:5931  userToken0Amount > 0 */\n      gt\n        /* \"Lab3_MalikDAHMANI/Contrat.sol\":5911:5955  userToken0Amount > 0 || userToken1Amount > 0 */\n      dup1\n      tag_170\n      jumpi\n      pop\n        /* \"Lab3_MalikDAHMANI/Contrat.sol\":5954:5955  0 */\n      0x00\n        /* \"Lab3_MalikDAHMANI/Contrat.sol\":5935:5951  userToken1Amount */\n      dup4\n        /* \"Lab3_MalikDAHMANI/Contrat.sol\":5935:5955  userToken1Amount > 0 */\n      gt\n        /* \"Lab3_MalikDAHMANI/Contrat.sol\":5911:5955  userToken0Amount > 0 || userToken1Amount > 0 */\n    tag_170:\n        /* \"Lab3_MalikDAHMANI/Contrat.sol\":5903:5982  require(userToken0Amount > 0 || userToken1Amount > 0, \"No liquidity available\") */\n      tag_171\n      jumpi\n      mload(0x40)\n      0x08c379a000000000000000000000000000000000000000000000000000000000\n      dup2\n      mstore\n      0x04\n      add\n      tag_172\n      swap1\n      tag_173\n      jump\t// in\n    tag_172:\n      mload(0x40)\n      dup1\n      swap2\n      sub\n      swap1\n      revert\n    tag_171:\n        /* \"Lab3_MalikDAHMANI/Contrat.sol\":6109:6133  uint256 token0ToWithdraw */\n      0x00\n        /* \"Lab3_MalikDAHMANI/Contrat.sol\":6153:6176  userLiquidityPercentage */\n      0x06\n        /* \"Lab3_MalikDAHMANI/Contrat.sol\":6153:6188  userLiquidityPercentage[msg.sender] */\n      0x00\n        /* \"Lab3_MalikDAHMANI/Contrat.sol\":6177:6187  msg.sender */\n      caller\n        /* \"Lab3_MalikDAHMANI/Contrat.sol\":6153:6188  userLiquidityPercentage[msg.sender] */\n      0xffffffffffffffffffffffffffffffffffffffff\n      and\n      0xffffffffffffffffffffffffffffffffffffffff\n      and\n      dup2\n      mstore\n      0x20\n      add\n      swap1\n      dup2\n      mstore\n      0x20\n      add\n      0x00\n      keccak256\n      sload\n        /* \"Lab3_MalikDAHMANI/Contrat.sol\":6136:6150  token0Contract */\n      dup4\n        /* \"Lab3_MalikDAHMANI/Contrat.sol\":6136:6188  token0Contract * userLiquidityPercentage[msg.sender] */\n      tag_174\n      swap2\n      swap1\n      tag_54\n      jump\t// in\n    tag_174:\n        /* \"Lab3_MalikDAHMANI/Contrat.sol\":6109:6188  uint256 token0ToWithdraw = token0Contract * userLiquidityPercentage[msg.sender] */\n      swap1\n      pop\n        /* \"Lab3_MalikDAHMANI/Contrat.sol\":6199:6223  uint256 token1ToWithdraw */\n      0x00\n        /* \"Lab3_MalikDAHMANI/Contrat.sol\":6243:6266  userLiquidityPercentage */\n      0x06\n        /* \"Lab3_MalikDAHMANI/Contrat.sol\":6243:6278  userLiquidityPercentage[msg.sender] */\n      0x00\n        /* \"Lab3_MalikDAHMANI/Contrat.sol\":6267:6277  msg.sender */\n      caller\n        /* \"Lab3_MalikDAHMANI/Contrat.sol\":6243:6278  userLiquidityPercentage[msg.sender] */\n      0xffffffffffffffffffffffffffffffffffffffff\n      and\n      0xffffffffffffffffffffffffffffffffffffffff\n      and\n      dup2\n      mstore\n      0x20\n      add\n      swap1\n      dup2\n      mstore\n      0x20\n      add\n      0x00\n      keccak256\n      sload\n        /* \"Lab3_MalikDAHMANI/Contrat.sol\":6226:6240  token1Contract */\n      dup4\n        /* \"Lab3_MalikDAHMANI/Contrat.sol\":6226:6278  token1Contract * userLiquidityPercentage[msg.sender] */\n      tag_175\n      swap2\n      swap1\n      tag_54\n      jump\t// in\n    tag_175:\n        /* \"Lab3_MalikDAHMANI/Contrat.sol\":6199:6278  uint256 token1ToWithdraw = token1Contract * userLiquidityPercentage[msg.sender] */\n      swap1\n      pop\n        /* \"Lab3_MalikDAHMANI/Contrat.sol\":6396:6397  0 */\n      0x00\n        /* \"Lab3_MalikDAHMANI/Contrat.sol\":6377:6393  token0ToWithdraw */\n      dup3\n        /* \"Lab3_MalikDAHMANI/Contrat.sol\":6377:6397  token0ToWithdraw > 0 */\n      gt\n        /* \"Lab3_MalikDAHMANI/Contrat.sol\":6373:6528  if (token0ToWithdraw > 0) {... */\n      iszero\n      tag_176\n      jumpi\n        /* \"Lab3_MalikDAHMANI/Contrat.sol\":6421:6427  token0 */\n      0x00\n      dup1\n      sload\n      swap1\n      0x0100\n      exp\n      swap1\n      div\n      0xffffffffffffffffffffffffffffffffffffffff\n      and\n        /* \"Lab3_MalikDAHMANI/Contrat.sol\":6414:6437  IERC20(token0).transfer */\n      0xffffffffffffffffffffffffffffffffffffffff\n      and\n      0xa9059cbb\n        /* \"Lab3_MalikDAHMANI/Contrat.sol\":6438:6448  msg.sender */\n      caller\n        /* \"Lab3_MalikDAHMANI/Contrat.sol\":6450:6466  token0ToWithdraw */\n      dup5\n        /* \"Lab3_MalikDAHMANI/Contrat.sol\":6414:6467  IERC20(token0).transfer(msg.sender, token0ToWithdraw) */\n      mload(0x40)\n      dup4\n      0xffffffff\n      and\n      0xe0\n      shl\n      dup2\n      mstore\n      0x04\n      add\n      tag_177\n      swap3\n      swap2\n      swap1\n      tag_87\n      jump\t// in\n    tag_177:\n      0x20\n      mload(0x40)\n      dup1\n      dup4\n      sub\n      dup2\n      0x00\n      dup8\n      gas\n      call\n      iszero\n      dup1\n      iszero\n      tag_179\n      jumpi\n      returndatasize\n      0x00\n      dup1\n      returndatacopy\n      revert(0x00, returndatasize)\n    tag_179:\n      pop\n      pop\n      pop\n      pop\n      mload(0x40)\n      returndatasize\n      not(0x1f)\n      0x1f\n      dup3\n      add\n      and\n      dup3\n      add\n      dup1\n      0x40\n      mstore\n      pop\n      dup2\n      add\n      swap1\n      tag_180\n      swap2\n      swap1\n      tag_73\n      jump\t// in\n    tag_180:\n      pop\n        /* \"Lab3_MalikDAHMANI/Contrat.sol\":6500:6516  token0ToWithdraw */\n      dup2\n        /* \"Lab3_MalikDAHMANI/Contrat.sol\":6482:6516  token0Contract -= token0ToWithdraw */\n      dup5\n      tag_181\n      swap2\n      swap1\n      tag_83\n      jump\t// in\n    tag_181:\n      swap4\n      pop\n        /* \"Lab3_MalikDAHMANI/Contrat.sol\":6373:6528  if (token0ToWithdraw > 0) {... */\n    tag_176:\n        /* \"Lab3_MalikDAHMANI/Contrat.sol\":6561:6562  0 */\n      0x00\n        /* \"Lab3_MalikDAHMANI/Contrat.sol\":6542:6558  token1ToWithdraw */\n      dup2\n        /* \"Lab3_MalikDAHMANI/Contrat.sol\":6542:6562  token1ToWithdraw > 0 */\n      gt\n        /* \"Lab3_MalikDAHMANI/Contrat.sol\":6538:6693  if (token1ToWithdraw > 0) {... */\n      iszero\n      tag_182\n      jumpi\n        /* \"Lab3_MalikDAHMANI/Contrat.sol\":6586:6592  token1 */\n      0x01\n      0x00\n      swap1\n      sload\n      swap1\n      0x0100\n      exp\n      swap1\n      div\n      0xffffffffffffffffffffffffffffffffffffffff\n      and\n        /* \"Lab3_MalikDAHMANI/Contrat.sol\":6579:6602  IERC20(token1).transfer */\n      0xffffffffffffffffffffffffffffffffffffffff\n      and\n      0xa9059cbb\n        /* \"Lab3_MalikDAHMANI/Contrat.sol\":6603:6613  msg.sender */\n      caller\n        /* \"Lab3_MalikDAHMANI/Contrat.sol\":6615:6631  token1ToWithdraw */\n      dup4\n        /* \"Lab3_MalikDAHMANI/Contrat.sol\":6579:6632  IERC20(token1).transfer(msg.sender, token1ToWithdraw) */\n      mload(0x40)\n      dup4\n      0xffffffff\n      and\n      0xe0\n      shl\n      dup2\n      mstore\n      0x04\n      add\n      tag_183\n      swap3\n      swap2\n      swap1\n      tag_87\n      jump\t// in\n    tag_183:\n      0x20\n      mload(0x40)\n      dup1\n      dup4\n      sub\n      dup2\n      0x00\n      dup8\n      gas\n      call\n      iszero\n      dup1\n      iszero\n      tag_185\n      jumpi\n      returndatasize\n      0x00\n      dup1\n      returndatacopy\n      revert(0x00, returndatasize)\n    tag_185:\n      pop\n      pop\n      pop\n      pop\n      mload(0x40)\n      returndatasize\n      not(0x1f)\n      0x1f\n      dup3\n      add\n      and\n      dup3\n      add\n      dup1\n      0x40\n      mstore\n      pop\n      dup2\n      add\n      swap1\n      tag_186\n      swap2\n      swap1\n      tag_73\n      jump\t// in\n    tag_186:\n      pop\n        /* \"Lab3_MalikDAHMANI/Contrat.sol\":6665:6681  token1ToWithdraw */\n      dup1\n        /* \"Lab3_MalikDAHMANI/Contrat.sol\":6647:6681  token1Contract -= token1ToWithdraw */\n      dup4\n      tag_187\n      swap2\n      swap1\n      tag_83\n      jump\t// in\n    tag_187:\n      swap3\n      pop\n        /* \"Lab3_MalikDAHMANI/Contrat.sol\":6538:6693  if (token1ToWithdraw > 0) {... */\n    tag_182:\n        /* \"Lab3_MalikDAHMANI/Contrat.sol\":6809:6810  0 */\n      0x00\n        /* \"Lab3_MalikDAHMANI/Contrat.sol\":6777:6794  userToken0Balance */\n      0x04\n        /* \"Lab3_MalikDAHMANI/Contrat.sol\":6777:6806  userToken0Balance[msg.sender] */\n      0x00\n        /* \"Lab3_MalikDAHMANI/Contrat.sol\":6795:6805  msg.sender */\n      caller\n        /* \"Lab3_MalikDAHMANI/Contrat.sol\":6777:6806  userToken0Balance[msg.sender] */\n      0xffffffffffffffffffffffffffffffffffffffff\n      and\n      0xffffffffffffffffffffffffffffffffffffffff\n      and\n      dup2\n      mstore\n      0x20\n      add\n      swap1\n      dup2\n      mstore\n      0x20\n      add\n      0x00\n      keccak256\n        /* \"Lab3_MalikDAHMANI/Contrat.sol\":6777:6810  userToken0Balance[msg.sender] = 0 */\n      dup2\n      swap1\n      sstore\n      pop\n        /* \"Lab3_MalikDAHMANI/Contrat.sol\":6853:6854  0 */\n      0x00\n        /* \"Lab3_MalikDAHMANI/Contrat.sol\":6821:6838  userToken1Balance */\n      0x05\n        /* \"Lab3_MalikDAHMANI/Contrat.sol\":6821:6850  userToken1Balance[msg.sender] */\n      0x00\n        /* \"Lab3_MalikDAHMANI/Contrat.sol\":6839:6849  msg.sender */\n      caller\n        /* \"Lab3_MalikDAHMANI/Contrat.sol\":6821:6850  userToken1Balance[msg.sender] */\n      0xffffffffffffffffffffffffffffffffffffffff\n      and\n      0xffffffffffffffffffffffffffffffffffffffff\n      and\n      dup2\n      mstore\n      0x20\n      add\n      swap1\n      dup2\n      mstore\n      0x20\n      add\n      0x00\n      keccak256\n        /* \"Lab3_MalikDAHMANI/Contrat.sol\":6821:6854  userToken1Balance[msg.sender] = 0 */\n      dup2\n      swap1\n      sstore\n      pop\n        /* \"Lab3_MalikDAHMANI/Contrat.sol\":6903:6904  0 */\n      0x00\n        /* \"Lab3_MalikDAHMANI/Contrat.sol\":6865:6888  userLiquidityPercentage */\n      0x06\n        /* \"Lab3_MalikDAHMANI/Contrat.sol\":6865:6900  userLiquidityPercentage[msg.sender] */\n      0x00\n        /* \"Lab3_MalikDAHMANI/Contrat.sol\":6889:6899  msg.sender */\n      caller\n        /* \"Lab3_MalikDAHMANI/Contrat.sol\":6865:6900  userLiquidityPercentage[msg.sender] */\n      0xffffffffffffffffffffffffffffffffffffffff\n      and\n      0xffffffffffffffffffffffffffffffffffffffff\n      and\n      dup2\n      mstore\n      0x20\n      add\n      swap1\n      dup2\n      mstore\n      0x20\n      add\n      0x00\n      keccak256\n        /* \"Lab3_MalikDAHMANI/Contrat.sol\":6865:6904  userLiquidityPercentage[msg.sender] = 0 */\n      dup2\n      swap1\n      sstore\n      pop\n        /* \"Lab3_MalikDAHMANI/Contrat.sol\":5393:6912  {... */\n      pop\n      pop\n      pop\n      pop\n      pop\n      pop\n        /* \"Lab3_MalikDAHMANI/Contrat.sol\":5355:6912  function withdrawLiquidity() external {... */\n      jump\t// out\n        /* \"Lab3_MalikDAHMANI/Contrat.sol\":203:232  uint256 public conversionRate */\n    tag_38:\n      sload(0x02)\n      dup2\n      jump\t// out\n        /* \"Lab3_MalikDAHMANI/Contrat.sol\":175:196  address public token1 */\n    tag_41:\n      0x01\n      0x00\n      swap1\n      sload\n      swap1\n      0x0100\n      exp\n      swap1\n      div\n      0xffffffffffffffffffffffffffffffffffffffff\n      and\n      dup2\n      jump\t// out\n        /* \"Lab3_MalikDAHMANI/Contrat.sol\":365:417  mapping(address => uint256) public userToken1Balance */\n    tag_45:\n      mstore(0x20, 0x05)\n      dup1\n      0x00\n      mstore\n      keccak256(0x00, 0x40)\n      0x00\n      swap2\n      pop\n      swap1\n      pop\n      sload\n      dup2\n      jump\t// out\n        /* \"Lab3_MalikDAHMANI/Contrat.sol\":958:1207  function isUserInList(address user) internal view returns (bool) {... */\n    tag_134:\n        /* \"Lab3_MalikDAHMANI/Contrat.sol\":1017:1021  bool */\n      0x00\n        /* \"Lab3_MalikDAHMANI/Contrat.sol\":1039:1048  uint256 i */\n      dup1\n        /* \"Lab3_MalikDAHMANI/Contrat.sol\":1051:1052  0 */\n      0x00\n        /* \"Lab3_MalikDAHMANI/Contrat.sol\":1039:1052  uint256 i = 0 */\n      swap1\n      pop\n        /* \"Lab3_MalikDAHMANI/Contrat.sol\":1034:1177  for (uint256 i = 0; i < userList.length; i++) {... */\n    tag_189:\n        /* \"Lab3_MalikDAHMANI/Contrat.sol\":1058:1066  userList */\n      0x03\n        /* \"Lab3_MalikDAHMANI/Contrat.sol\":1058:1073  userList.length */\n      dup1\n      sload\n      swap1\n      pop\n        /* \"Lab3_MalikDAHMANI/Contrat.sol\":1054:1055  i */\n      dup2\n        /* \"Lab3_MalikDAHMANI/Contrat.sol\":1054:1073  i < userList.length */\n      lt\n        /* \"Lab3_MalikDAHMANI/Contrat.sol\":1034:1177  for (uint256 i = 0; i < userList.length; i++) {... */\n      iszero\n      tag_190\n      jumpi\n        /* \"Lab3_MalikDAHMANI/Contrat.sol\":1114:1118  user */\n      dup3\n        /* \"Lab3_MalikDAHMANI/Contrat.sol\":1099:1118  userList[i] == user */\n      0xffffffffffffffffffffffffffffffffffffffff\n      and\n        /* \"Lab3_MalikDAHMANI/Contrat.sol\":1099:1107  userList */\n      0x03\n        /* \"Lab3_MalikDAHMANI/Contrat.sol\":1108:1109  i */\n      dup3\n        /* \"Lab3_MalikDAHMANI/Contrat.sol\":1099:1110  userList[i] */\n      dup2\n      sload\n      dup2\n      lt\n      tag_192\n      jumpi\n      tag_193\n      tag_154\n      jump\t// in\n    tag_193:\n    tag_192:\n      swap1\n      0x00\n      mstore\n      keccak256(0x00, 0x20)\n      add\n      0x00\n      swap1\n      sload\n      swap1\n      0x0100\n      exp\n      swap1\n      div\n      0xffffffffffffffffffffffffffffffffffffffff\n      and\n        /* \"Lab3_MalikDAHMANI/Contrat.sol\":1099:1118  userList[i] == user */\n      0xffffffffffffffffffffffffffffffffffffffff\n      and\n      sub\n        /* \"Lab3_MalikDAHMANI/Contrat.sol\":1095:1166  if (userList[i] == user) {... */\n      tag_195\n      jumpi\n        /* \"Lab3_MalikDAHMANI/Contrat.sol\":1146:1150  true */\n      0x01\n        /* \"Lab3_MalikDAHMANI/Contrat.sol\":1139:1150  return true */\n      swap2\n      pop\n      pop\n      jump(tag_188)\n        /* \"Lab3_MalikDAHMANI/Contrat.sol\":1095:1166  if (userList[i] == user) {... */\n    tag_195:\n        /* \"Lab3_MalikDAHMANI/Contrat.sol\":1075:1078  i++ */\n      dup1\n      dup1\n      0x01\n      add\n      swap2\n      pop\n      pop\n        /* \"Lab3_MalikDAHMANI/Contrat.sol\":1034:1177  for (uint256 i = 0; i < userList.length; i++) {... */\n      jump(tag_189)\n    tag_190:\n      pop\n        /* \"Lab3_MalikDAHMANI/Contrat.sol\":1194:1199  false */\n      0x00\n        /* \"Lab3_MalikDAHMANI/Contrat.sol\":1187:1199  return false */\n      swap1\n      pop\n        /* \"Lab3_MalikDAHMANI/Contrat.sol\":958:1207  function isUserInList(address user) internal view returns (bool) {... */\n    tag_188:\n      swap2\n      swap1\n      pop\n      jump\t// out\n        /* \"Lab3_MalikDAHMANI/Contrat.sol\":811:895  function addUserToList(address user) internal {... */\n    tag_137:\n        /* \"Lab3_MalikDAHMANI/Contrat.sol\":868:876  userList */\n      0x03\n        /* \"Lab3_MalikDAHMANI/Contrat.sol\":882:886  user */\n      dup2\n        /* \"Lab3_MalikDAHMANI/Contrat.sol\":868:887  userList.push(user) */\n      swap1\n      dup1\n      0x01\n      dup2\n      sload\n      add\n      dup1\n      dup3\n      sstore\n      dup1\n      swap2\n      pop\n      pop\n      0x01\n      swap1\n      sub\n      swap1\n      0x00\n      mstore\n      keccak256(0x00, 0x20)\n      add\n      0x00\n      swap1\n      swap2\n      swap1\n      swap2\n      swap1\n      swap2\n      0x0100\n      exp\n      dup2\n      sload\n      dup2\n      0xffffffffffffffffffffffffffffffffffffffff\n      mul\n      not\n      and\n      swap1\n      dup4\n      0xffffffffffffffffffffffffffffffffffffffff\n      and\n      mul\n      or\n      swap1\n      sstore\n      pop\n        /* \"Lab3_MalikDAHMANI/Contrat.sol\":811:895  function addUserToList(address user) internal {... */\n      pop\n      jump\t// out\n        /* \"#utility.yul\":7:133   */\n    tag_198:\n        /* \"#utility.yul\":44:51   */\n      0x00\n        /* \"#utility.yul\":84:126   */\n      0xffffffffffffffffffffffffffffffffffffffff\n        /* \"#utility.yul\":77:82   */\n      dup3\n        /* \"#utility.yul\":73:127   */\n      and\n        /* \"#utility.yul\":62:127   */\n      swap1\n      pop\n        /* \"#utility.yul\":7:133   */\n      swap2\n      swap1\n      pop\n      jump\t// out\n        /* \"#utility.yul\":139:235   */\n    tag_199:\n        /* \"#utility.yul\":176:183   */\n      0x00\n        /* \"#utility.yul\":205:229   */\n      tag_226\n        /* \"#utility.yul\":223:228   */\n      dup3\n        /* \"#utility.yul\":205:229   */\n      tag_198\n      jump\t// in\n    tag_226:\n        /* \"#utility.yul\":194:229   */\n      swap1\n      pop\n        /* \"#utility.yul\":139:235   */\n      swap2\n      swap1\n      pop\n      jump\t// out\n        /* \"#utility.yul\":241:359   */\n    tag_200:\n        /* \"#utility.yul\":328:352   */\n      tag_228\n        /* \"#utility.yul\":346:351   */\n      dup2\n        /* \"#utility.yul\":328:352   */\n      tag_199\n      jump\t// in\n    tag_228:\n        /* \"#utility.yul\":323:326   */\n      dup3\n        /* \"#utility.yul\":316:353   */\n      mstore\n        /* \"#utility.yul\":241:359   */\n      pop\n      pop\n      jump\t// out\n        /* \"#utility.yul\":365:587   */\n    tag_16:\n        /* \"#utility.yul\":458:462   */\n      0x00\n        /* \"#utility.yul\":496:498   */\n      0x20\n        /* \"#utility.yul\":485:494   */\n      dup3\n        /* \"#utility.yul\":481:499   */\n      add\n        /* \"#utility.yul\":473:499   */\n      swap1\n      pop\n        /* \"#utility.yul\":509:580   */\n      tag_230\n        /* \"#utility.yul\":577:578   */\n      0x00\n        /* \"#utility.yul\":566:575   */\n      dup4\n        /* \"#utility.yul\":562:579   */\n      add\n        /* \"#utility.yul\":553:559   */\n      dup5\n        /* \"#utility.yul\":509:580   */\n      tag_200\n      jump\t// in\n    tag_230:\n        /* \"#utility.yul\":365:587   */\n      swap3\n      swap2\n      pop\n      pop\n      jump\t// out\n        /* \"#utility.yul\":674:791   */\n    tag_202:\n        /* \"#utility.yul\":783:784   */\n      0x00\n        /* \"#utility.yul\":780:781   */\n      dup1\n        /* \"#utility.yul\":773:785   */\n      revert\n        /* \"#utility.yul\":920:1042   */\n    tag_204:\n        /* \"#utility.yul\":993:1017   */\n      tag_235\n        /* \"#utility.yul\":1011:1016   */\n      dup2\n        /* \"#utility.yul\":993:1017   */\n      tag_199\n      jump\t// in\n    tag_235:\n        /* \"#utility.yul\":986:991   */\n      dup2\n        /* \"#utility.yul\":983:1018   */\n      eq\n        /* \"#utility.yul\":973:1036   */\n      tag_236\n      jumpi\n        /* \"#utility.yul\":1032:1033   */\n      0x00\n        /* \"#utility.yul\":1029:1030   */\n      dup1\n        /* \"#utility.yul\":1022:1034   */\n      revert\n        /* \"#utility.yul\":973:1036   */\n    tag_236:\n        /* \"#utility.yul\":920:1042   */\n      pop\n      jump\t// out\n        /* \"#utility.yul\":1048:1187   */\n    tag_205:\n        /* \"#utility.yul\":1094:1099   */\n      0x00\n        /* \"#utility.yul\":1132:1138   */\n      dup2\n        /* \"#utility.yul\":1119:1139   */\n      calldataload\n        /* \"#utility.yul\":1110:1139   */\n      swap1\n      pop\n        /* \"#utility.yul\":1148:1181   */\n      tag_238\n        /* \"#utility.yul\":1175:1180   */\n      dup2\n        /* \"#utility.yul\":1148:1181   */\n      tag_204\n      jump\t// in\n    tag_238:\n        /* \"#utility.yul\":1048:1187   */\n      swap3\n      swap2\n      pop\n      pop\n      jump\t// out\n        /* \"#utility.yul\":1193:1522   */\n    tag_19:\n        /* \"#utility.yul\":1252:1258   */\n      0x00\n        /* \"#utility.yul\":1301:1303   */\n      0x20\n        /* \"#utility.yul\":1289:1298   */\n      dup3\n        /* \"#utility.yul\":1280:1287   */\n      dup5\n        /* \"#utility.yul\":1276:1299   */\n      sub\n        /* \"#utility.yul\":1272:1304   */\n      slt\n        /* \"#utility.yul\":1269:1388   */\n      iszero\n      tag_240\n      jumpi\n        /* \"#utility.yul\":1307:1386   */\n      tag_241\n      tag_202\n      jump\t// in\n    tag_241:\n        /* \"#utility.yul\":1269:1388   */\n    tag_240:\n        /* \"#utility.yul\":1427:1428   */\n      0x00\n        /* \"#utility.yul\":1452:1505   */\n      tag_242\n        /* \"#utility.yul\":1497:1504   */\n      dup5\n        /* \"#utility.yul\":1488:1494   */\n      dup3\n        /* \"#utility.yul\":1477:1486   */\n      dup6\n        /* \"#utility.yul\":1473:1495   */\n      add\n        /* \"#utility.yul\":1452:1505   */\n      tag_205\n      jump\t// in\n    tag_242:\n        /* \"#utility.yul\":1442:1505   */\n      swap2\n      pop\n        /* \"#utility.yul\":1398:1515   */\n      pop\n        /* \"#utility.yul\":1193:1522   */\n      swap3\n      swap2\n      pop\n      pop\n      jump\t// out\n        /* \"#utility.yul\":1528:1605   */\n    tag_206:\n        /* \"#utility.yul\":1565:1572   */\n      0x00\n        /* \"#utility.yul\":1594:1599   */\n      dup2\n        /* \"#utility.yul\":1583:1599   */\n      swap1\n      pop\n        /* \"#utility.yul\":1528:1605   */\n      swap2\n      swap1\n      pop\n      jump\t// out\n        /* \"#utility.yul\":1611:1729   */\n    tag_207:\n        /* \"#utility.yul\":1698:1722   */\n      tag_245\n        /* \"#utility.yul\":1716:1721   */\n      dup2\n        /* \"#utility.yul\":1698:1722   */\n      tag_206\n      jump\t// in\n    tag_245:\n        /* \"#utility.yul\":1693:1696   */\n      dup3\n        /* \"#utility.yul\":1686:1723   */\n      mstore\n        /* \"#utility.yul\":1611:1729   */\n      pop\n      pop\n      jump\t// out\n        /* \"#utility.yul\":1735:1957   */\n    tag_22:\n        /* \"#utility.yul\":1828:1832   */\n      0x00\n        /* \"#utility.yul\":1866:1868   */\n      0x20\n        /* \"#utility.yul\":1855:1864   */\n      dup3\n        /* \"#utility.yul\":1851:1869   */\n      add\n        /* \"#utility.yul\":1843:1869   */\n      swap1\n      pop\n        /* \"#utility.yul\":1879:1950   */\n      tag_247\n        /* \"#utility.yul\":1947:1948   */\n      0x00\n        /* \"#utility.yul\":1936:1945   */\n      dup4\n        /* \"#utility.yul\":1932:1949   */\n      add\n        /* \"#utility.yul\":1923:1929   */\n      dup5\n        /* \"#utility.yul\":1879:1950   */\n      tag_207\n      jump\t// in\n    tag_247:\n        /* \"#utility.yul\":1735:1957   */\n      swap3\n      swap2\n      pop\n      pop\n      jump\t// out\n        /* \"#utility.yul\":1963:2085   */\n    tag_208:\n        /* \"#utility.yul\":2036:2060   */\n      tag_249\n        /* \"#utility.yul\":2054:2059   */\n      dup2\n        /* \"#utility.yul\":2036:2060   */\n      tag_206\n      jump\t// in\n    tag_249:\n        /* \"#utility.yul\":2029:2034   */\n      dup2\n        /* \"#utility.yul\":2026:2061   */\n      eq\n        /* \"#utility.yul\":2016:2079   */\n      tag_250\n      jumpi\n        /* \"#utility.yul\":2075:2076   */\n      0x00\n        /* \"#utility.yul\":2072:2073   */\n      dup1\n        /* \"#utility.yul\":2065:2077   */\n      revert\n        /* \"#utility.yul\":2016:2079   */\n    tag_250:\n        /* \"#utility.yul\":1963:2085   */\n      pop\n      jump\t// out\n        /* \"#utility.yul\":2091:2230   */\n    tag_209:\n        /* \"#utility.yul\":2137:2142   */\n      0x00\n        /* \"#utility.yul\":2175:2181   */\n      dup2\n        /* \"#utility.yul\":2162:2182   */\n      calldataload\n        /* \"#utility.yul\":2153:2182   */\n      swap1\n      pop\n        /* \"#utility.yul\":2191:2224   */\n      tag_252\n        /* \"#utility.yul\":2218:2223   */\n      dup2\n        /* \"#utility.yul\":2191:2224   */\n      tag_208\n      jump\t// in\n    tag_252:\n        /* \"#utility.yul\":2091:2230   */\n      swap3\n      swap2\n      pop\n      pop\n      jump\t// out\n        /* \"#utility.yul\":2236:2710   */\n    tag_29:\n        /* \"#utility.yul\":2304:2310   */\n      0x00\n        /* \"#utility.yul\":2312:2318   */\n      dup1\n        /* \"#utility.yul\":2361:2363   */\n      0x40\n        /* \"#utility.yul\":2349:2358   */\n      dup4\n        /* \"#utility.yul\":2340:2347   */\n      dup6\n        /* \"#utility.yul\":2336:2359   */\n      sub\n        /* \"#utility.yul\":2332:2364   */\n      slt\n        /* \"#utility.yul\":2329:2448   */\n      iszero\n      tag_254\n      jumpi\n        /* \"#utility.yul\":2367:2446   */\n      tag_255\n      tag_202\n      jump\t// in\n    tag_255:\n        /* \"#utility.yul\":2329:2448   */\n    tag_254:\n        /* \"#utility.yul\":2487:2488   */\n      0x00\n        /* \"#utility.yul\":2512:2565   */\n      tag_256\n        /* \"#utility.yul\":2557:2564   */\n      dup6\n        /* \"#utility.yul\":2548:2554   */\n      dup3\n        /* \"#utility.yul\":2537:2546   */\n      dup7\n        /* \"#utility.yul\":2533:2555   */\n      add\n        /* \"#utility.yul\":2512:2565   */\n      tag_205\n      jump\t// in\n    tag_256:\n        /* \"#utility.yul\":2502:2565   */\n      swap3\n      pop\n        /* \"#utility.yul\":2458:2575   */\n      pop\n        /* \"#utility.yul\":2614:2616   */\n      0x20\n        /* \"#utility.yul\":2640:2693   */\n      tag_257\n        /* \"#utility.yul\":2685:2692   */\n      dup6\n        /* \"#utility.yul\":2676:2682   */\n      dup3\n        /* \"#utility.yul\":2665:2674   */\n      dup7\n        /* \"#utility.yul\":2661:2683   */\n      add\n        /* \"#utility.yul\":2640:2693   */\n      tag_209\n      jump\t// in\n    tag_257:\n        /* \"#utility.yul\":2630:2693   */\n      swap2\n      pop\n        /* \"#utility.yul\":2585:2703   */\n      pop\n        /* \"#utility.yul\":2236:2710   */\n      swap3\n      pop\n      swap3\n      swap1\n      pop\n      jump\t// out\n        /* \"#utility.yul\":2716:3190   */\n    tag_33:\n        /* \"#utility.yul\":2784:2790   */\n      0x00\n        /* \"#utility.yul\":2792:2798   */\n      dup1\n        /* \"#utility.yul\":2841:2843   */\n      0x40\n        /* \"#utility.yul\":2829:2838   */\n      dup4\n        /* \"#utility.yul\":2820:2827   */\n      dup6\n        /* \"#utility.yul\":2816:2839   */\n      sub\n        /* \"#utility.yul\":2812:2844   */\n      slt\n        /* \"#utility.yul\":2809:2928   */\n      iszero\n      tag_259\n      jumpi\n        /* \"#utility.yul\":2847:2926   */\n      tag_260\n      tag_202\n      jump\t// in\n    tag_260:\n        /* \"#utility.yul\":2809:2928   */\n    tag_259:\n        /* \"#utility.yul\":2967:2968   */\n      0x00\n        /* \"#utility.yul\":2992:3045   */\n      tag_261\n        /* \"#utility.yul\":3037:3044   */\n      dup6\n        /* \"#utility.yul\":3028:3034   */\n      dup3\n        /* \"#utility.yul\":3017:3026   */\n      dup7\n        /* \"#utility.yul\":3013:3035   */\n      add\n        /* \"#utility.yul\":2992:3045   */\n      tag_209\n      jump\t// in\n    tag_261:\n        /* \"#utility.yul\":2982:3045   */\n      swap3\n      pop\n        /* \"#utility.yul\":2938:3055   */\n      pop\n        /* \"#utility.yul\":3094:3096   */\n      0x20\n        /* \"#utility.yul\":3120:3173   */\n      tag_262\n        /* \"#utility.yul\":3165:3172   */\n      dup6\n        /* \"#utility.yul\":3156:3162   */\n      dup3\n        /* \"#utility.yul\":3145:3154   */\n      dup7\n        /* \"#utility.yul\":3141:3163   */\n      add\n        /* \"#utility.yul\":3120:3173   */\n      tag_209\n      jump\t// in\n    tag_262:\n        /* \"#utility.yul\":3110:3173   */\n      swap2\n      pop\n        /* \"#utility.yul\":3065:3183   */\n      pop\n        /* \"#utility.yul\":2716:3190   */\n      swap3\n      pop\n      swap3\n      swap1\n      pop\n      jump\t// out\n        /* \"#utility.yul\":3196:3365   */\n    tag_210:\n        /* \"#utility.yul\":3280:3291   */\n      0x00\n        /* \"#utility.yul\":3314:3320   */\n      dup3\n        /* \"#utility.yul\":3309:3312   */\n      dup3\n        /* \"#utility.yul\":3302:3321   */\n      mstore\n        /* \"#utility.yul\":3354:3358   */\n      0x20\n        /* \"#utility.yul\":3349:3352   */\n      dup3\n        /* \"#utility.yul\":3345:3359   */\n      add\n        /* \"#utility.yul\":3330:3359   */\n      swap1\n      pop\n        /* \"#utility.yul\":3196:3365   */\n      swap3\n      swap2\n      pop\n      pop\n      jump\t// out\n        /* \"#utility.yul\":3371:3534   */\n    tag_211:\n        /* \"#utility.yul\":3511:3526   */\n      0x496e76616c696420746f6b656e00000000000000000000000000000000000000\n        /* \"#utility.yul\":3507:3508   */\n      0x00\n        /* \"#utility.yul\":3499:3505   */\n      dup3\n        /* \"#utility.yul\":3495:3509   */\n      add\n        /* \"#utility.yul\":3488:3527   */\n      mstore\n        /* \"#utility.yul\":3371:3534   */\n      pop\n      jump\t// out\n        /* \"#utility.yul\":3540:3906   */\n    tag_212:\n        /* \"#utility.yul\":3682:3685   */\n      0x00\n        /* \"#utility.yul\":3703:3770   */\n      tag_266\n        /* \"#utility.yul\":3767:3769   */\n      0x0d\n        /* \"#utility.yul\":3762:3765   */\n      dup4\n        /* \"#utility.yul\":3703:3770   */\n      tag_210\n      jump\t// in\n    tag_266:\n        /* \"#utility.yul\":3696:3770   */\n      swap2\n      pop\n        /* \"#utility.yul\":3779:3872   */\n      tag_267\n        /* \"#utility.yul\":3868:3871   */\n      dup3\n        /* \"#utility.yul\":3779:3872   */\n      tag_211\n      jump\t// in\n    tag_267:\n        /* \"#utility.yul\":3897:3899   */\n      0x20\n        /* \"#utility.yul\":3892:3895   */\n      dup3\n        /* \"#utility.yul\":3888:3900   */\n      add\n        /* \"#utility.yul\":3881:3900   */\n      swap1\n      pop\n        /* \"#utility.yul\":3540:3906   */\n      swap2\n      swap1\n      pop\n      jump\t// out\n        /* \"#utility.yul\":3912:4331   */\n    tag_51:\n        /* \"#utility.yul\":4078:4082   */\n      0x00\n        /* \"#utility.yul\":4116:4118   */\n      0x20\n        /* \"#utility.yul\":4105:4114   */\n      dup3\n        /* \"#utility.yul\":4101:4119   */\n      add\n        /* \"#utility.yul\":4093:4119   */\n      swap1\n      pop\n        /* \"#utility.yul\":4165:4174   */\n      dup2\n        /* \"#utility.yul\":4159:4163   */\n      dup2\n        /* \"#utility.yul\":4155:4175   */\n      sub\n        /* \"#utility.yul\":4151:4152   */\n      0x00\n        /* \"#utility.yul\":4140:4149   */\n      dup4\n        /* \"#utility.yul\":4136:4153   */\n      add\n        /* \"#utility.yul\":4129:4176   */\n      mstore\n        /* \"#utility.yul\":4193:4324   */\n      tag_269\n        /* \"#utility.yul\":4319:4323   */\n      dup2\n        /* \"#utility.yul\":4193:4324   */\n      tag_212\n      jump\t// in\n    tag_269:\n        /* \"#utility.yul\":4185:4324   */\n      swap1\n      pop\n        /* \"#utility.yul\":3912:4331   */\n      swap2\n      swap1\n      pop\n      jump\t// out\n        /* \"#utility.yul\":4337:4517   */\n    tag_213:\n        /* \"#utility.yul\":4385:4462   */\n      0x4e487b7100000000000000000000000000000000000000000000000000000000\n        /* \"#utility.yul\":4382:4383   */\n      0x00\n        /* \"#utility.yul\":4375:4463   */\n      mstore\n        /* \"#utility.yul\":4482:4486   */\n      0x11\n        /* \"#utility.yul\":4479:4480   */\n      0x04\n        /* \"#utility.yul\":4472:4487   */\n      mstore\n        /* \"#utility.yul\":4506:4510   */\n      0x24\n        /* \"#utility.yul\":4503:4504   */\n      0x00\n        /* \"#utility.yul\":4496:4511   */\n      revert\n        /* \"#utility.yul\":4523:4933   */\n    tag_54:\n        /* \"#utility.yul\":4563:4570   */\n      0x00\n        /* \"#utility.yul\":4586:4606   */\n      tag_272\n        /* \"#utility.yul\":4604:4605   */\n      dup3\n        /* \"#utility.yul\":4586:4606   */\n      tag_206\n      jump\t// in\n    tag_272:\n        /* \"#utility.yul\":4581:4606   */\n      swap2\n      pop\n        /* \"#utility.yul\":4620:4640   */\n      tag_273\n        /* \"#utility.yul\":4638:4639   */\n      dup4\n        /* \"#utility.yul\":4620:4640   */\n      tag_206\n      jump\t// in\n    tag_273:\n        /* \"#utility.yul\":4615:4640   */\n      swap3\n      pop\n        /* \"#utility.yul\":4675:4676   */\n      dup3\n        /* \"#utility.yul\":4672:4673   */\n      dup3\n        /* \"#utility.yul\":4668:4677   */\n      mul\n        /* \"#utility.yul\":4697:4727   */\n      tag_274\n        /* \"#utility.yul\":4715:4726   */\n      dup2\n        /* \"#utility.yul\":4697:4727   */\n      tag_206\n      jump\t// in\n    tag_274:\n        /* \"#utility.yul\":4686:4727   */\n      swap2\n      pop\n        /* \"#utility.yul\":4876:4877   */\n      dup3\n        /* \"#utility.yul\":4867:4874   */\n      dup3\n        /* \"#utility.yul\":4863:4878   */\n      div\n        /* \"#utility.yul\":4860:4861   */\n      dup5\n        /* \"#utility.yul\":4857:4879   */\n      eq\n        /* \"#utility.yul\":4837:4838   */\n      dup4\n        /* \"#utility.yul\":4830:4839   */\n      iszero\n        /* \"#utility.yul\":4810:4893   */\n      or\n        /* \"#utility.yul\":4787:4926   */\n      tag_275\n      jumpi\n        /* \"#utility.yul\":4906:4924   */\n      tag_276\n      tag_213\n      jump\t// in\n    tag_276:\n        /* \"#utility.yul\":4787:4926   */\n    tag_275:\n        /* \"#utility.yul\":4571:4933   */\n      pop\n        /* \"#utility.yul\":4523:4933   */\n      swap3\n      swap2\n      pop\n      pop\n      jump\t// out\n        /* \"#utility.yul\":4939:5119   */\n    tag_214:\n        /* \"#utility.yul\":4987:5064   */\n      0x4e487b7100000000000000000000000000000000000000000000000000000000\n        /* \"#utility.yul\":4984:4985   */\n      0x00\n        /* \"#utility.yul\":4977:5065   */\n      mstore\n        /* \"#utility.yul\":5084:5088   */\n      0x12\n        /* \"#utility.yul\":5081:5082   */\n      0x04\n        /* \"#utility.yul\":5074:5089   */\n      mstore\n        /* \"#utility.yul\":5108:5112   */\n      0x24\n        /* \"#utility.yul\":5105:5106   */\n      0x00\n        /* \"#utility.yul\":5098:5113   */\n      revert\n        /* \"#utility.yul\":5125:5310   */\n    tag_56:\n        /* \"#utility.yul\":5165:5166   */\n      0x00\n        /* \"#utility.yul\":5182:5202   */\n      tag_279\n        /* \"#utility.yul\":5200:5201   */\n      dup3\n        /* \"#utility.yul\":5182:5202   */\n      tag_206\n      jump\t// in\n    tag_279:\n        /* \"#utility.yul\":5177:5202   */\n      swap2\n      pop\n        /* \"#utility.yul\":5216:5236   */\n      tag_280\n        /* \"#utility.yul\":5234:5235   */\n      dup4\n        /* \"#utility.yul\":5216:5236   */\n      tag_206\n      jump\t// in\n    tag_280:\n        /* \"#utility.yul\":5211:5236   */\n      swap3\n      pop\n        /* \"#utility.yul\":5255:5256   */\n      dup3\n        /* \"#utility.yul\":5245:5280   */\n      tag_281\n      jumpi\n        /* \"#utility.yul\":5260:5278   */\n      tag_282\n      tag_214\n      jump\t// in\n    tag_282:\n        /* \"#utility.yul\":5245:5280   */\n    tag_281:\n        /* \"#utility.yul\":5302:5303   */\n      dup3\n        /* \"#utility.yul\":5299:5300   */\n      dup3\n        /* \"#utility.yul\":5295:5304   */\n      div\n        /* \"#utility.yul\":5290:5304   */\n      swap1\n      pop\n        /* \"#utility.yul\":5125:5310   */\n      swap3\n      swap2\n      pop\n      pop\n      jump\t// out\n        /* \"#utility.yul\":5316:5459   */\n    tag_215:\n        /* \"#utility.yul\":5373:5378   */\n      0x00\n        /* \"#utility.yul\":5404:5410   */\n      dup2\n        /* \"#utility.yul\":5398:5411   */\n      mload\n        /* \"#utility.yul\":5389:5411   */\n      swap1\n      pop\n        /* \"#utility.yul\":5420:5453   */\n      tag_284\n        /* \"#utility.yul\":5447:5452   */\n      dup2\n        /* \"#utility.yul\":5420:5453   */\n      tag_208\n      jump\t// in\n    tag_284:\n        /* \"#utility.yul\":5316:5459   */\n      swap3\n      swap2\n      pop\n      pop\n      jump\t// out\n        /* \"#utility.yul\":5465:5816   */\n    tag_64:\n        /* \"#utility.yul\":5535:5541   */\n      0x00\n        /* \"#utility.yul\":5584:5586   */\n      0x20\n        /* \"#utility.yul\":5572:5581   */\n      dup3\n        /* \"#utility.yul\":5563:5570   */\n      dup5\n        /* \"#utility.yul\":5559:5582   */\n      sub\n        /* \"#utility.yul\":5555:5587   */\n      slt\n        /* \"#utility.yul\":5552:5671   */\n      iszero\n      tag_286\n      jumpi\n        /* \"#utility.yul\":5590:5669   */\n      tag_287\n      tag_202\n      jump\t// in\n    tag_287:\n        /* \"#utility.yul\":5552:5671   */\n    tag_286:\n        /* \"#utility.yul\":5710:5711   */\n      0x00\n        /* \"#utility.yul\":5735:5799   */\n      tag_288\n        /* \"#utility.yul\":5791:5798   */\n      dup5\n        /* \"#utility.yul\":5782:5788   */\n      dup3\n        /* \"#utility.yul\":5771:5780   */\n      dup6\n        /* \"#utility.yul\":5767:5789   */\n      add\n        /* \"#utility.yul\":5735:5799   */\n      tag_215\n      jump\t// in\n    tag_288:\n        /* \"#utility.yul\":5725:5799   */\n      swap2\n      pop\n        /* \"#utility.yul\":5681:5809   */\n      pop\n        /* \"#utility.yul\":5465:5816   */\n      swap3\n      swap2\n      pop\n      pop\n      jump\t// out\n        /* \"#utility.yul\":5822:5992   */\n    tag_216:\n        /* \"#utility.yul\":5962:5984   */\n      0x496e73756666696369656e742062616c616e6365000000000000000000000000\n        /* \"#utility.yul\":5958:5959   */\n      0x00\n        /* \"#utility.yul\":5950:5956   */\n      dup3\n        /* \"#utility.yul\":5946:5960   */\n      add\n        /* \"#utility.yul\":5939:5985   */\n      mstore\n        /* \"#utility.yul\":5822:5992   */\n      pop\n      jump\t// out\n        /* \"#utility.yul\":5998:6364   */\n    tag_217:\n        /* \"#utility.yul\":6140:6143   */\n      0x00\n        /* \"#utility.yul\":6161:6228   */\n      tag_291\n        /* \"#utility.yul\":6225:6227   */\n      0x14\n        /* \"#utility.yul\":6220:6223   */\n      dup4\n        /* \"#utility.yul\":6161:6228   */\n      tag_210\n      jump\t// in\n    tag_291:\n        /* \"#utility.yul\":6154:6228   */\n      swap2\n      pop\n        /* \"#utility.yul\":6237:6330   */\n      tag_292\n        /* \"#utility.yul\":6326:6329   */\n      dup3\n        /* \"#utility.yul\":6237:6330   */\n      tag_216\n      jump\t// in\n    tag_292:\n        /* \"#utility.yul\":6355:6357   */\n      0x20\n        /* \"#utility.yul\":6350:6353   */\n      dup3\n        /* \"#utility.yul\":6346:6358   */\n      add\n        /* \"#utility.yul\":6339:6358   */\n      swap1\n      pop\n        /* \"#utility.yul\":5998:6364   */\n      swap2\n      swap1\n      pop\n      jump\t// out\n        /* \"#utility.yul\":6370:6789   */\n    tag_67:\n        /* \"#utility.yul\":6536:6540   */\n      0x00\n        /* \"#utility.yul\":6574:6576   */\n      0x20\n        /* \"#utility.yul\":6563:6572   */\n      dup3\n        /* \"#utility.yul\":6559:6577   */\n      add\n        /* \"#utility.yul\":6551:6577   */\n      swap1\n      pop\n        /* \"#utility.yul\":6623:6632   */\n      dup2\n        /* \"#utility.yul\":6617:6621   */\n      dup2\n        /* \"#utility.yul\":6613:6633   */\n      sub\n        /* \"#utility.yul\":6609:6610   */\n      0x00\n        /* \"#utility.yul\":6598:6607   */\n      dup4\n        /* \"#utility.yul\":6594:6611   */\n      add\n        /* \"#utility.yul\":6587:6634   */\n      mstore\n        /* \"#utility.yul\":6651:6782   */\n      tag_294\n        /* \"#utility.yul\":6777:6781   */\n      dup2\n        /* \"#utility.yul\":6651:6782   */\n      tag_217\n      jump\t// in\n    tag_294:\n        /* \"#utility.yul\":6643:6782   */\n      swap1\n      pop\n        /* \"#utility.yul\":6370:6789   */\n      swap2\n      swap1\n      pop\n      jump\t// out\n        /* \"#utility.yul\":6795:7237   */\n    tag_69:\n        /* \"#utility.yul\":6944:6948   */\n      0x00\n        /* \"#utility.yul\":6982:6984   */\n      0x60\n        /* \"#utility.yul\":6971:6980   */\n      dup3\n        /* \"#utility.yul\":6967:6985   */\n      add\n        /* \"#utility.yul\":6959:6985   */\n      swap1\n      pop\n        /* \"#utility.yul\":6995:7066   */\n      tag_296\n        /* \"#utility.yul\":7063:7064   */\n      0x00\n        /* \"#utility.yul\":7052:7061   */\n      dup4\n        /* \"#utility.yul\":7048:7065   */\n      add\n        /* \"#utility.yul\":7039:7045   */\n      dup7\n        /* \"#utility.yul\":6995:7066   */\n      tag_200\n      jump\t// in\n    tag_296:\n        /* \"#utility.yul\":7076:7148   */\n      tag_297\n        /* \"#utility.yul\":7144:7146   */\n      0x20\n        /* \"#utility.yul\":7133:7142   */\n      dup4\n        /* \"#utility.yul\":7129:7147   */\n      add\n        /* \"#utility.yul\":7120:7126   */\n      dup6\n        /* \"#utility.yul\":7076:7148   */\n      tag_200\n      jump\t// in\n    tag_297:\n        /* \"#utility.yul\":7158:7230   */\n      tag_298\n        /* \"#utility.yul\":7226:7228   */\n      0x40\n        /* \"#utility.yul\":7215:7224   */\n      dup4\n        /* \"#utility.yul\":7211:7229   */\n      add\n        /* \"#utility.yul\":7202:7208   */\n      dup5\n        /* \"#utility.yul\":7158:7230   */\n      tag_207\n      jump\t// in\n    tag_298:\n        /* \"#utility.yul\":6795:7237   */\n      swap5\n      swap4\n      pop\n      pop\n      pop\n      pop\n      jump\t// out\n        /* \"#utility.yul\":7243:7333   */\n    tag_218:\n        /* \"#utility.yul\":7277:7284   */\n      0x00\n        /* \"#utility.yul\":7320:7325   */\n      dup2\n        /* \"#utility.yul\":7313:7326   */\n      iszero\n        /* \"#utility.yul\":7306:7327   */\n      iszero\n        /* \"#utility.yul\":7295:7327   */\n      swap1\n      pop\n        /* \"#utility.yul\":7243:7333   */\n      swap2\n      swap1\n      pop\n      jump\t// out\n        /* \"#utility.yul\":7339:7455   */\n    tag_219:\n        /* \"#utility.yul\":7409:7430   */\n      tag_301\n        /* \"#utility.yul\":7424:7429   */\n      dup2\n        /* \"#utility.yul\":7409:7430   */\n      tag_218\n      jump\t// in\n    tag_301:\n        /* \"#utility.yul\":7402:7407   */\n      dup2\n        /* \"#utility.yul\":7399:7431   */\n      eq\n        /* \"#utility.yul\":7389:7449   */\n      tag_302\n      jumpi\n        /* \"#utility.yul\":7445:7446   */\n      0x00\n        /* \"#utility.yul\":7442:7443   */\n      dup1\n        /* \"#utility.yul\":7435:7447   */\n      revert\n        /* \"#utility.yul\":7389:7449   */\n    tag_302:\n        /* \"#utility.yul\":7339:7455   */\n      pop\n      jump\t// out\n        /* \"#utility.yul\":7461:7598   */\n    tag_220:\n        /* \"#utility.yul\":7515:7520   */\n      0x00\n        /* \"#utility.yul\":7546:7552   */\n      dup2\n        /* \"#utility.yul\":7540:7553   */\n      mload\n        /* \"#utility.yul\":7531:7553   */\n      swap1\n      pop\n        /* \"#utility.yul\":7562:7592   */\n      tag_304\n        /* \"#utility.yul\":7586:7591   */\n      dup2\n        /* \"#utility.yul\":7562:7592   */\n      tag_219\n      jump\t// in\n    tag_304:\n        /* \"#utility.yul\":7461:7598   */\n      swap3\n      swap2\n      pop\n      pop\n      jump\t// out\n        /* \"#utility.yul\":7604:7949   */\n    tag_73:\n        /* \"#utility.yul\":7671:7677   */\n      0x00\n        /* \"#utility.yul\":7720:7722   */\n      0x20\n        /* \"#utility.yul\":7708:7717   */\n      dup3\n        /* \"#utility.yul\":7699:7706   */\n      dup5\n        /* \"#utility.yul\":7695:7718   */\n      sub\n        /* \"#utility.yul\":7691:7723   */\n      slt\n        /* \"#utility.yul\":7688:7807   */\n      iszero\n      tag_306\n      jumpi\n        /* \"#utility.yul\":7726:7805   */\n      tag_307\n      tag_202\n      jump\t// in\n    tag_307:\n        /* \"#utility.yul\":7688:7807   */\n    tag_306:\n        /* \"#utility.yul\":7846:7847   */\n      0x00\n        /* \"#utility.yul\":7871:7932   */\n      tag_308\n        /* \"#utility.yul\":7924:7931   */\n      dup5\n        /* \"#utility.yul\":7915:7921   */\n      dup3\n        /* \"#utility.yul\":7904:7913   */\n      dup6\n        /* \"#utility.yul\":7900:7922   */\n      add\n        /* \"#utility.yul\":7871:7932   */\n      tag_220\n      jump\t// in\n    tag_308:\n        /* \"#utility.yul\":7861:7932   */\n      swap2\n      pop\n        /* \"#utility.yul\":7817:7942   */\n      pop\n        /* \"#utility.yul\":7604:7949   */\n      swap3\n      swap2\n      pop\n      pop\n      jump\t// out\n        /* \"#utility.yul\":7955:8149   */\n    tag_83:\n        /* \"#utility.yul\":7995:7999   */\n      0x00\n        /* \"#utility.yul\":8015:8035   */\n      tag_310\n        /* \"#utility.yul\":8033:8034   */\n      dup3\n        /* \"#utility.yul\":8015:8035   */\n      tag_206\n      jump\t// in\n    tag_310:\n        /* \"#utility.yul\":8010:8035   */\n      swap2\n      pop\n        /* \"#utility.yul\":8049:8069   */\n      tag_311\n        /* \"#utility.yul\":8067:8068   */\n      dup4\n        /* \"#utility.yul\":8049:8069   */\n      tag_206\n      jump\t// in\n    tag_311:\n        /* \"#utility.yul\":8044:8069   */\n      swap3\n      pop\n        /* \"#utility.yul\":8093:8094   */\n      dup3\n        /* \"#utility.yul\":8090:8091   */\n      dup3\n        /* \"#utility.yul\":8086:8095   */\n      sub\n        /* \"#utility.yul\":8078:8095   */\n      swap1\n      pop\n        /* \"#utility.yul\":8117:8118   */\n      dup2\n        /* \"#utility.yul\":8111:8115   */\n      dup2\n        /* \"#utility.yul\":8108:8119   */\n      gt\n        /* \"#utility.yul\":8105:8142   */\n      iszero\n      tag_312\n      jumpi\n        /* \"#utility.yul\":8122:8140   */\n      tag_313\n      tag_213\n      jump\t// in\n    tag_313:\n        /* \"#utility.yul\":8105:8142   */\n    tag_312:\n        /* \"#utility.yul\":7955:8149   */\n      swap3\n      swap2\n      pop\n      pop\n      jump\t// out\n        /* \"#utility.yul\":8155:8487   */\n    tag_87:\n        /* \"#utility.yul\":8276:8280   */\n      0x00\n        /* \"#utility.yul\":8314:8316   */\n      0x40\n        /* \"#utility.yul\":8303:8312   */\n      dup3\n        /* \"#utility.yul\":8299:8317   */\n      add\n        /* \"#utility.yul\":8291:8317   */\n      swap1\n      pop\n        /* \"#utility.yul\":8327:8398   */\n      tag_315\n        /* \"#utility.yul\":8395:8396   */\n      0x00\n        /* \"#utility.yul\":8384:8393   */\n      dup4\n        /* \"#utility.yul\":8380:8397   */\n      add\n        /* \"#utility.yul\":8371:8377   */\n      dup6\n        /* \"#utility.yul\":8327:8398   */\n      tag_200\n      jump\t// in\n    tag_315:\n        /* \"#utility.yul\":8408:8480   */\n      tag_316\n        /* \"#utility.yul\":8476:8478   */\n      0x20\n        /* \"#utility.yul\":8465:8474   */\n      dup4\n        /* \"#utility.yul\":8461:8479   */\n      add\n        /* \"#utility.yul\":8452:8458   */\n      dup5\n        /* \"#utility.yul\":8408:8480   */\n      tag_207\n      jump\t// in\n    tag_316:\n        /* \"#utility.yul\":8155:8487   */\n      swap4\n      swap3\n      pop\n      pop\n      pop\n      jump\t// out\n        /* \"#utility.yul\":8493:8684   */\n    tag_108:\n        /* \"#utility.yul\":8533:8536   */\n      0x00\n        /* \"#utility.yul\":8552:8572   */\n      tag_318\n        /* \"#utility.yul\":8570:8571   */\n      dup3\n        /* \"#utility.yul\":8552:8572   */\n      tag_206\n      jump\t// in\n    tag_318:\n        /* \"#utility.yul\":8547:8572   */\n      swap2\n      pop\n        /* \"#utility.yul\":8586:8606   */\n      tag_319\n        /* \"#utility.yul\":8604:8605   */\n      dup4\n        /* \"#utility.yul\":8586:8606   */\n      tag_206\n      jump\t// in\n    tag_319:\n        /* \"#utility.yul\":8581:8606   */\n      swap3\n      pop\n        /* \"#utility.yul\":8629:8630   */\n      dup3\n        /* \"#utility.yul\":8626:8627   */\n      dup3\n        /* \"#utility.yul\":8622:8631   */\n      add\n        /* \"#utility.yul\":8615:8631   */\n      swap1\n      pop\n        /* \"#utility.yul\":8650:8653   */\n      dup1\n        /* \"#utility.yul\":8647:8648   */\n      dup3\n        /* \"#utility.yul\":8644:8654   */\n      gt\n        /* \"#utility.yul\":8641:8677   */\n      iszero\n      tag_320\n      jumpi\n        /* \"#utility.yul\":8657:8675   */\n      tag_321\n      tag_213\n      jump\t// in\n    tag_321:\n        /* \"#utility.yul\":8641:8677   */\n    tag_320:\n        /* \"#utility.yul\":8493:8684   */\n      swap3\n      swap2\n      pop\n      pop\n      jump\t// out\n        /* \"#utility.yul\":8690:8870   */\n    tag_154:\n        /* \"#utility.yul\":8738:8815   */\n      0x4e487b7100000000000000000000000000000000000000000000000000000000\n        /* \"#utility.yul\":8735:8736   */\n      0x00\n        /* \"#utility.yul\":8728:8816   */\n      mstore\n        /* \"#utility.yul\":8835:8839   */\n      0x32\n        /* \"#utility.yul\":8832:8833   */\n      0x04\n        /* \"#utility.yul\":8825:8840   */\n      mstore\n        /* \"#utility.yul\":8859:8863   */\n      0x24\n        /* \"#utility.yul\":8856:8857   */\n      0x00\n        /* \"#utility.yul\":8849:8864   */\n      revert\n        /* \"#utility.yul\":8876:9048   */\n    tag_221:\n        /* \"#utility.yul\":9016:9040   */\n      0x4e6f206c697175696469747920617661696c61626c6500000000000000000000\n        /* \"#utility.yul\":9012:9013   */\n      0x00\n        /* \"#utility.yul\":9004:9010   */\n      dup3\n        /* \"#utility.yul\":9000:9014   */\n      add\n        /* \"#utility.yul\":8993:9041   */\n      mstore\n        /* \"#utility.yul\":8876:9048   */\n      pop\n      jump\t// out\n        /* \"#utility.yul\":9054:9420   */\n    tag_222:\n        /* \"#utility.yul\":9196:9199   */\n      0x00\n        /* \"#utility.yul\":9217:9284   */\n      tag_325\n        /* \"#utility.yul\":9281:9283   */\n      0x16\n        /* \"#utility.yul\":9276:9279   */\n      dup4\n        /* \"#utility.yul\":9217:9284   */\n      tag_210\n      jump\t// in\n    tag_325:\n        /* \"#utility.yul\":9210:9284   */\n      swap2\n      pop\n        /* \"#utility.yul\":9293:9386   */\n      tag_326\n        /* \"#utility.yul\":9382:9385   */\n      dup3\n        /* \"#utility.yul\":9293:9386   */\n      tag_221\n      jump\t// in\n    tag_326:\n        /* \"#utility.yul\":9411:9413   */\n      0x20\n        /* \"#utility.yul\":9406:9409   */\n      dup3\n        /* \"#utility.yul\":9402:9414   */\n      add\n        /* \"#utility.yul\":9395:9414   */\n      swap1\n      pop\n        /* \"#utility.yul\":9054:9420   */\n      swap2\n      swap1\n      pop\n      jump\t// out\n        /* \"#utility.yul\":9426:9845   */\n    tag_173:\n        /* \"#utility.yul\":9592:9596   */\n      0x00\n        /* \"#utility.yul\":9630:9632   */\n      0x20\n        /* \"#utility.yul\":9619:9628   */\n      dup3\n        /* \"#utility.yul\":9615:9633   */\n      add\n        /* \"#utility.yul\":9607:9633   */\n      swap1\n      pop\n        /* \"#utility.yul\":9679:9688   */\n      dup2\n        /* \"#utility.yul\":9673:9677   */\n      dup2\n        /* \"#utility.yul\":9669:9689   */\n      sub\n        /* \"#utility.yul\":9665:9666   */\n      0x00\n        /* \"#utility.yul\":9654:9663   */\n      dup4\n        /* \"#utility.yul\":9650:9667   */\n      add\n        /* \"#utility.yul\":9643:9690   */\n      mstore\n        /* \"#utility.yul\":9707:9838   */\n      tag_328\n        /* \"#utility.yul\":9833:9837   */\n      dup2\n        /* \"#utility.yul\":9707:9838   */\n      tag_222\n      jump\t// in\n    tag_328:\n        /* \"#utility.yul\":9699:9838   */\n      swap1\n      pop\n        /* \"#utility.yul\":9426:9845   */\n      swap2\n      swap1\n      pop\n      jump\t// out\n\n    auxdata: 0xa264697066735822122069366f038bca58474f5f6fdbd91b6b4e0d01cbf59f6eae61b1e8121dd23f638d64736f6c63430008180033\n}\n",
				"bytecode": {
					"linkReferences": {},
					"object": "608060405234801562000010575f80fd5b5060405162001c1338038062001c13833981810160405281019062000036919062000162565b825f806101000a81548173ffffffffffffffffffffffffffffffffffffffff021916908373ffffffffffffffffffffffffffffffffffffffff1602179055508160015f6101000a81548173ffffffffffffffffffffffffffffffffffffffff021916908373ffffffffffffffffffffffffffffffffffffffff16021790555080600281905550505050620001bb565b5f80fd5b5f73ffffffffffffffffffffffffffffffffffffffff82169050919050565b5f620000f482620000c9565b9050919050565b6200010681620000e8565b811462000111575f80fd5b50565b5f815190506200012481620000fb565b92915050565b5f819050919050565b6200013e816200012a565b811462000149575f80fd5b50565b5f815190506200015c8162000133565b92915050565b5f805f606084860312156200017c576200017b620000c5565b5b5f6200018b8682870162000114565b93505060206200019e8682870162000114565b9250506040620001b1868287016200014c565b9150509250925092565b611a4a80620001c95f395ff3fe608060405234801561000f575f80fd5b5060043610610091575f3560e01c80637a16af7f116100645780637a16af7f1461012f5780637ea382c11461014b5780637ffdf53e14610155578063d21220a714610173578063d991ee4a1461019157610091565b80630dfe168114610095578063575da5e3146100b35780636342ba4c146100e357806368f8c2a414610113575b5f80fd5b61009d6101c1565b6040516100aa919061152a565b60405180910390f35b6100cd60048036038101906100c89190611571565b6101e4565b6040516100da91906115b4565b60405180910390f35b6100fd60048036038101906100f89190611571565b6101f9565b60405161010a91906115b4565b60405180910390f35b61012d600480360381019061012891906115f7565b61020e565b005b61014960048036038101906101449190611635565b610830565b005b610153610ed5565b005b61015d6113a6565b60405161016a91906115b4565b60405180910390f35b61017b6113ac565b604051610188919061152a565b60405180910390f35b6101ab60048036038101906101a69190611571565b6113d1565b6040516101b891906115b4565b60405180910390f35b5f8054906101000a900473ffffffffffffffffffffffffffffffffffffffff1681565b6004602052805f5260405f205f915090505481565b6006602052805f5260405f205f915090505481565b5f8054906101000a900473ffffffffffffffffffffffffffffffffffffffff1673ffffffffffffffffffffffffffffffffffffffff168273ffffffffffffffffffffffffffffffffffffffff1614806102b3575060015f9054906101000a900473ffffffffffffffffffffffffffffffffffffffff1673ffffffffffffffffffffffffffffffffffffffff168273ffffffffffffffffffffffffffffffffffffffff16145b6102f2576040517f08c379a00000000000000000000000000000000000000000000000000000000081526004016102e9906116cd565b60405180910390fd5b5f805f9054906101000a900473ffffffffffffffffffffffffffffffffffffffff1673ffffffffffffffffffffffffffffffffffffffff168373ffffffffffffffffffffffffffffffffffffffff160361036857600254612710836103579190611718565b6103619190611786565b9050610386565b612710600254836103799190611718565b6103839190611786565b90505b818373ffffffffffffffffffffffffffffffffffffffff166370a08231336040518263ffffffff1660e01b81526004016103c0919061152a565b602060405180830381865afa1580156103db573d5f803e3d5ffd5b505050506040513d601f19601f820116820180604052508101906103ff91906117ca565b1015610440576040517f08c379a00000000000000000000000000000000000000000000000000000000081526004016104379061183f565b60405180910390fd5b8273ffffffffffffffffffffffffffffffffffffffff166323b872dd3330856040518463ffffffff1660e01b815260040161047d9392919061185d565b6020604051808303815f875af1158015610499573d5f803e3d5ffd5b505050506040513d601f19601f820116820180604052508101906104bd91906118c7565b505f805f9054906101000a900473ffffffffffffffffffffffffffffffffffffffff1673ffffffffffffffffffffffffffffffffffffffff166370a08231306040518263ffffffff1660e01b8152600401610518919061152a565b602060405180830381865afa158015610533573d5f803e3d5ffd5b505050506040513d601f19601f8201168201806040525081019061055791906117ca565b90505f60015f9054906101000a900473ffffffffffffffffffffffffffffffffffffffff1673ffffffffffffffffffffffffffffffffffffffff166370a08231306040518263ffffffff1660e01b81526004016105b4919061152a565b602060405180830381865afa1580156105cf573d5f803e3d5ffd5b505050506040513d601f19601f820116820180604052508101906105f391906117ca565b90505f848361060291906118f2565b90505f848361061191906118f2565b90508160045f3073ffffffffffffffffffffffffffffffffffffffff1673ffffffffffffffffffffffffffffffffffffffff1681526020019081526020015f20819055508060055f3073ffffffffffffffffffffffffffffffffffffffff1673ffffffffffffffffffffffffffffffffffffffff1681526020019081526020015f20819055505f8054906101000a900473ffffffffffffffffffffffffffffffffffffffff1673ffffffffffffffffffffffffffffffffffffffff168773ffffffffffffffffffffffffffffffffffffffff160361078b5760015f9054906101000a900473ffffffffffffffffffffffffffffffffffffffff1673ffffffffffffffffffffffffffffffffffffffff1663a9059cbb33876040518363ffffffff1660e01b8152600401610745929190611925565b6020604051808303815f875af1158015610761573d5f803e3d5ffd5b505050506040513d601f19601f8201168201806040525081019061078591906118c7565b50610827565b5f8054906101000a900473ffffffffffffffffffffffffffffffffffffffff1673ffffffffffffffffffffffffffffffffffffffff1663a9059cbb33876040518363ffffffff1660e01b81526004016107e5929190611925565b6020604051808303815f875af1158015610801573d5f803e3d5ffd5b505050506040513d601f19601f8201168201806040525081019061082591906118c7565b505b50505050505050565b5f805f9054906101000a900473ffffffffffffffffffffffffffffffffffffffff1673ffffffffffffffffffffffffffffffffffffffff166370a08231306040518263ffffffff1660e01b815260040161088a919061152a565b602060405180830381865afa1580156108a5573d5f803e3d5ffd5b505050506040513d601f19601f820116820180604052508101906108c991906117ca565b90505f60015f9054906101000a900473ffffffffffffffffffffffffffffffffffffffff1673ffffffffffffffffffffffffffffffffffffffff166370a08231306040518263ffffffff1660e01b8152600401610926919061152a565b602060405180830381865afa158015610941573d5f803e3d5ffd5b505050506040513d601f19601f8201168201806040525081019061096591906117ca565b90505f808311610975575f61099a565b8483610981919061194c565b6127108461098f9190611718565b6109999190611786565b5b90505f8083116109aa575f6109cf565b84836109b6919061194c565b612710846109c49190611718565b6109ce9190611786565b5b9050808211156109f7578383876109e69190611718565b6109f09190611786565b9450610a1a565b80821015610a1957828486610a0c9190611718565b610a169190611786565b95505b5b8560045f3373ffffffffffffffffffffffffffffffffffffffff1673ffffffffffffffffffffffffffffffffffffffff1681526020019081526020015f205f828254610a66919061194c565b925050819055508460055f3373ffffffffffffffffffffffffffffffffffffffff1673ffffffffffffffffffffffffffffffffffffffff1681526020019081526020015f205f828254610ab9919061194c565b925050819055505f8054906101000a900473ffffffffffffffffffffffffffffffffffffffff1673ffffffffffffffffffffffffffffffffffffffff166323b872dd3330896040518463ffffffff1660e01b8152600401610b1c9392919061185d565b6020604051808303815f875af1158015610b38573d5f803e3d5ffd5b505050506040513d601f19601f82011682018060405250810190610b5c91906118c7565b5060015f9054906101000a900473ffffffffffffffffffffffffffffffffffffffff1673ffffffffffffffffffffffffffffffffffffffff166323b872dd3330886040518463ffffffff1660e01b8152600401610bbb9392919061185d565b6020604051808303815f875af1158015610bd7573d5f803e3d5ffd5b505050506040513d601f19601f82011682018060405250810190610bfb91906118c7565b50610c05336113e6565b610c1357610c1233611488565b5b5f805f9054906101000a900473ffffffffffffffffffffffffffffffffffffffff1673ffffffffffffffffffffffffffffffffffffffff166370a08231306040518263ffffffff1660e01b8152600401610c6d919061152a565b602060405180830381865afa158015610c88573d5f803e3d5ffd5b505050506040513d601f19601f82011682018060405250810190610cac91906117ca565b90505f60015f9054906101000a900473ffffffffffffffffffffffffffffffffffffffff1673ffffffffffffffffffffffffffffffffffffffff166370a08231306040518263ffffffff1660e01b8152600401610d09919061152a565b602060405180830381865afa158015610d24573d5f803e3d5ffd5b505050506040513d601f19601f82011682018060405250810190610d4891906117ca565b90505f8161271060025485610d5d9190611718565b610d679190611786565b610d71919061194c565b90505f5b600380549050811015610ec9575f60038281548110610d9757610d9661197f565b5b905f5260205f20015f9054906101000a900473ffffffffffffffffffffffffffffffffffffffff1690505f80841115610e78578360055f8473ffffffffffffffffffffffffffffffffffffffff1673ffffffffffffffffffffffffffffffffffffffff1681526020019081526020015f205461271060025460045f8773ffffffffffffffffffffffffffffffffffffffff1673ffffffffffffffffffffffffffffffffffffffff1681526020019081526020015f2054610e579190611718565b610e619190611786565b610e6b919061194c565b610e759190611786565b90505b8060065f8473ffffffffffffffffffffffffffffffffffffffff1673ffffffffffffffffffffffffffffffffffffffff1681526020019081526020015f208190555050508080600101915050610d75565b50505050505050505050565b5f60045f3373ffffffffffffffffffffffffffffffffffffffff1673ffffffffffffffffffffffffffffffffffffffff1681526020019081526020015f205490505f60055f3373ffffffffffffffffffffffffffffffffffffffff1673ffffffffffffffffffffffffffffffffffffffff1681526020019081526020015f205490505f805f9054906101000a900473ffffffffffffffffffffffffffffffffffffffff1673ffffffffffffffffffffffffffffffffffffffff166370a08231306040518263ffffffff1660e01b8152600401610fb1919061152a565b602060405180830381865afa158015610fcc573d5f803e3d5ffd5b505050506040513d601f19601f82011682018060405250810190610ff091906117ca565b90505f60015f9054906101000a900473ffffffffffffffffffffffffffffffffffffffff1673ffffffffffffffffffffffffffffffffffffffff166370a08231306040518263ffffffff1660e01b815260040161104d919061152a565b602060405180830381865afa158015611068573d5f803e3d5ffd5b505050506040513d601f19601f8201168201806040525081019061108c91906117ca565b90505f84118061109b57505f83115b6110da576040517f08c379a00000000000000000000000000000000000000000000000000000000081526004016110d1906119f6565b60405180910390fd5b5f60065f3373ffffffffffffffffffffffffffffffffffffffff1673ffffffffffffffffffffffffffffffffffffffff1681526020019081526020015f2054836111249190611718565b90505f60065f3373ffffffffffffffffffffffffffffffffffffffff1673ffffffffffffffffffffffffffffffffffffffff1681526020019081526020015f2054836111709190611718565b90505f821115611224575f8054906101000a900473ffffffffffffffffffffffffffffffffffffffff1673ffffffffffffffffffffffffffffffffffffffff1663a9059cbb33846040518363ffffffff1660e01b81526004016111d4929190611925565b6020604051808303815f875af11580156111f0573d5f803e3d5ffd5b505050506040513d601f19601f8201168201806040525081019061121491906118c7565b50818461122191906118f2565b93505b5f8111156112d85760015f9054906101000a900473ffffffffffffffffffffffffffffffffffffffff1673ffffffffffffffffffffffffffffffffffffffff1663a9059cbb33836040518363ffffffff1660e01b8152600401611288929190611925565b6020604051808303815f875af11580156112a4573d5f803e3d5ffd5b505050506040513d601f19601f820116820180604052508101906112c891906118c7565b5080836112d591906118f2565b92505b5f60045f3373ffffffffffffffffffffffffffffffffffffffff1673ffffffffffffffffffffffffffffffffffffffff1681526020019081526020015f20819055505f60055f3373ffffffffffffffffffffffffffffffffffffffff1673ffffffffffffffffffffffffffffffffffffffff1681526020019081526020015f20819055505f60065f3373ffffffffffffffffffffffffffffffffffffffff1673ffffffffffffffffffffffffffffffffffffffff1681526020019081526020015f2081905550505050505050565b60025481565b60015f9054906101000a900473ffffffffffffffffffffffffffffffffffffffff1681565b6005602052805f5260405f205f915090505481565b5f805f90505b60038054905081101561147e578273ffffffffffffffffffffffffffffffffffffffff16600382815481106114245761142361197f565b5b905f5260205f20015f9054906101000a900473ffffffffffffffffffffffffffffffffffffffff1673ffffffffffffffffffffffffffffffffffffffff1603611471576001915050611483565b80806001019150506113ec565b505f90505b919050565b600381908060018154018082558091505060019003905f5260205f20015f9091909190916101000a81548173ffffffffffffffffffffffffffffffffffffffff021916908373ffffffffffffffffffffffffffffffffffffffff16021790555050565b5f73ffffffffffffffffffffffffffffffffffffffff82169050919050565b5f611514826114eb565b9050919050565b6115248161150a565b82525050565b5f60208201905061153d5f83018461151b565b92915050565b5f80fd5b6115508161150a565b811461155a575f80fd5b50565b5f8135905061156b81611547565b92915050565b5f6020828403121561158657611585611543565b5b5f6115938482850161155d565b91505092915050565b5f819050919050565b6115ae8161159c565b82525050565b5f6020820190506115c75f8301846115a5565b92915050565b6115d68161159c565b81146115e0575f80fd5b50565b5f813590506115f1816115cd565b92915050565b5f806040838503121561160d5761160c611543565b5b5f61161a8582860161155d565b925050602061162b858286016115e3565b9150509250929050565b5f806040838503121561164b5761164a611543565b5b5f611658858286016115e3565b9250506020611669858286016115e3565b9150509250929050565b5f82825260208201905092915050565b7f496e76616c696420746f6b656e000000000000000000000000000000000000005f82015250565b5f6116b7600d83611673565b91506116c282611683565b602082019050919050565b5f6020820190508181035f8301526116e4816116ab565b9050919050565b7f4e487b71000000000000000000000000000000000000000000000000000000005f52601160045260245ffd5b5f6117228261159c565b915061172d8361159c565b925082820261173b8161159c565b91508282048414831517611752576117516116eb565b5b5092915050565b7f4e487b71000000000000000000000000000000000000000000000000000000005f52601260045260245ffd5b5f6117908261159c565b915061179b8361159c565b9250826117ab576117aa611759565b5b828204905092915050565b5f815190506117c4816115cd565b92915050565b5f602082840312156117df576117de611543565b5b5f6117ec848285016117b6565b91505092915050565b7f496e73756666696369656e742062616c616e63650000000000000000000000005f82015250565b5f611829601483611673565b9150611834826117f5565b602082019050919050565b5f6020820190508181035f8301526118568161181d565b9050919050565b5f6060820190506118705f83018661151b565b61187d602083018561151b565b61188a60408301846115a5565b949350505050565b5f8115159050919050565b6118a681611892565b81146118b0575f80fd5b50565b5f815190506118c18161189d565b92915050565b5f602082840312156118dc576118db611543565b5b5f6118e9848285016118b3565b91505092915050565b5f6118fc8261159c565b91506119078361159c565b925082820390508181111561191f5761191e6116eb565b5b92915050565b5f6040820190506119385f83018561151b565b61194560208301846115a5565b9392505050565b5f6119568261159c565b91506119618361159c565b9250828201905080821115611979576119786116eb565b5b92915050565b7f4e487b71000000000000000000000000000000000000000000000000000000005f52603260045260245ffd5b7f4e6f206c697175696469747920617661696c61626c65000000000000000000005f82015250565b5f6119e0601683611673565b91506119eb826119ac565b602082019050919050565b5f6020820190508181035f830152611a0d816119d4565b905091905056fea264697066735822122069366f038bca58474f5f6fdbd91b6b4e0d01cbf59f6eae61b1e8121dd23f638d64736f6c63430008180033",
					"opcodes": "PUSH1 0x80 PUSH1 0x40 MSTORE CALLVALUE DUP1 ISZERO PUSH3 0x10 JUMPI PUSH0 DUP1 REVERT JUMPDEST POP PUSH1 0x40 MLOAD PUSH3 0x1C13 CODESIZE SUB DUP1 PUSH3 0x1C13 DUP4 CODECOPY DUP2 DUP2 ADD PUSH1 0x40 MSTORE DUP2 ADD SWAP1 PUSH3 0x36 SWAP2 SWAP1 PUSH3 0x162 JUMP JUMPDEST DUP3 PUSH0 DUP1 PUSH2 0x100 EXP DUP2 SLOAD DUP2 PUSH20 0xFFFFFFFFFFFFFFFFFFFFFFFFFFFFFFFFFFFFFFFF MUL NOT AND SWAP1 DUP4 PUSH20 0xFFFFFFFFFFFFFFFFFFFFFFFFFFFFFFFFFFFFFFFF AND MUL OR SWAP1 SSTORE POP DUP2 PUSH1 0x1 PUSH0 PUSH2 0x100 EXP DUP2 SLOAD DUP2 PUSH20 0xFFFFFFFFFFFFFFFFFFFFFFFFFFFFFFFFFFFFFFFF MUL NOT AND SWAP1 DUP4 PUSH20 0xFFFFFFFFFFFFFFFFFFFFFFFFFFFFFFFFFFFFFFFF AND MUL OR SWAP1 SSTORE POP DUP1 PUSH1 0x2 DUP2 SWAP1 SSTORE POP POP POP POP PUSH3 0x1BB JUMP JUMPDEST PUSH0 DUP1 REVERT JUMPDEST PUSH0 PUSH20 0xFFFFFFFFFFFFFFFFFFFFFFFFFFFFFFFFFFFFFFFF DUP3 AND SWAP1 POP SWAP2 SWAP1 POP JUMP JUMPDEST PUSH0 PUSH3 0xF4 DUP3 PUSH3 0xC9 JUMP JUMPDEST SWAP1 POP SWAP2 SWAP1 POP JUMP JUMPDEST PUSH3 0x106 DUP2 PUSH3 0xE8 JUMP JUMPDEST DUP2 EQ PUSH3 0x111 JUMPI PUSH0 DUP1 REVERT JUMPDEST POP JUMP JUMPDEST PUSH0 DUP2 MLOAD SWAP1 POP PUSH3 0x124 DUP2 PUSH3 0xFB JUMP JUMPDEST SWAP3 SWAP2 POP POP JUMP JUMPDEST PUSH0 DUP2 SWAP1 POP SWAP2 SWAP1 POP JUMP JUMPDEST PUSH3 0x13E DUP2 PUSH3 0x12A JUMP JUMPDEST DUP2 EQ PUSH3 0x149 JUMPI PUSH0 DUP1 REVERT JUMPDEST POP JUMP JUMPDEST PUSH0 DUP2 MLOAD SWAP1 POP PUSH3 0x15C DUP2 PUSH3 0x133 JUMP JUMPDEST SWAP3 SWAP2 POP POP JUMP JUMPDEST PUSH0 DUP1 PUSH0 PUSH1 0x60 DUP5 DUP7 SUB SLT ISZERO PUSH3 0x17C JUMPI PUSH3 0x17B PUSH3 0xC5 JUMP JUMPDEST JUMPDEST PUSH0 PUSH3 0x18B DUP7 DUP3 DUP8 ADD PUSH3 0x114 JUMP JUMPDEST SWAP4 POP POP PUSH1 0x20 PUSH3 0x19E DUP7 DUP3 DUP8 ADD PUSH3 0x114 JUMP JUMPDEST SWAP3 POP POP PUSH1 0x40 PUSH3 0x1B1 DUP7 DUP3 DUP8 ADD PUSH3 0x14C JUMP JUMPDEST SWAP2 POP POP SWAP3 POP SWAP3 POP SWAP3 JUMP JUMPDEST PUSH2 0x1A4A DUP1 PUSH3 0x1C9 PUSH0 CODECOPY PUSH0 RETURN INVALID PUSH1 0x80 PUSH1 0x40 MSTORE CALLVALUE DUP1 ISZERO PUSH2 0xF JUMPI PUSH0 DUP1 REVERT JUMPDEST POP PUSH1 0x4 CALLDATASIZE LT PUSH2 0x91 JUMPI PUSH0 CALLDATALOAD PUSH1 0xE0 SHR DUP1 PUSH4 0x7A16AF7F GT PUSH2 0x64 JUMPI DUP1 PUSH4 0x7A16AF7F EQ PUSH2 0x12F JUMPI DUP1 PUSH4 0x7EA382C1 EQ PUSH2 0x14B JUMPI DUP1 PUSH4 0x7FFDF53E EQ PUSH2 0x155 JUMPI DUP1 PUSH4 0xD21220A7 EQ PUSH2 0x173 JUMPI DUP1 PUSH4 0xD991EE4A EQ PUSH2 0x191 JUMPI PUSH2 0x91 JUMP JUMPDEST DUP1 PUSH4 0xDFE1681 EQ PUSH2 0x95 JUMPI DUP1 PUSH4 0x575DA5E3 EQ PUSH2 0xB3 JUMPI DUP1 PUSH4 0x6342BA4C EQ PUSH2 0xE3 JUMPI DUP1 PUSH4 0x68F8C2A4 EQ PUSH2 0x113 JUMPI JUMPDEST PUSH0 DUP1 REVERT JUMPDEST PUSH2 0x9D PUSH2 0x1C1 JUMP JUMPDEST PUSH1 0x40 MLOAD PUSH2 0xAA SWAP2 SWAP1 PUSH2 0x152A JUMP JUMPDEST PUSH1 0x40 MLOAD DUP1 SWAP2 SUB SWAP1 RETURN JUMPDEST PUSH2 0xCD PUSH1 0x4 DUP1 CALLDATASIZE SUB DUP2 ADD SWAP1 PUSH2 0xC8 SWAP2 SWAP1 PUSH2 0x1571 JUMP JUMPDEST PUSH2 0x1E4 JUMP JUMPDEST PUSH1 0x40 MLOAD PUSH2 0xDA SWAP2 SWAP1 PUSH2 0x15B4 JUMP JUMPDEST PUSH1 0x40 MLOAD DUP1 SWAP2 SUB SWAP1 RETURN JUMPDEST PUSH2 0xFD PUSH1 0x4 DUP1 CALLDATASIZE SUB DUP2 ADD SWAP1 PUSH2 0xF8 SWAP2 SWAP1 PUSH2 0x1571 JUMP JUMPDEST PUSH2 0x1F9 JUMP JUMPDEST PUSH1 0x40 MLOAD PUSH2 0x10A SWAP2 SWAP1 PUSH2 0x15B4 JUMP JUMPDEST PUSH1 0x40 MLOAD DUP1 SWAP2 SUB SWAP1 RETURN JUMPDEST PUSH2 0x12D PUSH1 0x4 DUP1 CALLDATASIZE SUB DUP2 ADD SWAP1 PUSH2 0x128 SWAP2 SWAP1 PUSH2 0x15F7 JUMP JUMPDEST PUSH2 0x20E JUMP JUMPDEST STOP JUMPDEST PUSH2 0x149 PUSH1 0x4 DUP1 CALLDATASIZE SUB DUP2 ADD SWAP1 PUSH2 0x144 SWAP2 SWAP1 PUSH2 0x1635 JUMP JUMPDEST PUSH2 0x830 JUMP JUMPDEST STOP JUMPDEST PUSH2 0x153 PUSH2 0xED5 JUMP JUMPDEST STOP JUMPDEST PUSH2 0x15D PUSH2 0x13A6 JUMP JUMPDEST PUSH1 0x40 MLOAD PUSH2 0x16A SWAP2 SWAP1 PUSH2 0x15B4 JUMP JUMPDEST PUSH1 0x40 MLOAD DUP1 SWAP2 SUB SWAP1 RETURN JUMPDEST PUSH2 0x17B PUSH2 0x13AC JUMP JUMPDEST PUSH1 0x40 MLOAD PUSH2 0x188 SWAP2 SWAP1 PUSH2 0x152A JUMP JUMPDEST PUSH1 0x40 MLOAD DUP1 SWAP2 SUB SWAP1 RETURN JUMPDEST PUSH2 0x1AB PUSH1 0x4 DUP1 CALLDATASIZE SUB DUP2 ADD SWAP1 PUSH2 0x1A6 SWAP2 SWAP1 PUSH2 0x1571 JUMP JUMPDEST PUSH2 0x13D1 JUMP JUMPDEST PUSH1 0x40 MLOAD PUSH2 0x1B8 SWAP2 SWAP1 PUSH2 0x15B4 JUMP JUMPDEST PUSH1 0x40 MLOAD DUP1 SWAP2 SUB SWAP1 RETURN JUMPDEST PUSH0 DUP1 SLOAD SWAP1 PUSH2 0x100 EXP SWAP1 DIV PUSH20 0xFFFFFFFFFFFFFFFFFFFFFFFFFFFFFFFFFFFFFFFF AND DUP2 JUMP JUMPDEST PUSH1 0x4 PUSH1 0x20 MSTORE DUP1 PUSH0 MSTORE PUSH1 0x40 PUSH0 KECCAK256 PUSH0 SWAP2 POP SWAP1 POP SLOAD DUP2 JUMP JUMPDEST PUSH1 0x6 PUSH1 0x20 MSTORE DUP1 PUSH0 MSTORE PUSH1 0x40 PUSH0 KECCAK256 PUSH0 SWAP2 POP SWAP1 POP SLOAD DUP2 JUMP JUMPDEST PUSH0 DUP1 SLOAD SWAP1 PUSH2 0x100 EXP SWAP1 DIV PUSH20 0xFFFFFFFFFFFFFFFFFFFFFFFFFFFFFFFFFFFFFFFF AND PUSH20 0xFFFFFFFFFFFFFFFFFFFFFFFFFFFFFFFFFFFFFFFF AND DUP3 PUSH20 0xFFFFFFFFFFFFFFFFFFFFFFFFFFFFFFFFFFFFFFFF AND EQ DUP1 PUSH2 0x2B3 JUMPI POP PUSH1 0x1 PUSH0 SWAP1 SLOAD SWAP1 PUSH2 0x100 EXP SWAP1 DIV PUSH20 0xFFFFFFFFFFFFFFFFFFFFFFFFFFFFFFFFFFFFFFFF AND PUSH20 0xFFFFFFFFFFFFFFFFFFFFFFFFFFFFFFFFFFFFFFFF AND DUP3 PUSH20 0xFFFFFFFFFFFFFFFFFFFFFFFFFFFFFFFFFFFFFFFF AND EQ JUMPDEST PUSH2 0x2F2 JUMPI PUSH1 0x40 MLOAD PUSH32 0x8C379A000000000000000000000000000000000000000000000000000000000 DUP2 MSTORE PUSH1 0x4 ADD PUSH2 0x2E9 SWAP1 PUSH2 0x16CD JUMP JUMPDEST PUSH1 0x40 MLOAD DUP1 SWAP2 SUB SWAP1 REVERT JUMPDEST PUSH0 DUP1 PUSH0 SWAP1 SLOAD SWAP1 PUSH2 0x100 EXP SWAP1 DIV PUSH20 0xFFFFFFFFFFFFFFFFFFFFFFFFFFFFFFFFFFFFFFFF AND PUSH20 0xFFFFFFFFFFFFFFFFFFFFFFFFFFFFFFFFFFFFFFFF AND DUP4 PUSH20 0xFFFFFFFFFFFFFFFFFFFFFFFFFFFFFFFFFFFFFFFF AND SUB PUSH2 0x368 JUMPI PUSH1 0x2 SLOAD PUSH2 0x2710 DUP4 PUSH2 0x357 SWAP2 SWAP1 PUSH2 0x1718 JUMP JUMPDEST PUSH2 0x361 SWAP2 SWAP1 PUSH2 0x1786 JUMP JUMPDEST SWAP1 POP PUSH2 0x386 JUMP JUMPDEST PUSH2 0x2710 PUSH1 0x2 SLOAD DUP4 PUSH2 0x379 SWAP2 SWAP1 PUSH2 0x1718 JUMP JUMPDEST PUSH2 0x383 SWAP2 SWAP1 PUSH2 0x1786 JUMP JUMPDEST SWAP1 POP JUMPDEST DUP2 DUP4 PUSH20 0xFFFFFFFFFFFFFFFFFFFFFFFFFFFFFFFFFFFFFFFF AND PUSH4 0x70A08231 CALLER PUSH1 0x40 MLOAD DUP3 PUSH4 0xFFFFFFFF AND PUSH1 0xE0 SHL DUP2 MSTORE PUSH1 0x4 ADD PUSH2 0x3C0 SWAP2 SWAP1 PUSH2 0x152A JUMP JUMPDEST PUSH1 0x20 PUSH1 0x40 MLOAD DUP1 DUP4 SUB DUP2 DUP7 GAS STATICCALL ISZERO DUP1 ISZERO PUSH2 0x3DB JUMPI RETURNDATASIZE PUSH0 DUP1 RETURNDATACOPY RETURNDATASIZE PUSH0 REVERT JUMPDEST POP POP POP POP PUSH1 0x40 MLOAD RETURNDATASIZE PUSH1 0x1F NOT PUSH1 0x1F DUP3 ADD AND DUP3 ADD DUP1 PUSH1 0x40 MSTORE POP DUP2 ADD SWAP1 PUSH2 0x3FF SWAP2 SWAP1 PUSH2 0x17CA JUMP JUMPDEST LT ISZERO PUSH2 0x440 JUMPI PUSH1 0x40 MLOAD PUSH32 0x8C379A000000000000000000000000000000000000000000000000000000000 DUP2 MSTORE PUSH1 0x4 ADD PUSH2 0x437 SWAP1 PUSH2 0x183F JUMP JUMPDEST PUSH1 0x40 MLOAD DUP1 SWAP2 SUB SWAP1 REVERT JUMPDEST DUP3 PUSH20 0xFFFFFFFFFFFFFFFFFFFFFFFFFFFFFFFFFFFFFFFF AND PUSH4 0x23B872DD CALLER ADDRESS DUP6 PUSH1 0x40 MLOAD DUP5 PUSH4 0xFFFFFFFF AND PUSH1 0xE0 SHL DUP2 MSTORE PUSH1 0x4 ADD PUSH2 0x47D SWAP4 SWAP3 SWAP2 SWAP1 PUSH2 0x185D JUMP JUMPDEST PUSH1 0x20 PUSH1 0x40 MLOAD DUP1 DUP4 SUB DUP2 PUSH0 DUP8 GAS CALL ISZERO DUP1 ISZERO PUSH2 0x499 JUMPI RETURNDATASIZE PUSH0 DUP1 RETURNDATACOPY RETURNDATASIZE PUSH0 REVERT JUMPDEST POP POP POP POP PUSH1 0x40 MLOAD RETURNDATASIZE PUSH1 0x1F NOT PUSH1 0x1F DUP3 ADD AND DUP3 ADD DUP1 PUSH1 0x40 MSTORE POP DUP2 ADD SWAP1 PUSH2 0x4BD SWAP2 SWAP1 PUSH2 0x18C7 JUMP JUMPDEST POP PUSH0 DUP1 PUSH0 SWAP1 SLOAD SWAP1 PUSH2 0x100 EXP SWAP1 DIV PUSH20 0xFFFFFFFFFFFFFFFFFFFFFFFFFFFFFFFFFFFFFFFF AND PUSH20 0xFFFFFFFFFFFFFFFFFFFFFFFFFFFFFFFFFFFFFFFF AND PUSH4 0x70A08231 ADDRESS PUSH1 0x40 MLOAD DUP3 PUSH4 0xFFFFFFFF AND PUSH1 0xE0 SHL DUP2 MSTORE PUSH1 0x4 ADD PUSH2 0x518 SWAP2 SWAP1 PUSH2 0x152A JUMP JUMPDEST PUSH1 0x20 PUSH1 0x40 MLOAD DUP1 DUP4 SUB DUP2 DUP7 GAS STATICCALL ISZERO DUP1 ISZERO PUSH2 0x533 JUMPI RETURNDATASIZE PUSH0 DUP1 RETURNDATACOPY RETURNDATASIZE PUSH0 REVERT JUMPDEST POP POP POP POP PUSH1 0x40 MLOAD RETURNDATASIZE PUSH1 0x1F NOT PUSH1 0x1F DUP3 ADD AND DUP3 ADD DUP1 PUSH1 0x40 MSTORE POP DUP2 ADD SWAP1 PUSH2 0x557 SWAP2 SWAP1 PUSH2 0x17CA JUMP JUMPDEST SWAP1 POP PUSH0 PUSH1 0x1 PUSH0 SWAP1 SLOAD SWAP1 PUSH2 0x100 EXP SWAP1 DIV PUSH20 0xFFFFFFFFFFFFFFFFFFFFFFFFFFFFFFFFFFFFFFFF AND PUSH20 0xFFFFFFFFFFFFFFFFFFFFFFFFFFFFFFFFFFFFFFFF AND PUSH4 0x70A08231 ADDRESS PUSH1 0x40 MLOAD DUP3 PUSH4 0xFFFFFFFF AND PUSH1 0xE0 SHL DUP2 MSTORE PUSH1 0x4 ADD PUSH2 0x5B4 SWAP2 SWAP1 PUSH2 0x152A JUMP JUMPDEST PUSH1 0x20 PUSH1 0x40 MLOAD DUP1 DUP4 SUB DUP2 DUP7 GAS STATICCALL ISZERO DUP1 ISZERO PUSH2 0x5CF JUMPI RETURNDATASIZE PUSH0 DUP1 RETURNDATACOPY RETURNDATASIZE PUSH0 REVERT JUMPDEST POP POP POP POP PUSH1 0x40 MLOAD RETURNDATASIZE PUSH1 0x1F NOT PUSH1 0x1F DUP3 ADD AND DUP3 ADD DUP1 PUSH1 0x40 MSTORE POP DUP2 ADD SWAP1 PUSH2 0x5F3 SWAP2 SWAP1 PUSH2 0x17CA JUMP JUMPDEST SWAP1 POP PUSH0 DUP5 DUP4 PUSH2 0x602 SWAP2 SWAP1 PUSH2 0x18F2 JUMP JUMPDEST SWAP1 POP PUSH0 DUP5 DUP4 PUSH2 0x611 SWAP2 SWAP1 PUSH2 0x18F2 JUMP JUMPDEST SWAP1 POP DUP2 PUSH1 0x4 PUSH0 ADDRESS PUSH20 0xFFFFFFFFFFFFFFFFFFFFFFFFFFFFFFFFFFFFFFFF AND PUSH20 0xFFFFFFFFFFFFFFFFFFFFFFFFFFFFFFFFFFFFFFFF AND DUP2 MSTORE PUSH1 0x20 ADD SWAP1 DUP2 MSTORE PUSH1 0x20 ADD PUSH0 KECCAK256 DUP2 SWAP1 SSTORE POP DUP1 PUSH1 0x5 PUSH0 ADDRESS PUSH20 0xFFFFFFFFFFFFFFFFFFFFFFFFFFFFFFFFFFFFFFFF AND PUSH20 0xFFFFFFFFFFFFFFFFFFFFFFFFFFFFFFFFFFFFFFFF AND DUP2 MSTORE PUSH1 0x20 ADD SWAP1 DUP2 MSTORE PUSH1 0x20 ADD PUSH0 KECCAK256 DUP2 SWAP1 SSTORE POP PUSH0 DUP1 SLOAD SWAP1 PUSH2 0x100 EXP SWAP1 DIV PUSH20 0xFFFFFFFFFFFFFFFFFFFFFFFFFFFFFFFFFFFFFFFF AND PUSH20 0xFFFFFFFFFFFFFFFFFFFFFFFFFFFFFFFFFFFFFFFF AND DUP8 PUSH20 0xFFFFFFFFFFFFFFFFFFFFFFFFFFFFFFFFFFFFFFFF AND SUB PUSH2 0x78B JUMPI PUSH1 0x1 PUSH0 SWAP1 SLOAD SWAP1 PUSH2 0x100 EXP SWAP1 DIV PUSH20 0xFFFFFFFFFFFFFFFFFFFFFFFFFFFFFFFFFFFFFFFF AND PUSH20 0xFFFFFFFFFFFFFFFFFFFFFFFFFFFFFFFFFFFFFFFF AND PUSH4 0xA9059CBB CALLER DUP8 PUSH1 0x40 MLOAD DUP4 PUSH4 0xFFFFFFFF AND PUSH1 0xE0 SHL DUP2 MSTORE PUSH1 0x4 ADD PUSH2 0x745 SWAP3 SWAP2 SWAP1 PUSH2 0x1925 JUMP JUMPDEST PUSH1 0x20 PUSH1 0x40 MLOAD DUP1 DUP4 SUB DUP2 PUSH0 DUP8 GAS CALL ISZERO DUP1 ISZERO PUSH2 0x761 JUMPI RETURNDATASIZE PUSH0 DUP1 RETURNDATACOPY RETURNDATASIZE PUSH0 REVERT JUMPDEST POP POP POP POP PUSH1 0x40 MLOAD RETURNDATASIZE PUSH1 0x1F NOT PUSH1 0x1F DUP3 ADD AND DUP3 ADD DUP1 PUSH1 0x40 MSTORE POP DUP2 ADD SWAP1 PUSH2 0x785 SWAP2 SWAP1 PUSH2 0x18C7 JUMP JUMPDEST POP PUSH2 0x827 JUMP JUMPDEST PUSH0 DUP1 SLOAD SWAP1 PUSH2 0x100 EXP SWAP1 DIV PUSH20 0xFFFFFFFFFFFFFFFFFFFFFFFFFFFFFFFFFFFFFFFF AND PUSH20 0xFFFFFFFFFFFFFFFFFFFFFFFFFFFFFFFFFFFFFFFF AND PUSH4 0xA9059CBB CALLER DUP8 PUSH1 0x40 MLOAD DUP4 PUSH4 0xFFFFFFFF AND PUSH1 0xE0 SHL DUP2 MSTORE PUSH1 0x4 ADD PUSH2 0x7E5 SWAP3 SWAP2 SWAP1 PUSH2 0x1925 JUMP JUMPDEST PUSH1 0x20 PUSH1 0x40 MLOAD DUP1 DUP4 SUB DUP2 PUSH0 DUP8 GAS CALL ISZERO DUP1 ISZERO PUSH2 0x801 JUMPI RETURNDATASIZE PUSH0 DUP1 RETURNDATACOPY RETURNDATASIZE PUSH0 REVERT JUMPDEST POP POP POP POP PUSH1 0x40 MLOAD RETURNDATASIZE PUSH1 0x1F NOT PUSH1 0x1F DUP3 ADD AND DUP3 ADD DUP1 PUSH1 0x40 MSTORE POP DUP2 ADD SWAP1 PUSH2 0x825 SWAP2 SWAP1 PUSH2 0x18C7 JUMP JUMPDEST POP JUMPDEST POP POP POP POP POP POP POP JUMP JUMPDEST PUSH0 DUP1 PUSH0 SWAP1 SLOAD SWAP1 PUSH2 0x100 EXP SWAP1 DIV PUSH20 0xFFFFFFFFFFFFFFFFFFFFFFFFFFFFFFFFFFFFFFFF AND PUSH20 0xFFFFFFFFFFFFFFFFFFFFFFFFFFFFFFFFFFFFFFFF AND PUSH4 0x70A08231 ADDRESS PUSH1 0x40 MLOAD DUP3 PUSH4 0xFFFFFFFF AND PUSH1 0xE0 SHL DUP2 MSTORE PUSH1 0x4 ADD PUSH2 0x88A SWAP2 SWAP1 PUSH2 0x152A JUMP JUMPDEST PUSH1 0x20 PUSH1 0x40 MLOAD DUP1 DUP4 SUB DUP2 DUP7 GAS STATICCALL ISZERO DUP1 ISZERO PUSH2 0x8A5 JUMPI RETURNDATASIZE PUSH0 DUP1 RETURNDATACOPY RETURNDATASIZE PUSH0 REVERT JUMPDEST POP POP POP POP PUSH1 0x40 MLOAD RETURNDATASIZE PUSH1 0x1F NOT PUSH1 0x1F DUP3 ADD AND DUP3 ADD DUP1 PUSH1 0x40 MSTORE POP DUP2 ADD SWAP1 PUSH2 0x8C9 SWAP2 SWAP1 PUSH2 0x17CA JUMP JUMPDEST SWAP1 POP PUSH0 PUSH1 0x1 PUSH0 SWAP1 SLOAD SWAP1 PUSH2 0x100 EXP SWAP1 DIV PUSH20 0xFFFFFFFFFFFFFFFFFFFFFFFFFFFFFFFFFFFFFFFF AND PUSH20 0xFFFFFFFFFFFFFFFFFFFFFFFFFFFFFFFFFFFFFFFF AND PUSH4 0x70A08231 ADDRESS PUSH1 0x40 MLOAD DUP3 PUSH4 0xFFFFFFFF AND PUSH1 0xE0 SHL DUP2 MSTORE PUSH1 0x4 ADD PUSH2 0x926 SWAP2 SWAP1 PUSH2 0x152A JUMP JUMPDEST PUSH1 0x20 PUSH1 0x40 MLOAD DUP1 DUP4 SUB DUP2 DUP7 GAS STATICCALL ISZERO DUP1 ISZERO PUSH2 0x941 JUMPI RETURNDATASIZE PUSH0 DUP1 RETURNDATACOPY RETURNDATASIZE PUSH0 REVERT JUMPDEST POP POP POP POP PUSH1 0x40 MLOAD RETURNDATASIZE PUSH1 0x1F NOT PUSH1 0x1F DUP3 ADD AND DUP3 ADD DUP1 PUSH1 0x40 MSTORE POP DUP2 ADD SWAP1 PUSH2 0x965 SWAP2 SWAP1 PUSH2 0x17CA JUMP JUMPDEST SWAP1 POP PUSH0 DUP1 DUP4 GT PUSH2 0x975 JUMPI PUSH0 PUSH2 0x99A JUMP JUMPDEST DUP5 DUP4 PUSH2 0x981 SWAP2 SWAP1 PUSH2 0x194C JUMP JUMPDEST PUSH2 0x2710 DUP5 PUSH2 0x98F SWAP2 SWAP1 PUSH2 0x1718 JUMP JUMPDEST PUSH2 0x999 SWAP2 SWAP1 PUSH2 0x1786 JUMP JUMPDEST JUMPDEST SWAP1 POP PUSH0 DUP1 DUP4 GT PUSH2 0x9AA JUMPI PUSH0 PUSH2 0x9CF JUMP JUMPDEST DUP5 DUP4 PUSH2 0x9B6 SWAP2 SWAP1 PUSH2 0x194C JUMP JUMPDEST PUSH2 0x2710 DUP5 PUSH2 0x9C4 SWAP2 SWAP1 PUSH2 0x1718 JUMP JUMPDEST PUSH2 0x9CE SWAP2 SWAP1 PUSH2 0x1786 JUMP JUMPDEST JUMPDEST SWAP1 POP DUP1 DUP3 GT ISZERO PUSH2 0x9F7 JUMPI DUP4 DUP4 DUP8 PUSH2 0x9E6 SWAP2 SWAP1 PUSH2 0x1718 JUMP JUMPDEST PUSH2 0x9F0 SWAP2 SWAP1 PUSH2 0x1786 JUMP JUMPDEST SWAP5 POP PUSH2 0xA1A JUMP JUMPDEST DUP1 DUP3 LT ISZERO PUSH2 0xA19 JUMPI DUP3 DUP5 DUP7 PUSH2 0xA0C SWAP2 SWAP1 PUSH2 0x1718 JUMP JUMPDEST PUSH2 0xA16 SWAP2 SWAP1 PUSH2 0x1786 JUMP JUMPDEST SWAP6 POP JUMPDEST JUMPDEST DUP6 PUSH1 0x4 PUSH0 CALLER PUSH20 0xFFFFFFFFFFFFFFFFFFFFFFFFFFFFFFFFFFFFFFFF AND PUSH20 0xFFFFFFFFFFFFFFFFFFFFFFFFFFFFFFFFFFFFFFFF AND DUP2 MSTORE PUSH1 0x20 ADD SWAP1 DUP2 MSTORE PUSH1 0x20 ADD PUSH0 KECCAK256 PUSH0 DUP3 DUP3 SLOAD PUSH2 0xA66 SWAP2 SWAP1 PUSH2 0x194C JUMP JUMPDEST SWAP3 POP POP DUP2 SWAP1 SSTORE POP DUP5 PUSH1 0x5 PUSH0 CALLER PUSH20 0xFFFFFFFFFFFFFFFFFFFFFFFFFFFFFFFFFFFFFFFF AND PUSH20 0xFFFFFFFFFFFFFFFFFFFFFFFFFFFFFFFFFFFFFFFF AND DUP2 MSTORE PUSH1 0x20 ADD SWAP1 DUP2 MSTORE PUSH1 0x20 ADD PUSH0 KECCAK256 PUSH0 DUP3 DUP3 SLOAD PUSH2 0xAB9 SWAP2 SWAP1 PUSH2 0x194C JUMP JUMPDEST SWAP3 POP POP DUP2 SWAP1 SSTORE POP PUSH0 DUP1 SLOAD SWAP1 PUSH2 0x100 EXP SWAP1 DIV PUSH20 0xFFFFFFFFFFFFFFFFFFFFFFFFFFFFFFFFFFFFFFFF AND PUSH20 0xFFFFFFFFFFFFFFFFFFFFFFFFFFFFFFFFFFFFFFFF AND PUSH4 0x23B872DD CALLER ADDRESS DUP10 PUSH1 0x40 MLOAD DUP5 PUSH4 0xFFFFFFFF AND PUSH1 0xE0 SHL DUP2 MSTORE PUSH1 0x4 ADD PUSH2 0xB1C SWAP4 SWAP3 SWAP2 SWAP1 PUSH2 0x185D JUMP JUMPDEST PUSH1 0x20 PUSH1 0x40 MLOAD DUP1 DUP4 SUB DUP2 PUSH0 DUP8 GAS CALL ISZERO DUP1 ISZERO PUSH2 0xB38 JUMPI RETURNDATASIZE PUSH0 DUP1 RETURNDATACOPY RETURNDATASIZE PUSH0 REVERT JUMPDEST POP POP POP POP PUSH1 0x40 MLOAD RETURNDATASIZE PUSH1 0x1F NOT PUSH1 0x1F DUP3 ADD AND DUP3 ADD DUP1 PUSH1 0x40 MSTORE POP DUP2 ADD SWAP1 PUSH2 0xB5C SWAP2 SWAP1 PUSH2 0x18C7 JUMP JUMPDEST POP PUSH1 0x1 PUSH0 SWAP1 SLOAD SWAP1 PUSH2 0x100 EXP SWAP1 DIV PUSH20 0xFFFFFFFFFFFFFFFFFFFFFFFFFFFFFFFFFFFFFFFF AND PUSH20 0xFFFFFFFFFFFFFFFFFFFFFFFFFFFFFFFFFFFFFFFF AND PUSH4 0x23B872DD CALLER ADDRESS DUP9 PUSH1 0x40 MLOAD DUP5 PUSH4 0xFFFFFFFF AND PUSH1 0xE0 SHL DUP2 MSTORE PUSH1 0x4 ADD PUSH2 0xBBB SWAP4 SWAP3 SWAP2 SWAP1 PUSH2 0x185D JUMP JUMPDEST PUSH1 0x20 PUSH1 0x40 MLOAD DUP1 DUP4 SUB DUP2 PUSH0 DUP8 GAS CALL ISZERO DUP1 ISZERO PUSH2 0xBD7 JUMPI RETURNDATASIZE PUSH0 DUP1 RETURNDATACOPY RETURNDATASIZE PUSH0 REVERT JUMPDEST POP POP POP POP PUSH1 0x40 MLOAD RETURNDATASIZE PUSH1 0x1F NOT PUSH1 0x1F DUP3 ADD AND DUP3 ADD DUP1 PUSH1 0x40 MSTORE POP DUP2 ADD SWAP1 PUSH2 0xBFB SWAP2 SWAP1 PUSH2 0x18C7 JUMP JUMPDEST POP PUSH2 0xC05 CALLER PUSH2 0x13E6 JUMP JUMPDEST PUSH2 0xC13 JUMPI PUSH2 0xC12 CALLER PUSH2 0x1488 JUMP JUMPDEST JUMPDEST PUSH0 DUP1 PUSH0 SWAP1 SLOAD SWAP1 PUSH2 0x100 EXP SWAP1 DIV PUSH20 0xFFFFFFFFFFFFFFFFFFFFFFFFFFFFFFFFFFFFFFFF AND PUSH20 0xFFFFFFFFFFFFFFFFFFFFFFFFFFFFFFFFFFFFFFFF AND PUSH4 0x70A08231 ADDRESS PUSH1 0x40 MLOAD DUP3 PUSH4 0xFFFFFFFF AND PUSH1 0xE0 SHL DUP2 MSTORE PUSH1 0x4 ADD PUSH2 0xC6D SWAP2 SWAP1 PUSH2 0x152A JUMP JUMPDEST PUSH1 0x20 PUSH1 0x40 MLOAD DUP1 DUP4 SUB DUP2 DUP7 GAS STATICCALL ISZERO DUP1 ISZERO PUSH2 0xC88 JUMPI RETURNDATASIZE PUSH0 DUP1 RETURNDATACOPY RETURNDATASIZE PUSH0 REVERT JUMPDEST POP POP POP POP PUSH1 0x40 MLOAD RETURNDATASIZE PUSH1 0x1F NOT PUSH1 0x1F DUP3 ADD AND DUP3 ADD DUP1 PUSH1 0x40 MSTORE POP DUP2 ADD SWAP1 PUSH2 0xCAC SWAP2 SWAP1 PUSH2 0x17CA JUMP JUMPDEST SWAP1 POP PUSH0 PUSH1 0x1 PUSH0 SWAP1 SLOAD SWAP1 PUSH2 0x100 EXP SWAP1 DIV PUSH20 0xFFFFFFFFFFFFFFFFFFFFFFFFFFFFFFFFFFFFFFFF AND PUSH20 0xFFFFFFFFFFFFFFFFFFFFFFFFFFFFFFFFFFFFFFFF AND PUSH4 0x70A08231 ADDRESS PUSH1 0x40 MLOAD DUP3 PUSH4 0xFFFFFFFF AND PUSH1 0xE0 SHL DUP2 MSTORE PUSH1 0x4 ADD PUSH2 0xD09 SWAP2 SWAP1 PUSH2 0x152A JUMP JUMPDEST PUSH1 0x20 PUSH1 0x40 MLOAD DUP1 DUP4 SUB DUP2 DUP7 GAS STATICCALL ISZERO DUP1 ISZERO PUSH2 0xD24 JUMPI RETURNDATASIZE PUSH0 DUP1 RETURNDATACOPY RETURNDATASIZE PUSH0 REVERT JUMPDEST POP POP POP POP PUSH1 0x40 MLOAD RETURNDATASIZE PUSH1 0x1F NOT PUSH1 0x1F DUP3 ADD AND DUP3 ADD DUP1 PUSH1 0x40 MSTORE POP DUP2 ADD SWAP1 PUSH2 0xD48 SWAP2 SWAP1 PUSH2 0x17CA JUMP JUMPDEST SWAP1 POP PUSH0 DUP2 PUSH2 0x2710 PUSH1 0x2 SLOAD DUP6 PUSH2 0xD5D SWAP2 SWAP1 PUSH2 0x1718 JUMP JUMPDEST PUSH2 0xD67 SWAP2 SWAP1 PUSH2 0x1786 JUMP JUMPDEST PUSH2 0xD71 SWAP2 SWAP1 PUSH2 0x194C JUMP JUMPDEST SWAP1 POP PUSH0 JUMPDEST PUSH1 0x3 DUP1 SLOAD SWAP1 POP DUP2 LT ISZERO PUSH2 0xEC9 JUMPI PUSH0 PUSH1 0x3 DUP3 DUP2 SLOAD DUP2 LT PUSH2 0xD97 JUMPI PUSH2 0xD96 PUSH2 0x197F JUMP JUMPDEST JUMPDEST SWAP1 PUSH0 MSTORE PUSH1 0x20 PUSH0 KECCAK256 ADD PUSH0 SWAP1 SLOAD SWAP1 PUSH2 0x100 EXP SWAP1 DIV PUSH20 0xFFFFFFFFFFFFFFFFFFFFFFFFFFFFFFFFFFFFFFFF AND SWAP1 POP PUSH0 DUP1 DUP5 GT ISZERO PUSH2 0xE78 JUMPI DUP4 PUSH1 0x5 PUSH0 DUP5 PUSH20 0xFFFFFFFFFFFFFFFFFFFFFFFFFFFFFFFFFFFFFFFF AND PUSH20 0xFFFFFFFFFFFFFFFFFFFFFFFFFFFFFFFFFFFFFFFF AND DUP2 MSTORE PUSH1 0x20 ADD SWAP1 DUP2 MSTORE PUSH1 0x20 ADD PUSH0 KECCAK256 SLOAD PUSH2 0x2710 PUSH1 0x2 SLOAD PUSH1 0x4 PUSH0 DUP8 PUSH20 0xFFFFFFFFFFFFFFFFFFFFFFFFFFFFFFFFFFFFFFFF AND PUSH20 0xFFFFFFFFFFFFFFFFFFFFFFFFFFFFFFFFFFFFFFFF AND DUP2 MSTORE PUSH1 0x20 ADD SWAP1 DUP2 MSTORE PUSH1 0x20 ADD PUSH0 KECCAK256 SLOAD PUSH2 0xE57 SWAP2 SWAP1 PUSH2 0x1718 JUMP JUMPDEST PUSH2 0xE61 SWAP2 SWAP1 PUSH2 0x1786 JUMP JUMPDEST PUSH2 0xE6B SWAP2 SWAP1 PUSH2 0x194C JUMP JUMPDEST PUSH2 0xE75 SWAP2 SWAP1 PUSH2 0x1786 JUMP JUMPDEST SWAP1 POP JUMPDEST DUP1 PUSH1 0x6 PUSH0 DUP5 PUSH20 0xFFFFFFFFFFFFFFFFFFFFFFFFFFFFFFFFFFFFFFFF AND PUSH20 0xFFFFFFFFFFFFFFFFFFFFFFFFFFFFFFFFFFFFFFFF AND DUP2 MSTORE PUSH1 0x20 ADD SWAP1 DUP2 MSTORE PUSH1 0x20 ADD PUSH0 KECCAK256 DUP2 SWAP1 SSTORE POP POP POP DUP1 DUP1 PUSH1 0x1 ADD SWAP2 POP POP PUSH2 0xD75 JUMP JUMPDEST POP POP POP POP POP POP POP POP POP POP JUMP JUMPDEST PUSH0 PUSH1 0x4 PUSH0 CALLER PUSH20 0xFFFFFFFFFFFFFFFFFFFFFFFFFFFFFFFFFFFFFFFF AND PUSH20 0xFFFFFFFFFFFFFFFFFFFFFFFFFFFFFFFFFFFFFFFF AND DUP2 MSTORE PUSH1 0x20 ADD SWAP1 DUP2 MSTORE PUSH1 0x20 ADD PUSH0 KECCAK256 SLOAD SWAP1 POP PUSH0 PUSH1 0x5 PUSH0 CALLER PUSH20 0xFFFFFFFFFFFFFFFFFFFFFFFFFFFFFFFFFFFFFFFF AND PUSH20 0xFFFFFFFFFFFFFFFFFFFFFFFFFFFFFFFFFFFFFFFF AND DUP2 MSTORE PUSH1 0x20 ADD SWAP1 DUP2 MSTORE PUSH1 0x20 ADD PUSH0 KECCAK256 SLOAD SWAP1 POP PUSH0 DUP1 PUSH0 SWAP1 SLOAD SWAP1 PUSH2 0x100 EXP SWAP1 DIV PUSH20 0xFFFFFFFFFFFFFFFFFFFFFFFFFFFFFFFFFFFFFFFF AND PUSH20 0xFFFFFFFFFFFFFFFFFFFFFFFFFFFFFFFFFFFFFFFF AND PUSH4 0x70A08231 ADDRESS PUSH1 0x40 MLOAD DUP3 PUSH4 0xFFFFFFFF AND PUSH1 0xE0 SHL DUP2 MSTORE PUSH1 0x4 ADD PUSH2 0xFB1 SWAP2 SWAP1 PUSH2 0x152A JUMP JUMPDEST PUSH1 0x20 PUSH1 0x40 MLOAD DUP1 DUP4 SUB DUP2 DUP7 GAS STATICCALL ISZERO DUP1 ISZERO PUSH2 0xFCC JUMPI RETURNDATASIZE PUSH0 DUP1 RETURNDATACOPY RETURNDATASIZE PUSH0 REVERT JUMPDEST POP POP POP POP PUSH1 0x40 MLOAD RETURNDATASIZE PUSH1 0x1F NOT PUSH1 0x1F DUP3 ADD AND DUP3 ADD DUP1 PUSH1 0x40 MSTORE POP DUP2 ADD SWAP1 PUSH2 0xFF0 SWAP2 SWAP1 PUSH2 0x17CA JUMP JUMPDEST SWAP1 POP PUSH0 PUSH1 0x1 PUSH0 SWAP1 SLOAD SWAP1 PUSH2 0x100 EXP SWAP1 DIV PUSH20 0xFFFFFFFFFFFFFFFFFFFFFFFFFFFFFFFFFFFFFFFF AND PUSH20 0xFFFFFFFFFFFFFFFFFFFFFFFFFFFFFFFFFFFFFFFF AND PUSH4 0x70A08231 ADDRESS PUSH1 0x40 MLOAD DUP3 PUSH4 0xFFFFFFFF AND PUSH1 0xE0 SHL DUP2 MSTORE PUSH1 0x4 ADD PUSH2 0x104D SWAP2 SWAP1 PUSH2 0x152A JUMP JUMPDEST PUSH1 0x20 PUSH1 0x40 MLOAD DUP1 DUP4 SUB DUP2 DUP7 GAS STATICCALL ISZERO DUP1 ISZERO PUSH2 0x1068 JUMPI RETURNDATASIZE PUSH0 DUP1 RETURNDATACOPY RETURNDATASIZE PUSH0 REVERT JUMPDEST POP POP POP POP PUSH1 0x40 MLOAD RETURNDATASIZE PUSH1 0x1F NOT PUSH1 0x1F DUP3 ADD AND DUP3 ADD DUP1 PUSH1 0x40 MSTORE POP DUP2 ADD SWAP1 PUSH2 0x108C SWAP2 SWAP1 PUSH2 0x17CA JUMP JUMPDEST SWAP1 POP PUSH0 DUP5 GT DUP1 PUSH2 0x109B JUMPI POP PUSH0 DUP4 GT JUMPDEST PUSH2 0x10DA JUMPI PUSH1 0x40 MLOAD PUSH32 0x8C379A000000000000000000000000000000000000000000000000000000000 DUP2 MSTORE PUSH1 0x4 ADD PUSH2 0x10D1 SWAP1 PUSH2 0x19F6 JUMP JUMPDEST PUSH1 0x40 MLOAD DUP1 SWAP2 SUB SWAP1 REVERT JUMPDEST PUSH0 PUSH1 0x6 PUSH0 CALLER PUSH20 0xFFFFFFFFFFFFFFFFFFFFFFFFFFFFFFFFFFFFFFFF AND PUSH20 0xFFFFFFFFFFFFFFFFFFFFFFFFFFFFFFFFFFFFFFFF AND DUP2 MSTORE PUSH1 0x20 ADD SWAP1 DUP2 MSTORE PUSH1 0x20 ADD PUSH0 KECCAK256 SLOAD DUP4 PUSH2 0x1124 SWAP2 SWAP1 PUSH2 0x1718 JUMP JUMPDEST SWAP1 POP PUSH0 PUSH1 0x6 PUSH0 CALLER PUSH20 0xFFFFFFFFFFFFFFFFFFFFFFFFFFFFFFFFFFFFFFFF AND PUSH20 0xFFFFFFFFFFFFFFFFFFFFFFFFFFFFFFFFFFFFFFFF AND DUP2 MSTORE PUSH1 0x20 ADD SWAP1 DUP2 MSTORE PUSH1 0x20 ADD PUSH0 KECCAK256 SLOAD DUP4 PUSH2 0x1170 SWAP2 SWAP1 PUSH2 0x1718 JUMP JUMPDEST SWAP1 POP PUSH0 DUP3 GT ISZERO PUSH2 0x1224 JUMPI PUSH0 DUP1 SLOAD SWAP1 PUSH2 0x100 EXP SWAP1 DIV PUSH20 0xFFFFFFFFFFFFFFFFFFFFFFFFFFFFFFFFFFFFFFFF AND PUSH20 0xFFFFFFFFFFFFFFFFFFFFFFFFFFFFFFFFFFFFFFFF AND PUSH4 0xA9059CBB CALLER DUP5 PUSH1 0x40 MLOAD DUP4 PUSH4 0xFFFFFFFF AND PUSH1 0xE0 SHL DUP2 MSTORE PUSH1 0x4 ADD PUSH2 0x11D4 SWAP3 SWAP2 SWAP1 PUSH2 0x1925 JUMP JUMPDEST PUSH1 0x20 PUSH1 0x40 MLOAD DUP1 DUP4 SUB DUP2 PUSH0 DUP8 GAS CALL ISZERO DUP1 ISZERO PUSH2 0x11F0 JUMPI RETURNDATASIZE PUSH0 DUP1 RETURNDATACOPY RETURNDATASIZE PUSH0 REVERT JUMPDEST POP POP POP POP PUSH1 0x40 MLOAD RETURNDATASIZE PUSH1 0x1F NOT PUSH1 0x1F DUP3 ADD AND DUP3 ADD DUP1 PUSH1 0x40 MSTORE POP DUP2 ADD SWAP1 PUSH2 0x1214 SWAP2 SWAP1 PUSH2 0x18C7 JUMP JUMPDEST POP DUP2 DUP5 PUSH2 0x1221 SWAP2 SWAP1 PUSH2 0x18F2 JUMP JUMPDEST SWAP4 POP JUMPDEST PUSH0 DUP2 GT ISZERO PUSH2 0x12D8 JUMPI PUSH1 0x1 PUSH0 SWAP1 SLOAD SWAP1 PUSH2 0x100 EXP SWAP1 DIV PUSH20 0xFFFFFFFFFFFFFFFFFFFFFFFFFFFFFFFFFFFFFFFF AND PUSH20 0xFFFFFFFFFFFFFFFFFFFFFFFFFFFFFFFFFFFFFFFF AND PUSH4 0xA9059CBB CALLER DUP4 PUSH1 0x40 MLOAD DUP4 PUSH4 0xFFFFFFFF AND PUSH1 0xE0 SHL DUP2 MSTORE PUSH1 0x4 ADD PUSH2 0x1288 SWAP3 SWAP2 SWAP1 PUSH2 0x1925 JUMP JUMPDEST PUSH1 0x20 PUSH1 0x40 MLOAD DUP1 DUP4 SUB DUP2 PUSH0 DUP8 GAS CALL ISZERO DUP1 ISZERO PUSH2 0x12A4 JUMPI RETURNDATASIZE PUSH0 DUP1 RETURNDATACOPY RETURNDATASIZE PUSH0 REVERT JUMPDEST POP POP POP POP PUSH1 0x40 MLOAD RETURNDATASIZE PUSH1 0x1F NOT PUSH1 0x1F DUP3 ADD AND DUP3 ADD DUP1 PUSH1 0x40 MSTORE POP DUP2 ADD SWAP1 PUSH2 0x12C8 SWAP2 SWAP1 PUSH2 0x18C7 JUMP JUMPDEST POP DUP1 DUP4 PUSH2 0x12D5 SWAP2 SWAP1 PUSH2 0x18F2 JUMP JUMPDEST SWAP3 POP JUMPDEST PUSH0 PUSH1 0x4 PUSH0 CALLER PUSH20 0xFFFFFFFFFFFFFFFFFFFFFFFFFFFFFFFFFFFFFFFF AND PUSH20 0xFFFFFFFFFFFFFFFFFFFFFFFFFFFFFFFFFFFFFFFF AND DUP2 MSTORE PUSH1 0x20 ADD SWAP1 DUP2 MSTORE PUSH1 0x20 ADD PUSH0 KECCAK256 DUP2 SWAP1 SSTORE POP PUSH0 PUSH1 0x5 PUSH0 CALLER PUSH20 0xFFFFFFFFFFFFFFFFFFFFFFFFFFFFFFFFFFFFFFFF AND PUSH20 0xFFFFFFFFFFFFFFFFFFFFFFFFFFFFFFFFFFFFFFFF AND DUP2 MSTORE PUSH1 0x20 ADD SWAP1 DUP2 MSTORE PUSH1 0x20 ADD PUSH0 KECCAK256 DUP2 SWAP1 SSTORE POP PUSH0 PUSH1 0x6 PUSH0 CALLER PUSH20 0xFFFFFFFFFFFFFFFFFFFFFFFFFFFFFFFFFFFFFFFF AND PUSH20 0xFFFFFFFFFFFFFFFFFFFFFFFFFFFFFFFFFFFFFFFF AND DUP2 MSTORE PUSH1 0x20 ADD SWAP1 DUP2 MSTORE PUSH1 0x20 ADD PUSH0 KECCAK256 DUP2 SWAP1 SSTORE POP POP POP POP POP POP POP JUMP JUMPDEST PUSH1 0x2 SLOAD DUP2 JUMP JUMPDEST PUSH1 0x1 PUSH0 SWAP1 SLOAD SWAP1 PUSH2 0x100 EXP SWAP1 DIV PUSH20 0xFFFFFFFFFFFFFFFFFFFFFFFFFFFFFFFFFFFFFFFF AND DUP2 JUMP JUMPDEST PUSH1 0x5 PUSH1 0x20 MSTORE DUP1 PUSH0 MSTORE PUSH1 0x40 PUSH0 KECCAK256 PUSH0 SWAP2 POP SWAP1 POP SLOAD DUP2 JUMP JUMPDEST PUSH0 DUP1 PUSH0 SWAP1 POP JUMPDEST PUSH1 0x3 DUP1 SLOAD SWAP1 POP DUP2 LT ISZERO PUSH2 0x147E JUMPI DUP3 PUSH20 0xFFFFFFFFFFFFFFFFFFFFFFFFFFFFFFFFFFFFFFFF AND PUSH1 0x3 DUP3 DUP2 SLOAD DUP2 LT PUSH2 0x1424 JUMPI PUSH2 0x1423 PUSH2 0x197F JUMP JUMPDEST JUMPDEST SWAP1 PUSH0 MSTORE PUSH1 0x20 PUSH0 KECCAK256 ADD PUSH0 SWAP1 SLOAD SWAP1 PUSH2 0x100 EXP SWAP1 DIV PUSH20 0xFFFFFFFFFFFFFFFFFFFFFFFFFFFFFFFFFFFFFFFF AND PUSH20 0xFFFFFFFFFFFFFFFFFFFFFFFFFFFFFFFFFFFFFFFF AND SUB PUSH2 0x1471 JUMPI PUSH1 0x1 SWAP2 POP POP PUSH2 0x1483 JUMP JUMPDEST DUP1 DUP1 PUSH1 0x1 ADD SWAP2 POP POP PUSH2 0x13EC JUMP JUMPDEST POP PUSH0 SWAP1 POP JUMPDEST SWAP2 SWAP1 POP JUMP JUMPDEST PUSH1 0x3 DUP2 SWAP1 DUP1 PUSH1 0x1 DUP2 SLOAD ADD DUP1 DUP3 SSTORE DUP1 SWAP2 POP POP PUSH1 0x1 SWAP1 SUB SWAP1 PUSH0 MSTORE PUSH1 0x20 PUSH0 KECCAK256 ADD PUSH0 SWAP1 SWAP2 SWAP1 SWAP2 SWAP1 SWAP2 PUSH2 0x100 EXP DUP2 SLOAD DUP2 PUSH20 0xFFFFFFFFFFFFFFFFFFFFFFFFFFFFFFFFFFFFFFFF MUL NOT AND SWAP1 DUP4 PUSH20 0xFFFFFFFFFFFFFFFFFFFFFFFFFFFFFFFFFFFFFFFF AND MUL OR SWAP1 SSTORE POP POP JUMP JUMPDEST PUSH0 PUSH20 0xFFFFFFFFFFFFFFFFFFFFFFFFFFFFFFFFFFFFFFFF DUP3 AND SWAP1 POP SWAP2 SWAP1 POP JUMP JUMPDEST PUSH0 PUSH2 0x1514 DUP3 PUSH2 0x14EB JUMP JUMPDEST SWAP1 POP SWAP2 SWAP1 POP JUMP JUMPDEST PUSH2 0x1524 DUP2 PUSH2 0x150A JUMP JUMPDEST DUP3 MSTORE POP POP JUMP JUMPDEST PUSH0 PUSH1 0x20 DUP3 ADD SWAP1 POP PUSH2 0x153D PUSH0 DUP4 ADD DUP5 PUSH2 0x151B JUMP JUMPDEST SWAP3 SWAP2 POP POP JUMP JUMPDEST PUSH0 DUP1 REVERT JUMPDEST PUSH2 0x1550 DUP2 PUSH2 0x150A JUMP JUMPDEST DUP2 EQ PUSH2 0x155A JUMPI PUSH0 DUP1 REVERT JUMPDEST POP JUMP JUMPDEST PUSH0 DUP2 CALLDATALOAD SWAP1 POP PUSH2 0x156B DUP2 PUSH2 0x1547 JUMP JUMPDEST SWAP3 SWAP2 POP POP JUMP JUMPDEST PUSH0 PUSH1 0x20 DUP3 DUP5 SUB SLT ISZERO PUSH2 0x1586 JUMPI PUSH2 0x1585 PUSH2 0x1543 JUMP JUMPDEST JUMPDEST PUSH0 PUSH2 0x1593 DUP5 DUP3 DUP6 ADD PUSH2 0x155D JUMP JUMPDEST SWAP2 POP POP SWAP3 SWAP2 POP POP JUMP JUMPDEST PUSH0 DUP2 SWAP1 POP SWAP2 SWAP1 POP JUMP JUMPDEST PUSH2 0x15AE DUP2 PUSH2 0x159C JUMP JUMPDEST DUP3 MSTORE POP POP JUMP JUMPDEST PUSH0 PUSH1 0x20 DUP3 ADD SWAP1 POP PUSH2 0x15C7 PUSH0 DUP4 ADD DUP5 PUSH2 0x15A5 JUMP JUMPDEST SWAP3 SWAP2 POP POP JUMP JUMPDEST PUSH2 0x15D6 DUP2 PUSH2 0x159C JUMP JUMPDEST DUP2 EQ PUSH2 0x15E0 JUMPI PUSH0 DUP1 REVERT JUMPDEST POP JUMP JUMPDEST PUSH0 DUP2 CALLDATALOAD SWAP1 POP PUSH2 0x15F1 DUP2 PUSH2 0x15CD JUMP JUMPDEST SWAP3 SWAP2 POP POP JUMP JUMPDEST PUSH0 DUP1 PUSH1 0x40 DUP4 DUP6 SUB SLT ISZERO PUSH2 0x160D JUMPI PUSH2 0x160C PUSH2 0x1543 JUMP JUMPDEST JUMPDEST PUSH0 PUSH2 0x161A DUP6 DUP3 DUP7 ADD PUSH2 0x155D JUMP JUMPDEST SWAP3 POP POP PUSH1 0x20 PUSH2 0x162B DUP6 DUP3 DUP7 ADD PUSH2 0x15E3 JUMP JUMPDEST SWAP2 POP POP SWAP3 POP SWAP3 SWAP1 POP JUMP JUMPDEST PUSH0 DUP1 PUSH1 0x40 DUP4 DUP6 SUB SLT ISZERO PUSH2 0x164B JUMPI PUSH2 0x164A PUSH2 0x1543 JUMP JUMPDEST JUMPDEST PUSH0 PUSH2 0x1658 DUP6 DUP3 DUP7 ADD PUSH2 0x15E3 JUMP JUMPDEST SWAP3 POP POP PUSH1 0x20 PUSH2 0x1669 DUP6 DUP3 DUP7 ADD PUSH2 0x15E3 JUMP JUMPDEST SWAP2 POP POP SWAP3 POP SWAP3 SWAP1 POP JUMP JUMPDEST PUSH0 DUP3 DUP3 MSTORE PUSH1 0x20 DUP3 ADD SWAP1 POP SWAP3 SWAP2 POP POP JUMP JUMPDEST PUSH32 0x496E76616C696420746F6B656E00000000000000000000000000000000000000 PUSH0 DUP3 ADD MSTORE POP JUMP JUMPDEST PUSH0 PUSH2 0x16B7 PUSH1 0xD DUP4 PUSH2 0x1673 JUMP JUMPDEST SWAP2 POP PUSH2 0x16C2 DUP3 PUSH2 0x1683 JUMP JUMPDEST PUSH1 0x20 DUP3 ADD SWAP1 POP SWAP2 SWAP1 POP JUMP JUMPDEST PUSH0 PUSH1 0x20 DUP3 ADD SWAP1 POP DUP2 DUP2 SUB PUSH0 DUP4 ADD MSTORE PUSH2 0x16E4 DUP2 PUSH2 0x16AB JUMP JUMPDEST SWAP1 POP SWAP2 SWAP1 POP JUMP JUMPDEST PUSH32 0x4E487B7100000000000000000000000000000000000000000000000000000000 PUSH0 MSTORE PUSH1 0x11 PUSH1 0x4 MSTORE PUSH1 0x24 PUSH0 REVERT JUMPDEST PUSH0 PUSH2 0x1722 DUP3 PUSH2 0x159C JUMP JUMPDEST SWAP2 POP PUSH2 0x172D DUP4 PUSH2 0x159C JUMP JUMPDEST SWAP3 POP DUP3 DUP3 MUL PUSH2 0x173B DUP2 PUSH2 0x159C JUMP JUMPDEST SWAP2 POP DUP3 DUP3 DIV DUP5 EQ DUP4 ISZERO OR PUSH2 0x1752 JUMPI PUSH2 0x1751 PUSH2 0x16EB JUMP JUMPDEST JUMPDEST POP SWAP3 SWAP2 POP POP JUMP JUMPDEST PUSH32 0x4E487B7100000000000000000000000000000000000000000000000000000000 PUSH0 MSTORE PUSH1 0x12 PUSH1 0x4 MSTORE PUSH1 0x24 PUSH0 REVERT JUMPDEST PUSH0 PUSH2 0x1790 DUP3 PUSH2 0x159C JUMP JUMPDEST SWAP2 POP PUSH2 0x179B DUP4 PUSH2 0x159C JUMP JUMPDEST SWAP3 POP DUP3 PUSH2 0x17AB JUMPI PUSH2 0x17AA PUSH2 0x1759 JUMP JUMPDEST JUMPDEST DUP3 DUP3 DIV SWAP1 POP SWAP3 SWAP2 POP POP JUMP JUMPDEST PUSH0 DUP2 MLOAD SWAP1 POP PUSH2 0x17C4 DUP2 PUSH2 0x15CD JUMP JUMPDEST SWAP3 SWAP2 POP POP JUMP JUMPDEST PUSH0 PUSH1 0x20 DUP3 DUP5 SUB SLT ISZERO PUSH2 0x17DF JUMPI PUSH2 0x17DE PUSH2 0x1543 JUMP JUMPDEST JUMPDEST PUSH0 PUSH2 0x17EC DUP5 DUP3 DUP6 ADD PUSH2 0x17B6 JUMP JUMPDEST SWAP2 POP POP SWAP3 SWAP2 POP POP JUMP JUMPDEST PUSH32 0x496E73756666696369656E742062616C616E6365000000000000000000000000 PUSH0 DUP3 ADD MSTORE POP JUMP JUMPDEST PUSH0 PUSH2 0x1829 PUSH1 0x14 DUP4 PUSH2 0x1673 JUMP JUMPDEST SWAP2 POP PUSH2 0x1834 DUP3 PUSH2 0x17F5 JUMP JUMPDEST PUSH1 0x20 DUP3 ADD SWAP1 POP SWAP2 SWAP1 POP JUMP JUMPDEST PUSH0 PUSH1 0x20 DUP3 ADD SWAP1 POP DUP2 DUP2 SUB PUSH0 DUP4 ADD MSTORE PUSH2 0x1856 DUP2 PUSH2 0x181D JUMP JUMPDEST SWAP1 POP SWAP2 SWAP1 POP JUMP JUMPDEST PUSH0 PUSH1 0x60 DUP3 ADD SWAP1 POP PUSH2 0x1870 PUSH0 DUP4 ADD DUP7 PUSH2 0x151B JUMP JUMPDEST PUSH2 0x187D PUSH1 0x20 DUP4 ADD DUP6 PUSH2 0x151B JUMP JUMPDEST PUSH2 0x188A PUSH1 0x40 DUP4 ADD DUP5 PUSH2 0x15A5 JUMP JUMPDEST SWAP5 SWAP4 POP POP POP POP JUMP JUMPDEST PUSH0 DUP2 ISZERO ISZERO SWAP1 POP SWAP2 SWAP1 POP JUMP JUMPDEST PUSH2 0x18A6 DUP2 PUSH2 0x1892 JUMP JUMPDEST DUP2 EQ PUSH2 0x18B0 JUMPI PUSH0 DUP1 REVERT JUMPDEST POP JUMP JUMPDEST PUSH0 DUP2 MLOAD SWAP1 POP PUSH2 0x18C1 DUP2 PUSH2 0x189D JUMP JUMPDEST SWAP3 SWAP2 POP POP JUMP JUMPDEST PUSH0 PUSH1 0x20 DUP3 DUP5 SUB SLT ISZERO PUSH2 0x18DC JUMPI PUSH2 0x18DB PUSH2 0x1543 JUMP JUMPDEST JUMPDEST PUSH0 PUSH2 0x18E9 DUP5 DUP3 DUP6 ADD PUSH2 0x18B3 JUMP JUMPDEST SWAP2 POP POP SWAP3 SWAP2 POP POP JUMP JUMPDEST PUSH0 PUSH2 0x18FC DUP3 PUSH2 0x159C JUMP JUMPDEST SWAP2 POP PUSH2 0x1907 DUP4 PUSH2 0x159C JUMP JUMPDEST SWAP3 POP DUP3 DUP3 SUB SWAP1 POP DUP2 DUP2 GT ISZERO PUSH2 0x191F JUMPI PUSH2 0x191E PUSH2 0x16EB JUMP JUMPDEST JUMPDEST SWAP3 SWAP2 POP POP JUMP JUMPDEST PUSH0 PUSH1 0x40 DUP3 ADD SWAP1 POP PUSH2 0x1938 PUSH0 DUP4 ADD DUP6 PUSH2 0x151B JUMP JUMPDEST PUSH2 0x1945 PUSH1 0x20 DUP4 ADD DUP5 PUSH2 0x15A5 JUMP JUMPDEST SWAP4 SWAP3 POP POP POP JUMP JUMPDEST PUSH0 PUSH2 0x1956 DUP3 PUSH2 0x159C JUMP JUMPDEST SWAP2 POP PUSH2 0x1961 DUP4 PUSH2 0x159C JUMP JUMPDEST SWAP3 POP DUP3 DUP3 ADD SWAP1 POP DUP1 DUP3 GT ISZERO PUSH2 0x1979 JUMPI PUSH2 0x1978 PUSH2 0x16EB JUMP JUMPDEST JUMPDEST SWAP3 SWAP2 POP POP JUMP JUMPDEST PUSH32 0x4E487B7100000000000000000000000000000000000000000000000000000000 PUSH0 MSTORE PUSH1 0x32 PUSH1 0x4 MSTORE PUSH1 0x24 PUSH0 REVERT JUMPDEST PUSH32 0x4E6F206C697175696469747920617661696C61626C6500000000000000000000 PUSH0 DUP3 ADD MSTORE POP JUMP JUMPDEST PUSH0 PUSH2 0x19E0 PUSH1 0x16 DUP4 PUSH2 0x1673 JUMP JUMPDEST SWAP2 POP PUSH2 0x19EB DUP3 PUSH2 0x19AC JUMP JUMPDEST PUSH1 0x20 DUP3 ADD SWAP1 POP SWAP2 SWAP1 POP JUMP JUMPDEST PUSH0 PUSH1 0x20 DUP3 ADD SWAP1 POP DUP2 DUP2 SUB PUSH0 DUP4 ADD MSTORE PUSH2 0x1A0D DUP2 PUSH2 0x19D4 JUMP JUMPDEST SWAP1 POP SWAP2 SWAP1 POP JUMP INVALID LOG2 PUSH5 0x6970667358 0x22 SLT KECCAK256 PUSH10 0x366F038BCA58474F5F6F 0xDB 0xD9 SHL PUSH12 0x4E0D01CBF59F6EAE61B1E812 SAR 0xD2 EXTCODEHASH PUSH4 0x8D64736F PUSH13 0x63430008180033000000000000 "
				},
				"gasEstimates": {
					"creation": {
						"codeDepositCost": "1346000",
						"executionCost": "infinite",
						"totalCost": "infinite"
					},
					"external": {
						"conversionRate()": "2469",
						"provideLiquidity(uint256,uint256)": "infinite",
						"token0()": "2506",
						"token1()": "2574",
						"trade(address,uint256)": "infinite",
						"userLiquidityPercentage(address)": "2847",
						"userToken0Balance(address)": "2825",
						"userToken1Balance(address)": "2890",
						"withdrawLiquidity()": "infinite"
					},
					"internal": {
						"addUserToList(address)": "48590",
						"isUserInList(address)": "infinite"
					}
				},
				"methodIdentifiers": {
					"conversionRate()": "7ffdf53e",
					"provideLiquidity(uint256,uint256)": "7a16af7f",
					"token0()": "0dfe1681",
					"token1()": "d21220a7",
					"trade(address,uint256)": "68f8c2a4",
					"userLiquidityPercentage(address)": "6342ba4c",
					"userToken0Balance(address)": "575da5e3",
					"userToken1Balance(address)": "d991ee4a",
					"withdrawLiquidity()": "7ea382c1"
				}
			},
			"storageLayout": {
				"storage": [
					{
						"astId": 82,
						"contract": "Lab3_MalikDAHMANI/Contrat.sol:MyContract",
						"label": "token0",
						"offset": 0,
						"slot": "0",
						"type": "t_address"
					},
					{
						"astId": 84,
						"contract": "Lab3_MalikDAHMANI/Contrat.sol:MyContract",
						"label": "token1",
						"offset": 0,
						"slot": "1",
						"type": "t_address"
					},
					{
						"astId": 86,
						"contract": "Lab3_MalikDAHMANI/Contrat.sol:MyContract",
						"label": "conversionRate",
						"offset": 0,
						"slot": "2",
						"type": "t_uint256"
					},
					{
						"astId": 89,
						"contract": "Lab3_MalikDAHMANI/Contrat.sol:MyContract",
						"label": "userList",
						"offset": 0,
						"slot": "3",
						"type": "t_array(t_address)dyn_storage"
					},
					{
						"astId": 93,
						"contract": "Lab3_MalikDAHMANI/Contrat.sol:MyContract",
						"label": "userToken0Balance",
						"offset": 0,
						"slot": "4",
						"type": "t_mapping(t_address,t_uint256)"
					},
					{
						"astId": 97,
						"contract": "Lab3_MalikDAHMANI/Contrat.sol:MyContract",
						"label": "userToken1Balance",
						"offset": 0,
						"slot": "5",
						"type": "t_mapping(t_address,t_uint256)"
					},
					{
						"astId": 101,
						"contract": "Lab3_MalikDAHMANI/Contrat.sol:MyContract",
						"label": "userLiquidityPercentage",
						"offset": 0,
						"slot": "6",
						"type": "t_mapping(t_address,t_uint256)"
					}
				],
				"types": {
					"t_address": {
						"encoding": "inplace",
						"label": "address",
						"numberOfBytes": "20"
					},
					"t_array(t_address)dyn_storage": {
						"base": "t_address",
						"encoding": "dynamic_array",
						"label": "address[]",
						"numberOfBytes": "32"
					},
					"t_mapping(t_address,t_uint256)": {
						"encoding": "mapping",
						"key": "t_address",
						"label": "mapping(address => uint256)",
						"numberOfBytes": "32",
						"value": "t_uint256"
					},
					"t_uint256": {
						"encoding": "inplace",
						"label": "uint256",
						"numberOfBytes": "32"
					}
				}
			},
			"userdoc": {
				"kind": "user",
				"methods": {},
				"version": 1
			}
		}
	}
}